{
  "_format": "hh-sol-artifact-1",
  "contractName": "Gift",
  "sourceName": "contracts/gifts.sol",
  "abi": [
    {
      "inputs": [
        {
          "internalType": "address",
          "name": "authorAddress",
          "type": "address"
        }
      ],
      "name": "getAuthorGifters",
      "outputs": [
        {
          "components": [
            {
              "internalType": "address",
              "name": "userAddress",
              "type": "address"
            },
            {
              "internalType": "address",
              "name": "authorAddress",
              "type": "address"
            },
            {
              "internalType": "string",
              "name": "articleSlug",
              "type": "string"
            },
            {
              "internalType": "uint256",
              "name": "amount",
              "type": "uint256"
            },
            {
              "internalType": "uint256",
              "name": "createdAt",
              "type": "uint256"
            }
          ],
          "internalType": "struct Gift.IGift[]",
          "name": "",
          "type": "tuple[]"
        }
      ],
      "stateMutability": "view",
      "type": "function"
    },
    {
      "inputs": [
        {
          "internalType": "uint256",
          "name": "index",
          "type": "uint256"
        }
      ],
      "name": "getGift",
      "outputs": [
        {
          "components": [
            {
              "internalType": "address",
              "name": "userAddress",
              "type": "address"
            },
            {
              "internalType": "address",
              "name": "authorAddress",
              "type": "address"
            },
            {
              "internalType": "string",
              "name": "articleSlug",
              "type": "string"
            },
            {
              "internalType": "uint256",
              "name": "amount",
              "type": "uint256"
            },
            {
              "internalType": "uint256",
              "name": "createdAt",
              "type": "uint256"
            }
          ],
          "internalType": "struct Gift.IGift",
          "name": "",
          "type": "tuple"
        }
      ],
      "stateMutability": "view",
      "type": "function"
    },
    {
      "inputs": [],
      "name": "getGifts",
      "outputs": [
        {
          "components": [
            {
              "internalType": "address",
              "name": "userAddress",
              "type": "address"
            },
            {
              "internalType": "address",
              "name": "authorAddress",
              "type": "address"
            },
            {
              "internalType": "string",
              "name": "articleSlug",
              "type": "string"
            },
            {
              "internalType": "uint256",
              "name": "amount",
              "type": "uint256"
            },
            {
              "internalType": "uint256",
              "name": "createdAt",
              "type": "uint256"
            }
          ],
          "internalType": "struct Gift.IGift[]",
          "name": "",
          "type": "tuple[]"
        }
      ],
      "stateMutability": "view",
      "type": "function"
    },
    {
      "inputs": [
        {
          "internalType": "uint256",
          "name": "",
          "type": "uint256"
        }
      ],
      "name": "giftCollection",
      "outputs": [
        {
          "internalType": "address",
          "name": "userAddress",
          "type": "address"
        },
        {
          "internalType": "address",
          "name": "authorAddress",
          "type": "address"
        },
        {
          "internalType": "string",
          "name": "articleSlug",
          "type": "string"
        },
        {
          "internalType": "uint256",
          "name": "amount",
          "type": "uint256"
        },
        {
          "internalType": "uint256",
          "name": "createdAt",
          "type": "uint256"
        }
      ],
      "stateMutability": "view",
      "type": "function"
    },
    {
      "inputs": [
        {
          "internalType": "address",
          "name": "",
          "type": "address"
        },
        {
          "internalType": "string",
          "name": "",
          "type": "string"
        }
      ],
      "name": "hasGifted",
      "outputs": [
        {
          "internalType": "bool",
          "name": "",
          "type": "bool"
        }
      ],
      "stateMutability": "view",
      "type": "function"
    },
    {
      "inputs": [],
      "name": "no_of_gifters",
      "outputs": [
        {
          "internalType": "uint256",
          "name": "",
          "type": "uint256"
        }
      ],
      "stateMutability": "view",
      "type": "function"
    },
    {
      "inputs": [
        {
          "internalType": "string",
          "name": "_articleSlug",
          "type": "string"
        },
        {
          "internalType": "uint256",
          "name": "_amount",
          "type": "uint256"
        }
      ],
      "name": "sendGift",
      "outputs": [],
      "stateMutability": "payable",
      "type": "function"
    }
  ],
  "bytecode": "0x60806040526000805534801561001457600080fd5b50611a81806100246000396000f3fe6080604052600436106100705760003560e01c806352bf5b9a1161004e57806352bf5b9a1461010b5780639334fc4e14610136578063bf6713f614610177578063d6fa21e0146101b457610070565b80631874880f146100755780631cbf563b146100915780634b0b2972146100ce575b600080fd5b61008f600480360381019061008a9190610fd7565b6101df565b005b34801561009d57600080fd5b506100b860048036038101906100b39190611091565b6105f7565b6040516100c59190611108565b60405180910390f35b3480156100da57600080fd5b506100f560048036038101906100f09190611123565b61063c565b6040516101029190611325565b60405180910390f35b34801561011757600080fd5b506101206108b3565b60405161012d9190611356565b60405180910390f35b34801561014257600080fd5b5061015d60048036038101906101589190611371565b6108b9565b60405161016e9594939291906113f7565b60405180910390f35b34801561018357600080fd5b5061019e60048036038101906101999190611371565b6109b7565b6040516101ab91906114c7565b60405180910390f35b3480156101c057600080fd5b506101c9610be1565b6040516101d69190611325565b60405180910390f35b600460003373ffffffffffffffffffffffffffffffffffffffff1673ffffffffffffffffffffffffffffffffffffffff1681526020019081526020016000208260405161022c9190611525565b908152602001604051809103902060009054906101000a900460ff1615610288576040517f08c379a000000000000000000000000000000000000000000000000000000000815260040161027f906115ae565b60405180910390fd5b6001600460003373ffffffffffffffffffffffffffffffffffffffff1673ffffffffffffffffffffffffffffffffffffffff168152602001908152602001600020836040516102d79190611525565b908152602001604051809103902060006101000a81548160ff0219169083151502179055506000600160009054906101000a900473ffffffffffffffffffffffffffffffffffffffff1673ffffffffffffffffffffffffffffffffffffffff1663bac32e48846040518263ffffffff1660e01b815260040161035991906115ce565b602060405180830381865afa158015610376573d6000803e3d6000fd5b505050506040513d601f19601f8201168201806040525081019061039a9190611605565b9050600260009054906101000a900473ffffffffffffffffffffffffffffffffffffffff1673ffffffffffffffffffffffffffffffffffffffff1663e59646728383856040518463ffffffff1660e01b81526004016103fa929190611632565b6000604051808303818588803b15801561041357600080fd5b505af1158015610427573d6000803e3d6000fd5b5050505050600160009054906101000a900473ffffffffffffffffffffffffffffffffffffffff1673ffffffffffffffffffffffffffffffffffffffff1663d4d1ecf8846040518263ffffffff1660e01b815260040161048791906115ce565b600060405180830381600087803b1580156104a157600080fd5b505af11580156104b5573d6000803e3d6000fd5b505050506040518060a001604052803373ffffffffffffffffffffffffffffffffffffffff1681526020018273ffffffffffffffffffffffffffffffffffffffff16815260200184815260200183815260200142815250600360008054815260200190815260200160002060008201518160000160006101000a81548173ffffffffffffffffffffffffffffffffffffffff021916908373ffffffffffffffffffffffffffffffffffffffff16021790555060208201518160010160006101000a81548173ffffffffffffffffffffffffffffffffffffffff021916908373ffffffffffffffffffffffffffffffffffffffff16021790555060408201518160020190816105c39190611867565b5060608201518160030155608082015181600401559050506000808154809291906105ed90611968565b9190505550505050565b6004602052816000526040600020818051602081018201805184825260208301602085012081835280955050505050506000915091509054906101000a900460ff1681565b60606000805467ffffffffffffffff81111561065b5761065a610e76565b5b60405190808252806020026020018201604052801561069457816020015b610681610dec565b8152602001906001900390816106795790505b50905060005b6000548110156108a9578373ffffffffffffffffffffffffffffffffffffffff166003600083815260200190815260200160002060010160009054906101000a900473ffffffffffffffffffffffffffffffffffffffff1673ffffffffffffffffffffffffffffffffffffffff160361089c57600360008281526020019081526020016000206040518060a00160405290816000820160009054906101000a900473ffffffffffffffffffffffffffffffffffffffff1673ffffffffffffffffffffffffffffffffffffffff1673ffffffffffffffffffffffffffffffffffffffff1681526020016001820160009054906101000a900473ffffffffffffffffffffffffffffffffffffffff1673ffffffffffffffffffffffffffffffffffffffff1673ffffffffffffffffffffffffffffffffffffffff1681526020016002820180546107e79061168a565b80601f01602080910402602001604051908101604052809291908181526020018280546108139061168a565b80156108605780601f1061083557610100808354040283529160200191610860565b820191906000526020600020905b81548152906001019060200180831161084357829003601f168201915b50505050508152602001600382015481526020016004820154815250508282815181106108905761088f6119b0565b5b60200260200101819052505b808060010191505061069a565b5080915050919050565b60005481565b60036020528060005260406000206000915090508060000160009054906101000a900473ffffffffffffffffffffffffffffffffffffffff16908060010160009054906101000a900473ffffffffffffffffffffffffffffffffffffffff16908060020180546109289061168a565b80601f01602080910402602001604051908101604052809291908181526020018280546109549061168a565b80156109a15780601f10610976576101008083540402835291602001916109a1565b820191906000526020600020905b81548152906001019060200180831161098457829003601f168201915b5050505050908060030154908060040154905085565b6109bf610dec565b600073ffffffffffffffffffffffffffffffffffffffff166003600084815260200190815260200160002060010160009054906101000a900473ffffffffffffffffffffffffffffffffffffffff1673ffffffffffffffffffffffffffffffffffffffff1603610a64576040517f08c379a0000000000000000000000000000000000000000000000000000000008152600401610a5b90611a2b565b60405180910390fd5b6000600360008481526020019081526020016000206040518060a00160405290816000820160009054906101000a900473ffffffffffffffffffffffffffffffffffffffff1673ffffffffffffffffffffffffffffffffffffffff1673ffffffffffffffffffffffffffffffffffffffff1681526020016001820160009054906101000a900473ffffffffffffffffffffffffffffffffffffffff1673ffffffffffffffffffffffffffffffffffffffff1673ffffffffffffffffffffffffffffffffffffffff168152602001600282018054610b409061168a565b80601f0160208091040260200160405190810160405280929190818152602001828054610b6c9061168a565b8015610bb95780601f10610b8e57610100808354040283529160200191610bb9565b820191906000526020600020905b815481529060010190602001808311610b9c57829003601f168201915b5050505050815260200160038201548152602001600482015481525050905080915050919050565b60606000805467ffffffffffffffff811115610c0057610bff610e76565b5b604051908082528060200260200182016040528015610c3957816020015b610c26610dec565b815260200190600190039081610c1e5790505b50905060005b600054811015610de457600360008281526020019081526020016000206040518060a00160405290816000820160009054906101000a900473ffffffffffffffffffffffffffffffffffffffff1673ffffffffffffffffffffffffffffffffffffffff1673ffffffffffffffffffffffffffffffffffffffff1681526020016001820160009054906101000a900473ffffffffffffffffffffffffffffffffffffffff1673ffffffffffffffffffffffffffffffffffffffff1673ffffffffffffffffffffffffffffffffffffffff168152602001600282018054610d239061168a565b80601f0160208091040260200160405190810160405280929190818152602001828054610d4f9061168a565b8015610d9c5780601f10610d7157610100808354040283529160200191610d9c565b820191906000526020600020905b815481529060010190602001808311610d7f57829003601f168201915b5050505050815260200160038201548152602001600482015481525050828281518110610dcc57610dcb6119b0565b5b60200260200101819052508080600101915050610c3f565b508091505090565b6040518060a00160405280600073ffffffffffffffffffffffffffffffffffffffff168152602001600073ffffffffffffffffffffffffffffffffffffffff1681526020016060815260200160008152602001600081525090565b6000604051905090565b600080fd5b600080fd5b600080fd5b600080fd5b6000601f19601f8301169050919050565b7f4e487b7100000000000000000000000000000000000000000000000000000000600052604160045260246000fd5b610eae82610e65565b810181811067ffffffffffffffff82111715610ecd57610ecc610e76565b5b80604052505050565b6000610ee0610e47565b9050610eec8282610ea5565b919050565b600067ffffffffffffffff821115610f0c57610f0b610e76565b5b610f1582610e65565b9050602081019050919050565b82818337600083830152505050565b6000610f44610f3f84610ef1565b610ed6565b905082815260208101848484011115610f6057610f5f610e60565b5b610f6b848285610f22565b509392505050565b600082601f830112610f8857610f87610e5b565b5b8135610f98848260208601610f31565b91505092915050565b6000819050919050565b610fb481610fa1565b8114610fbf57600080fd5b50565b600081359050610fd181610fab565b92915050565b60008060408385031215610fee57610fed610e51565b5b600083013567ffffffffffffffff81111561100c5761100b610e56565b5b61101885828601610f73565b925050602061102985828601610fc2565b9150509250929050565b600073ffffffffffffffffffffffffffffffffffffffff82169050919050565b600061105e82611033565b9050919050565b61106e81611053565b811461107957600080fd5b50565b60008135905061108b81611065565b92915050565b600080604083850312156110a8576110a7610e51565b5b60006110b68582860161107c565b925050602083013567ffffffffffffffff8111156110d7576110d6610e56565b5b6110e385828601610f73565b9150509250929050565b60008115159050919050565b611102816110ed565b82525050565b600060208201905061111d60008301846110f9565b92915050565b60006020828403121561113957611138610e51565b5b60006111478482850161107c565b91505092915050565b600081519050919050565b600082825260208201905092915050565b6000819050602082019050919050565b61118581611053565b82525050565b600081519050919050565b600082825260208201905092915050565b60005b838110156111c55780820151818401526020810190506111aa565b60008484015250505050565b60006111dc8261118b565b6111e68185611196565b93506111f68185602086016111a7565b6111ff81610e65565b840191505092915050565b61121381610fa1565b82525050565b600060a083016000830151611231600086018261117c565b506020830151611244602086018261117c565b506040830151848203604086015261125c82826111d1565b9150506060830151611271606086018261120a565b506080830151611284608086018261120a565b508091505092915050565b600061129b8383611219565b905092915050565b6000602082019050919050565b60006112bb82611150565b6112c5818561115b565b9350836020820285016112d78561116c565b8060005b8581101561131357848403895281516112f4858261128f565b94506112ff836112a3565b925060208a019950506001810190506112db565b50829750879550505050505092915050565b6000602082019050818103600083015261133f81846112b0565b905092915050565b61135081610fa1565b82525050565b600060208201905061136b6000830184611347565b92915050565b60006020828403121561138757611386610e51565b5b600061139584828501610fc2565b91505092915050565b6113a781611053565b82525050565b600082825260208201905092915050565b60006113c98261118b565b6113d381856113ad565b93506113e38185602086016111a7565b6113ec81610e65565b840191505092915050565b600060a08201905061140c600083018861139e565b611419602083018761139e565b818103604083015261142b81866113be565b905061143a6060830185611347565b6114476080830184611347565b9695505050505050565b600060a083016000830151611469600086018261117c565b50602083015161147c602086018261117c565b506040830151848203604086015261149482826111d1565b91505060608301516114a9606086018261120a565b5060808301516114bc608086018261120a565b508091505092915050565b600060208201905081810360008301526114e18184611451565b905092915050565b600081905092915050565b60006114ff8261118b565b61150981856114e9565b93506115198185602086016111a7565b80840191505092915050565b600061153182846114f4565b915081905092915050565b7f596f75206861766520616c72656164792067696674656420746869732061727460008201527f69636c6500000000000000000000000000000000000000000000000000000000602082015250565b60006115986024836113ad565b91506115a38261153c565b604082019050919050565b600060208201905081810360008301526115c78161158b565b9050919050565b600060208201905081810360008301526115e881846113be565b905092915050565b6000815190506115ff81611065565b92915050565b60006020828403121561161b5761161a610e51565b5b6000611629848285016115f0565b91505092915050565b6000604082019050611647600083018561139e565b6116546020830184611347565b9392505050565b7f4e487b7100000000000000000000000000000000000000000000000000000000600052602260045260246000fd5b600060028204905060018216806116a257607f821691505b6020821081036116b5576116b461165b565b5b50919050565b60008190508160005260206000209050919050565b60006020601f8301049050919050565b600082821b905092915050565b60006008830261171d7fffffffffffffffffffffffffffffffffffffffffffffffffffffffffffffffff826116e0565b61172786836116e0565b95508019841693508086168417925050509392505050565b6000819050919050565b600061176461175f61175a84610fa1565b61173f565b610fa1565b9050919050565b6000819050919050565b61177e83611749565b61179261178a8261176b565b8484546116ed565b825550505050565b600090565b6117a761179a565b6117b2818484611775565b505050565b5b818110156117d6576117cb60008261179f565b6001810190506117b8565b5050565b601f82111561181b576117ec816116bb565b6117f5846116d0565b81016020851015611804578190505b611818611810856116d0565b8301826117b7565b50505b505050565b600082821c905092915050565b600061183e60001984600802611820565b1980831691505092915050565b6000611857838361182d565b9150826002028217905092915050565b6118708261118b565b67ffffffffffffffff81111561188957611888610e76565b5b611893825461168a565b61189e8282856117da565b600060209050601f8311600181146118d157600084156118bf578287015190505b6118c9858261184b565b865550611931565b601f1984166118df866116bb565b60005b82811015611907578489015182556001820191506020850194506020810190506118e2565b868310156119245784890151611920601f89168261182d565b8355505b6001600288020188555050505b505050505050565b7f4e487b7100000000000000000000000000000000000000000000000000000000600052601160045260246000fd5b600061197382610fa1565b91507fffffffffffffffffffffffffffffffffffffffffffffffffffffffffffffffff82036119a5576119a4611939565b5b600182019050919050565b7f4e487b7100000000000000000000000000000000000000000000000000000000600052603260045260246000fd5b7f496e76616c696420476966740000000000000000000000000000000000000000600082015250565b6000611a15600c836113ad565b9150611a20826119df565b602082019050919050565b60006020820190508181036000830152611a4481611a08565b905091905056fea264697066735822122031960fef9723935e1f4c60e330de89d870bf65b7a97e247c29d6aaa1b78e1d2d64736f6c63430008180033",
  "linkReferences": {},
  "deployedLinkReferences": {}
}