{
  "_format": "hh-sol-artifact-1",
  "contractName": "Article",
  "sourceName": "contracts/articles.sol",
  "abi": [
    {
      "inputs": [
        {
          "internalType": "address",
          "name": "_authorContractAddress",
          "type": "address"
        }
      ],
      "stateMutability": "nonpayable",
      "type": "constructor"
    },
    {
      "inputs": [
        {
          "internalType": "address",
          "name": "_authorAddress",
          "type": "address"
        },
        {
          "internalType": "string",
          "name": "_title",
          "type": "string"
        },
        {
          "internalType": "string",
          "name": "_imageCID",
          "type": "string"
        },
        {
          "internalType": "string",
          "name": "_description",
          "type": "string"
        },
        {
          "internalType": "string[]",
          "name": "_tags",
          "type": "string[]"
        },
        {
          "internalType": "string",
          "name": "_content",
          "type": "string"
        }
      ],
      "name": "addArticle",
      "outputs": [],
      "stateMutability": "payable",
      "type": "function"
    },
    {
      "inputs": [
        {
          "internalType": "uint256",
          "name": "",
          "type": "uint256"
        }
      ],
      "name": "articleSlugs",
      "outputs": [
        {
          "internalType": "string",
          "name": "",
          "type": "string"
        }
      ],
      "stateMutability": "view",
      "type": "function"
    },
    {
      "inputs": [
        {
          "internalType": "string",
          "name": "",
          "type": "string"
        }
      ],
      "name": "articles",
      "outputs": [
        {
          "internalType": "uint256",
          "name": "id",
          "type": "uint256"
        },
        {
          "internalType": "string",
          "name": "imageCID",
          "type": "string"
        },
        {
          "internalType": "string",
          "name": "title",
          "type": "string"
        },
        {
          "internalType": "string",
          "name": "slug",
          "type": "string"
        },
        {
          "internalType": "string",
          "name": "description",
          "type": "string"
        },
        {
          "internalType": "string",
          "name": "content",
          "type": "string"
        },
        {
          "internalType": "string",
          "name": "authorName",
          "type": "string"
        },
        {
          "internalType": "address",
          "name": "authorAddress",
          "type": "address"
        },
        {
          "internalType": "uint256",
          "name": "gifts",
          "type": "uint256"
        },
        {
          "internalType": "uint256",
          "name": "createdAt",
          "type": "uint256"
        }
      ],
      "stateMutability": "view",
      "type": "function"
    },
    {
      "inputs": [],
      "name": "author",
      "outputs": [
        {
          "internalType": "contract Author",
          "name": "",
          "type": "address"
        }
      ],
      "stateMutability": "view",
      "type": "function"
    },
    {
      "inputs": [
        {
          "internalType": "string",
          "name": "_slug",
          "type": "string"
        }
      ],
      "name": "deleteArticle",
      "outputs": [],
      "stateMutability": "nonpayable",
      "type": "function"
    },
    {
      "inputs": [
        {
          "internalType": "address",
          "name": "_authorAddress",
          "type": "address"
        },
        {
          "internalType": "string",
          "name": "_slug",
          "type": "string"
        },
        {
          "internalType": "string",
          "name": "_newTitle",
          "type": "string"
        },
        {
          "internalType": "string",
          "name": "_newImageCID",
          "type": "string"
        },
        {
          "internalType": "string",
          "name": "_newDescription",
          "type": "string"
        },
        {
          "internalType": "string[]",
          "name": "_newTags",
          "type": "string[]"
        },
        {
          "internalType": "string",
          "name": "_newContent",
          "type": "string"
        }
      ],
      "name": "editArticle",
      "outputs": [],
      "stateMutability": "nonpayable",
      "type": "function"
    },
    {
      "inputs": [
        {
          "internalType": "string",
          "name": "_slug",
          "type": "string"
        }
      ],
      "name": "getArticle",
      "outputs": [
        {
          "components": [
            {
              "internalType": "uint256",
              "name": "id",
              "type": "uint256"
            },
            {
              "internalType": "string",
              "name": "imageCID",
              "type": "string"
            },
            {
              "internalType": "string",
              "name": "title",
              "type": "string"
            },
            {
              "internalType": "string",
              "name": "slug",
              "type": "string"
            },
            {
              "internalType": "string",
              "name": "description",
              "type": "string"
            },
            {
              "internalType": "string[]",
              "name": "tags",
              "type": "string[]"
            },
            {
              "internalType": "string",
              "name": "content",
              "type": "string"
            },
            {
              "internalType": "string",
              "name": "authorName",
              "type": "string"
            },
            {
              "internalType": "address",
              "name": "authorAddress",
              "type": "address"
            },
            {
              "internalType": "uint256",
              "name": "gifts",
              "type": "uint256"
            },
            {
              "internalType": "uint256",
              "name": "createdAt",
              "type": "uint256"
            }
          ],
          "internalType": "struct Article.IArticle",
          "name": "",
          "type": "tuple"
        }
      ],
      "stateMutability": "view",
      "type": "function"
    },
    {
      "inputs": [
        {
          "internalType": "string",
          "name": "_articleSlug",
          "type": "string"
        }
      ],
      "name": "getArticleAuthor",
      "outputs": [
        {
          "internalType": "address",
          "name": "",
          "type": "address"
        }
      ],
      "stateMutability": "view",
      "type": "function"
    },
    {
      "inputs": [
        {
          "internalType": "string",
          "name": "_range",
          "type": "string"
        }
      ],
      "name": "getArticles",
      "outputs": [
        {
          "components": [
            {
              "internalType": "uint256",
              "name": "id",
              "type": "uint256"
            },
            {
              "internalType": "string",
              "name": "imageCID",
              "type": "string"
            },
            {
              "internalType": "string",
              "name": "title",
              "type": "string"
            },
            {
              "internalType": "string",
              "name": "slug",
              "type": "string"
            },
            {
              "internalType": "string",
              "name": "description",
              "type": "string"
            },
            {
              "internalType": "string[]",
              "name": "tags",
              "type": "string[]"
            },
            {
              "internalType": "string",
              "name": "content",
              "type": "string"
            },
            {
              "internalType": "string",
              "name": "authorName",
              "type": "string"
            },
            {
              "internalType": "address",
              "name": "authorAddress",
              "type": "address"
            },
            {
              "internalType": "uint256",
              "name": "gifts",
              "type": "uint256"
            },
            {
              "internalType": "uint256",
              "name": "createdAt",
              "type": "uint256"
            }
          ],
          "internalType": "struct Article.IArticle[]",
          "name": "",
          "type": "tuple[]"
        }
      ],
      "stateMutability": "view",
      "type": "function"
    },
    {
      "inputs": [],
      "name": "getNoOfArticles",
      "outputs": [
        {
          "internalType": "uint256",
          "name": "",
          "type": "uint256"
        }
      ],
      "stateMutability": "view",
      "type": "function"
    },
    {
      "inputs": [
        {
          "internalType": "string",
          "name": "_articleSlug",
          "type": "string"
        }
      ],
      "name": "incrementArticleGifts",
      "outputs": [],
      "stateMutability": "nonpayable",
      "type": "function"
    },
    {
      "inputs": [],
      "name": "no_of_articles",
      "outputs": [
        {
          "internalType": "uint256",
          "name": "",
          "type": "uint256"
        }
      ],
      "stateMutability": "view",
      "type": "function"
    }
  ],
  "bytecode": "0x6080604052600080553480156200001557600080fd5b50604051620041913803806200419183398181016040528101906200003b9190620000ed565b80600160006101000a81548173ffffffffffffffffffffffffffffffffffffffff021916908373ffffffffffffffffffffffffffffffffffffffff160217905550506200011f565b600080fd5b600073ffffffffffffffffffffffffffffffffffffffff82169050919050565b6000620000b58262000088565b9050919050565b620000c781620000a8565b8114620000d357600080fd5b50565b600081519050620000e781620000bc565b92915050565b60006020828403121562000106576200010562000083565b5b60006200011684828501620000d6565b91505092915050565b614062806200012f6000396000f3fe6080604052600436106100a75760003560e01c8063a466666511610064578063a4666665146101eb578063a6c3e6b914610228578063bac32e4814610253578063d4d1ecf814610290578063e3fc079d146102b9578063e5a3004c146102d5576100a7565b80630df20508146100ac57806330467819146100e95780633af3830514610114578063788e1e621461013d57806378bdf338146101685780637c702b8d146101a5575b600080fd5b3480156100b857600080fd5b506100d360048036038101906100ce9190612715565b6102fe565b6040516100e091906127d2565b60405180910390f35b3480156100f557600080fd5b506100fe6103aa565b60405161010b9190612803565b60405180910390f35b34801561012057600080fd5b5061013b60048036038101906101369190612953565b6103b3565b005b34801561014957600080fd5b50610152610675565b60405161015f9190612803565b60405180910390f35b34801561017457600080fd5b5061018f600480360381019061018a9190612953565b61067b565b60405161019c9190612cd3565b60405180910390f35b3480156101b157600080fd5b506101cc60048036038101906101c79190612953565b610d58565b6040516101e29a99989796959493929190612d04565b60405180910390f35b3480156101f757600080fd5b50610212600480360381019061020d9190612953565b611112565b60405161021f9190612ee3565b60405180910390f35b34801561023457600080fd5b5061023d6116ba565b60405161024a9190612f64565b60405180910390f35b34801561025f57600080fd5b5061027a60048036038101906102759190612953565b6116e0565b6040516102879190612f7f565b60405180910390f35b34801561029c57600080fd5b506102b760048036038101906102b29190612953565b6117da565b005b6102d360048036038101906102ce91906130ac565b6118c4565b005b3480156102e157600080fd5b506102fc60048036038101906102f791906131c5565b611c57565b005b6002818154811061030e57600080fd5b9060005260206000200160009150905080546103299061333e565b80601f01602080910402602001604051908101604052809291908181526020018280546103559061333e565b80156103a25780601f10610377576101008083540402835291602001916103a2565b820191906000526020600020905b81548152906001019060200180831161038557829003601f168201915b505050505081565b60008054905090565b600073ffffffffffffffffffffffffffffffffffffffff166003826040516103db91906133ab565b908152602001604051809103902060080160009054906101000a900473ffffffffffffffffffffffffffffffffffffffff1673ffffffffffffffffffffffffffffffffffffffff1603610463576040517f08c379a000000000000000000000000000000000000000000000000000000000815260040161045a90613434565b60405180910390fd5b60038160405161047391906133ab565b908152602001604051809103902060008082016000905560018201600061049a9190612503565b6002820160006104aa9190612503565b6003820160006104ba9190612503565b6004820160006104ca9190612503565b6005820160006104da9190612543565b6006820160006104ea9190612503565b6007820160006104fa9190612503565b6008820160006101000a81549073ffffffffffffffffffffffffffffffffffffffff02191690556009820160009055600a820160009055505060005b60028054905081101561064f578160405160200161055491906133ab565b604051602081830303815290604052805190602001206002828154811061057e5761057d613454565b5b90600052602060002001604051602001610598919061351b565b604051602081830303815290604052805190602001200361064257600260016002805490506105c79190613561565b815481106105d8576105d7613454565b5b90600052602060002001600282815481106105f6576105f5613454565b5b90600052602060002001908161060c919061374d565b50600280548061061f5761061e613835565b5b60019003818190600052602060002001600061063b9190612503565b905561064f565b8080600101915050610536565b506000805411156106725760008081548092919061066c90613864565b91905055505b50565b60005481565b606060008260405160200161069091906133ab565b60405160208183030381529060405280519060200120905060006040516020016106b9906138d9565b6040516020818303038152906040528051906020012082036106e05762015180905061078b565b6040516020016106ef9061393a565b6040516020818303038152906040528051906020012082036107165762278d00905061078a565b6040516020016107259061399b565b60405160208183030381529060405280519060200120820361074c576203f4809050610789565b60405160200161075b906139fc565b604051602081830303815290604052805190602001208203610783576301e133809050610788565b600090505b5b5b5b6000805467ffffffffffffffff8111156107a8576107a7612828565b5b6040519080825280602002602001820160405280156107e157816020015b6107ce612564565b8152602001906001900390816107c65790505b509050600042905060005b600054811015610d4b57600060036002838154811061080e5761080d613454565b5b90600052602060002001604051610825919061351b565b90815260200160405180910390209050600085148061085357508481600a0154846108509190613561565b11155b15610d3d5780604051806101600160405290816000820154815260200160018201805461087f9061333e565b80601f01602080910402602001604051908101604052809291908181526020018280546108ab9061333e565b80156108f85780601f106108cd576101008083540402835291602001916108f8565b820191906000526020600020905b8154815290600101906020018083116108db57829003601f168201915b505050505081526020016002820180546109119061333e565b80601f016020809104026020016040519081016040528092919081815260200182805461093d9061333e565b801561098a5780601f1061095f5761010080835404028352916020019161098a565b820191906000526020600020905b81548152906001019060200180831161096d57829003601f168201915b505050505081526020016003820180546109a39061333e565b80601f01602080910402602001604051908101604052809291908181526020018280546109cf9061333e565b8015610a1c5780601f106109f157610100808354040283529160200191610a1c565b820191906000526020600020905b8154815290600101906020018083116109ff57829003601f168201915b50505050508152602001600482018054610a359061333e565b80601f0160208091040260200160405190810160405280929190818152602001828054610a619061333e565b8015610aae5780601f10610a8357610100808354040283529160200191610aae565b820191906000526020600020905b815481529060010190602001808311610a9157829003601f168201915b5050505050815260200160058201805480602002602001604051908101604052809291908181526020016000905b82821015610b88578382906000526020600020018054610afb9061333e565b80601f0160208091040260200160405190810160405280929190818152602001828054610b279061333e565b8015610b745780601f10610b4957610100808354040283529160200191610b74565b820191906000526020600020905b815481529060010190602001808311610b5757829003601f168201915b505050505081526020019060010190610adc565b505050508152602001600682018054610ba09061333e565b80601f0160208091040260200160405190810160405280929190818152602001828054610bcc9061333e565b8015610c195780601f10610bee57610100808354040283529160200191610c19565b820191906000526020600020905b815481529060010190602001808311610bfc57829003601f168201915b50505050508152602001600782018054610c329061333e565b80601f0160208091040260200160405190810160405280929190818152602001828054610c5e9061333e565b8015610cab5780601f10610c8057610100808354040283529160200191610cab565b820191906000526020600020905b815481529060010190602001808311610c8e57829003601f168201915b505050505081526020016008820160009054906101000a900473ffffffffffffffffffffffffffffffffffffffff1673ffffffffffffffffffffffffffffffffffffffff1673ffffffffffffffffffffffffffffffffffffffff16815260200160098201548152602001600a82015481525050848381518110610d3157610d30613454565b5b60200260200101819052505b5080806001019150506107ec565b5081945050505050919050565b600381805160208101820180518482526020830160208501208183528095505050505050600091509050806000015490806001018054610d979061333e565b80601f0160208091040260200160405190810160405280929190818152602001828054610dc39061333e565b8015610e105780601f10610de557610100808354040283529160200191610e10565b820191906000526020600020905b815481529060010190602001808311610df357829003601f168201915b505050505090806002018054610e259061333e565b80601f0160208091040260200160405190810160405280929190818152602001828054610e519061333e565b8015610e9e5780601f10610e7357610100808354040283529160200191610e9e565b820191906000526020600020905b815481529060010190602001808311610e8157829003601f168201915b505050505090806003018054610eb39061333e565b80601f0160208091040260200160405190810160405280929190818152602001828054610edf9061333e565b8015610f2c5780601f10610f0157610100808354040283529160200191610f2c565b820191906000526020600020905b815481529060010190602001808311610f0f57829003601f168201915b505050505090806004018054610f419061333e565b80601f0160208091040260200160405190810160405280929190818152602001828054610f6d9061333e565b8015610fba5780601f10610f8f57610100808354040283529160200191610fba565b820191906000526020600020905b815481529060010190602001808311610f9d57829003601f168201915b505050505090806006018054610fcf9061333e565b80601f0160208091040260200160405190810160405280929190818152602001828054610ffb9061333e565b80156110485780601f1061101d57610100808354040283529160200191611048565b820191906000526020600020905b81548152906001019060200180831161102b57829003601f168201915b50505050509080600701805461105d9061333e565b80601f01602080910402602001604051908101604052809291908181526020018280546110899061333e565b80156110d65780601f106110ab576101008083540402835291602001916110d6565b820191906000526020600020905b8154815290600101906020018083116110b957829003601f168201915b5050505050908060080160009054906101000a900473ffffffffffffffffffffffffffffffffffffffff169080600901549080600a015490508a565b61111a612564565b600073ffffffffffffffffffffffffffffffffffffffff1660038360405161114291906133ab565b908152602001604051809103902060080160009054906101000a900473ffffffffffffffffffffffffffffffffffffffff1673ffffffffffffffffffffffffffffffffffffffff16036111ca576040517f08c379a00000000000000000000000000000000000000000000000000000000081526004016111c190613434565b60405180910390fd5b60006003836040516111dc91906133ab565b908152602001604051809103902060405180610160016040529081600082015481526020016001820180546112109061333e565b80601f016020809104026020016040519081016040528092919081815260200182805461123c9061333e565b80156112895780601f1061125e57610100808354040283529160200191611289565b820191906000526020600020905b81548152906001019060200180831161126c57829003601f168201915b505050505081526020016002820180546112a29061333e565b80601f01602080910402602001604051908101604052809291908181526020018280546112ce9061333e565b801561131b5780601f106112f05761010080835404028352916020019161131b565b820191906000526020600020905b8154815290600101906020018083116112fe57829003601f168201915b505050505081526020016003820180546113349061333e565b80601f01602080910402602001604051908101604052809291908181526020018280546113609061333e565b80156113ad5780601f10611382576101008083540402835291602001916113ad565b820191906000526020600020905b81548152906001019060200180831161139057829003601f168201915b505050505081526020016004820180546113c69061333e565b80601f01602080910402602001604051908101604052809291908181526020018280546113f29061333e565b801561143f5780601f106114145761010080835404028352916020019161143f565b820191906000526020600020905b81548152906001019060200180831161142257829003601f168201915b5050505050815260200160058201805480602002602001604051908101604052809291908181526020016000905b8282101561151957838290600052602060002001805461148c9061333e565b80601f01602080910402602001604051908101604052809291908181526020018280546114b89061333e565b80156115055780601f106114da57610100808354040283529160200191611505565b820191906000526020600020905b8154815290600101906020018083116114e857829003601f168201915b50505050508152602001906001019061146d565b5050505081526020016006820180546115319061333e565b80601f016020809104026020016040519081016040528092919081815260200182805461155d9061333e565b80156115aa5780601f1061157f576101008083540402835291602001916115aa565b820191906000526020600020905b81548152906001019060200180831161158d57829003601f168201915b505050505081526020016007820180546115c39061333e565b80601f01602080910402602001604051908101604052809291908181526020018280546115ef9061333e565b801561163c5780601f106116115761010080835404028352916020019161163c565b820191906000526020600020905b81548152906001019060200180831161161f57829003601f168201915b505050505081526020016008820160009054906101000a900473ffffffffffffffffffffffffffffffffffffffff1673ffffffffffffffffffffffffffffffffffffffff1673ffffffffffffffffffffffffffffffffffffffff16815260200160098201548152602001600a82015481525050905080915050919050565b600160009054906101000a900473ffffffffffffffffffffffffffffffffffffffff1681565b60008073ffffffffffffffffffffffffffffffffffffffff1660038360405161170991906133ab565b908152602001604051809103902060080160009054906101000a900473ffffffffffffffffffffffffffffffffffffffff1673ffffffffffffffffffffffffffffffffffffffff1603611791576040517f08c379a000000000000000000000000000000000000000000000000000000000815260040161178890613434565b60405180910390fd5b6003826040516117a191906133ab565b908152602001604051809103902060080160009054906101000a900473ffffffffffffffffffffffffffffffffffffffff169050919050565b600073ffffffffffffffffffffffffffffffffffffffff1660038260405161180291906133ab565b908152602001604051809103902060080160009054906101000a900473ffffffffffffffffffffffffffffffffffffffff1673ffffffffffffffffffffffffffffffffffffffff160361188a576040517f08c379a000000000000000000000000000000000000000000000000000000000815260040161188190613434565b60405180910390fd5b60038160405161189a91906133ab565b908152602001604051809103902060090160008154809291906118bc90613a11565b919050555050565b60006118cf86612232565b9050600073ffffffffffffffffffffffffffffffffffffffff166003826040516118f991906133ab565b908152602001604051809103902060080160009054906101000a900473ffffffffffffffffffffffffffffffffffffffff1673ffffffffffffffffffffffffffffffffffffffff1614611981576040517f08c379a000000000000000000000000000000000000000000000000000000000815260040161197890613acb565b60405180910390fd5b6000600160009054906101000a900473ffffffffffffffffffffffffffffffffffffffff1673ffffffffffffffffffffffffffffffffffffffff16630ab30093896040518263ffffffff1660e01b81526004016119de9190612f7f565b600060405180830381865afa1580156119fb573d6000803e3d6000fd5b505050506040513d6000823e3d601f19601f82011682018060405250810190611a249190613c83565b9050600081602001515111611a6e576040517f08c379a0000000000000000000000000000000000000000000000000000000008152600401611a6590613d18565b60405180910390fd5b6040518061016001604052806000548152602001878152602001888152602001838152602001868152602001858152602001848152602001826020015181526020018973ffffffffffffffffffffffffffffffffffffffff1681526020016000815260200142815250600383604051611ae791906133ab565b9081526020016040518091039020600082015181600001556020820151816001019081611b149190613d38565b506040820151816002019081611b2a9190613d38565b506060820151816003019081611b409190613d38565b506080820151816004019081611b569190613d38565b5060a0820151816005019080519060200190611b739291906125d4565b5060c0820151816006019081611b899190613d38565b5060e0820151816007019081611b9f9190613d38565b506101008201518160080160006101000a81548173ffffffffffffffffffffffffffffffffffffffff021916908373ffffffffffffffffffffffffffffffffffffffff160217905550610120820151816009015561014082015181600a0155905050600282908060018154018082558091505060019003906000526020600020016000909190919091509081611c359190613d38565b50600080815480929190611c4890613a11565b91905055505050505050505050565b600073ffffffffffffffffffffffffffffffffffffffff16600387604051611c7f91906133ab565b908152602001604051809103902060080160009054906101000a900473ffffffffffffffffffffffffffffffffffffffff1673ffffffffffffffffffffffffffffffffffffffff1603611d07576040517f08c379a0000000000000000000000000000000000000000000000000000000008152600401611cfe90613434565b60405180910390fd5b8673ffffffffffffffffffffffffffffffffffffffff16600387604051611d2e91906133ab565b908152602001604051809103902060080160009054906101000a900473ffffffffffffffffffffffffffffffffffffffff1673ffffffffffffffffffffffffffffffffffffffff1614611db6576040517f08c379a0000000000000000000000000000000000000000000000000000000008152600401611dad90613e7c565b60405180910390fd5b6000600387604051611dc891906133ab565b9081526020016040518091039020905085816002019081611de99190613d38565b5084816001019081611dfb9190613d38565b5083816004019081611e0d9190613d38565b5082816005019080519060200190611e269291906125d4565b5081816006019081611e389190613d38565b506000611e4487612232565b905087604051602001611e5791906133ab565b6040516020818303038152906040528051906020012081604051602001611e7e91906133ab565b604051602081830303815290604052805190602001201461222757600073ffffffffffffffffffffffffffffffffffffffff16600382604051611ec191906133ab565b908152602001604051809103902060080160009054906101000a900473ffffffffffffffffffffffffffffffffffffffff1673ffffffffffffffffffffffffffffffffffffffff1614611f49576040517f08c379a0000000000000000000000000000000000000000000000000000000008152600401611f4090613f0e565b60405180910390fd5b81600382604051611f5a91906133ab565b90815260200160405180910390206000820154816000015560018201816001019081611f869190613f44565b5060028201816002019081611f9b9190613f44565b5060038201816003019081611fb09190613f44565b5060048201816004019081611fc59190613f44565b506005820181600501908054611fdc92919061262d565b5060068201816006019081611ff19190613f44565b50600782018160070190816120069190613f44565b506008820160009054906101000a900473ffffffffffffffffffffffffffffffffffffffff168160080160006101000a81548173ffffffffffffffffffffffffffffffffffffffff021916908373ffffffffffffffffffffffffffffffffffffffff16021790555060098201548160090155600a82015481600a015590505060038860405161209591906133ab565b90815260200160405180910390206000808201600090556001820160006120bc9190612503565b6002820160006120cc9190612503565b6003820160006120dc9190612503565b6004820160006120ec9190612503565b6005820160006120fc9190612543565b60068201600061210c9190612503565b60078201600061211c9190612503565b6008820160006101000a81549073ffffffffffffffffffffffffffffffffffffffff02191690556009820160009055600a8201600090555050808260030190816121669190613d38565b5060005b600280549050811015612225578860405160200161218891906133ab565b60405160208183030381529060405280519060200120600282815481106121b2576121b1613454565b5b906000526020600020016040516020016121cc919061351b565b60405160208183030381529060405280519060200120036122185781600282815481106121fc576121fb613454565b5b9060005260206000200190816122129190613d38565b50612225565b808060010191505061216a565b505b505050505050505050565b606060008290506000815167ffffffffffffffff81111561225657612255612828565b5b6040519080825280601f01601f1916602001820160405280156122885781602001600182028036833780820191505090505b50905060005b82518110156124f85760008382815181106122ac576122ab613454565b5b602001015160f81c60f81b9050602060f81b817effffffffffffffffffffffffffffffffffffffffffffffffffffffffffffff19160361233257602d60f81b8383815181106122fe576122fd613454565b5b60200101907effffffffffffffffffffffffffffffffffffffffffffffffffffffffffffff1916908160001a9053506124ea565b603060f81b817effffffffffffffffffffffffffffffffffffffffffffffffffffffffffffff19161015801561238e5750603960f81b817effffffffffffffffffffffffffffffffffffffffffffffffffffffffffffff191611155b806123f15750604160f81b817effffffffffffffffffffffffffffffffffffffffffffffffffffffffffffff1916101580156123f05750605a60f81b817effffffffffffffffffffffffffffffffffffffffffffffffffffffffffffff191611155b5b806124545750606160f81b817effffffffffffffffffffffffffffffffffffffffffffffffffffffffffffff1916101580156124535750607a60f81b817effffffffffffffffffffffffffffffffffffffffffffffffffffffffffffff191611155b5b156124a1578083838151811061246d5761246c613454565b5b60200101907effffffffffffffffffffffffffffffffffffffffffffffffffffffffffffff1916908160001a9053506124e9565b602d60f81b8383815181106124b9576124b8613454565b5b60200101907effffffffffffffffffffffffffffffffffffffffffffffffffffffffffffff1916908160001a9053505b5b50808060010191505061228e565b508092505050919050565b50805461250f9061333e565b6000825580601f106125215750612540565b601f01602090049060005260206000209081019061253f919061268a565b5b50565b508054600082559060005260206000209081019061256191906126a7565b50565b6040518061016001604052806000815260200160608152602001606081526020016060815260200160608152602001606081526020016060815260200160608152602001600073ffffffffffffffffffffffffffffffffffffffff16815260200160008152602001600081525090565b82805482825590600052602060002090810192821561261c579160200282015b8281111561261b57825182908161260b9190613d38565b50916020019190600101906125f4565b5b50905061262991906126a7565b5090565b8280548282559060005260206000209081019282156126795760005260206000209182015b8281111561267857828290816126689190613f44565b5091600101919060010190612652565b5b50905061268691906126a7565b5090565b5b808211156126a357600081600090555060010161268b565b5090565b5b808211156126c757600081816126be9190612503565b506001016126a8565b5090565b6000604051905090565b600080fd5b600080fd5b6000819050919050565b6126f2816126df565b81146126fd57600080fd5b50565b60008135905061270f816126e9565b92915050565b60006020828403121561272b5761272a6126d5565b5b600061273984828501612700565b91505092915050565b600081519050919050565b600082825260208201905092915050565b60005b8381101561277c578082015181840152602081019050612761565b60008484015250505050565b6000601f19601f8301169050919050565b60006127a482612742565b6127ae818561274d565b93506127be81856020860161275e565b6127c781612788565b840191505092915050565b600060208201905081810360008301526127ec8184612799565b905092915050565b6127fd816126df565b82525050565b600060208201905061281860008301846127f4565b92915050565b600080fd5b600080fd5b7f4e487b7100000000000000000000000000000000000000000000000000000000600052604160045260246000fd5b61286082612788565b810181811067ffffffffffffffff8211171561287f5761287e612828565b5b80604052505050565b60006128926126cb565b905061289e8282612857565b919050565b600067ffffffffffffffff8211156128be576128bd612828565b5b6128c782612788565b9050602081019050919050565b82818337600083830152505050565b60006128f66128f1846128a3565b612888565b90508281526020810184848401111561291257612911612823565b5b61291d8482856128d4565b509392505050565b600082601f83011261293a5761293961281e565b5b813561294a8482602086016128e3565b91505092915050565b600060208284031215612969576129686126d5565b5b600082013567ffffffffffffffff811115612987576129866126da565b5b61299384828501612925565b91505092915050565b600081519050919050565b600082825260208201905092915050565b6000819050602082019050919050565b6129d1816126df565b82525050565b600082825260208201905092915050565b60006129f382612742565b6129fd81856129d7565b9350612a0d81856020860161275e565b612a1681612788565b840191505092915050565b600081519050919050565b600082825260208201905092915050565b6000819050602082019050919050565b6000612a5983836129e8565b905092915050565b6000602082019050919050565b6000612a7982612a21565b612a838185612a2c565b935083602082028501612a9585612a3d565b8060005b85811015612ad15784840389528151612ab28582612a4d565b9450612abd83612a61565b925060208a01995050600181019050612a99565b50829750879550505050505092915050565b600073ffffffffffffffffffffffffffffffffffffffff82169050919050565b6000612b0e82612ae3565b9050919050565b612b1e81612b03565b82525050565b600061016083016000830151612b3d60008601826129c8565b5060208301518482036020860152612b5582826129e8565b91505060408301518482036040860152612b6f82826129e8565b91505060608301518482036060860152612b8982826129e8565b91505060808301518482036080860152612ba382826129e8565b91505060a083015184820360a0860152612bbd8282612a6e565b91505060c083015184820360c0860152612bd782826129e8565b91505060e083015184820360e0860152612bf182826129e8565b915050610100830151612c08610100860182612b15565b50610120830151612c1d6101208601826129c8565b50610140830151612c326101408601826129c8565b508091505092915050565b6000612c498383612b24565b905092915050565b6000602082019050919050565b6000612c698261299c565b612c7381856129a7565b935083602082028501612c85856129b8565b8060005b85811015612cc15784840389528151612ca28582612c3d565b9450612cad83612c51565b925060208a01995050600181019050612c89565b50829750879550505050505092915050565b60006020820190508181036000830152612ced8184612c5e565b905092915050565b612cfe81612b03565b82525050565b600061014082019050612d1a600083018d6127f4565b8181036020830152612d2c818c612799565b90508181036040830152612d40818b612799565b90508181036060830152612d54818a612799565b90508181036080830152612d688189612799565b905081810360a0830152612d7c8188612799565b905081810360c0830152612d908187612799565b9050612d9f60e0830186612cf5565b612dad6101008301856127f4565b612dbb6101208301846127f4565b9b9a5050505050505050505050565b600061016083016000830151612de360008601826129c8565b5060208301518482036020860152612dfb82826129e8565b91505060408301518482036040860152612e1582826129e8565b91505060608301518482036060860152612e2f82826129e8565b91505060808301518482036080860152612e4982826129e8565b91505060a083015184820360a0860152612e638282612a6e565b91505060c083015184820360c0860152612e7d82826129e8565b91505060e083015184820360e0860152612e9782826129e8565b915050610100830151612eae610100860182612b15565b50610120830151612ec36101208601826129c8565b50610140830151612ed86101408601826129c8565b508091505092915050565b60006020820190508181036000830152612efd8184612dca565b905092915050565b6000819050919050565b6000612f2a612f25612f2084612ae3565b612f05565b612ae3565b9050919050565b6000612f3c82612f0f565b9050919050565b6000612f4e82612f31565b9050919050565b612f5e81612f43565b82525050565b6000602082019050612f796000830184612f55565b92915050565b6000602082019050612f946000830184612cf5565b92915050565b612fa381612b03565b8114612fae57600080fd5b50565b600081359050612fc081612f9a565b92915050565b600067ffffffffffffffff821115612fe157612fe0612828565b5b602082029050602081019050919050565b600080fd5b600061300a61300584612fc6565b612888565b9050808382526020820190506020840283018581111561302d5761302c612ff2565b5b835b8181101561307457803567ffffffffffffffff8111156130525761305161281e565b5b80860161305f8982612925565b8552602085019450505060208101905061302f565b5050509392505050565b600082601f8301126130935761309261281e565b5b81356130a3848260208601612ff7565b91505092915050565b60008060008060008060c087890312156130c9576130c86126d5565b5b60006130d789828a01612fb1565b965050602087013567ffffffffffffffff8111156130f8576130f76126da565b5b61310489828a01612925565b955050604087013567ffffffffffffffff811115613125576131246126da565b5b61313189828a01612925565b945050606087013567ffffffffffffffff811115613152576131516126da565b5b61315e89828a01612925565b935050608087013567ffffffffffffffff81111561317f5761317e6126da565b5b61318b89828a0161307e565b92505060a087013567ffffffffffffffff8111156131ac576131ab6126da565b5b6131b889828a01612925565b9150509295509295509295565b600080600080600080600060e0888a0312156131e4576131e36126d5565b5b60006131f28a828b01612fb1565b975050602088013567ffffffffffffffff811115613213576132126126da565b5b61321f8a828b01612925565b965050604088013567ffffffffffffffff8111156132405761323f6126da565b5b61324c8a828b01612925565b955050606088013567ffffffffffffffff81111561326d5761326c6126da565b5b6132798a828b01612925565b945050608088013567ffffffffffffffff81111561329a576132996126da565b5b6132a68a828b01612925565b93505060a088013567ffffffffffffffff8111156132c7576132c66126da565b5b6132d38a828b0161307e565b92505060c088013567ffffffffffffffff8111156132f4576132f36126da565b5b6133008a828b01612925565b91505092959891949750929550565b7f4e487b7100000000000000000000000000000000000000000000000000000000600052602260045260246000fd5b6000600282049050600182168061335657607f821691505b6020821081036133695761336861330f565b5b50919050565b600081905092915050565b600061338582612742565b61338f818561336f565b935061339f81856020860161275e565b80840191505092915050565b60006133b7828461337a565b915081905092915050565b7f41727469636c652077697468207468697320736c756720646f6573206e6f742060008201527f6578697374000000000000000000000000000000000000000000000000000000602082015250565b600061341e60258361274d565b9150613429826133c2565b604082019050919050565b6000602082019050818103600083015261344d81613411565b9050919050565b7f4e487b7100000000000000000000000000000000000000000000000000000000600052603260045260246000fd5b60008190508160005260206000209050919050565b600081546134a58161333e565b6134af818661336f565b945060018216600081146134ca57600181146134df57613512565b60ff1983168652811515820286019350613512565b6134e885613483565b60005b8381101561350a578154818901526001820191506020810190506134eb565b838801955050505b50505092915050565b60006135278284613498565b915081905092915050565b7f4e487b7100000000000000000000000000000000000000000000000000000000600052601160045260246000fd5b600061356c826126df565b9150613577836126df565b925082820390508181111561358f5761358e613532565b5b92915050565b6000815490506135a48161333e565b9050919050565b60008190508160005260206000209050919050565b60006020601f8301049050919050565b600082821b905092915050565b60006008830261360d7fffffffffffffffffffffffffffffffffffffffffffffffffffffffffffffffff826135d0565b61361786836135d0565b95508019841693508086168417925050509392505050565b600061364a613645613640846126df565b612f05565b6126df565b9050919050565b6000819050919050565b6136648361362f565b61367861367082613651565b8484546135dd565b825550505050565b600090565b61368d613680565b61369881848461365b565b505050565b5b818110156136bc576136b1600082613685565b60018101905061369e565b5050565b601f821115613701576136d281613483565b6136db846135c0565b810160208510156136ea578190505b6136fe6136f6856135c0565b83018261369d565b50505b505050565b600082821c905092915050565b600061372460001984600802613706565b1980831691505092915050565b600061373d8383613713565b9150826002028217905092915050565b81810361375b575050613833565b61376482613595565b67ffffffffffffffff81111561377d5761377c612828565b5b613787825461333e565b6137928282856136c0565b6000601f8311600181146137c157600084156137af578287015490505b6137b98582613731565b86555061382c565b601f1984166137cf876135ab565b96506137da86613483565b60005b82811015613802578489015482556001820191506001850194506020810190506137dd565b8683101561381f578489015461381b601f891682613713565b8355505b6001600288020188555050505b5050505050505b565b7f4e487b7100000000000000000000000000000000000000000000000000000000600052603160045260246000fd5b600061386f826126df565b91506000820361388257613881613532565b5b600182039050919050565b7f3144000000000000000000000000000000000000000000000000000000000000600082015250565b60006138c360028361336f565b91506138ce8261388d565b600282019050919050565b60006138e4826138b6565b9150819050919050565b7f314d000000000000000000000000000000000000000000000000000000000000600082015250565b600061392460028361336f565b915061392f826138ee565b600282019050919050565b600061394582613917565b9150819050919050565b7f334d000000000000000000000000000000000000000000000000000000000000600082015250565b600061398560028361336f565b91506139908261394f565b600282019050919050565b60006139a682613978565b9150819050919050565b7f3159000000000000000000000000000000000000000000000000000000000000600082015250565b60006139e660028361336f565b91506139f1826139b0565b600282019050919050565b6000613a07826139d9565b9150819050919050565b6000613a1c826126df565b91507fffffffffffffffffffffffffffffffffffffffffffffffffffffffffffffffff8203613a4e57613a4d613532565b5b600182019050919050565b7f41727469636c652077697468207468697320736c756720616c7265616479206560008201527f7869737473000000000000000000000000000000000000000000000000000000602082015250565b6000613ab560258361274d565b9150613ac082613a59565b604082019050919050565b60006020820190508181036000830152613ae481613aa8565b9050919050565b600080fd5b600080fd5b600081519050613b0481612f9a565b92915050565b6000613b1d613b18846128a3565b612888565b905082815260208101848484011115613b3957613b38612823565b5b613b4484828561275e565b509392505050565b600082601f830112613b6157613b6061281e565b5b8151613b71848260208601613b0a565b91505092915050565b600081519050613b89816126e9565b92915050565b600060c08284031215613ba557613ba4613aeb565b5b613baf60c0612888565b90506000613bbf84828501613af5565b600083015250602082015167ffffffffffffffff811115613be357613be2613af0565b5b613bef84828501613b4c565b602083015250604082015167ffffffffffffffff811115613c1357613c12613af0565b5b613c1f84828501613b4c565b604083015250606082015167ffffffffffffffff811115613c4357613c42613af0565b5b613c4f84828501613b4c565b6060830152506080613c6384828501613b7a565b60808301525060a0613c7784828501613b7a565b60a08301525092915050565b600060208284031215613c9957613c986126d5565b5b600082015167ffffffffffffffff811115613cb757613cb66126da565b5b613cc384828501613b8f565b91505092915050565b7f417574686f72206e616d65206973206d697373696e6700000000000000000000600082015250565b6000613d0260168361274d565b9150613d0d82613ccc565b602082019050919050565b60006020820190508181036000830152613d3181613cf5565b9050919050565b613d4182612742565b67ffffffffffffffff811115613d5a57613d59612828565b5b613d64825461333e565b613d6f8282856136c0565b600060209050601f831160018114613da25760008415613d90578287015190505b613d9a8582613731565b865550613e02565b601f198416613db086613483565b60005b82811015613dd857848901518255600182019150602085019450602081019050613db3565b86831015613df55784890151613df1601f891682613713565b8355505b6001600288020188555050505b505050505050565b7f4f6e6c792074686520617574686f722063616e2065646974207468697320617260008201527f7469636c65000000000000000000000000000000000000000000000000000000602082015250565b6000613e6660258361274d565b9150613e7182613e0a565b604082019050919050565b60006020820190508181036000830152613e9581613e59565b9050919050565b7f416e2061727469636c65207769746820746865206e657720736c756720616c7260008201527f6561647920657869737473000000000000000000000000000000000000000000602082015250565b6000613ef8602b8361274d565b9150613f0382613e9c565b604082019050919050565b60006020820190508181036000830152613f2781613eeb565b9050919050565b600081549050613f3d8161333e565b9050919050565b818103613f5257505061402a565b613f5b82613f2e565b67ffffffffffffffff811115613f7457613f73612828565b5b613f7e825461333e565b613f898282856136c0565b6000601f831160018114613fb85760008415613fa6578287015490505b613fb08582613731565b865550614023565b601f198416613fc687613483565b9650613fd186613483565b60005b82811015613ff957848901548255600182019150600185019450602081019050613fd4565b868310156140165784890154614012601f891682613713565b8355505b6001600288020188555050505b5050505050505b56fea26469706673582212202a9fea748dc96e5a6d030fdc11f79e1492c4854b34179b279133bbeaaa35222964736f6c63430008180033",
  "linkReferences": {},
  "deployedLinkReferences": {}
}