{
  "_format": "hh-sol-artifact-1",
  "contractName": "Author",
  "sourceName": "contracts/authors.sol",
  "abi": [
    {
      "inputs": [
        {
          "internalType": "uint256",
          "name": "",
          "type": "uint256"
        }
      ],
      "name": "authorAddresses",
      "outputs": [
        {
          "internalType": "address",
          "name": "",
          "type": "address"
        }
      ],
      "stateMutability": "view",
      "type": "function"
    },
    {
      "inputs": [
        {
          "internalType": "address",
          "name": "",
          "type": "address"
        }
      ],
      "name": "authors",
      "outputs": [
        {
          "internalType": "address",
          "name": "userAddress",
          "type": "address"
        },
        {
          "internalType": "string",
          "name": "name",
          "type": "string"
        },
        {
          "internalType": "string",
          "name": "title",
          "type": "string"
        },
        {
          "internalType": "string",
          "name": "description",
          "type": "string"
        },
        {
          "internalType": "uint256",
          "name": "balance",
          "type": "uint256"
        },
        {
          "internalType": "uint256",
          "name": "createdAt",
          "type": "uint256"
        }
      ],
      "stateMutability": "view",
      "type": "function"
    },
    {
      "inputs": [],
      "name": "createAuthor",
      "outputs": [],
      "stateMutability": "payable",
      "type": "function"
    },
    {
      "inputs": [
        {
          "internalType": "address",
          "name": "userAddress",
          "type": "address"
        }
      ],
      "name": "getAuthor",
      "outputs": [
        {
          "components": [
            {
              "internalType": "address",
              "name": "userAddress",
              "type": "address"
            },
            {
              "internalType": "string",
              "name": "name",
              "type": "string"
            },
            {
              "internalType": "string",
              "name": "title",
              "type": "string"
            },
            {
              "internalType": "string",
              "name": "description",
              "type": "string"
            },
            {
              "internalType": "uint256",
              "name": "balance",
              "type": "uint256"
            },
            {
              "internalType": "uint256",
              "name": "createdAt",
              "type": "uint256"
            }
          ],
          "internalType": "struct Author.User",
          "name": "",
          "type": "tuple"
        }
      ],
      "stateMutability": "view",
      "type": "function"
    },
    {
      "inputs": [],
      "name": "getAuthors",
      "outputs": [
        {
          "components": [
            {
              "internalType": "address",
              "name": "userAddress",
              "type": "address"
            },
            {
              "internalType": "string",
              "name": "name",
              "type": "string"
            },
            {
              "internalType": "string",
              "name": "title",
              "type": "string"
            },
            {
              "internalType": "string",
              "name": "description",
              "type": "string"
            },
            {
              "internalType": "uint256",
              "name": "balance",
              "type": "uint256"
            },
            {
              "internalType": "uint256",
              "name": "createdAt",
              "type": "uint256"
            }
          ],
          "internalType": "struct Author.User[]",
          "name": "",
          "type": "tuple[]"
        }
      ],
      "stateMutability": "view",
      "type": "function"
    },
    {
      "inputs": [
        {
          "internalType": "address",
          "name": "_authorAddress",
          "type": "address"
        },
        {
          "internalType": "uint256",
          "name": "_amount",
          "type": "uint256"
        }
      ],
      "name": "incrementAuthorBalance",
      "outputs": [],
      "stateMutability": "payable",
      "type": "function"
    },
    {
      "inputs": [],
      "name": "no_of_authors",
      "outputs": [
        {
          "internalType": "uint256",
          "name": "",
          "type": "uint256"
        }
      ],
      "stateMutability": "view",
      "type": "function"
    },
    {
      "inputs": [
        {
          "internalType": "address",
          "name": "_userAddress",
          "type": "address"
        },
        {
          "internalType": "string",
          "name": "_name",
          "type": "string"
        },
        {
          "internalType": "string",
          "name": "_title",
          "type": "string"
        },
        {
          "internalType": "string",
          "name": "_description",
          "type": "string"
        }
      ],
      "name": "setProfile",
      "outputs": [],
      "stateMutability": "nonpayable",
      "type": "function"
    }
  ],
  "bytecode": "0x60806040526000805534801561001457600080fd5b50611f2e806100246000396000f3fe60806040526004361061007b5760003560e01c80639692f5f41161004e5780639692f5f41461013c578063b358ca1f14610179578063bf9c500114610183578063e5964672146101c55761007b565b80630ab3009314610080578063595f950a146100bd5780637ca4084d146100e65780637fc622f414610111575b600080fd5b34801561008c57600080fd5b506100a760048036038101906100a29190611196565b6101e1565b6040516100b49190611312565b60405180910390f35b3480156100c957600080fd5b506100e460048036038101906100df9190611469565b6104cf565b005b3480156100f257600080fd5b506100fb610696565b6040516101089190611533565b60405180910390f35b34801561011d57600080fd5b5061012661069c565b60405161013391906116a7565b60405180910390f35b34801561014857600080fd5b50610163600480360381019061015e91906116f5565b6109e5565b6040516101709190611731565b60405180910390f35b610181610a24565b005b34801561018f57600080fd5b506101aa60048036038101906101a59190611196565b610cc1565b6040516101bc96959493929190611796565b60405180910390f35b6101df60048036038101906101da919061180c565b610eb5565b005b6101e96110d8565b600073ffffffffffffffffffffffffffffffffffffffff168273ffffffffffffffffffffffffffffffffffffffff1603610258576040517f08c379a000000000000000000000000000000000000000000000000000000000815260040161024f90611898565b60405180910390fd5b6000600260008473ffffffffffffffffffffffffffffffffffffffff1673ffffffffffffffffffffffffffffffffffffffff1681526020019081526020016000206040518060c00160405290816000820160009054906101000a900473ffffffffffffffffffffffffffffffffffffffff1673ffffffffffffffffffffffffffffffffffffffff1673ffffffffffffffffffffffffffffffffffffffff16815260200160018201805461030a906118e7565b80601f0160208091040260200160405190810160405280929190818152602001828054610336906118e7565b80156103835780601f1061035857610100808354040283529160200191610383565b820191906000526020600020905b81548152906001019060200180831161036657829003601f168201915b5050505050815260200160028201805461039c906118e7565b80601f01602080910402602001604051908101604052809291908181526020018280546103c8906118e7565b80156104155780601f106103ea57610100808354040283529160200191610415565b820191906000526020600020905b8154815290600101906020018083116103f857829003601f168201915b5050505050815260200160038201805461042e906118e7565b80601f016020809104026020016040519081016040528092919081815260200182805461045a906118e7565b80156104a75780601f1061047c576101008083540402835291602001916104a7565b820191906000526020600020905b81548152906001019060200180831161048a57829003601f168201915b5050505050815260200160048201548152602001600582015481525050905080915050919050565b600073ffffffffffffffffffffffffffffffffffffffff16600260008673ffffffffffffffffffffffffffffffffffffffff1673ffffffffffffffffffffffffffffffffffffffff16815260200190815260200160002060000160009054906101000a900473ffffffffffffffffffffffffffffffffffffffff1673ffffffffffffffffffffffffffffffffffffffff16036105a0576040517f08c379a000000000000000000000000000000000000000000000000000000000815260040161059790611964565b60405180910390fd5b82600260008673ffffffffffffffffffffffffffffffffffffffff1673ffffffffffffffffffffffffffffffffffffffff16815260200190815260200160002060010190816105ef9190611b30565b5081600260008673ffffffffffffffffffffffffffffffffffffffff1673ffffffffffffffffffffffffffffffffffffffff168152602001908152602001600020600201908161063f9190611b30565b5080600260008673ffffffffffffffffffffffffffffffffffffffff1673ffffffffffffffffffffffffffffffffffffffff168152602001908152602001600020600301908161068f9190611b30565b5050505050565b60005481565b60606000805467ffffffffffffffff8111156106bb576106ba61133e565b5b6040519080825280602002602001820160405280156106f457816020015b6106e16110d8565b8152602001906001900390816106d95790505b50905060005b6000548110156109dd576000600260006001848154811061071e5761071d611c02565b5b9060005260206000200160009054906101000a900473ffffffffffffffffffffffffffffffffffffffff1673ffffffffffffffffffffffffffffffffffffffff1673ffffffffffffffffffffffffffffffffffffffff1681526020019081526020016000209050806040518060c00160405290816000820160009054906101000a900473ffffffffffffffffffffffffffffffffffffffff1673ffffffffffffffffffffffffffffffffffffffff1673ffffffffffffffffffffffffffffffffffffffff1681526020016001820180546107f7906118e7565b80601f0160208091040260200160405190810160405280929190818152602001828054610823906118e7565b80156108705780601f1061084557610100808354040283529160200191610870565b820191906000526020600020905b81548152906001019060200180831161085357829003601f168201915b50505050508152602001600282018054610889906118e7565b80601f01602080910402602001604051908101604052809291908181526020018280546108b5906118e7565b80156109025780601f106108d757610100808354040283529160200191610902565b820191906000526020600020905b8154815290600101906020018083116108e557829003601f168201915b5050505050815260200160038201805461091b906118e7565b80601f0160208091040260200160405190810160405280929190818152602001828054610947906118e7565b80156109945780601f1061096957610100808354040283529160200191610994565b820191906000526020600020905b81548152906001019060200180831161097757829003601f168201915b50505050508152602001600482015481526020016005820154815250508383815181106109c4576109c3611c02565b5b60200260200101819052505080806001019150506106fa565b508091505090565b600181815481106109f557600080fd5b906000526020600020016000915054906101000a900473ffffffffffffffffffffffffffffffffffffffff1681565b600073ffffffffffffffffffffffffffffffffffffffff16600260003373ffffffffffffffffffffffffffffffffffffffff1673ffffffffffffffffffffffffffffffffffffffff16815260200190815260200160002060000160009054906101000a900473ffffffffffffffffffffffffffffffffffffffff1673ffffffffffffffffffffffffffffffffffffffff1614610af5576040517f08c379a0000000000000000000000000000000000000000000000000000000008152600401610aec90611c7d565b60405180910390fd5b600080815480929190610b0790611ccc565b91905055506040518060c001604052803373ffffffffffffffffffffffffffffffffffffffff1681526020016040518060200160405280600081525081526020016040518060200160405280600081525081526020016040518060200160405280600081525081526020016000815260200142815250600260003373ffffffffffffffffffffffffffffffffffffffff1673ffffffffffffffffffffffffffffffffffffffff16815260200190815260200160002060008201518160000160006101000a81548173ffffffffffffffffffffffffffffffffffffffff021916908373ffffffffffffffffffffffffffffffffffffffff1602179055506020820151816001019081610c189190611b30565b506040820151816002019081610c2e9190611b30565b506060820151816003019081610c449190611b30565b506080820151816004015560a082015181600501559050506001339080600181540180825580915050600190039060005260206000200160009091909190916101000a81548173ffffffffffffffffffffffffffffffffffffffff021916908373ffffffffffffffffffffffffffffffffffffffff160217905550565b60026020528060005260406000206000915090508060000160009054906101000a900473ffffffffffffffffffffffffffffffffffffffff1690806001018054610d0a906118e7565b80601f0160208091040260200160405190810160405280929190818152602001828054610d36906118e7565b8015610d835780601f10610d5857610100808354040283529160200191610d83565b820191906000526020600020905b815481529060010190602001808311610d6657829003601f168201915b505050505090806002018054610d98906118e7565b80601f0160208091040260200160405190810160405280929190818152602001828054610dc4906118e7565b8015610e115780601f10610de657610100808354040283529160200191610e11565b820191906000526020600020905b815481529060010190602001808311610df457829003601f168201915b505050505090806003018054610e26906118e7565b80601f0160208091040260200160405190810160405280929190818152602001828054610e52906118e7565b8015610e9f5780601f10610e7457610100808354040283529160200191610e9f565b820191906000526020600020905b815481529060010190602001808311610e8257829003601f168201915b5050505050908060040154908060050154905086565b600073ffffffffffffffffffffffffffffffffffffffff16600260008473ffffffffffffffffffffffffffffffffffffffff1673ffffffffffffffffffffffffffffffffffffffff16815260200190815260200160002060000160009054906101000a900473ffffffffffffffffffffffffffffffffffffffff1673ffffffffffffffffffffffffffffffffffffffff1603610f86576040517f08c379a0000000000000000000000000000000000000000000000000000000008152600401610f7d90611d60565b60405180910390fd5b803414610fc8576040517f08c379a0000000000000000000000000000000000000000000000000000000008152600401610fbf90611df2565b60405180910390fd5b60008273ffffffffffffffffffffffffffffffffffffffff1634604051610fee90611e43565b60006040518083038185875af1925050503d806000811461102b576040519150601f19603f3d011682016040523d82523d6000602084013e611030565b606091505b5050905080611074576040517f08c379a000000000000000000000000000000000000000000000000000000000815260040161106b90611ea4565b60405180910390fd5b6000600260008573ffffffffffffffffffffffffffffffffffffffff1673ffffffffffffffffffffffffffffffffffffffff1681526020019081526020016000209050828160040160008282546110cb9190611ec4565b9250508190555050505050565b6040518060c00160405280600073ffffffffffffffffffffffffffffffffffffffff16815260200160608152602001606081526020016060815260200160008152602001600081525090565b6000604051905090565b600080fd5b600080fd5b600073ffffffffffffffffffffffffffffffffffffffff82169050919050565b600061116382611138565b9050919050565b61117381611158565b811461117e57600080fd5b50565b6000813590506111908161116a565b92915050565b6000602082840312156111ac576111ab61112e565b5b60006111ba84828501611181565b91505092915050565b6111cc81611158565b82525050565b600081519050919050565b600082825260208201905092915050565b60005b8381101561120c5780820151818401526020810190506111f1565b60008484015250505050565b6000601f19601f8301169050919050565b6000611234826111d2565b61123e81856111dd565b935061124e8185602086016111ee565b61125781611218565b840191505092915050565b6000819050919050565b61127581611262565b82525050565b600060c08301600083015161129360008601826111c3565b50602083015184820360208601526112ab8282611229565b915050604083015184820360408601526112c58282611229565b915050606083015184820360608601526112df8282611229565b91505060808301516112f4608086018261126c565b5060a083015161130760a086018261126c565b508091505092915050565b6000602082019050818103600083015261132c818461127b565b905092915050565b600080fd5b600080fd5b7f4e487b7100000000000000000000000000000000000000000000000000000000600052604160045260246000fd5b61137682611218565b810181811067ffffffffffffffff821117156113955761139461133e565b5b80604052505050565b60006113a8611124565b90506113b4828261136d565b919050565b600067ffffffffffffffff8211156113d4576113d361133e565b5b6113dd82611218565b9050602081019050919050565b82818337600083830152505050565b600061140c611407846113b9565b61139e565b90508281526020810184848401111561142857611427611339565b5b6114338482856113ea565b509392505050565b600082601f8301126114505761144f611334565b5b81356114608482602086016113f9565b91505092915050565b600080600080608085870312156114835761148261112e565b5b600061149187828801611181565b945050602085013567ffffffffffffffff8111156114b2576114b1611133565b5b6114be8782880161143b565b935050604085013567ffffffffffffffff8111156114df576114de611133565b5b6114eb8782880161143b565b925050606085013567ffffffffffffffff81111561150c5761150b611133565b5b6115188782880161143b565b91505092959194509250565b61152d81611262565b82525050565b60006020820190506115486000830184611524565b92915050565b600081519050919050565b600082825260208201905092915050565b6000819050602082019050919050565b600060c08301600083015161159260008601826111c3565b50602083015184820360208601526115aa8282611229565b915050604083015184820360408601526115c48282611229565b915050606083015184820360608601526115de8282611229565b91505060808301516115f3608086018261126c565b5060a083015161160660a086018261126c565b508091505092915050565b600061161d838361157a565b905092915050565b6000602082019050919050565b600061163d8261154e565b6116478185611559565b9350836020820285016116598561156a565b8060005b8581101561169557848403895281516116768582611611565b945061168183611625565b925060208a0199505060018101905061165d565b50829750879550505050505092915050565b600060208201905081810360008301526116c18184611632565b905092915050565b6116d281611262565b81146116dd57600080fd5b50565b6000813590506116ef816116c9565b92915050565b60006020828403121561170b5761170a61112e565b5b6000611719848285016116e0565b91505092915050565b61172b81611158565b82525050565b60006020820190506117466000830184611722565b92915050565b600082825260208201905092915050565b6000611768826111d2565b611772818561174c565b93506117828185602086016111ee565b61178b81611218565b840191505092915050565b600060c0820190506117ab6000830189611722565b81810360208301526117bd818861175d565b905081810360408301526117d1818761175d565b905081810360608301526117e5818661175d565b90506117f46080830185611524565b61180160a0830184611524565b979650505050505050565b600080604083850312156118235761182261112e565b5b600061183185828601611181565b9250506020611842858286016116e0565b9150509250929050565b7f496e76616c696420416464726573730000000000000000000000000000000000600082015250565b6000611882600f8361174c565b915061188d8261184c565b602082019050919050565b600060208201905081810360008301526118b181611875565b9050919050565b7f4e487b7100000000000000000000000000000000000000000000000000000000600052602260045260246000fd5b600060028204905060018216806118ff57607f821691505b602082108103611912576119116118b8565b5b50919050565b7f5573657220646f6573206e6f7420657869737400000000000000000000000000600082015250565b600061194e60138361174c565b915061195982611918565b602082019050919050565b6000602082019050818103600083015261197d81611941565b9050919050565b60008190508160005260206000209050919050565b60006020601f8301049050919050565b600082821b905092915050565b6000600883026119e67fffffffffffffffffffffffffffffffffffffffffffffffffffffffffffffffff826119a9565b6119f086836119a9565b95508019841693508086168417925050509392505050565b6000819050919050565b6000611a2d611a28611a2384611262565b611a08565b611262565b9050919050565b6000819050919050565b611a4783611a12565b611a5b611a5382611a34565b8484546119b6565b825550505050565b600090565b611a70611a63565b611a7b818484611a3e565b505050565b5b81811015611a9f57611a94600082611a68565b600181019050611a81565b5050565b601f821115611ae457611ab581611984565b611abe84611999565b81016020851015611acd578190505b611ae1611ad985611999565b830182611a80565b50505b505050565b600082821c905092915050565b6000611b0760001984600802611ae9565b1980831691505092915050565b6000611b208383611af6565b9150826002028217905092915050565b611b39826111d2565b67ffffffffffffffff811115611b5257611b5161133e565b5b611b5c82546118e7565b611b67828285611aa3565b600060209050601f831160018114611b9a5760008415611b88578287015190505b611b928582611b14565b865550611bfa565b601f198416611ba886611984565b60005b82811015611bd057848901518255600182019150602085019450602081019050611bab565b86831015611bed5784890151611be9601f891682611af6565b8355505b6001600288020188555050505b505050505050565b7f4e487b7100000000000000000000000000000000000000000000000000000000600052603260045260246000fd5b7f5573657220616c72656164792065786973740000000000000000000000000000600082015250565b6000611c6760128361174c565b9150611c7282611c31565b602082019050919050565b60006020820190508181036000830152611c9681611c5a565b9050919050565b7f4e487b7100000000000000000000000000000000000000000000000000000000600052601160045260246000fd5b6000611cd782611262565b91507fffffffffffffffffffffffffffffffffffffffffffffffffffffffffffffffff8203611d0957611d08611c9d565b5b600182019050919050565b7f417574686f7220646f6573206e6f742065786973740000000000000000000000600082015250565b6000611d4a60158361174c565b9150611d5582611d14565b602082019050919050565b60006020820190508181036000830152611d7981611d3d565b9050919050565b7f45746865722073656e7420646f6573206e6f74206d617463682074686520616d60008201527f6f756e7400000000000000000000000000000000000000000000000000000000602082015250565b6000611ddc60248361174c565b9150611de782611d80565b604082019050919050565b60006020820190508181036000830152611e0b81611dcf565b9050919050565b600081905092915050565b50565b6000611e2d600083611e12565b9150611e3882611e1d565b600082019050919050565b6000611e4e82611e20565b9150819050919050565b7f5472616e73666572206661696c65642e00000000000000000000000000000000600082015250565b6000611e8e60108361174c565b9150611e9982611e58565b602082019050919050565b60006020820190508181036000830152611ebd81611e81565b9050919050565b6000611ecf82611262565b9150611eda83611262565b9250828201905080821115611ef257611ef1611c9d565b5b9291505056fea26469706673582212206fe040e8bff7ec7b222b83eadecfcfae1dbc820c6915da26bce9a90863db22b864736f6c63430008180033",
  "linkReferences": {},
  "deployedLinkReferences": {}
}