{
	"contracts/articles.sol": {
		"Articles": {
			"abi": [
				{
					"inputs": [
						{
							"internalType": "address",
							"name": "_authorAddress",
							"type": "address"
						}
					],
					"stateMutability": "nonpayable",
					"type": "constructor"
				},
				{
					"anonymous": false,
					"inputs": [
						{
							"indexed": false,
							"internalType": "string",
							"name": "title",
							"type": "string"
						},
						{
							"indexed": false,
							"internalType": "string",
							"name": "metadataId",
							"type": "string"
						},
						{
							"indexed": false,
							"internalType": "address",
							"name": "authorAddress",
							"type": "address"
						}
					],
					"name": "ArticleAdded",
					"type": "event"
				},
				{
					"anonymous": false,
					"inputs": [
						{
							"indexed": true,
							"internalType": "address",
							"name": "author",
							"type": "address"
						},
						{
							"indexed": false,
							"internalType": "uint256",
							"name": "articleIndex",
							"type": "uint256"
						},
						{
							"indexed": false,
							"internalType": "string",
							"name": "articleTitle",
							"type": "string"
						}
					],
					"name": "ArticleDeleted",
					"type": "event"
				},
				{
					"anonymous": false,
					"inputs": [
						{
							"indexed": true,
							"internalType": "address",
							"name": "sender",
							"type": "address"
						},
						{
							"indexed": true,
							"internalType": "address",
							"name": "recipient",
							"type": "address"
						},
						{
							"indexed": false,
							"internalType": "uint256",
							"name": "amount",
							"type": "uint256"
						},
						{
							"indexed": false,
							"internalType": "uint256",
							"name": "articleIndex",
							"type": "uint256"
						},
						{
							"indexed": false,
							"internalType": "string",
							"name": "articleTitle",
							"type": "string"
						}
					],
					"name": "GiftSent",
					"type": "event"
				},
				{
					"inputs": [
						{
							"internalType": "string",
							"name": "_title",
							"type": "string"
						},
						{
							"internalType": "string",
							"name": "_metadataHash",
							"type": "string"
						}
					],
					"name": "addArticle",
					"outputs": [],
					"stateMutability": "nonpayable",
					"type": "function"
				},
				{
					"inputs": [
						{
							"internalType": "uint256",
							"name": "",
							"type": "uint256"
						}
					],
					"name": "articles",
					"outputs": [
						{
							"internalType": "string",
							"name": "title",
							"type": "string"
						},
						{
							"internalType": "string",
							"name": "metadataId",
							"type": "string"
						},
						{
							"internalType": "address",
							"name": "authorAddress",
							"type": "address"
						},
						{
							"internalType": "bool",
							"name": "exists",
							"type": "bool"
						}
					],
					"stateMutability": "view",
					"type": "function"
				},
				{
					"inputs": [
						{
							"internalType": "address",
							"name": "",
							"type": "address"
						},
						{
							"internalType": "uint256",
							"name": "",
							"type": "uint256"
						}
					],
					"name": "authorGifts",
					"outputs": [
						{
							"internalType": "uint256",
							"name": "amount",
							"type": "uint256"
						},
						{
							"internalType": "uint256",
							"name": "articleIndex",
							"type": "uint256"
						},
						{
							"internalType": "string",
							"name": "articleTitle",
							"type": "string"
						},
						{
							"internalType": "address",
							"name": "sender",
							"type": "address"
						}
					],
					"stateMutability": "view",
					"type": "function"
				},
				{
					"inputs": [
						{
							"internalType": "string",
							"name": "_metadataHash",
							"type": "string"
						}
					],
					"name": "deleteArticle",
					"outputs": [],
					"stateMutability": "nonpayable",
					"type": "function"
				},
				{
					"inputs": [
						{
							"internalType": "string",
							"name": "_metadataHash",
							"type": "string"
						}
					],
					"name": "getArticle",
					"outputs": [
						{
							"internalType": "string",
							"name": "",
							"type": "string"
						},
						{
							"internalType": "string",
							"name": "",
							"type": "string"
						},
						{
							"internalType": "address",
							"name": "",
							"type": "address"
						}
					],
					"stateMutability": "view",
					"type": "function"
				},
				{
					"inputs": [
						{
							"internalType": "address",
							"name": "_author",
							"type": "address"
						}
					],
					"name": "getAuthorGifts",
					"outputs": [
						{
							"components": [
								{
									"internalType": "uint256",
									"name": "amount",
									"type": "uint256"
								},
								{
									"internalType": "uint256",
									"name": "articleIndex",
									"type": "uint256"
								},
								{
									"internalType": "string",
									"name": "articleTitle",
									"type": "string"
								},
								{
									"internalType": "address",
									"name": "sender",
									"type": "address"
								}
							],
							"internalType": "struct Articles.Gift[]",
							"name": "",
							"type": "tuple[]"
						}
					],
					"stateMutability": "view",
					"type": "function"
				},
				{
					"inputs": [],
					"name": "noOfArticles",
					"outputs": [
						{
							"internalType": "uint256",
							"name": "",
							"type": "uint256"
						}
					],
					"stateMutability": "view",
					"type": "function"
				},
				{
					"inputs": [
						{
							"internalType": "string",
							"name": "_metadataHash",
							"type": "string"
						}
					],
					"name": "sendGift",
					"outputs": [],
					"stateMutability": "payable",
					"type": "function"
				}
			],
			"devdoc": {
				"kind": "dev",
				"methods": {},
				"version": 1
			},
			"evm": {
				"assembly": "    /* \"contracts/articles.sol\":95:3435  contract Articles {... */\n  mstore(0x40, 0x80)\n    /* \"contracts/articles.sol\":185:186  0 */\n  0x00\n    /* \"contracts/articles.sol\":158:186  uint public noOfArticles = 0 */\n  0x01\n  sstore\n    /* \"contracts/articles.sol\":195:291  constructor(address _authorAddress) {... */\n  callvalue\n  dup1\n  iszero\n  tag_1\n  jumpi\n  0x00\n  dup1\n  revert\ntag_1:\n  pop\n  mload(0x40)\n  sub(codesize, bytecodeSize)\n  dup1\n  bytecodeSize\n  dup4\n  codecopy\n  dup2\n  dup2\n  add\n  0x40\n  mstore\n  dup2\n  add\n  swap1\n  tag_2\n  swap2\n  swap1\n  tag_3\n  jump\t// in\ntag_2:\n    /* \"contracts/articles.sol\":268:282  _authorAddress */\n  dup1\n    /* \"contracts/articles.sol\":242:257  authorsContract */\n  0x00\n  dup1\n    /* \"contracts/articles.sol\":242:283  authorsContract = Authors(_authorAddress) */\n  0x0100\n  exp\n  dup2\n  sload\n  dup2\n  0xffffffffffffffffffffffffffffffffffffffff\n  mul\n  not\n  and\n  swap1\n  dup4\n  0xffffffffffffffffffffffffffffffffffffffff\n  and\n  mul\n  or\n  swap1\n  sstore\n  pop\n    /* \"contracts/articles.sol\":195:291  constructor(address _authorAddress) {... */\n  pop\n    /* \"contracts/articles.sol\":95:3435  contract Articles {... */\n  jump(tag_6)\n    /* \"#utility.yul\":88:205   */\ntag_8:\n    /* \"#utility.yul\":197:198   */\n  0x00\n    /* \"#utility.yul\":194:195   */\n  dup1\n    /* \"#utility.yul\":187:199   */\n  revert\n    /* \"#utility.yul\":334:460   */\ntag_10:\n    /* \"#utility.yul\":371:378   */\n  0x00\n    /* \"#utility.yul\":411:453   */\n  0xffffffffffffffffffffffffffffffffffffffff\n    /* \"#utility.yul\":404:409   */\n  dup3\n    /* \"#utility.yul\":400:454   */\n  and\n    /* \"#utility.yul\":389:454   */\n  swap1\n  pop\n    /* \"#utility.yul\":334:460   */\n  swap2\n  swap1\n  pop\n  jump\t// out\n    /* \"#utility.yul\":466:562   */\ntag_11:\n    /* \"#utility.yul\":503:510   */\n  0x00\n    /* \"#utility.yul\":532:556   */\n  tag_20\n    /* \"#utility.yul\":550:555   */\n  dup3\n    /* \"#utility.yul\":532:556   */\n  tag_10\n  jump\t// in\ntag_20:\n    /* \"#utility.yul\":521:556   */\n  swap1\n  pop\n    /* \"#utility.yul\":466:562   */\n  swap2\n  swap1\n  pop\n  jump\t// out\n    /* \"#utility.yul\":568:690   */\ntag_12:\n    /* \"#utility.yul\":641:665   */\n  tag_22\n    /* \"#utility.yul\":659:664   */\n  dup2\n    /* \"#utility.yul\":641:665   */\n  tag_11\n  jump\t// in\ntag_22:\n    /* \"#utility.yul\":634:639   */\n  dup2\n    /* \"#utility.yul\":631:666   */\n  eq\n    /* \"#utility.yul\":621:684   */\n  tag_23\n  jumpi\n    /* \"#utility.yul\":680:681   */\n  0x00\n    /* \"#utility.yul\":677:678   */\n  dup1\n    /* \"#utility.yul\":670:682   */\n  revert\n    /* \"#utility.yul\":621:684   */\ntag_23:\n    /* \"#utility.yul\":568:690   */\n  pop\n  jump\t// out\n    /* \"#utility.yul\":696:839   */\ntag_13:\n    /* \"#utility.yul\":753:758   */\n  0x00\n    /* \"#utility.yul\":784:790   */\n  dup2\n    /* \"#utility.yul\":778:791   */\n  mload\n    /* \"#utility.yul\":769:791   */\n  swap1\n  pop\n    /* \"#utility.yul\":800:833   */\n  tag_25\n    /* \"#utility.yul\":827:832   */\n  dup2\n    /* \"#utility.yul\":800:833   */\n  tag_12\n  jump\t// in\ntag_25:\n    /* \"#utility.yul\":696:839   */\n  swap3\n  swap2\n  pop\n  pop\n  jump\t// out\n    /* \"#utility.yul\":845:1196   */\ntag_3:\n    /* \"#utility.yul\":915:921   */\n  0x00\n    /* \"#utility.yul\":964:966   */\n  0x20\n    /* \"#utility.yul\":952:961   */\n  dup3\n    /* \"#utility.yul\":943:950   */\n  dup5\n    /* \"#utility.yul\":939:962   */\n  sub\n    /* \"#utility.yul\":935:967   */\n  slt\n    /* \"#utility.yul\":932:1051   */\n  iszero\n  tag_27\n  jumpi\n    /* \"#utility.yul\":970:1049   */\n  tag_28\n  tag_8\n  jump\t// in\ntag_28:\n    /* \"#utility.yul\":932:1051   */\ntag_27:\n    /* \"#utility.yul\":1090:1091   */\n  0x00\n    /* \"#utility.yul\":1115:1179   */\n  tag_29\n    /* \"#utility.yul\":1171:1178   */\n  dup5\n    /* \"#utility.yul\":1162:1168   */\n  dup3\n    /* \"#utility.yul\":1151:1160   */\n  dup6\n    /* \"#utility.yul\":1147:1169   */\n  add\n    /* \"#utility.yul\":1115:1179   */\n  tag_13\n  jump\t// in\ntag_29:\n    /* \"#utility.yul\":1105:1179   */\n  swap2\n  pop\n    /* \"#utility.yul\":1061:1189   */\n  pop\n    /* \"#utility.yul\":845:1196   */\n  swap3\n  swap2\n  pop\n  pop\n  jump\t// out\n    /* \"contracts/articles.sol\":95:3435  contract Articles {... */\ntag_6:\n  dataSize(sub_0)\n  dup1\n  dataOffset(sub_0)\n  0x00\n  codecopy\n  0x00\n  return\nstop\n\nsub_0: assembly {\n        /* \"contracts/articles.sol\":95:3435  contract Articles {... */\n      mstore(0x40, 0x80)\n      jumpi(tag_1, lt(calldatasize, 0x04))\n      shr(0xe0, calldataload(0x00))\n      dup1\n      0x6ecb5671\n      gt\n      tag_10\n      jumpi\n      dup1\n      0x6ecb5671\n      eq\n      tag_6\n      jumpi\n      dup1\n      0xa4666665\n      eq\n      tag_7\n      jumpi\n      dup1\n      0xc1cfe6a3\n      eq\n      tag_8\n      jumpi\n      dup1\n      0xedcfafe6\n      eq\n      tag_9\n      jumpi\n      jump(tag_1)\n    tag_10:\n      dup1\n      0x18058066\n      eq\n      tag_2\n      jumpi\n      dup1\n      0x2007c8f1\n      eq\n      tag_3\n      jumpi\n      dup1\n      0x3af38305\n      eq\n      tag_4\n      jumpi\n      dup1\n      0x6ec67ec9\n      eq\n      tag_5\n      jumpi\n    tag_1:\n      0x00\n      dup1\n      revert\n        /* \"contracts/articles.sol\":3309:3432  function getAuthorGifts(address _author) public view returns (Gift[] memory) {... */\n    tag_2:\n      callvalue\n      dup1\n      iszero\n      tag_11\n      jumpi\n      0x00\n      dup1\n      revert\n    tag_11:\n      pop\n      tag_12\n      0x04\n      dup1\n      calldatasize\n      sub\n      dup2\n      add\n      swap1\n      tag_13\n      swap2\n      swap1\n      tag_14\n      jump\t// in\n    tag_13:\n      tag_15\n      jump\t// in\n    tag_12:\n      mload(0x40)\n      tag_16\n      swap2\n      swap1\n      tag_17\n      jump\t// in\n    tag_16:\n      mload(0x40)\n      dup1\n      swap2\n      sub\n      swap1\n      return\n        /* \"contracts/articles.sol\":158:186  uint public noOfArticles = 0 */\n    tag_3:\n      callvalue\n      dup1\n      iszero\n      tag_18\n      jumpi\n      0x00\n      dup1\n      revert\n    tag_18:\n      pop\n      tag_19\n      tag_20\n      jump\t// in\n    tag_19:\n      mload(0x40)\n      tag_21\n      swap2\n      swap1\n      tag_22\n      jump\t// in\n    tag_21:\n      mload(0x40)\n      dup1\n      swap2\n      sub\n      swap1\n      return\n        /* \"contracts/articles.sol\":2788:3301  function deleteArticle(string memory _metadataHash) public {... */\n    tag_4:\n      callvalue\n      dup1\n      iszero\n      tag_23\n      jumpi\n      0x00\n      dup1\n      revert\n    tag_23:\n      pop\n      tag_24\n      0x04\n      dup1\n      calldatasize\n      sub\n      dup2\n      add\n      swap1\n      tag_25\n      swap2\n      swap1\n      tag_26\n      jump\t// in\n    tag_25:\n      tag_27\n      jump\t// in\n    tag_24:\n      stop\n        /* \"contracts/articles.sol\":1025:1515  function addArticle(string memory _title, string memory _metadataHash) public {... */\n    tag_5:\n      callvalue\n      dup1\n      iszero\n      tag_28\n      jumpi\n      0x00\n      dup1\n      revert\n    tag_28:\n      pop\n      tag_29\n      0x04\n      dup1\n      calldatasize\n      sub\n      dup2\n      add\n      swap1\n      tag_30\n      swap2\n      swap1\n      tag_31\n      jump\t// in\n    tag_30:\n      tag_32\n      jump\t// in\n    tag_29:\n      stop\n        /* \"contracts/articles.sol\":606:651  mapping(address => Gift[]) public authorGifts */\n    tag_6:\n      callvalue\n      dup1\n      iszero\n      tag_33\n      jumpi\n      0x00\n      dup1\n      revert\n    tag_33:\n      pop\n      tag_34\n      0x04\n      dup1\n      calldatasize\n      sub\n      dup2\n      add\n      swap1\n      tag_35\n      swap2\n      swap1\n      tag_36\n      jump\t// in\n    tag_35:\n      tag_37\n      jump\t// in\n    tag_34:\n      mload(0x40)\n      tag_38\n      swap5\n      swap4\n      swap3\n      swap2\n      swap1\n      tag_39\n      jump\t// in\n    tag_38:\n      mload(0x40)\n      dup1\n      swap2\n      sub\n      swap1\n      return\n        /* \"contracts/articles.sol\":2387:2780  function getArticle(string memory _metadataHash) public view returns (string memory, string memory, address) {... */\n    tag_7:\n      callvalue\n      dup1\n      iszero\n      tag_40\n      jumpi\n      0x00\n      dup1\n      revert\n    tag_40:\n      pop\n      tag_41\n      0x04\n      dup1\n      calldatasize\n      sub\n      dup2\n      add\n      swap1\n      tag_42\n      swap2\n      swap1\n      tag_26\n      jump\t// in\n    tag_42:\n      tag_43\n      jump\t// in\n    tag_41:\n      mload(0x40)\n      tag_44\n      swap4\n      swap3\n      swap2\n      swap1\n      tag_45\n      jump\t// in\n    tag_44:\n      mload(0x40)\n      dup1\n      swap2\n      sub\n      swap1\n      return\n        /* \"contracts/articles.sol\":1523:2379  function sendGift(string memory _metadataHash) public payable {... */\n    tag_8:\n      tag_46\n      0x04\n      dup1\n      calldatasize\n      sub\n      dup2\n      add\n      swap1\n      tag_47\n      swap2\n      swap1\n      tag_26\n      jump\t// in\n    tag_47:\n      tag_48\n      jump\t// in\n    tag_46:\n      stop\n        /* \"contracts/articles.sol\":574:599  Article[] public articles */\n    tag_9:\n      callvalue\n      dup1\n      iszero\n      tag_49\n      jumpi\n      0x00\n      dup1\n      revert\n    tag_49:\n      pop\n      tag_50\n      0x04\n      dup1\n      calldatasize\n      sub\n      dup2\n      add\n      swap1\n      tag_51\n      swap2\n      swap1\n      tag_52\n      jump\t// in\n    tag_51:\n      tag_53\n      jump\t// in\n    tag_50:\n      mload(0x40)\n      tag_54\n      swap5\n      swap4\n      swap3\n      swap2\n      swap1\n      tag_55\n      jump\t// in\n    tag_54:\n      mload(0x40)\n      dup1\n      swap2\n      sub\n      swap1\n      return\n        /* \"contracts/articles.sol\":3309:3432  function getAuthorGifts(address _author) public view returns (Gift[] memory) {... */\n    tag_15:\n        /* \"contracts/articles.sol\":3371:3384  Gift[] memory */\n      0x60\n        /* \"contracts/articles.sol\":3404:3415  authorGifts */\n      0x03\n        /* \"contracts/articles.sol\":3404:3424  authorGifts[_author] */\n      0x00\n        /* \"contracts/articles.sol\":3416:3423  _author */\n      dup4\n        /* \"contracts/articles.sol\":3404:3424  authorGifts[_author] */\n      0xffffffffffffffffffffffffffffffffffffffff\n      and\n      0xffffffffffffffffffffffffffffffffffffffff\n      and\n      dup2\n      mstore\n      0x20\n      add\n      swap1\n      dup2\n      mstore\n      0x20\n      add\n      0x00\n      keccak256\n        /* \"contracts/articles.sol\":3397:3424  return authorGifts[_author] */\n      dup1\n      sload\n      dup1\n      0x20\n      mul\n      0x20\n      add\n      mload(0x40)\n      swap1\n      dup2\n      add\n      0x40\n      mstore\n      dup1\n      swap3\n      swap2\n      swap1\n      dup2\n      dup2\n      mstore\n      0x20\n      add\n      0x00\n      swap1\n    tag_57:\n      dup3\n      dup3\n      lt\n      iszero\n      tag_58\n      jumpi\n      dup4\n      dup3\n      swap1\n      0x00\n      mstore\n      keccak256(0x00, 0x20)\n      swap1\n      0x04\n      mul\n      add\n      mload(0x40)\n      dup1\n      0x80\n      add\n      0x40\n      mstore\n      swap1\n      dup2\n      0x00\n      dup3\n      add\n      sload\n      dup2\n      mstore\n      0x20\n      add\n      0x01\n      dup3\n      add\n      sload\n      dup2\n      mstore\n      0x20\n      add\n      0x02\n      dup3\n      add\n      dup1\n      sload\n      tag_60\n      swap1\n      tag_61\n      jump\t// in\n    tag_60:\n      dup1\n      0x1f\n      add\n      0x20\n      dup1\n      swap2\n      div\n      mul\n      0x20\n      add\n      mload(0x40)\n      swap1\n      dup2\n      add\n      0x40\n      mstore\n      dup1\n      swap3\n      swap2\n      swap1\n      dup2\n      dup2\n      mstore\n      0x20\n      add\n      dup3\n      dup1\n      sload\n      tag_62\n      swap1\n      tag_61\n      jump\t// in\n    tag_62:\n      dup1\n      iszero\n      tag_63\n      jumpi\n      dup1\n      0x1f\n      lt\n      tag_64\n      jumpi\n      0x0100\n      dup1\n      dup4\n      sload\n      div\n      mul\n      dup4\n      mstore\n      swap2\n      0x20\n      add\n      swap2\n      jump(tag_63)\n    tag_64:\n      dup3\n      add\n      swap2\n      swap1\n      0x00\n      mstore\n      keccak256(0x00, 0x20)\n      swap1\n    tag_65:\n      dup2\n      sload\n      dup2\n      mstore\n      swap1\n      0x01\n      add\n      swap1\n      0x20\n      add\n      dup1\n      dup4\n      gt\n      tag_65\n      jumpi\n      dup3\n      swap1\n      sub\n      0x1f\n      and\n      dup3\n      add\n      swap2\n    tag_63:\n      pop\n      pop\n      pop\n      pop\n      pop\n      dup2\n      mstore\n      0x20\n      add\n      0x03\n      dup3\n      add\n      0x00\n      swap1\n      sload\n      swap1\n      0x0100\n      exp\n      swap1\n      div\n      0xffffffffffffffffffffffffffffffffffffffff\n      and\n      0xffffffffffffffffffffffffffffffffffffffff\n      and\n      0xffffffffffffffffffffffffffffffffffffffff\n      and\n      dup2\n      mstore\n      pop\n      pop\n      dup2\n      mstore\n      0x20\n      add\n      swap1\n      0x01\n      add\n      swap1\n      jump(tag_57)\n    tag_58:\n      pop\n      pop\n      pop\n      pop\n      swap1\n      pop\n        /* \"contracts/articles.sol\":3309:3432  function getAuthorGifts(address _author) public view returns (Gift[] memory) {... */\n      swap2\n      swap1\n      pop\n      jump\t// out\n        /* \"contracts/articles.sol\":158:186  uint public noOfArticles = 0 */\n    tag_20:\n      sload(0x01)\n      dup2\n      jump\t// out\n        /* \"contracts/articles.sol\":2788:3301  function deleteArticle(string memory _metadataHash) public {... */\n    tag_27:\n        /* \"contracts/articles.sol\":2858:2878  uint256 articleIndex */\n      0x00\n        /* \"contracts/articles.sol\":2881:2896  metadataToIndex */\n      0x04\n        /* \"contracts/articles.sol\":2897:2910  _metadataHash */\n      dup3\n        /* \"contracts/articles.sol\":2881:2911  metadataToIndex[_metadataHash] */\n      mload(0x40)\n      tag_67\n      swap2\n      swap1\n      tag_68\n      jump\t// in\n    tag_67:\n      swap1\n      dup2\n      mstore\n      0x20\n      add\n      mload(0x40)\n      dup1\n      swap2\n      sub\n      swap1\n      keccak256\n      sload\n        /* \"contracts/articles.sol\":2858:2911  uint256 articleIndex = metadataToIndex[_metadataHash] */\n      swap1\n      pop\n        /* \"contracts/articles.sol\":2945:2953  articles */\n      0x02\n        /* \"contracts/articles.sol\":2945:2960  articles.length */\n      dup1\n      sload\n      swap1\n      pop\n        /* \"contracts/articles.sol\":2930:2942  articleIndex */\n      dup2\n        /* \"contracts/articles.sol\":2930:2960  articleIndex < articles.length */\n      lt\n        /* \"contracts/articles.sol\":2922:2987  require(articleIndex < articles.length, \"Article does not exist\") */\n      tag_69\n      jumpi\n      mload(0x40)\n      0x08c379a000000000000000000000000000000000000000000000000000000000\n      dup2\n      mstore\n      0x04\n      add\n      tag_70\n      swap1\n      tag_71\n      jump\t// in\n    tag_70:\n      mload(0x40)\n      dup1\n      swap2\n      sub\n      swap1\n      revert\n    tag_69:\n        /* \"contracts/articles.sol\":3000:3023  Article storage article */\n      0x00\n        /* \"contracts/articles.sol\":3026:3034  articles */\n      0x02\n        /* \"contracts/articles.sol\":3035:3047  articleIndex */\n      dup3\n        /* \"contracts/articles.sol\":3026:3048  articles[articleIndex] */\n      dup2\n      sload\n      dup2\n      lt\n      tag_72\n      jumpi\n      tag_73\n      tag_74\n      jump\t// in\n    tag_73:\n    tag_72:\n      swap1\n      0x00\n      mstore\n      keccak256(0x00, 0x20)\n      swap1\n      0x03\n      mul\n      add\n        /* \"contracts/articles.sol\":3000:3048  Article storage article = articles[articleIndex] */\n      swap1\n      pop\n        /* \"contracts/articles.sol\":3092:3102  msg.sender */\n      caller\n        /* \"contracts/articles.sol\":3067:3102  article.authorAddress == msg.sender */\n      0xffffffffffffffffffffffffffffffffffffffff\n      and\n        /* \"contracts/articles.sol\":3067:3074  article */\n      dup2\n        /* \"contracts/articles.sol\":3067:3088  article.authorAddress */\n      0x02\n      add\n      0x00\n      swap1\n      sload\n      swap1\n      0x0100\n      exp\n      swap1\n      div\n      0xffffffffffffffffffffffffffffffffffffffff\n      and\n        /* \"contracts/articles.sol\":3067:3102  article.authorAddress == msg.sender */\n      0xffffffffffffffffffffffffffffffffffffffff\n      and\n      eq\n        /* \"contracts/articles.sol\":3059:3145  require(article.authorAddress == msg.sender, \"Only the author can delete the article\") */\n      tag_76\n      jumpi\n      mload(0x40)\n      0x08c379a000000000000000000000000000000000000000000000000000000000\n      dup2\n      mstore\n      0x04\n      add\n      tag_77\n      swap1\n      tag_78\n      jump\t// in\n    tag_77:\n      mload(0x40)\n      dup1\n      swap2\n      sub\n      swap1\n      revert\n    tag_76:\n        /* \"contracts/articles.sol\":3215:3220  false */\n      0x00\n        /* \"contracts/articles.sol\":3198:3205  article */\n      dup2\n        /* \"contracts/articles.sol\":3198:3212  article.exists */\n      0x02\n      add\n      0x14\n        /* \"contracts/articles.sol\":3198:3220  article.exists = false */\n      0x0100\n      exp\n      dup2\n      sload\n      dup2\n      0xff\n      mul\n      not\n      and\n      swap1\n      dup4\n      iszero\n      iszero\n      mul\n      or\n      swap1\n      sstore\n      pop\n        /* \"contracts/articles.sol\":3253:3263  msg.sender */\n      caller\n        /* \"contracts/articles.sol\":3238:3293  ArticleDeleted(msg.sender, articleIndex, article.title) */\n      0xffffffffffffffffffffffffffffffffffffffff\n      and\n      0x92b0267ae1289ea84247f15ee9011343df8ebde2e983ebdd1fc7cc339060776e\n        /* \"contracts/articles.sol\":3265:3277  articleIndex */\n      dup4\n        /* \"contracts/articles.sol\":3279:3286  article */\n      dup4\n        /* \"contracts/articles.sol\":3279:3292  article.title */\n      0x00\n      add\n        /* \"contracts/articles.sol\":3238:3293  ArticleDeleted(msg.sender, articleIndex, article.title) */\n      mload(0x40)\n      tag_79\n      swap3\n      swap2\n      swap1\n      tag_80\n      jump\t// in\n    tag_79:\n      mload(0x40)\n      dup1\n      swap2\n      sub\n      swap1\n      log2\n        /* \"contracts/articles.sol\":2847:3301  {... */\n      pop\n      pop\n        /* \"contracts/articles.sol\":2788:3301  function deleteArticle(string memory _metadataHash) public {... */\n      pop\n      jump\t// out\n        /* \"contracts/articles.sol\":1025:1515  function addArticle(string memory _title, string memory _metadataHash) public {... */\n    tag_32:\n        /* \"contracts/articles.sol\":1114:1142  Authors.Author memory author */\n      0x00\n        /* \"contracts/articles.sol\":1145:1160  authorsContract */\n      dup1\n      0x00\n      swap1\n      sload\n      swap1\n      0x0100\n      exp\n      swap1\n      div\n      0xffffffffffffffffffffffffffffffffffffffff\n      and\n        /* \"contracts/articles.sol\":1145:1170  authorsContract.getAuthor */\n      0xffffffffffffffffffffffffffffffffffffffff\n      and\n      0x0ab30093\n        /* \"contracts/articles.sol\":1171:1181  msg.sender */\n      caller\n        /* \"contracts/articles.sol\":1145:1182  authorsContract.getAuthor(msg.sender) */\n      mload(0x40)\n      dup3\n      0xffffffff\n      and\n      0xe0\n      shl\n      dup2\n      mstore\n      0x04\n      add\n      tag_82\n      swap2\n      swap1\n      tag_83\n      jump\t// in\n    tag_82:\n      0x00\n      mload(0x40)\n      dup1\n      dup4\n      sub\n      dup2\n      dup7\n      gas\n      staticcall\n      iszero\n      dup1\n      iszero\n      tag_85\n      jumpi\n      returndatasize\n      0x00\n      dup1\n      returndatacopy\n      revert(0x00, returndatasize)\n    tag_85:\n      pop\n      pop\n      pop\n      pop\n      mload(0x40)\n      returndatasize\n      0x00\n      dup3\n      returndatacopy\n      returndatasize\n      not(0x1f)\n      0x1f\n      dup3\n      add\n      and\n      dup3\n      add\n      dup1\n      0x40\n      mstore\n      pop\n      dup2\n      add\n      swap1\n      tag_86\n      swap2\n      swap1\n      tag_87\n      jump\t// in\n    tag_86:\n        /* \"contracts/articles.sol\":1114:1182  Authors.Author memory author = authorsContract.getAuthor(msg.sender) */\n      swap1\n      pop\n        /* \"contracts/articles.sol\":1201:1207  author */\n      dup1\n        /* \"contracts/articles.sol\":1201:1214  author.exists */\n      0x40\n      add\n      mload\n        /* \"contracts/articles.sol\":1193:1259  require(author.exists, \"Only registered authors can add articles\") */\n      tag_88\n      jumpi\n      mload(0x40)\n      0x08c379a000000000000000000000000000000000000000000000000000000000\n      dup2\n      mstore\n      0x04\n      add\n      tag_89\n      swap1\n      tag_90\n      jump\t// in\n    tag_89:\n      mload(0x40)\n      dup1\n      swap2\n      sub\n      swap1\n      revert\n    tag_88:\n        /* \"contracts/articles.sol\":1270:1278  articles */\n      0x02\n        /* \"contracts/articles.sol\":1284:1332  Article(_title, _metadataHash, msg.sender, true) */\n      mload(0x40)\n      dup1\n      0x80\n      add\n      0x40\n      mstore\n      dup1\n        /* \"contracts/articles.sol\":1292:1298  _title */\n      dup6\n        /* \"contracts/articles.sol\":1284:1332  Article(_title, _metadataHash, msg.sender, true) */\n      dup2\n      mstore\n      0x20\n      add\n        /* \"contracts/articles.sol\":1300:1313  _metadataHash */\n      dup5\n        /* \"contracts/articles.sol\":1284:1332  Article(_title, _metadataHash, msg.sender, true) */\n      dup2\n      mstore\n      0x20\n      add\n        /* \"contracts/articles.sol\":1315:1325  msg.sender */\n      caller\n        /* \"contracts/articles.sol\":1284:1332  Article(_title, _metadataHash, msg.sender, true) */\n      0xffffffffffffffffffffffffffffffffffffffff\n      and\n      dup2\n      mstore\n      0x20\n      add\n        /* \"contracts/articles.sol\":1327:1331  true */\n      0x01\n        /* \"contracts/articles.sol\":1284:1332  Article(_title, _metadataHash, msg.sender, true) */\n      iszero\n      iszero\n      dup2\n      mstore\n      pop\n        /* \"contracts/articles.sol\":1270:1333  articles.push(Article(_title, _metadataHash, msg.sender, true)) */\n      swap1\n      dup1\n      0x01\n      dup2\n      sload\n      add\n      dup1\n      dup3\n      sstore\n      dup1\n      swap2\n      pop\n      pop\n      0x01\n      swap1\n      sub\n      swap1\n      0x00\n      mstore\n      keccak256(0x00, 0x20)\n      swap1\n      0x03\n      mul\n      add\n      0x00\n      swap1\n      swap2\n      swap1\n      swap2\n      swap1\n      swap2\n      pop\n      0x00\n      dup3\n      add\n      mload\n      dup2\n      0x00\n      add\n      swap1\n      dup2\n      tag_92\n      swap2\n      swap1\n      tag_93\n      jump\t// in\n    tag_92:\n      pop\n      0x20\n      dup3\n      add\n      mload\n      dup2\n      0x01\n      add\n      swap1\n      dup2\n      tag_94\n      swap2\n      swap1\n      tag_93\n      jump\t// in\n    tag_94:\n      pop\n      0x40\n      dup3\n      add\n      mload\n      dup2\n      0x02\n      add\n      exp(0x0100, 0x00)\n      dup2\n      sload\n      dup2\n      0xffffffffffffffffffffffffffffffffffffffff\n      mul\n      not\n      and\n      swap1\n      dup4\n      0xffffffffffffffffffffffffffffffffffffffff\n      and\n      mul\n      or\n      swap1\n      sstore\n      pop\n      0x60\n      dup3\n      add\n      mload\n      dup2\n      0x02\n      add\n      exp(0x0100, 0x14)\n      dup2\n      sload\n      dup2\n      0xff\n      mul\n      not\n      and\n      swap1\n      dup4\n      iszero\n      iszero\n      mul\n      or\n      swap1\n      sstore\n      pop\n      pop\n      pop\n        /* \"contracts/articles.sol\":1344:1364  uint256 articleIndex */\n      0x00\n        /* \"contracts/articles.sol\":1385:1386  1 */\n      0x01\n        /* \"contracts/articles.sol\":1367:1375  articles */\n      0x02\n        /* \"contracts/articles.sol\":1367:1382  articles.length */\n      dup1\n      sload\n      swap1\n      pop\n        /* \"contracts/articles.sol\":1367:1386  articles.length - 1 */\n      tag_95\n      swap2\n      swap1\n      tag_96\n      jump\t// in\n    tag_95:\n        /* \"contracts/articles.sol\":1344:1386  uint256 articleIndex = articles.length - 1 */\n      swap1\n      pop\n        /* \"contracts/articles.sol\":1430:1442  articleIndex */\n      dup1\n        /* \"contracts/articles.sol\":1397:1412  metadataToIndex */\n      0x04\n        /* \"contracts/articles.sol\":1413:1426  _metadataHash */\n      dup5\n        /* \"contracts/articles.sol\":1397:1427  metadataToIndex[_metadataHash] */\n      mload(0x40)\n      tag_97\n      swap2\n      swap1\n      tag_68\n      jump\t// in\n    tag_97:\n      swap1\n      dup2\n      mstore\n      0x20\n      add\n      mload(0x40)\n      dup1\n      swap2\n      sub\n      swap1\n      keccak256\n        /* \"contracts/articles.sol\":1397:1442  metadataToIndex[_metadataHash] = articleIndex */\n      dup2\n      swap1\n      sstore\n      pop\n        /* \"contracts/articles.sol\":1460:1507  ArticleAdded(_title, _metadataHash, msg.sender) */\n      0xdbfe1f82a77201b0c570aeab9388d9d6cfb93f73f7cd224b1ba1f6da66f27cac\n        /* \"contracts/articles.sol\":1473:1479  _title */\n      dup5\n        /* \"contracts/articles.sol\":1481:1494  _metadataHash */\n      dup5\n        /* \"contracts/articles.sol\":1496:1506  msg.sender */\n      caller\n        /* \"contracts/articles.sol\":1460:1507  ArticleAdded(_title, _metadataHash, msg.sender) */\n      mload(0x40)\n      tag_98\n      swap4\n      swap3\n      swap2\n      swap1\n      tag_45\n      jump\t// in\n    tag_98:\n      mload(0x40)\n      dup1\n      swap2\n      sub\n      swap1\n      log1\n        /* \"contracts/articles.sol\":1103:1515  {... */\n      pop\n      pop\n        /* \"contracts/articles.sol\":1025:1515  function addArticle(string memory _title, string memory _metadataHash) public {... */\n      pop\n      pop\n      jump\t// out\n        /* \"contracts/articles.sol\":606:651  mapping(address => Gift[]) public authorGifts */\n    tag_37:\n      mstore(0x20, 0x03)\n      dup2\n      0x00\n      mstore\n      keccak256(0x00, 0x40)\n      dup2\n      dup2\n      sload\n      dup2\n      lt\n      tag_99\n      jumpi\n      0x00\n      dup1\n      revert\n    tag_99:\n      swap1\n      0x00\n      mstore\n      keccak256(0x00, 0x20)\n      swap1\n      0x04\n      mul\n      add\n      0x00\n      swap2\n      pop\n      swap2\n      pop\n      pop\n      dup1\n      0x00\n      add\n      sload\n      swap1\n      dup1\n      0x01\n      add\n      sload\n      swap1\n      dup1\n      0x02\n      add\n      dup1\n      sload\n      tag_101\n      swap1\n      tag_61\n      jump\t// in\n    tag_101:\n      dup1\n      0x1f\n      add\n      0x20\n      dup1\n      swap2\n      div\n      mul\n      0x20\n      add\n      mload(0x40)\n      swap1\n      dup2\n      add\n      0x40\n      mstore\n      dup1\n      swap3\n      swap2\n      swap1\n      dup2\n      dup2\n      mstore\n      0x20\n      add\n      dup3\n      dup1\n      sload\n      tag_102\n      swap1\n      tag_61\n      jump\t// in\n    tag_102:\n      dup1\n      iszero\n      tag_103\n      jumpi\n      dup1\n      0x1f\n      lt\n      tag_104\n      jumpi\n      0x0100\n      dup1\n      dup4\n      sload\n      div\n      mul\n      dup4\n      mstore\n      swap2\n      0x20\n      add\n      swap2\n      jump(tag_103)\n    tag_104:\n      dup3\n      add\n      swap2\n      swap1\n      0x00\n      mstore\n      keccak256(0x00, 0x20)\n      swap1\n    tag_105:\n      dup2\n      sload\n      dup2\n      mstore\n      swap1\n      0x01\n      add\n      swap1\n      0x20\n      add\n      dup1\n      dup4\n      gt\n      tag_105\n      jumpi\n      dup3\n      swap1\n      sub\n      0x1f\n      and\n      dup3\n      add\n      swap2\n    tag_103:\n      pop\n      pop\n      pop\n      pop\n      pop\n      swap1\n      dup1\n      0x03\n      add\n      0x00\n      swap1\n      sload\n      swap1\n      0x0100\n      exp\n      swap1\n      div\n      0xffffffffffffffffffffffffffffffffffffffff\n      and\n      swap1\n      pop\n      dup5\n      jump\t// out\n        /* \"contracts/articles.sol\":2387:2780  function getArticle(string memory _metadataHash) public view returns (string memory, string memory, address) {... */\n    tag_43:\n        /* \"contracts/articles.sol\":2457:2470  string memory */\n      0x60\n        /* \"contracts/articles.sol\":2472:2485  string memory */\n      dup1\n        /* \"contracts/articles.sol\":2487:2494  address */\n      0x00\n        /* \"contracts/articles.sol\":2507:2527  uint256 articleIndex */\n      dup1\n        /* \"contracts/articles.sol\":2530:2545  metadataToIndex */\n      0x04\n        /* \"contracts/articles.sol\":2546:2559  _metadataHash */\n      dup6\n        /* \"contracts/articles.sol\":2530:2560  metadataToIndex[_metadataHash] */\n      mload(0x40)\n      tag_107\n      swap2\n      swap1\n      tag_68\n      jump\t// in\n    tag_107:\n      swap1\n      dup2\n      mstore\n      0x20\n      add\n      mload(0x40)\n      dup1\n      swap2\n      sub\n      swap1\n      keccak256\n      sload\n        /* \"contracts/articles.sol\":2507:2560  uint256 articleIndex = metadataToIndex[_metadataHash] */\n      swap1\n      pop\n        /* \"contracts/articles.sol\":2594:2602  articles */\n      0x02\n        /* \"contracts/articles.sol\":2594:2609  articles.length */\n      dup1\n      sload\n      swap1\n      pop\n        /* \"contracts/articles.sol\":2579:2591  articleIndex */\n      dup2\n        /* \"contracts/articles.sol\":2579:2609  articleIndex < articles.length */\n      lt\n        /* \"contracts/articles.sol\":2571:2636  require(articleIndex < articles.length, \"Article does not exist\") */\n      tag_108\n      jumpi\n      mload(0x40)\n      0x08c379a000000000000000000000000000000000000000000000000000000000\n      dup2\n      mstore\n      0x04\n      add\n      tag_109\n      swap1\n      tag_71\n      jump\t// in\n    tag_109:\n      mload(0x40)\n      dup1\n      swap2\n      sub\n      swap1\n      revert\n    tag_108:\n        /* \"contracts/articles.sol\":2649:2671  Article memory article */\n      0x00\n        /* \"contracts/articles.sol\":2674:2682  articles */\n      0x02\n        /* \"contracts/articles.sol\":2683:2695  articleIndex */\n      dup3\n        /* \"contracts/articles.sol\":2674:2696  articles[articleIndex] */\n      dup2\n      sload\n      dup2\n      lt\n      tag_110\n      jumpi\n      tag_111\n      tag_74\n      jump\t// in\n    tag_111:\n    tag_110:\n      swap1\n      0x00\n      mstore\n      keccak256(0x00, 0x20)\n      swap1\n      0x03\n      mul\n      add\n        /* \"contracts/articles.sol\":2649:2696  Article memory article = articles[articleIndex] */\n      mload(0x40)\n      dup1\n      0x80\n      add\n      0x40\n      mstore\n      swap1\n      dup2\n      0x00\n      dup3\n      add\n      dup1\n      sload\n      tag_113\n      swap1\n      tag_61\n      jump\t// in\n    tag_113:\n      dup1\n      0x1f\n      add\n      0x20\n      dup1\n      swap2\n      div\n      mul\n      0x20\n      add\n      mload(0x40)\n      swap1\n      dup2\n      add\n      0x40\n      mstore\n      dup1\n      swap3\n      swap2\n      swap1\n      dup2\n      dup2\n      mstore\n      0x20\n      add\n      dup3\n      dup1\n      sload\n      tag_114\n      swap1\n      tag_61\n      jump\t// in\n    tag_114:\n      dup1\n      iszero\n      tag_115\n      jumpi\n      dup1\n      0x1f\n      lt\n      tag_116\n      jumpi\n      0x0100\n      dup1\n      dup4\n      sload\n      div\n      mul\n      dup4\n      mstore\n      swap2\n      0x20\n      add\n      swap2\n      jump(tag_115)\n    tag_116:\n      dup3\n      add\n      swap2\n      swap1\n      0x00\n      mstore\n      keccak256(0x00, 0x20)\n      swap1\n    tag_117:\n      dup2\n      sload\n      dup2\n      mstore\n      swap1\n      0x01\n      add\n      swap1\n      0x20\n      add\n      dup1\n      dup4\n      gt\n      tag_117\n      jumpi\n      dup3\n      swap1\n      sub\n      0x1f\n      and\n      dup3\n      add\n      swap2\n    tag_115:\n      pop\n      pop\n      pop\n      pop\n      pop\n      dup2\n      mstore\n      0x20\n      add\n      0x01\n      dup3\n      add\n      dup1\n      sload\n      tag_118\n      swap1\n      tag_61\n      jump\t// in\n    tag_118:\n      dup1\n      0x1f\n      add\n      0x20\n      dup1\n      swap2\n      div\n      mul\n      0x20\n      add\n      mload(0x40)\n      swap1\n      dup2\n      add\n      0x40\n      mstore\n      dup1\n      swap3\n      swap2\n      swap1\n      dup2\n      dup2\n      mstore\n      0x20\n      add\n      dup3\n      dup1\n      sload\n      tag_119\n      swap1\n      tag_61\n      jump\t// in\n    tag_119:\n      dup1\n      iszero\n      tag_120\n      jumpi\n      dup1\n      0x1f\n      lt\n      tag_121\n      jumpi\n      0x0100\n      dup1\n      dup4\n      sload\n      div\n      mul\n      dup4\n      mstore\n      swap2\n      0x20\n      add\n      swap2\n      jump(tag_120)\n    tag_121:\n      dup3\n      add\n      swap2\n      swap1\n      0x00\n      mstore\n      keccak256(0x00, 0x20)\n      swap1\n    tag_122:\n      dup2\n      sload\n      dup2\n      mstore\n      swap1\n      0x01\n      add\n      swap1\n      0x20\n      add\n      dup1\n      dup4\n      gt\n      tag_122\n      jumpi\n      dup3\n      swap1\n      sub\n      0x1f\n      and\n      dup3\n      add\n      swap2\n    tag_120:\n      pop\n      pop\n      pop\n      pop\n      pop\n      dup2\n      mstore\n      0x20\n      add\n      0x02\n      dup3\n      add\n      0x00\n      swap1\n      sload\n      swap1\n      0x0100\n      exp\n      swap1\n      div\n      0xffffffffffffffffffffffffffffffffffffffff\n      and\n      0xffffffffffffffffffffffffffffffffffffffff\n      and\n      0xffffffffffffffffffffffffffffffffffffffff\n      and\n      dup2\n      mstore\n      0x20\n      add\n      0x02\n      dup3\n      add\n      0x14\n      swap1\n      sload\n      swap1\n      0x0100\n      exp\n      swap1\n      div\n      0xff\n      and\n      iszero\n      iszero\n      iszero\n      iszero\n      dup2\n      mstore\n      pop\n      pop\n      swap1\n      pop\n        /* \"contracts/articles.sol\":2715:2722  article */\n      dup1\n        /* \"contracts/articles.sol\":2715:2728  article.title */\n      0x00\n      add\n      mload\n        /* \"contracts/articles.sol\":2730:2737  article */\n      dup2\n        /* \"contracts/articles.sol\":2730:2748  article.metadataId */\n      0x20\n      add\n      mload\n        /* \"contracts/articles.sol\":2750:2757  article */\n      dup3\n        /* \"contracts/articles.sol\":2750:2771  article.authorAddress */\n      0x40\n      add\n      mload\n        /* \"contracts/articles.sol\":2707:2772  return (article.title, article.metadataId, article.authorAddress) */\n      swap5\n      pop\n      swap5\n      pop\n      swap5\n      pop\n      pop\n      pop\n        /* \"contracts/articles.sol\":2387:2780  function getArticle(string memory _metadataHash) public view returns (string memory, string memory, address) {... */\n      swap2\n      swap4\n      swap1\n      swap3\n      pop\n      jump\t// out\n        /* \"contracts/articles.sol\":1523:2379  function sendGift(string memory _metadataHash) public payable {... */\n    tag_48:\n        /* \"contracts/articles.sol\":1596:1616  uint256 articleIndex */\n      0x00\n        /* \"contracts/articles.sol\":1619:1634  metadataToIndex */\n      0x04\n        /* \"contracts/articles.sol\":1635:1648  _metadataHash */\n      dup3\n        /* \"contracts/articles.sol\":1619:1649  metadataToIndex[_metadataHash] */\n      mload(0x40)\n      tag_124\n      swap2\n      swap1\n      tag_68\n      jump\t// in\n    tag_124:\n      swap1\n      dup2\n      mstore\n      0x20\n      add\n      mload(0x40)\n      dup1\n      swap2\n      sub\n      swap1\n      keccak256\n      sload\n        /* \"contracts/articles.sol\":1596:1649  uint256 articleIndex = metadataToIndex[_metadataHash] */\n      swap1\n      pop\n        /* \"contracts/articles.sol\":1683:1691  articles */\n      0x02\n        /* \"contracts/articles.sol\":1683:1698  articles.length */\n      dup1\n      sload\n      swap1\n      pop\n        /* \"contracts/articles.sol\":1668:1680  articleIndex */\n      dup2\n        /* \"contracts/articles.sol\":1668:1698  articleIndex < articles.length */\n      lt\n        /* \"contracts/articles.sol\":1660:1725  require(articleIndex < articles.length, \"Article does not exist\") */\n      tag_125\n      jumpi\n      mload(0x40)\n      0x08c379a000000000000000000000000000000000000000000000000000000000\n      dup2\n      mstore\n      0x04\n      add\n      tag_126\n      swap1\n      tag_71\n      jump\t// in\n    tag_126:\n      mload(0x40)\n      dup1\n      swap2\n      sub\n      swap1\n      revert\n    tag_125:\n        /* \"contracts/articles.sol\":1746:1768  Article memory article */\n      0x00\n        /* \"contracts/articles.sol\":1771:1779  articles */\n      0x02\n        /* \"contracts/articles.sol\":1780:1792  articleIndex */\n      dup3\n        /* \"contracts/articles.sol\":1771:1793  articles[articleIndex] */\n      dup2\n      sload\n      dup2\n      lt\n      tag_127\n      jumpi\n      tag_128\n      tag_74\n      jump\t// in\n    tag_128:\n    tag_127:\n      swap1\n      0x00\n      mstore\n      keccak256(0x00, 0x20)\n      swap1\n      0x03\n      mul\n      add\n        /* \"contracts/articles.sol\":1746:1793  Article memory article = articles[articleIndex] */\n      mload(0x40)\n      dup1\n      0x80\n      add\n      0x40\n      mstore\n      swap1\n      dup2\n      0x00\n      dup3\n      add\n      dup1\n      sload\n      tag_130\n      swap1\n      tag_61\n      jump\t// in\n    tag_130:\n      dup1\n      0x1f\n      add\n      0x20\n      dup1\n      swap2\n      div\n      mul\n      0x20\n      add\n      mload(0x40)\n      swap1\n      dup2\n      add\n      0x40\n      mstore\n      dup1\n      swap3\n      swap2\n      swap1\n      dup2\n      dup2\n      mstore\n      0x20\n      add\n      dup3\n      dup1\n      sload\n      tag_131\n      swap1\n      tag_61\n      jump\t// in\n    tag_131:\n      dup1\n      iszero\n      tag_132\n      jumpi\n      dup1\n      0x1f\n      lt\n      tag_133\n      jumpi\n      0x0100\n      dup1\n      dup4\n      sload\n      div\n      mul\n      dup4\n      mstore\n      swap2\n      0x20\n      add\n      swap2\n      jump(tag_132)\n    tag_133:\n      dup3\n      add\n      swap2\n      swap1\n      0x00\n      mstore\n      keccak256(0x00, 0x20)\n      swap1\n    tag_134:\n      dup2\n      sload\n      dup2\n      mstore\n      swap1\n      0x01\n      add\n      swap1\n      0x20\n      add\n      dup1\n      dup4\n      gt\n      tag_134\n      jumpi\n      dup3\n      swap1\n      sub\n      0x1f\n      and\n      dup3\n      add\n      swap2\n    tag_132:\n      pop\n      pop\n      pop\n      pop\n      pop\n      dup2\n      mstore\n      0x20\n      add\n      0x01\n      dup3\n      add\n      dup1\n      sload\n      tag_135\n      swap1\n      tag_61\n      jump\t// in\n    tag_135:\n      dup1\n      0x1f\n      add\n      0x20\n      dup1\n      swap2\n      div\n      mul\n      0x20\n      add\n      mload(0x40)\n      swap1\n      dup2\n      add\n      0x40\n      mstore\n      dup1\n      swap3\n      swap2\n      swap1\n      dup2\n      dup2\n      mstore\n      0x20\n      add\n      dup3\n      dup1\n      sload\n      tag_136\n      swap1\n      tag_61\n      jump\t// in\n    tag_136:\n      dup1\n      iszero\n      tag_137\n      jumpi\n      dup1\n      0x1f\n      lt\n      tag_138\n      jumpi\n      0x0100\n      dup1\n      dup4\n      sload\n      div\n      mul\n      dup4\n      mstore\n      swap2\n      0x20\n      add\n      swap2\n      jump(tag_137)\n    tag_138:\n      dup3\n      add\n      swap2\n      swap1\n      0x00\n      mstore\n      keccak256(0x00, 0x20)\n      swap1\n    tag_139:\n      dup2\n      sload\n      dup2\n      mstore\n      swap1\n      0x01\n      add\n      swap1\n      0x20\n      add\n      dup1\n      dup4\n      gt\n      tag_139\n      jumpi\n      dup3\n      swap1\n      sub\n      0x1f\n      and\n      dup3\n      add\n      swap2\n    tag_137:\n      pop\n      pop\n      pop\n      pop\n      pop\n      dup2\n      mstore\n      0x20\n      add\n      0x02\n      dup3\n      add\n      0x00\n      swap1\n      sload\n      swap1\n      0x0100\n      exp\n      swap1\n      div\n      0xffffffffffffffffffffffffffffffffffffffff\n      and\n      0xffffffffffffffffffffffffffffffffffffffff\n      and\n      0xffffffffffffffffffffffffffffffffffffffff\n      and\n      dup2\n      mstore\n      0x20\n      add\n      0x02\n      dup3\n      add\n      0x14\n      swap1\n      sload\n      swap1\n      0x0100\n      exp\n      swap1\n      div\n      0xff\n      and\n      iszero\n      iszero\n      iszero\n      iszero\n      dup2\n      mstore\n      pop\n      pop\n      swap1\n      pop\n        /* \"contracts/articles.sol\":1845:1846  0 */\n      0x00\n        /* \"contracts/articles.sol\":1812:1847  article.authorAddress != address(0) */\n      0xffffffffffffffffffffffffffffffffffffffff\n      and\n        /* \"contracts/articles.sol\":1812:1819  article */\n      dup2\n        /* \"contracts/articles.sol\":1812:1833  article.authorAddress */\n      0x40\n      add\n      mload\n        /* \"contracts/articles.sol\":1812:1847  article.authorAddress != address(0) */\n      0xffffffffffffffffffffffffffffffffffffffff\n      and\n      sub\n        /* \"contracts/articles.sol\":1804:1874  require(article.authorAddress != address(0), \"Invalid author address\") */\n      tag_140\n      jumpi\n      mload(0x40)\n      0x08c379a000000000000000000000000000000000000000000000000000000000\n      dup2\n      mstore\n      0x04\n      add\n      tag_141\n      swap1\n      tag_142\n      jump\t// in\n    tag_141:\n      mload(0x40)\n      dup1\n      swap2\n      sub\n      swap1\n      revert\n    tag_140:\n        /* \"contracts/articles.sol\":1932:1944  bool success */\n      0x00\n        /* \"contracts/articles.sol\":1950:1957  article */\n      dup2\n        /* \"contracts/articles.sol\":1950:1971  article.authorAddress */\n      0x40\n      add\n      mload\n        /* \"contracts/articles.sol\":1950:1976  article.authorAddress.call */\n      0xffffffffffffffffffffffffffffffffffffffff\n      and\n        /* \"contracts/articles.sol\":1985:1994  msg.value */\n      callvalue\n        /* \"contracts/articles.sol\":1950:2000  article.authorAddress.call{ value: msg.value }(\"\") */\n      mload(0x40)\n      tag_143\n      swap1\n      tag_144\n      jump\t// in\n    tag_143:\n      0x00\n      mload(0x40)\n      dup1\n      dup4\n      sub\n      dup2\n      dup6\n      dup8\n      gas\n      call\n      swap3\n      pop\n      pop\n      pop\n      returndatasize\n      dup1\n      0x00\n      dup2\n      eq\n      tag_147\n      jumpi\n      mload(0x40)\n      swap2\n      pop\n      and(add(returndatasize, 0x3f), not(0x1f))\n      dup3\n      add\n      0x40\n      mstore\n      returndatasize\n      dup3\n      mstore\n      returndatasize\n      0x00\n      0x20\n      dup5\n      add\n      returndatacopy\n      jump(tag_146)\n    tag_147:\n      0x60\n      swap2\n      pop\n    tag_146:\n      pop\n        /* \"contracts/articles.sol\":1931:2000  (bool success, ) = article.authorAddress.call{ value: msg.value }(\"\") */\n      pop\n      swap1\n      pop\n        /* \"contracts/articles.sol\":2019:2026  success */\n      dup1\n        /* \"contracts/articles.sol\":2011:2051  require(success, \"Gift transfer failed\") */\n      tag_148\n      jumpi\n      mload(0x40)\n      0x08c379a000000000000000000000000000000000000000000000000000000000\n      dup2\n      mstore\n      0x04\n      add\n      tag_149\n      swap1\n      tag_150\n      jump\t// in\n    tag_149:\n      mload(0x40)\n      dup1\n      swap2\n      sub\n      swap1\n      revert\n    tag_148:\n        /* \"contracts/articles.sol\":2064:2075  authorGifts */\n      0x03\n        /* \"contracts/articles.sol\":2064:2098  authorGifts[article.authorAddress] */\n      0x00\n        /* \"contracts/articles.sol\":2076:2083  article */\n      dup4\n        /* \"contracts/articles.sol\":2076:2097  article.authorAddress */\n      0x40\n      add\n      mload\n        /* \"contracts/articles.sol\":2064:2098  authorGifts[article.authorAddress] */\n      0xffffffffffffffffffffffffffffffffffffffff\n      and\n      0xffffffffffffffffffffffffffffffffffffffff\n      and\n      dup2\n      mstore\n      0x20\n      add\n      swap1\n      dup2\n      mstore\n      0x20\n      add\n      0x00\n      keccak256\n        /* \"contracts/articles.sol\":2104:2269  Gift({... */\n      mload(0x40)\n      dup1\n      0x80\n      add\n      0x40\n      mstore\n      dup1\n        /* \"contracts/articles.sol\":2132:2141  msg.value */\n      callvalue\n        /* \"contracts/articles.sol\":2104:2269  Gift({... */\n      dup2\n      mstore\n      0x20\n      add\n        /* \"contracts/articles.sol\":2170:2182  articleIndex */\n      dup6\n        /* \"contracts/articles.sol\":2104:2269  Gift({... */\n      dup2\n      mstore\n      0x20\n      add\n        /* \"contracts/articles.sol\":2211:2218  article */\n      dup5\n        /* \"contracts/articles.sol\":2211:2224  article.title */\n      0x00\n      add\n      mload\n        /* \"contracts/articles.sol\":2104:2269  Gift({... */\n      dup2\n      mstore\n      0x20\n      add\n        /* \"contracts/articles.sol\":2247:2257  msg.sender */\n      caller\n        /* \"contracts/articles.sol\":2104:2269  Gift({... */\n      0xffffffffffffffffffffffffffffffffffffffff\n      and\n      dup2\n      mstore\n      pop\n        /* \"contracts/articles.sol\":2064:2270  authorGifts[article.authorAddress].push(Gift({... */\n      swap1\n      dup1\n      0x01\n      dup2\n      sload\n      add\n      dup1\n      dup3\n      sstore\n      dup1\n      swap2\n      pop\n      pop\n      0x01\n      swap1\n      sub\n      swap1\n      0x00\n      mstore\n      keccak256(0x00, 0x20)\n      swap1\n      0x04\n      mul\n      add\n      0x00\n      swap1\n      swap2\n      swap1\n      swap2\n      swap1\n      swap2\n      pop\n      0x00\n      dup3\n      add\n      mload\n      dup2\n      0x00\n      add\n      sstore\n      0x20\n      dup3\n      add\n      mload\n      dup2\n      0x01\n      add\n      sstore\n      0x40\n      dup3\n      add\n      mload\n      dup2\n      0x02\n      add\n      swap1\n      dup2\n      tag_152\n      swap2\n      swap1\n      tag_93\n      jump\t// in\n    tag_152:\n      pop\n      0x60\n      dup3\n      add\n      mload\n      dup2\n      0x03\n      add\n      exp(0x0100, 0x00)\n      dup2\n      sload\n      dup2\n      0xffffffffffffffffffffffffffffffffffffffff\n      mul\n      not\n      and\n      swap1\n      dup4\n      0xffffffffffffffffffffffffffffffffffffffff\n      and\n      mul\n      or\n      swap1\n      sstore\n      pop\n      pop\n      pop\n        /* \"contracts/articles.sol\":2309:2316  article */\n      dup2\n        /* \"contracts/articles.sol\":2309:2330  article.authorAddress */\n      0x40\n      add\n      mload\n        /* \"contracts/articles.sol\":2288:2371  GiftSent(msg.sender, article.authorAddress, msg.value, articleIndex, article.title) */\n      0xffffffffffffffffffffffffffffffffffffffff\n      and\n        /* \"contracts/articles.sol\":2297:2307  msg.sender */\n      caller\n        /* \"contracts/articles.sol\":2288:2371  GiftSent(msg.sender, article.authorAddress, msg.value, articleIndex, article.title) */\n      0xffffffffffffffffffffffffffffffffffffffff\n      and\n      0xb4b46f23cd35c79709ecdacc4152dd97a90f5b7bfa9d3f4bc3ec8374060bfa99\n        /* \"contracts/articles.sol\":2332:2341  msg.value */\n      callvalue\n        /* \"contracts/articles.sol\":2343:2355  articleIndex */\n      dup7\n        /* \"contracts/articles.sol\":2357:2364  article */\n      dup7\n        /* \"contracts/articles.sol\":2357:2370  article.title */\n      0x00\n      add\n      mload\n        /* \"contracts/articles.sol\":2288:2371  GiftSent(msg.sender, article.authorAddress, msg.value, articleIndex, article.title) */\n      mload(0x40)\n      tag_153\n      swap4\n      swap3\n      swap2\n      swap1\n      tag_154\n      jump\t// in\n    tag_153:\n      mload(0x40)\n      dup1\n      swap2\n      sub\n      swap1\n      log3\n        /* \"contracts/articles.sol\":1585:2379  {... */\n      pop\n      pop\n      pop\n        /* \"contracts/articles.sol\":1523:2379  function sendGift(string memory _metadataHash) public payable {... */\n      pop\n      jump\t// out\n        /* \"contracts/articles.sol\":574:599  Article[] public articles */\n    tag_53:\n      0x02\n      dup2\n      dup2\n      sload\n      dup2\n      lt\n      tag_155\n      jumpi\n      0x00\n      dup1\n      revert\n    tag_155:\n      swap1\n      0x00\n      mstore\n      keccak256(0x00, 0x20)\n      swap1\n      0x03\n      mul\n      add\n      0x00\n      swap2\n      pop\n      swap1\n      pop\n      dup1\n      0x00\n      add\n      dup1\n      sload\n      tag_157\n      swap1\n      tag_61\n      jump\t// in\n    tag_157:\n      dup1\n      0x1f\n      add\n      0x20\n      dup1\n      swap2\n      div\n      mul\n      0x20\n      add\n      mload(0x40)\n      swap1\n      dup2\n      add\n      0x40\n      mstore\n      dup1\n      swap3\n      swap2\n      swap1\n      dup2\n      dup2\n      mstore\n      0x20\n      add\n      dup3\n      dup1\n      sload\n      tag_158\n      swap1\n      tag_61\n      jump\t// in\n    tag_158:\n      dup1\n      iszero\n      tag_159\n      jumpi\n      dup1\n      0x1f\n      lt\n      tag_160\n      jumpi\n      0x0100\n      dup1\n      dup4\n      sload\n      div\n      mul\n      dup4\n      mstore\n      swap2\n      0x20\n      add\n      swap2\n      jump(tag_159)\n    tag_160:\n      dup3\n      add\n      swap2\n      swap1\n      0x00\n      mstore\n      keccak256(0x00, 0x20)\n      swap1\n    tag_161:\n      dup2\n      sload\n      dup2\n      mstore\n      swap1\n      0x01\n      add\n      swap1\n      0x20\n      add\n      dup1\n      dup4\n      gt\n      tag_161\n      jumpi\n      dup3\n      swap1\n      sub\n      0x1f\n      and\n      dup3\n      add\n      swap2\n    tag_159:\n      pop\n      pop\n      pop\n      pop\n      pop\n      swap1\n      dup1\n      0x01\n      add\n      dup1\n      sload\n      tag_162\n      swap1\n      tag_61\n      jump\t// in\n    tag_162:\n      dup1\n      0x1f\n      add\n      0x20\n      dup1\n      swap2\n      div\n      mul\n      0x20\n      add\n      mload(0x40)\n      swap1\n      dup2\n      add\n      0x40\n      mstore\n      dup1\n      swap3\n      swap2\n      swap1\n      dup2\n      dup2\n      mstore\n      0x20\n      add\n      dup3\n      dup1\n      sload\n      tag_163\n      swap1\n      tag_61\n      jump\t// in\n    tag_163:\n      dup1\n      iszero\n      tag_164\n      jumpi\n      dup1\n      0x1f\n      lt\n      tag_165\n      jumpi\n      0x0100\n      dup1\n      dup4\n      sload\n      div\n      mul\n      dup4\n      mstore\n      swap2\n      0x20\n      add\n      swap2\n      jump(tag_164)\n    tag_165:\n      dup3\n      add\n      swap2\n      swap1\n      0x00\n      mstore\n      keccak256(0x00, 0x20)\n      swap1\n    tag_166:\n      dup2\n      sload\n      dup2\n      mstore\n      swap1\n      0x01\n      add\n      swap1\n      0x20\n      add\n      dup1\n      dup4\n      gt\n      tag_166\n      jumpi\n      dup3\n      swap1\n      sub\n      0x1f\n      and\n      dup3\n      add\n      swap2\n    tag_164:\n      pop\n      pop\n      pop\n      pop\n      pop\n      swap1\n      dup1\n      0x02\n      add\n      0x00\n      swap1\n      sload\n      swap1\n      0x0100\n      exp\n      swap1\n      div\n      0xffffffffffffffffffffffffffffffffffffffff\n      and\n      swap1\n      dup1\n      0x02\n      add\n      0x14\n      swap1\n      sload\n      swap1\n      0x0100\n      exp\n      swap1\n      div\n      0xff\n      and\n      swap1\n      pop\n      dup5\n      jump\t// out\n        /* \"#utility.yul\":7:82   */\n    tag_167:\n        /* \"#utility.yul\":40:46   */\n      0x00\n        /* \"#utility.yul\":73:75   */\n      0x40\n        /* \"#utility.yul\":67:76   */\n      mload\n        /* \"#utility.yul\":57:76   */\n      swap1\n      pop\n        /* \"#utility.yul\":7:82   */\n      swap1\n      jump\t// out\n        /* \"#utility.yul\":88:205   */\n    tag_168:\n        /* \"#utility.yul\":197:198   */\n      0x00\n        /* \"#utility.yul\":194:195   */\n      dup1\n        /* \"#utility.yul\":187:199   */\n      revert\n        /* \"#utility.yul\":211:328   */\n    tag_169:\n        /* \"#utility.yul\":320:321   */\n      0x00\n        /* \"#utility.yul\":317:318   */\n      dup1\n        /* \"#utility.yul\":310:322   */\n      revert\n        /* \"#utility.yul\":334:460   */\n    tag_170:\n        /* \"#utility.yul\":371:378   */\n      0x00\n        /* \"#utility.yul\":411:453   */\n      0xffffffffffffffffffffffffffffffffffffffff\n        /* \"#utility.yul\":404:409   */\n      dup3\n        /* \"#utility.yul\":400:454   */\n      and\n        /* \"#utility.yul\":389:454   */\n      swap1\n      pop\n        /* \"#utility.yul\":334:460   */\n      swap2\n      swap1\n      pop\n      jump\t// out\n        /* \"#utility.yul\":466:562   */\n    tag_171:\n        /* \"#utility.yul\":503:510   */\n      0x00\n        /* \"#utility.yul\":532:556   */\n      tag_252\n        /* \"#utility.yul\":550:555   */\n      dup3\n        /* \"#utility.yul\":532:556   */\n      tag_170\n      jump\t// in\n    tag_252:\n        /* \"#utility.yul\":521:556   */\n      swap1\n      pop\n        /* \"#utility.yul\":466:562   */\n      swap2\n      swap1\n      pop\n      jump\t// out\n        /* \"#utility.yul\":568:690   */\n    tag_172:\n        /* \"#utility.yul\":641:665   */\n      tag_254\n        /* \"#utility.yul\":659:664   */\n      dup2\n        /* \"#utility.yul\":641:665   */\n      tag_171\n      jump\t// in\n    tag_254:\n        /* \"#utility.yul\":634:639   */\n      dup2\n        /* \"#utility.yul\":631:666   */\n      eq\n        /* \"#utility.yul\":621:684   */\n      tag_255\n      jumpi\n        /* \"#utility.yul\":680:681   */\n      0x00\n        /* \"#utility.yul\":677:678   */\n      dup1\n        /* \"#utility.yul\":670:682   */\n      revert\n        /* \"#utility.yul\":621:684   */\n    tag_255:\n        /* \"#utility.yul\":568:690   */\n      pop\n      jump\t// out\n        /* \"#utility.yul\":696:835   */\n    tag_173:\n        /* \"#utility.yul\":742:747   */\n      0x00\n        /* \"#utility.yul\":780:786   */\n      dup2\n        /* \"#utility.yul\":767:787   */\n      calldataload\n        /* \"#utility.yul\":758:787   */\n      swap1\n      pop\n        /* \"#utility.yul\":796:829   */\n      tag_257\n        /* \"#utility.yul\":823:828   */\n      dup2\n        /* \"#utility.yul\":796:829   */\n      tag_172\n      jump\t// in\n    tag_257:\n        /* \"#utility.yul\":696:835   */\n      swap3\n      swap2\n      pop\n      pop\n      jump\t// out\n        /* \"#utility.yul\":841:1170   */\n    tag_14:\n        /* \"#utility.yul\":900:906   */\n      0x00\n        /* \"#utility.yul\":949:951   */\n      0x20\n        /* \"#utility.yul\":937:946   */\n      dup3\n        /* \"#utility.yul\":928:935   */\n      dup5\n        /* \"#utility.yul\":924:947   */\n      sub\n        /* \"#utility.yul\":920:952   */\n      slt\n        /* \"#utility.yul\":917:1036   */\n      iszero\n      tag_259\n      jumpi\n        /* \"#utility.yul\":955:1034   */\n      tag_260\n      tag_168\n      jump\t// in\n    tag_260:\n        /* \"#utility.yul\":917:1036   */\n    tag_259:\n        /* \"#utility.yul\":1075:1076   */\n      0x00\n        /* \"#utility.yul\":1100:1153   */\n      tag_261\n        /* \"#utility.yul\":1145:1152   */\n      dup5\n        /* \"#utility.yul\":1136:1142   */\n      dup3\n        /* \"#utility.yul\":1125:1134   */\n      dup6\n        /* \"#utility.yul\":1121:1143   */\n      add\n        /* \"#utility.yul\":1100:1153   */\n      tag_173\n      jump\t// in\n    tag_261:\n        /* \"#utility.yul\":1090:1153   */\n      swap2\n      pop\n        /* \"#utility.yul\":1046:1163   */\n      pop\n        /* \"#utility.yul\":841:1170   */\n      swap3\n      swap2\n      pop\n      pop\n      jump\t// out\n        /* \"#utility.yul\":1176:1310   */\n    tag_174:\n        /* \"#utility.yul\":1263:1269   */\n      0x00\n        /* \"#utility.yul\":1297:1302   */\n      dup2\n        /* \"#utility.yul\":1291:1303   */\n      mload\n        /* \"#utility.yul\":1281:1303   */\n      swap1\n      pop\n        /* \"#utility.yul\":1176:1310   */\n      swap2\n      swap1\n      pop\n      jump\t// out\n        /* \"#utility.yul\":1316:1520   */\n    tag_175:\n        /* \"#utility.yul\":1435:1446   */\n      0x00\n        /* \"#utility.yul\":1469:1475   */\n      dup3\n        /* \"#utility.yul\":1464:1467   */\n      dup3\n        /* \"#utility.yul\":1457:1476   */\n      mstore\n        /* \"#utility.yul\":1509:1513   */\n      0x20\n        /* \"#utility.yul\":1504:1507   */\n      dup3\n        /* \"#utility.yul\":1500:1514   */\n      add\n        /* \"#utility.yul\":1485:1514   */\n      swap1\n      pop\n        /* \"#utility.yul\":1316:1520   */\n      swap3\n      swap2\n      pop\n      pop\n      jump\t// out\n        /* \"#utility.yul\":1526:1678   */\n    tag_176:\n        /* \"#utility.yul\":1613:1617   */\n      0x00\n        /* \"#utility.yul\":1636:1639   */\n      dup2\n        /* \"#utility.yul\":1628:1639   */\n      swap1\n      pop\n        /* \"#utility.yul\":1666:1670   */\n      0x20\n        /* \"#utility.yul\":1661:1664   */\n      dup3\n        /* \"#utility.yul\":1657:1671   */\n      add\n        /* \"#utility.yul\":1649:1671   */\n      swap1\n      pop\n        /* \"#utility.yul\":1526:1678   */\n      swap2\n      swap1\n      pop\n      jump\t// out\n        /* \"#utility.yul\":1684:1761   */\n    tag_177:\n        /* \"#utility.yul\":1721:1728   */\n      0x00\n        /* \"#utility.yul\":1750:1755   */\n      dup2\n        /* \"#utility.yul\":1739:1755   */\n      swap1\n      pop\n        /* \"#utility.yul\":1684:1761   */\n      swap2\n      swap1\n      pop\n      jump\t// out\n        /* \"#utility.yul\":1767:1875   */\n    tag_178:\n        /* \"#utility.yul\":1844:1868   */\n      tag_267\n        /* \"#utility.yul\":1862:1867   */\n      dup2\n        /* \"#utility.yul\":1844:1868   */\n      tag_177\n      jump\t// in\n    tag_267:\n        /* \"#utility.yul\":1839:1842   */\n      dup3\n        /* \"#utility.yul\":1832:1869   */\n      mstore\n        /* \"#utility.yul\":1767:1875   */\n      pop\n      pop\n      jump\t// out\n        /* \"#utility.yul\":1881:1980   */\n    tag_179:\n        /* \"#utility.yul\":1933:1939   */\n      0x00\n        /* \"#utility.yul\":1967:1972   */\n      dup2\n        /* \"#utility.yul\":1961:1973   */\n      mload\n        /* \"#utility.yul\":1951:1973   */\n      swap1\n      pop\n        /* \"#utility.yul\":1881:1980   */\n      swap2\n      swap1\n      pop\n      jump\t// out\n        /* \"#utility.yul\":1986:2145   */\n    tag_180:\n        /* \"#utility.yul\":2060:2071   */\n      0x00\n        /* \"#utility.yul\":2094:2100   */\n      dup3\n        /* \"#utility.yul\":2089:2092   */\n      dup3\n        /* \"#utility.yul\":2082:2101   */\n      mstore\n        /* \"#utility.yul\":2134:2138   */\n      0x20\n        /* \"#utility.yul\":2129:2132   */\n      dup3\n        /* \"#utility.yul\":2125:2139   */\n      add\n        /* \"#utility.yul\":2110:2139   */\n      swap1\n      pop\n        /* \"#utility.yul\":1986:2145   */\n      swap3\n      swap2\n      pop\n      pop\n      jump\t// out\n        /* \"#utility.yul\":2151:2290   */\n    tag_181:\n        /* \"#utility.yul\":2240:2246   */\n      dup3\n        /* \"#utility.yul\":2235:2238   */\n      dup2\n        /* \"#utility.yul\":2230:2233   */\n      dup4\n        /* \"#utility.yul\":2224:2247   */\n      mcopy\n        /* \"#utility.yul\":2281:2282   */\n      0x00\n        /* \"#utility.yul\":2272:2278   */\n      dup4\n        /* \"#utility.yul\":2267:2270   */\n      dup4\n        /* \"#utility.yul\":2263:2279   */\n      add\n        /* \"#utility.yul\":2256:2283   */\n      mstore\n        /* \"#utility.yul\":2151:2290   */\n      pop\n      pop\n      pop\n      jump\t// out\n        /* \"#utility.yul\":2296:2398   */\n    tag_182:\n        /* \"#utility.yul\":2337:2343   */\n      0x00\n        /* \"#utility.yul\":2388:2390   */\n      0x1f\n        /* \"#utility.yul\":2384:2391   */\n      not\n        /* \"#utility.yul\":2379:2381   */\n      0x1f\n        /* \"#utility.yul\":2372:2377   */\n      dup4\n        /* \"#utility.yul\":2368:2382   */\n      add\n        /* \"#utility.yul\":2364:2392   */\n      and\n        /* \"#utility.yul\":2354:2392   */\n      swap1\n      pop\n        /* \"#utility.yul\":2296:2398   */\n      swap2\n      swap1\n      pop\n      jump\t// out\n        /* \"#utility.yul\":2404:2761   */\n    tag_183:\n        /* \"#utility.yul\":2482:2485   */\n      0x00\n        /* \"#utility.yul\":2510:2549   */\n      tag_273\n        /* \"#utility.yul\":2543:2548   */\n      dup3\n        /* \"#utility.yul\":2510:2549   */\n      tag_179\n      jump\t// in\n    tag_273:\n        /* \"#utility.yul\":2565:2626   */\n      tag_274\n        /* \"#utility.yul\":2619:2625   */\n      dup2\n        /* \"#utility.yul\":2614:2617   */\n      dup6\n        /* \"#utility.yul\":2565:2626   */\n      tag_180\n      jump\t// in\n    tag_274:\n        /* \"#utility.yul\":2558:2626   */\n      swap4\n      pop\n        /* \"#utility.yul\":2635:2700   */\n      tag_275\n        /* \"#utility.yul\":2693:2699   */\n      dup2\n        /* \"#utility.yul\":2688:2691   */\n      dup6\n        /* \"#utility.yul\":2681:2685   */\n      0x20\n        /* \"#utility.yul\":2674:2679   */\n      dup7\n        /* \"#utility.yul\":2670:2686   */\n      add\n        /* \"#utility.yul\":2635:2700   */\n      tag_181\n      jump\t// in\n    tag_275:\n        /* \"#utility.yul\":2725:2754   */\n      tag_276\n        /* \"#utility.yul\":2747:2753   */\n      dup2\n        /* \"#utility.yul\":2725:2754   */\n      tag_182\n      jump\t// in\n    tag_276:\n        /* \"#utility.yul\":2720:2723   */\n      dup5\n        /* \"#utility.yul\":2716:2755   */\n      add\n        /* \"#utility.yul\":2709:2755   */\n      swap2\n      pop\n        /* \"#utility.yul\":2486:2761   */\n      pop\n        /* \"#utility.yul\":2404:2761   */\n      swap3\n      swap2\n      pop\n      pop\n      jump\t// out\n        /* \"#utility.yul\":2767:2875   */\n    tag_184:\n        /* \"#utility.yul\":2844:2868   */\n      tag_278\n        /* \"#utility.yul\":2862:2867   */\n      dup2\n        /* \"#utility.yul\":2844:2868   */\n      tag_171\n      jump\t// in\n    tag_278:\n        /* \"#utility.yul\":2839:2842   */\n      dup3\n        /* \"#utility.yul\":2832:2869   */\n      mstore\n        /* \"#utility.yul\":2767:2875   */\n      pop\n      pop\n      jump\t// out\n        /* \"#utility.yul\":2933:3887   */\n    tag_185:\n        /* \"#utility.yul\":3032:3035   */\n      0x00\n        /* \"#utility.yul\":3068:3072   */\n      0x80\n        /* \"#utility.yul\":3063:3066   */\n      dup4\n        /* \"#utility.yul\":3059:3073   */\n      add\n        /* \"#utility.yul\":3157:3161   */\n      0x00\n        /* \"#utility.yul\":3150:3155   */\n      dup4\n        /* \"#utility.yul\":3146:3162   */\n      add\n        /* \"#utility.yul\":3140:3163   */\n      mload\n        /* \"#utility.yul\":3176:3239   */\n      tag_280\n        /* \"#utility.yul\":3233:3237   */\n      0x00\n        /* \"#utility.yul\":3228:3231   */\n      dup7\n        /* \"#utility.yul\":3224:3238   */\n      add\n        /* \"#utility.yul\":3210:3222   */\n      dup3\n        /* \"#utility.yul\":3176:3239   */\n      tag_178\n      jump\t// in\n    tag_280:\n        /* \"#utility.yul\":3083:3249   */\n      pop\n        /* \"#utility.yul\":3339:3343   */\n      0x20\n        /* \"#utility.yul\":3332:3337   */\n      dup4\n        /* \"#utility.yul\":3328:3344   */\n      add\n        /* \"#utility.yul\":3322:3345   */\n      mload\n        /* \"#utility.yul\":3358:3421   */\n      tag_281\n        /* \"#utility.yul\":3415:3419   */\n      0x20\n        /* \"#utility.yul\":3410:3413   */\n      dup7\n        /* \"#utility.yul\":3406:3420   */\n      add\n        /* \"#utility.yul\":3392:3404   */\n      dup3\n        /* \"#utility.yul\":3358:3421   */\n      tag_178\n      jump\t// in\n    tag_281:\n        /* \"#utility.yul\":3259:3431   */\n      pop\n        /* \"#utility.yul\":3521:3525   */\n      0x40\n        /* \"#utility.yul\":3514:3519   */\n      dup4\n        /* \"#utility.yul\":3510:3526   */\n      add\n        /* \"#utility.yul\":3504:3527   */\n      mload\n        /* \"#utility.yul\":3574:3577   */\n      dup5\n        /* \"#utility.yul\":3568:3572   */\n      dup3\n        /* \"#utility.yul\":3564:3578   */\n      sub\n        /* \"#utility.yul\":3557:3561   */\n      0x40\n        /* \"#utility.yul\":3552:3555   */\n      dup7\n        /* \"#utility.yul\":3548:3562   */\n      add\n        /* \"#utility.yul\":3541:3579   */\n      mstore\n        /* \"#utility.yul\":3600:3673   */\n      tag_282\n        /* \"#utility.yul\":3668:3672   */\n      dup3\n        /* \"#utility.yul\":3654:3666   */\n      dup3\n        /* \"#utility.yul\":3600:3673   */\n      tag_183\n      jump\t// in\n    tag_282:\n        /* \"#utility.yul\":3592:3673   */\n      swap2\n      pop\n        /* \"#utility.yul\":3441:3684   */\n      pop\n        /* \"#utility.yul\":3768:3772   */\n      0x60\n        /* \"#utility.yul\":3761:3766   */\n      dup4\n        /* \"#utility.yul\":3757:3773   */\n      add\n        /* \"#utility.yul\":3751:3774   */\n      mload\n        /* \"#utility.yul\":3787:3850   */\n      tag_283\n        /* \"#utility.yul\":3844:3848   */\n      0x60\n        /* \"#utility.yul\":3839:3842   */\n      dup7\n        /* \"#utility.yul\":3835:3849   */\n      add\n        /* \"#utility.yul\":3821:3833   */\n      dup3\n        /* \"#utility.yul\":3787:3850   */\n      tag_184\n      jump\t// in\n    tag_283:\n        /* \"#utility.yul\":3694:3860   */\n      pop\n        /* \"#utility.yul\":3877:3881   */\n      dup1\n        /* \"#utility.yul\":3870:3881   */\n      swap2\n      pop\n        /* \"#utility.yul\":3037:3887   */\n      pop\n        /* \"#utility.yul\":2933:3887   */\n      swap3\n      swap2\n      pop\n      pop\n      jump\t// out\n        /* \"#utility.yul\":3893:4129   */\n    tag_186:\n        /* \"#utility.yul\":4002:4012   */\n      0x00\n        /* \"#utility.yul\":4037:4123   */\n      tag_285\n        /* \"#utility.yul\":4119:4122   */\n      dup4\n        /* \"#utility.yul\":4111:4117   */\n      dup4\n        /* \"#utility.yul\":4037:4123   */\n      tag_185\n      jump\t// in\n    tag_285:\n        /* \"#utility.yul\":4023:4123   */\n      swap1\n      pop\n        /* \"#utility.yul\":3893:4129   */\n      swap3\n      swap2\n      pop\n      pop\n      jump\t// out\n        /* \"#utility.yul\":4135:4268   */\n    tag_187:\n        /* \"#utility.yul\":4225:4229   */\n      0x00\n        /* \"#utility.yul\":4257:4261   */\n      0x20\n        /* \"#utility.yul\":4252:4255   */\n      dup3\n        /* \"#utility.yul\":4248:4262   */\n      add\n        /* \"#utility.yul\":4240:4262   */\n      swap1\n      pop\n        /* \"#utility.yul\":4135:4268   */\n      swap2\n      swap1\n      pop\n      jump\t// out\n        /* \"#utility.yul\":4330:5401   */\n    tag_188:\n        /* \"#utility.yul\":4489:4492   */\n      0x00\n        /* \"#utility.yul\":4518:4592   */\n      tag_288\n        /* \"#utility.yul\":4586:4591   */\n      dup3\n        /* \"#utility.yul\":4518:4592   */\n      tag_174\n      jump\t// in\n    tag_288:\n        /* \"#utility.yul\":4608:4714   */\n      tag_289\n        /* \"#utility.yul\":4707:4713   */\n      dup2\n        /* \"#utility.yul\":4702:4705   */\n      dup6\n        /* \"#utility.yul\":4608:4714   */\n      tag_175\n      jump\t// in\n    tag_289:\n        /* \"#utility.yul\":4601:4714   */\n      swap4\n      pop\n        /* \"#utility.yul\":4740:4743   */\n      dup4\n        /* \"#utility.yul\":4785:4789   */\n      0x20\n        /* \"#utility.yul\":4777:4783   */\n      dup3\n        /* \"#utility.yul\":4773:4790   */\n      mul\n        /* \"#utility.yul\":4768:4771   */\n      dup6\n        /* \"#utility.yul\":4764:4791   */\n      add\n        /* \"#utility.yul\":4815:4891   */\n      tag_290\n        /* \"#utility.yul\":4885:4890   */\n      dup6\n        /* \"#utility.yul\":4815:4891   */\n      tag_176\n      jump\t// in\n    tag_290:\n        /* \"#utility.yul\":4914:4921   */\n      dup1\n        /* \"#utility.yul\":4945:4946   */\n      0x00\n        /* \"#utility.yul\":4930:5356   */\n    tag_291:\n        /* \"#utility.yul\":4955:4961   */\n      dup6\n        /* \"#utility.yul\":4952:4953   */\n      dup2\n        /* \"#utility.yul\":4949:4962   */\n      lt\n        /* \"#utility.yul\":4930:5356   */\n      iszero\n      tag_293\n      jumpi\n        /* \"#utility.yul\":5026:5035   */\n      dup5\n        /* \"#utility.yul\":5020:5024   */\n      dup5\n        /* \"#utility.yul\":5016:5036   */\n      sub\n        /* \"#utility.yul\":5011:5014   */\n      dup10\n        /* \"#utility.yul\":5004:5037   */\n      mstore\n        /* \"#utility.yul\":5077:5083   */\n      dup2\n        /* \"#utility.yul\":5071:5084   */\n      mload\n        /* \"#utility.yul\":5105:5209   */\n      tag_294\n        /* \"#utility.yul\":5204:5208   */\n      dup6\n        /* \"#utility.yul\":5189:5202   */\n      dup3\n        /* \"#utility.yul\":5105:5209   */\n      tag_186\n      jump\t// in\n    tag_294:\n        /* \"#utility.yul\":5097:5209   */\n      swap5\n      pop\n        /* \"#utility.yul\":5232:5312   */\n      tag_295\n        /* \"#utility.yul\":5305:5311   */\n      dup4\n        /* \"#utility.yul\":5232:5312   */\n      tag_187\n      jump\t// in\n    tag_295:\n        /* \"#utility.yul\":5222:5312   */\n      swap3\n      pop\n        /* \"#utility.yul\":5341:5345   */\n      0x20\n        /* \"#utility.yul\":5336:5339   */\n      dup11\n        /* \"#utility.yul\":5332:5346   */\n      add\n        /* \"#utility.yul\":5325:5346   */\n      swap10\n      pop\n        /* \"#utility.yul\":4990:5356   */\n      pop\n        /* \"#utility.yul\":4977:4978   */\n      0x01\n        /* \"#utility.yul\":4974:4975   */\n      dup2\n        /* \"#utility.yul\":4970:4979   */\n      add\n        /* \"#utility.yul\":4965:4979   */\n      swap1\n      pop\n        /* \"#utility.yul\":4930:5356   */\n      jump(tag_291)\n    tag_293:\n        /* \"#utility.yul\":4934:4948   */\n      pop\n        /* \"#utility.yul\":5372:5376   */\n      dup3\n        /* \"#utility.yul\":5365:5376   */\n      swap8\n      pop\n        /* \"#utility.yul\":5392:5395   */\n      dup8\n        /* \"#utility.yul\":5385:5395   */\n      swap6\n      pop\n        /* \"#utility.yul\":4494:5401   */\n      pop\n      pop\n      pop\n      pop\n      pop\n        /* \"#utility.yul\":4330:5401   */\n      swap3\n      swap2\n      pop\n      pop\n      jump\t// out\n        /* \"#utility.yul\":5407:5860   */\n    tag_17:\n        /* \"#utility.yul\":5590:5594   */\n      0x00\n        /* \"#utility.yul\":5628:5630   */\n      0x20\n        /* \"#utility.yul\":5617:5626   */\n      dup3\n        /* \"#utility.yul\":5613:5631   */\n      add\n        /* \"#utility.yul\":5605:5631   */\n      swap1\n      pop\n        /* \"#utility.yul\":5677:5686   */\n      dup2\n        /* \"#utility.yul\":5671:5675   */\n      dup2\n        /* \"#utility.yul\":5667:5687   */\n      sub\n        /* \"#utility.yul\":5663:5664   */\n      0x00\n        /* \"#utility.yul\":5652:5661   */\n      dup4\n        /* \"#utility.yul\":5648:5665   */\n      add\n        /* \"#utility.yul\":5641:5688   */\n      mstore\n        /* \"#utility.yul\":5705:5853   */\n      tag_297\n        /* \"#utility.yul\":5848:5852   */\n      dup2\n        /* \"#utility.yul\":5839:5845   */\n      dup5\n        /* \"#utility.yul\":5705:5853   */\n      tag_188\n      jump\t// in\n    tag_297:\n        /* \"#utility.yul\":5697:5853   */\n      swap1\n      pop\n        /* \"#utility.yul\":5407:5860   */\n      swap3\n      swap2\n      pop\n      pop\n      jump\t// out\n        /* \"#utility.yul\":5866:5984   */\n    tag_189:\n        /* \"#utility.yul\":5953:5977   */\n      tag_299\n        /* \"#utility.yul\":5971:5976   */\n      dup2\n        /* \"#utility.yul\":5953:5977   */\n      tag_177\n      jump\t// in\n    tag_299:\n        /* \"#utility.yul\":5948:5951   */\n      dup3\n        /* \"#utility.yul\":5941:5978   */\n      mstore\n        /* \"#utility.yul\":5866:5984   */\n      pop\n      pop\n      jump\t// out\n        /* \"#utility.yul\":5990:6212   */\n    tag_22:\n        /* \"#utility.yul\":6083:6087   */\n      0x00\n        /* \"#utility.yul\":6121:6123   */\n      0x20\n        /* \"#utility.yul\":6110:6119   */\n      dup3\n        /* \"#utility.yul\":6106:6124   */\n      add\n        /* \"#utility.yul\":6098:6124   */\n      swap1\n      pop\n        /* \"#utility.yul\":6134:6205   */\n      tag_301\n        /* \"#utility.yul\":6202:6203   */\n      0x00\n        /* \"#utility.yul\":6191:6200   */\n      dup4\n        /* \"#utility.yul\":6187:6204   */\n      add\n        /* \"#utility.yul\":6178:6184   */\n      dup5\n        /* \"#utility.yul\":6134:6205   */\n      tag_189\n      jump\t// in\n    tag_301:\n        /* \"#utility.yul\":5990:6212   */\n      swap3\n      swap2\n      pop\n      pop\n      jump\t// out\n        /* \"#utility.yul\":6218:6335   */\n    tag_190:\n        /* \"#utility.yul\":6327:6328   */\n      0x00\n        /* \"#utility.yul\":6324:6325   */\n      dup1\n        /* \"#utility.yul\":6317:6329   */\n      revert\n        /* \"#utility.yul\":6341:6458   */\n    tag_191:\n        /* \"#utility.yul\":6450:6451   */\n      0x00\n        /* \"#utility.yul\":6447:6448   */\n      dup1\n        /* \"#utility.yul\":6440:6452   */\n      revert\n        /* \"#utility.yul\":6464:6644   */\n    tag_192:\n        /* \"#utility.yul\":6512:6589   */\n      0x4e487b7100000000000000000000000000000000000000000000000000000000\n        /* \"#utility.yul\":6509:6510   */\n      0x00\n        /* \"#utility.yul\":6502:6590   */\n      mstore\n        /* \"#utility.yul\":6609:6613   */\n      0x41\n        /* \"#utility.yul\":6606:6607   */\n      0x04\n        /* \"#utility.yul\":6599:6614   */\n      mstore\n        /* \"#utility.yul\":6633:6637   */\n      0x24\n        /* \"#utility.yul\":6630:6631   */\n      0x00\n        /* \"#utility.yul\":6623:6638   */\n      revert\n        /* \"#utility.yul\":6650:6931   */\n    tag_193:\n        /* \"#utility.yul\":6733:6760   */\n      tag_306\n        /* \"#utility.yul\":6755:6759   */\n      dup3\n        /* \"#utility.yul\":6733:6760   */\n      tag_182\n      jump\t// in\n    tag_306:\n        /* \"#utility.yul\":6725:6731   */\n      dup2\n        /* \"#utility.yul\":6721:6761   */\n      add\n        /* \"#utility.yul\":6863:6869   */\n      dup2\n        /* \"#utility.yul\":6851:6861   */\n      dup2\n        /* \"#utility.yul\":6848:6870   */\n      lt\n        /* \"#utility.yul\":6827:6845   */\n      0xffffffffffffffff\n        /* \"#utility.yul\":6815:6825   */\n      dup3\n        /* \"#utility.yul\":6812:6846   */\n      gt\n        /* \"#utility.yul\":6809:6871   */\n      or\n        /* \"#utility.yul\":6806:6894   */\n      iszero\n      tag_307\n      jumpi\n        /* \"#utility.yul\":6874:6892   */\n      tag_308\n      tag_192\n      jump\t// in\n    tag_308:\n        /* \"#utility.yul\":6806:6894   */\n    tag_307:\n        /* \"#utility.yul\":6914:6924   */\n      dup1\n        /* \"#utility.yul\":6910:6912   */\n      0x40\n        /* \"#utility.yul\":6903:6925   */\n      mstore\n        /* \"#utility.yul\":6693:6931   */\n      pop\n        /* \"#utility.yul\":6650:6931   */\n      pop\n      pop\n      jump\t// out\n        /* \"#utility.yul\":6937:7066   */\n    tag_194:\n        /* \"#utility.yul\":6971:6977   */\n      0x00\n        /* \"#utility.yul\":6998:7018   */\n      tag_310\n      tag_167\n      jump\t// in\n    tag_310:\n        /* \"#utility.yul\":6988:7018   */\n      swap1\n      pop\n        /* \"#utility.yul\":7027:7060   */\n      tag_311\n        /* \"#utility.yul\":7055:7059   */\n      dup3\n        /* \"#utility.yul\":7047:7053   */\n      dup3\n        /* \"#utility.yul\":7027:7060   */\n      tag_193\n      jump\t// in\n    tag_311:\n        /* \"#utility.yul\":6937:7066   */\n      swap2\n      swap1\n      pop\n      jump\t// out\n        /* \"#utility.yul\":7072:7380   */\n    tag_195:\n        /* \"#utility.yul\":7134:7138   */\n      0x00\n        /* \"#utility.yul\":7224:7242   */\n      0xffffffffffffffff\n        /* \"#utility.yul\":7216:7222   */\n      dup3\n        /* \"#utility.yul\":7213:7243   */\n      gt\n        /* \"#utility.yul\":7210:7266   */\n      iszero\n      tag_313\n      jumpi\n        /* \"#utility.yul\":7246:7264   */\n      tag_314\n      tag_192\n      jump\t// in\n    tag_314:\n        /* \"#utility.yul\":7210:7266   */\n    tag_313:\n        /* \"#utility.yul\":7284:7313   */\n      tag_315\n        /* \"#utility.yul\":7306:7312   */\n      dup3\n        /* \"#utility.yul\":7284:7313   */\n      tag_182\n      jump\t// in\n    tag_315:\n        /* \"#utility.yul\":7276:7313   */\n      swap1\n      pop\n        /* \"#utility.yul\":7368:7372   */\n      0x20\n        /* \"#utility.yul\":7362:7366   */\n      dup2\n        /* \"#utility.yul\":7358:7373   */\n      add\n        /* \"#utility.yul\":7350:7373   */\n      swap1\n      pop\n        /* \"#utility.yul\":7072:7380   */\n      swap2\n      swap1\n      pop\n      jump\t// out\n        /* \"#utility.yul\":7386:7534   */\n    tag_196:\n        /* \"#utility.yul\":7484:7490   */\n      dup3\n        /* \"#utility.yul\":7479:7482   */\n      dup2\n        /* \"#utility.yul\":7474:7477   */\n      dup4\n        /* \"#utility.yul\":7461:7491   */\n      calldatacopy\n        /* \"#utility.yul\":7525:7526   */\n      0x00\n        /* \"#utility.yul\":7516:7522   */\n      dup4\n        /* \"#utility.yul\":7511:7514   */\n      dup4\n        /* \"#utility.yul\":7507:7523   */\n      add\n        /* \"#utility.yul\":7500:7527   */\n      mstore\n        /* \"#utility.yul\":7386:7534   */\n      pop\n      pop\n      pop\n      jump\t// out\n        /* \"#utility.yul\":7540:7965   */\n    tag_197:\n        /* \"#utility.yul\":7618:7623   */\n      0x00\n        /* \"#utility.yul\":7643:7709   */\n      tag_318\n        /* \"#utility.yul\":7659:7708   */\n      tag_319\n        /* \"#utility.yul\":7701:7707   */\n      dup5\n        /* \"#utility.yul\":7659:7708   */\n      tag_195\n      jump\t// in\n    tag_319:\n        /* \"#utility.yul\":7643:7709   */\n      tag_194\n      jump\t// in\n    tag_318:\n        /* \"#utility.yul\":7634:7709   */\n      swap1\n      pop\n        /* \"#utility.yul\":7732:7738   */\n      dup3\n        /* \"#utility.yul\":7725:7730   */\n      dup2\n        /* \"#utility.yul\":7718:7739   */\n      mstore\n        /* \"#utility.yul\":7770:7774   */\n      0x20\n        /* \"#utility.yul\":7763:7768   */\n      dup2\n        /* \"#utility.yul\":7759:7775   */\n      add\n        /* \"#utility.yul\":7808:7811   */\n      dup5\n        /* \"#utility.yul\":7799:7805   */\n      dup5\n        /* \"#utility.yul\":7794:7797   */\n      dup5\n        /* \"#utility.yul\":7790:7806   */\n      add\n        /* \"#utility.yul\":7787:7812   */\n      gt\n        /* \"#utility.yul\":7784:7896   */\n      iszero\n      tag_320\n      jumpi\n        /* \"#utility.yul\":7815:7894   */\n      tag_321\n      tag_191\n      jump\t// in\n    tag_321:\n        /* \"#utility.yul\":7784:7896   */\n    tag_320:\n        /* \"#utility.yul\":7905:7959   */\n      tag_322\n        /* \"#utility.yul\":7952:7958   */\n      dup5\n        /* \"#utility.yul\":7947:7950   */\n      dup3\n        /* \"#utility.yul\":7942:7945   */\n      dup6\n        /* \"#utility.yul\":7905:7959   */\n      tag_196\n      jump\t// in\n    tag_322:\n        /* \"#utility.yul\":7624:7965   */\n      pop\n        /* \"#utility.yul\":7540:7965   */\n      swap4\n      swap3\n      pop\n      pop\n      pop\n      jump\t// out\n        /* \"#utility.yul\":7985:8325   */\n    tag_198:\n        /* \"#utility.yul\":8041:8046   */\n      0x00\n        /* \"#utility.yul\":8090:8093   */\n      dup3\n        /* \"#utility.yul\":8083:8087   */\n      0x1f\n        /* \"#utility.yul\":8075:8081   */\n      dup4\n        /* \"#utility.yul\":8071:8088   */\n      add\n        /* \"#utility.yul\":8067:8094   */\n      slt\n        /* \"#utility.yul\":8057:8179   */\n      tag_324\n      jumpi\n        /* \"#utility.yul\":8098:8177   */\n      tag_325\n      tag_190\n      jump\t// in\n    tag_325:\n        /* \"#utility.yul\":8057:8179   */\n    tag_324:\n        /* \"#utility.yul\":8215:8221   */\n      dup2\n        /* \"#utility.yul\":8202:8222   */\n      calldataload\n        /* \"#utility.yul\":8240:8319   */\n      tag_326\n        /* \"#utility.yul\":8315:8318   */\n      dup5\n        /* \"#utility.yul\":8307:8313   */\n      dup3\n        /* \"#utility.yul\":8300:8304   */\n      0x20\n        /* \"#utility.yul\":8292:8298   */\n      dup7\n        /* \"#utility.yul\":8288:8305   */\n      add\n        /* \"#utility.yul\":8240:8319   */\n      tag_197\n      jump\t// in\n    tag_326:\n        /* \"#utility.yul\":8231:8319   */\n      swap2\n      pop\n        /* \"#utility.yul\":8047:8325   */\n      pop\n        /* \"#utility.yul\":7985:8325   */\n      swap3\n      swap2\n      pop\n      pop\n      jump\t// out\n        /* \"#utility.yul\":8331:8840   */\n    tag_26:\n        /* \"#utility.yul\":8400:8406   */\n      0x00\n        /* \"#utility.yul\":8449:8451   */\n      0x20\n        /* \"#utility.yul\":8437:8446   */\n      dup3\n        /* \"#utility.yul\":8428:8435   */\n      dup5\n        /* \"#utility.yul\":8424:8447   */\n      sub\n        /* \"#utility.yul\":8420:8452   */\n      slt\n        /* \"#utility.yul\":8417:8536   */\n      iszero\n      tag_328\n      jumpi\n        /* \"#utility.yul\":8455:8534   */\n      tag_329\n      tag_168\n      jump\t// in\n    tag_329:\n        /* \"#utility.yul\":8417:8536   */\n    tag_328:\n        /* \"#utility.yul\":8603:8604   */\n      0x00\n        /* \"#utility.yul\":8592:8601   */\n      dup3\n        /* \"#utility.yul\":8588:8605   */\n      add\n        /* \"#utility.yul\":8575:8606   */\n      calldataload\n        /* \"#utility.yul\":8633:8651   */\n      0xffffffffffffffff\n        /* \"#utility.yul\":8625:8631   */\n      dup2\n        /* \"#utility.yul\":8622:8652   */\n      gt\n        /* \"#utility.yul\":8619:8736   */\n      iszero\n      tag_330\n      jumpi\n        /* \"#utility.yul\":8655:8734   */\n      tag_331\n      tag_169\n      jump\t// in\n    tag_331:\n        /* \"#utility.yul\":8619:8736   */\n    tag_330:\n        /* \"#utility.yul\":8760:8823   */\n      tag_332\n        /* \"#utility.yul\":8815:8822   */\n      dup5\n        /* \"#utility.yul\":8806:8812   */\n      dup3\n        /* \"#utility.yul\":8795:8804   */\n      dup6\n        /* \"#utility.yul\":8791:8813   */\n      add\n        /* \"#utility.yul\":8760:8823   */\n      tag_198\n      jump\t// in\n    tag_332:\n        /* \"#utility.yul\":8750:8823   */\n      swap2\n      pop\n        /* \"#utility.yul\":8546:8833   */\n      pop\n        /* \"#utility.yul\":8331:8840   */\n      swap3\n      swap2\n      pop\n      pop\n      jump\t// out\n        /* \"#utility.yul\":8846:9680   */\n    tag_31:\n        /* \"#utility.yul\":8934:8940   */\n      0x00\n        /* \"#utility.yul\":8942:8948   */\n      dup1\n        /* \"#utility.yul\":8991:8993   */\n      0x40\n        /* \"#utility.yul\":8979:8988   */\n      dup4\n        /* \"#utility.yul\":8970:8977   */\n      dup6\n        /* \"#utility.yul\":8966:8989   */\n      sub\n        /* \"#utility.yul\":8962:8994   */\n      slt\n        /* \"#utility.yul\":8959:9078   */\n      iszero\n      tag_334\n      jumpi\n        /* \"#utility.yul\":8997:9076   */\n      tag_335\n      tag_168\n      jump\t// in\n    tag_335:\n        /* \"#utility.yul\":8959:9078   */\n    tag_334:\n        /* \"#utility.yul\":9145:9146   */\n      0x00\n        /* \"#utility.yul\":9134:9143   */\n      dup4\n        /* \"#utility.yul\":9130:9147   */\n      add\n        /* \"#utility.yul\":9117:9148   */\n      calldataload\n        /* \"#utility.yul\":9175:9193   */\n      0xffffffffffffffff\n        /* \"#utility.yul\":9167:9173   */\n      dup2\n        /* \"#utility.yul\":9164:9194   */\n      gt\n        /* \"#utility.yul\":9161:9278   */\n      iszero\n      tag_336\n      jumpi\n        /* \"#utility.yul\":9197:9276   */\n      tag_337\n      tag_169\n      jump\t// in\n    tag_337:\n        /* \"#utility.yul\":9161:9278   */\n    tag_336:\n        /* \"#utility.yul\":9302:9365   */\n      tag_338\n        /* \"#utility.yul\":9357:9364   */\n      dup6\n        /* \"#utility.yul\":9348:9354   */\n      dup3\n        /* \"#utility.yul\":9337:9346   */\n      dup7\n        /* \"#utility.yul\":9333:9355   */\n      add\n        /* \"#utility.yul\":9302:9365   */\n      tag_198\n      jump\t// in\n    tag_338:\n        /* \"#utility.yul\":9292:9365   */\n      swap3\n      pop\n        /* \"#utility.yul\":9088:9375   */\n      pop\n        /* \"#utility.yul\":9442:9444   */\n      0x20\n        /* \"#utility.yul\":9431:9440   */\n      dup4\n        /* \"#utility.yul\":9427:9445   */\n      add\n        /* \"#utility.yul\":9414:9446   */\n      calldataload\n        /* \"#utility.yul\":9473:9491   */\n      0xffffffffffffffff\n        /* \"#utility.yul\":9465:9471   */\n      dup2\n        /* \"#utility.yul\":9462:9492   */\n      gt\n        /* \"#utility.yul\":9459:9576   */\n      iszero\n      tag_339\n      jumpi\n        /* \"#utility.yul\":9495:9574   */\n      tag_340\n      tag_169\n      jump\t// in\n    tag_340:\n        /* \"#utility.yul\":9459:9576   */\n    tag_339:\n        /* \"#utility.yul\":9600:9663   */\n      tag_341\n        /* \"#utility.yul\":9655:9662   */\n      dup6\n        /* \"#utility.yul\":9646:9652   */\n      dup3\n        /* \"#utility.yul\":9635:9644   */\n      dup7\n        /* \"#utility.yul\":9631:9653   */\n      add\n        /* \"#utility.yul\":9600:9663   */\n      tag_198\n      jump\t// in\n    tag_341:\n        /* \"#utility.yul\":9590:9663   */\n      swap2\n      pop\n        /* \"#utility.yul\":9385:9673   */\n      pop\n        /* \"#utility.yul\":8846:9680   */\n      swap3\n      pop\n      swap3\n      swap1\n      pop\n      jump\t// out\n        /* \"#utility.yul\":9686:9808   */\n    tag_199:\n        /* \"#utility.yul\":9759:9783   */\n      tag_343\n        /* \"#utility.yul\":9777:9782   */\n      dup2\n        /* \"#utility.yul\":9759:9783   */\n      tag_177\n      jump\t// in\n    tag_343:\n        /* \"#utility.yul\":9752:9757   */\n      dup2\n        /* \"#utility.yul\":9749:9784   */\n      eq\n        /* \"#utility.yul\":9739:9802   */\n      tag_344\n      jumpi\n        /* \"#utility.yul\":9798:9799   */\n      0x00\n        /* \"#utility.yul\":9795:9796   */\n      dup1\n        /* \"#utility.yul\":9788:9800   */\n      revert\n        /* \"#utility.yul\":9739:9802   */\n    tag_344:\n        /* \"#utility.yul\":9686:9808   */\n      pop\n      jump\t// out\n        /* \"#utility.yul\":9814:9953   */\n    tag_200:\n        /* \"#utility.yul\":9860:9865   */\n      0x00\n        /* \"#utility.yul\":9898:9904   */\n      dup2\n        /* \"#utility.yul\":9885:9905   */\n      calldataload\n        /* \"#utility.yul\":9876:9905   */\n      swap1\n      pop\n        /* \"#utility.yul\":9914:9947   */\n      tag_346\n        /* \"#utility.yul\":9941:9946   */\n      dup2\n        /* \"#utility.yul\":9914:9947   */\n      tag_199\n      jump\t// in\n    tag_346:\n        /* \"#utility.yul\":9814:9953   */\n      swap3\n      swap2\n      pop\n      pop\n      jump\t// out\n        /* \"#utility.yul\":9959:10433   */\n    tag_36:\n        /* \"#utility.yul\":10027:10033   */\n      0x00\n        /* \"#utility.yul\":10035:10041   */\n      dup1\n        /* \"#utility.yul\":10084:10086   */\n      0x40\n        /* \"#utility.yul\":10072:10081   */\n      dup4\n        /* \"#utility.yul\":10063:10070   */\n      dup6\n        /* \"#utility.yul\":10059:10082   */\n      sub\n        /* \"#utility.yul\":10055:10087   */\n      slt\n        /* \"#utility.yul\":10052:10171   */\n      iszero\n      tag_348\n      jumpi\n        /* \"#utility.yul\":10090:10169   */\n      tag_349\n      tag_168\n      jump\t// in\n    tag_349:\n        /* \"#utility.yul\":10052:10171   */\n    tag_348:\n        /* \"#utility.yul\":10210:10211   */\n      0x00\n        /* \"#utility.yul\":10235:10288   */\n      tag_350\n        /* \"#utility.yul\":10280:10287   */\n      dup6\n        /* \"#utility.yul\":10271:10277   */\n      dup3\n        /* \"#utility.yul\":10260:10269   */\n      dup7\n        /* \"#utility.yul\":10256:10278   */\n      add\n        /* \"#utility.yul\":10235:10288   */\n      tag_173\n      jump\t// in\n    tag_350:\n        /* \"#utility.yul\":10225:10288   */\n      swap3\n      pop\n        /* \"#utility.yul\":10181:10298   */\n      pop\n        /* \"#utility.yul\":10337:10339   */\n      0x20\n        /* \"#utility.yul\":10363:10416   */\n      tag_351\n        /* \"#utility.yul\":10408:10415   */\n      dup6\n        /* \"#utility.yul\":10399:10405   */\n      dup3\n        /* \"#utility.yul\":10388:10397   */\n      dup7\n        /* \"#utility.yul\":10384:10406   */\n      add\n        /* \"#utility.yul\":10363:10416   */\n      tag_200\n      jump\t// in\n    tag_351:\n        /* \"#utility.yul\":10353:10416   */\n      swap2\n      pop\n        /* \"#utility.yul\":10308:10426   */\n      pop\n        /* \"#utility.yul\":9959:10433   */\n      swap3\n      pop\n      swap3\n      swap1\n      pop\n      jump\t// out\n        /* \"#utility.yul\":10439:10608   */\n    tag_201:\n        /* \"#utility.yul\":10523:10534   */\n      0x00\n        /* \"#utility.yul\":10557:10563   */\n      dup3\n        /* \"#utility.yul\":10552:10555   */\n      dup3\n        /* \"#utility.yul\":10545:10564   */\n      mstore\n        /* \"#utility.yul\":10597:10601   */\n      0x20\n        /* \"#utility.yul\":10592:10595   */\n      dup3\n        /* \"#utility.yul\":10588:10602   */\n      add\n        /* \"#utility.yul\":10573:10602   */\n      swap1\n      pop\n        /* \"#utility.yul\":10439:10608   */\n      swap3\n      swap2\n      pop\n      pop\n      jump\t// out\n        /* \"#utility.yul\":10614:10991   */\n    tag_202:\n        /* \"#utility.yul\":10702:10705   */\n      0x00\n        /* \"#utility.yul\":10730:10769   */\n      tag_354\n        /* \"#utility.yul\":10763:10768   */\n      dup3\n        /* \"#utility.yul\":10730:10769   */\n      tag_179\n      jump\t// in\n    tag_354:\n        /* \"#utility.yul\":10785:10856   */\n      tag_355\n        /* \"#utility.yul\":10849:10855   */\n      dup2\n        /* \"#utility.yul\":10844:10847   */\n      dup6\n        /* \"#utility.yul\":10785:10856   */\n      tag_201\n      jump\t// in\n    tag_355:\n        /* \"#utility.yul\":10778:10856   */\n      swap4\n      pop\n        /* \"#utility.yul\":10865:10930   */\n      tag_356\n        /* \"#utility.yul\":10923:10929   */\n      dup2\n        /* \"#utility.yul\":10918:10921   */\n      dup6\n        /* \"#utility.yul\":10911:10915   */\n      0x20\n        /* \"#utility.yul\":10904:10909   */\n      dup7\n        /* \"#utility.yul\":10900:10916   */\n      add\n        /* \"#utility.yul\":10865:10930   */\n      tag_181\n      jump\t// in\n    tag_356:\n        /* \"#utility.yul\":10955:10984   */\n      tag_357\n        /* \"#utility.yul\":10977:10983   */\n      dup2\n        /* \"#utility.yul\":10955:10984   */\n      tag_182\n      jump\t// in\n    tag_357:\n        /* \"#utility.yul\":10950:10953   */\n      dup5\n        /* \"#utility.yul\":10946:10985   */\n      add\n        /* \"#utility.yul\":10939:10985   */\n      swap2\n      pop\n        /* \"#utility.yul\":10706:10991   */\n      pop\n        /* \"#utility.yul\":10614:10991   */\n      swap3\n      swap2\n      pop\n      pop\n      jump\t// out\n        /* \"#utility.yul\":10997:11115   */\n    tag_203:\n        /* \"#utility.yul\":11084:11108   */\n      tag_359\n        /* \"#utility.yul\":11102:11107   */\n      dup2\n        /* \"#utility.yul\":11084:11108   */\n      tag_171\n      jump\t// in\n    tag_359:\n        /* \"#utility.yul\":11079:11082   */\n      dup3\n        /* \"#utility.yul\":11072:11109   */\n      mstore\n        /* \"#utility.yul\":10997:11115   */\n      pop\n      pop\n      jump\t// out\n        /* \"#utility.yul\":11121:11765   */\n    tag_39:\n        /* \"#utility.yul\":11318:11322   */\n      0x00\n        /* \"#utility.yul\":11356:11359   */\n      0x80\n        /* \"#utility.yul\":11345:11354   */\n      dup3\n        /* \"#utility.yul\":11341:11360   */\n      add\n        /* \"#utility.yul\":11333:11360   */\n      swap1\n      pop\n        /* \"#utility.yul\":11370:11441   */\n      tag_361\n        /* \"#utility.yul\":11438:11439   */\n      0x00\n        /* \"#utility.yul\":11427:11436   */\n      dup4\n        /* \"#utility.yul\":11423:11440   */\n      add\n        /* \"#utility.yul\":11414:11420   */\n      dup8\n        /* \"#utility.yul\":11370:11441   */\n      tag_189\n      jump\t// in\n    tag_361:\n        /* \"#utility.yul\":11451:11523   */\n      tag_362\n        /* \"#utility.yul\":11519:11521   */\n      0x20\n        /* \"#utility.yul\":11508:11517   */\n      dup4\n        /* \"#utility.yul\":11504:11522   */\n      add\n        /* \"#utility.yul\":11495:11501   */\n      dup7\n        /* \"#utility.yul\":11451:11523   */\n      tag_189\n      jump\t// in\n    tag_362:\n        /* \"#utility.yul\":11570:11579   */\n      dup2\n        /* \"#utility.yul\":11564:11568   */\n      dup2\n        /* \"#utility.yul\":11560:11580   */\n      sub\n        /* \"#utility.yul\":11555:11557   */\n      0x40\n        /* \"#utility.yul\":11544:11553   */\n      dup4\n        /* \"#utility.yul\":11540:11558   */\n      add\n        /* \"#utility.yul\":11533:11581   */\n      mstore\n        /* \"#utility.yul\":11598:11676   */\n      tag_363\n        /* \"#utility.yul\":11671:11675   */\n      dup2\n        /* \"#utility.yul\":11662:11668   */\n      dup6\n        /* \"#utility.yul\":11598:11676   */\n      tag_202\n      jump\t// in\n    tag_363:\n        /* \"#utility.yul\":11590:11676   */\n      swap1\n      pop\n        /* \"#utility.yul\":11686:11758   */\n      tag_364\n        /* \"#utility.yul\":11754:11756   */\n      0x60\n        /* \"#utility.yul\":11743:11752   */\n      dup4\n        /* \"#utility.yul\":11739:11757   */\n      add\n        /* \"#utility.yul\":11730:11736   */\n      dup5\n        /* \"#utility.yul\":11686:11758   */\n      tag_203\n      jump\t// in\n    tag_364:\n        /* \"#utility.yul\":11121:11765   */\n      swap6\n      swap5\n      pop\n      pop\n      pop\n      pop\n      pop\n      jump\t// out\n        /* \"#utility.yul\":11771:12395   */\n    tag_45:\n        /* \"#utility.yul\":11960:11964   */\n      0x00\n        /* \"#utility.yul\":11998:12000   */\n      0x60\n        /* \"#utility.yul\":11987:11996   */\n      dup3\n        /* \"#utility.yul\":11983:12001   */\n      add\n        /* \"#utility.yul\":11975:12001   */\n      swap1\n      pop\n        /* \"#utility.yul\":12047:12056   */\n      dup2\n        /* \"#utility.yul\":12041:12045   */\n      dup2\n        /* \"#utility.yul\":12037:12057   */\n      sub\n        /* \"#utility.yul\":12033:12034   */\n      0x00\n        /* \"#utility.yul\":12022:12031   */\n      dup4\n        /* \"#utility.yul\":12018:12035   */\n      add\n        /* \"#utility.yul\":12011:12058   */\n      mstore\n        /* \"#utility.yul\":12075:12153   */\n      tag_366\n        /* \"#utility.yul\":12148:12152   */\n      dup2\n        /* \"#utility.yul\":12139:12145   */\n      dup7\n        /* \"#utility.yul\":12075:12153   */\n      tag_202\n      jump\t// in\n    tag_366:\n        /* \"#utility.yul\":12067:12153   */\n      swap1\n      pop\n        /* \"#utility.yul\":12200:12209   */\n      dup2\n        /* \"#utility.yul\":12194:12198   */\n      dup2\n        /* \"#utility.yul\":12190:12210   */\n      sub\n        /* \"#utility.yul\":12185:12187   */\n      0x20\n        /* \"#utility.yul\":12174:12183   */\n      dup4\n        /* \"#utility.yul\":12170:12188   */\n      add\n        /* \"#utility.yul\":12163:12211   */\n      mstore\n        /* \"#utility.yul\":12228:12306   */\n      tag_367\n        /* \"#utility.yul\":12301:12305   */\n      dup2\n        /* \"#utility.yul\":12292:12298   */\n      dup6\n        /* \"#utility.yul\":12228:12306   */\n      tag_202\n      jump\t// in\n    tag_367:\n        /* \"#utility.yul\":12220:12306   */\n      swap1\n      pop\n        /* \"#utility.yul\":12316:12388   */\n      tag_368\n        /* \"#utility.yul\":12384:12386   */\n      0x40\n        /* \"#utility.yul\":12373:12382   */\n      dup4\n        /* \"#utility.yul\":12369:12387   */\n      add\n        /* \"#utility.yul\":12360:12366   */\n      dup5\n        /* \"#utility.yul\":12316:12388   */\n      tag_203\n      jump\t// in\n    tag_368:\n        /* \"#utility.yul\":11771:12395   */\n      swap5\n      swap4\n      pop\n      pop\n      pop\n      pop\n      jump\t// out\n        /* \"#utility.yul\":12401:12730   */\n    tag_52:\n        /* \"#utility.yul\":12460:12466   */\n      0x00\n        /* \"#utility.yul\":12509:12511   */\n      0x20\n        /* \"#utility.yul\":12497:12506   */\n      dup3\n        /* \"#utility.yul\":12488:12495   */\n      dup5\n        /* \"#utility.yul\":12484:12507   */\n      sub\n        /* \"#utility.yul\":12480:12512   */\n      slt\n        /* \"#utility.yul\":12477:12596   */\n      iszero\n      tag_370\n      jumpi\n        /* \"#utility.yul\":12515:12594   */\n      tag_371\n      tag_168\n      jump\t// in\n    tag_371:\n        /* \"#utility.yul\":12477:12596   */\n    tag_370:\n        /* \"#utility.yul\":12635:12636   */\n      0x00\n        /* \"#utility.yul\":12660:12713   */\n      tag_372\n        /* \"#utility.yul\":12705:12712   */\n      dup5\n        /* \"#utility.yul\":12696:12702   */\n      dup3\n        /* \"#utility.yul\":12685:12694   */\n      dup6\n        /* \"#utility.yul\":12681:12703   */\n      add\n        /* \"#utility.yul\":12660:12713   */\n      tag_200\n      jump\t// in\n    tag_372:\n        /* \"#utility.yul\":12650:12713   */\n      swap2\n      pop\n        /* \"#utility.yul\":12606:12723   */\n      pop\n        /* \"#utility.yul\":12401:12730   */\n      swap3\n      swap2\n      pop\n      pop\n      jump\t// out\n        /* \"#utility.yul\":12736:12826   */\n    tag_204:\n        /* \"#utility.yul\":12770:12777   */\n      0x00\n        /* \"#utility.yul\":12813:12818   */\n      dup2\n        /* \"#utility.yul\":12806:12819   */\n      iszero\n        /* \"#utility.yul\":12799:12820   */\n      iszero\n        /* \"#utility.yul\":12788:12820   */\n      swap1\n      pop\n        /* \"#utility.yul\":12736:12826   */\n      swap2\n      swap1\n      pop\n      jump\t// out\n        /* \"#utility.yul\":12832:12941   */\n    tag_205:\n        /* \"#utility.yul\":12913:12934   */\n      tag_375\n        /* \"#utility.yul\":12928:12933   */\n      dup2\n        /* \"#utility.yul\":12913:12934   */\n      tag_204\n      jump\t// in\n    tag_375:\n        /* \"#utility.yul\":12908:12911   */\n      dup3\n        /* \"#utility.yul\":12901:12935   */\n      mstore\n        /* \"#utility.yul\":12832:12941   */\n      pop\n      pop\n      jump\t// out\n        /* \"#utility.yul\":12947:13670   */\n    tag_55:\n        /* \"#utility.yul\":13158:13162   */\n      0x00\n        /* \"#utility.yul\":13196:13199   */\n      0x80\n        /* \"#utility.yul\":13185:13194   */\n      dup3\n        /* \"#utility.yul\":13181:13200   */\n      add\n        /* \"#utility.yul\":13173:13200   */\n      swap1\n      pop\n        /* \"#utility.yul\":13246:13255   */\n      dup2\n        /* \"#utility.yul\":13240:13244   */\n      dup2\n        /* \"#utility.yul\":13236:13256   */\n      sub\n        /* \"#utility.yul\":13232:13233   */\n      0x00\n        /* \"#utility.yul\":13221:13230   */\n      dup4\n        /* \"#utility.yul\":13217:13234   */\n      add\n        /* \"#utility.yul\":13210:13257   */\n      mstore\n        /* \"#utility.yul\":13274:13352   */\n      tag_377\n        /* \"#utility.yul\":13347:13351   */\n      dup2\n        /* \"#utility.yul\":13338:13344   */\n      dup8\n        /* \"#utility.yul\":13274:13352   */\n      tag_202\n      jump\t// in\n    tag_377:\n        /* \"#utility.yul\":13266:13352   */\n      swap1\n      pop\n        /* \"#utility.yul\":13399:13408   */\n      dup2\n        /* \"#utility.yul\":13393:13397   */\n      dup2\n        /* \"#utility.yul\":13389:13409   */\n      sub\n        /* \"#utility.yul\":13384:13386   */\n      0x20\n        /* \"#utility.yul\":13373:13382   */\n      dup4\n        /* \"#utility.yul\":13369:13387   */\n      add\n        /* \"#utility.yul\":13362:13410   */\n      mstore\n        /* \"#utility.yul\":13427:13505   */\n      tag_378\n        /* \"#utility.yul\":13500:13504   */\n      dup2\n        /* \"#utility.yul\":13491:13497   */\n      dup7\n        /* \"#utility.yul\":13427:13505   */\n      tag_202\n      jump\t// in\n    tag_378:\n        /* \"#utility.yul\":13419:13505   */\n      swap1\n      pop\n        /* \"#utility.yul\":13515:13587   */\n      tag_379\n        /* \"#utility.yul\":13583:13585   */\n      0x40\n        /* \"#utility.yul\":13572:13581   */\n      dup4\n        /* \"#utility.yul\":13568:13586   */\n      add\n        /* \"#utility.yul\":13559:13565   */\n      dup6\n        /* \"#utility.yul\":13515:13587   */\n      tag_203\n      jump\t// in\n    tag_379:\n        /* \"#utility.yul\":13597:13663   */\n      tag_380\n        /* \"#utility.yul\":13659:13661   */\n      0x60\n        /* \"#utility.yul\":13648:13657   */\n      dup4\n        /* \"#utility.yul\":13644:13662   */\n      add\n        /* \"#utility.yul\":13635:13641   */\n      dup5\n        /* \"#utility.yul\":13597:13663   */\n      tag_205\n      jump\t// in\n    tag_380:\n        /* \"#utility.yul\":12947:13670   */\n      swap6\n      swap5\n      pop\n      pop\n      pop\n      pop\n      pop\n      jump\t// out\n        /* \"#utility.yul\":13676:13856   */\n    tag_206:\n        /* \"#utility.yul\":13724:13801   */\n      0x4e487b7100000000000000000000000000000000000000000000000000000000\n        /* \"#utility.yul\":13721:13722   */\n      0x00\n        /* \"#utility.yul\":13714:13802   */\n      mstore\n        /* \"#utility.yul\":13821:13825   */\n      0x22\n        /* \"#utility.yul\":13818:13819   */\n      0x04\n        /* \"#utility.yul\":13811:13826   */\n      mstore\n        /* \"#utility.yul\":13845:13849   */\n      0x24\n        /* \"#utility.yul\":13842:13843   */\n      0x00\n        /* \"#utility.yul\":13835:13850   */\n      revert\n        /* \"#utility.yul\":13862:14182   */\n    tag_61:\n        /* \"#utility.yul\":13906:13912   */\n      0x00\n        /* \"#utility.yul\":13943:13944   */\n      0x02\n        /* \"#utility.yul\":13937:13941   */\n      dup3\n        /* \"#utility.yul\":13933:13945   */\n      div\n        /* \"#utility.yul\":13923:13945   */\n      swap1\n      pop\n        /* \"#utility.yul\":13990:13991   */\n      0x01\n        /* \"#utility.yul\":13984:13988   */\n      dup3\n        /* \"#utility.yul\":13980:13992   */\n      and\n        /* \"#utility.yul\":14011:14029   */\n      dup1\n        /* \"#utility.yul\":14001:14082   */\n      tag_383\n      jumpi\n        /* \"#utility.yul\":14067:14071   */\n      0x7f\n        /* \"#utility.yul\":14059:14065   */\n      dup3\n        /* \"#utility.yul\":14055:14072   */\n      and\n        /* \"#utility.yul\":14045:14072   */\n      swap2\n      pop\n        /* \"#utility.yul\":14001:14082   */\n    tag_383:\n        /* \"#utility.yul\":14129:14131   */\n      0x20\n        /* \"#utility.yul\":14121:14127   */\n      dup3\n        /* \"#utility.yul\":14118:14132   */\n      lt\n        /* \"#utility.yul\":14098:14116   */\n      dup2\n        /* \"#utility.yul\":14095:14133   */\n      sub\n        /* \"#utility.yul\":14092:14176   */\n      tag_384\n      jumpi\n        /* \"#utility.yul\":14148:14166   */\n      tag_385\n      tag_206\n      jump\t// in\n    tag_385:\n        /* \"#utility.yul\":14092:14176   */\n    tag_384:\n        /* \"#utility.yul\":13913:14182   */\n      pop\n        /* \"#utility.yul\":13862:14182   */\n      swap2\n      swap1\n      pop\n      jump\t// out\n        /* \"#utility.yul\":14188:14336   */\n    tag_207:\n        /* \"#utility.yul\":14290:14301   */\n      0x00\n        /* \"#utility.yul\":14327:14330   */\n      dup2\n        /* \"#utility.yul\":14312:14330   */\n      swap1\n      pop\n        /* \"#utility.yul\":14188:14336   */\n      swap3\n      swap2\n      pop\n      pop\n      jump\t// out\n        /* \"#utility.yul\":14342:14732   */\n    tag_208:\n        /* \"#utility.yul\":14448:14451   */\n      0x00\n        /* \"#utility.yul\":14476:14515   */\n      tag_388\n        /* \"#utility.yul\":14509:14514   */\n      dup3\n        /* \"#utility.yul\":14476:14515   */\n      tag_179\n      jump\t// in\n    tag_388:\n        /* \"#utility.yul\":14531:14620   */\n      tag_389\n        /* \"#utility.yul\":14613:14619   */\n      dup2\n        /* \"#utility.yul\":14608:14611   */\n      dup6\n        /* \"#utility.yul\":14531:14620   */\n      tag_207\n      jump\t// in\n    tag_389:\n        /* \"#utility.yul\":14524:14620   */\n      swap4\n      pop\n        /* \"#utility.yul\":14629:14694   */\n      tag_390\n        /* \"#utility.yul\":14687:14693   */\n      dup2\n        /* \"#utility.yul\":14682:14685   */\n      dup6\n        /* \"#utility.yul\":14675:14679   */\n      0x20\n        /* \"#utility.yul\":14668:14673   */\n      dup7\n        /* \"#utility.yul\":14664:14680   */\n      add\n        /* \"#utility.yul\":14629:14694   */\n      tag_181\n      jump\t// in\n    tag_390:\n        /* \"#utility.yul\":14719:14725   */\n      dup1\n        /* \"#utility.yul\":14714:14717   */\n      dup5\n        /* \"#utility.yul\":14710:14726   */\n      add\n        /* \"#utility.yul\":14703:14726   */\n      swap2\n      pop\n        /* \"#utility.yul\":14452:14732   */\n      pop\n        /* \"#utility.yul\":14342:14732   */\n      swap3\n      swap2\n      pop\n      pop\n      jump\t// out\n        /* \"#utility.yul\":14738:15013   */\n    tag_68:\n        /* \"#utility.yul\":14870:14873   */\n      0x00\n        /* \"#utility.yul\":14892:14987   */\n      tag_392\n        /* \"#utility.yul\":14983:14986   */\n      dup3\n        /* \"#utility.yul\":14974:14980   */\n      dup5\n        /* \"#utility.yul\":14892:14987   */\n      tag_208\n      jump\t// in\n    tag_392:\n        /* \"#utility.yul\":14885:14987   */\n      swap2\n      pop\n        /* \"#utility.yul\":15004:15007   */\n      dup2\n        /* \"#utility.yul\":14997:15007   */\n      swap1\n      pop\n        /* \"#utility.yul\":14738:15013   */\n      swap3\n      swap2\n      pop\n      pop\n      jump\t// out\n        /* \"#utility.yul\":15019:15191   */\n    tag_209:\n        /* \"#utility.yul\":15159:15183   */\n      0x41727469636c6520646f6573206e6f7420657869737400000000000000000000\n        /* \"#utility.yul\":15155:15156   */\n      0x00\n        /* \"#utility.yul\":15147:15153   */\n      dup3\n        /* \"#utility.yul\":15143:15157   */\n      add\n        /* \"#utility.yul\":15136:15184   */\n      mstore\n        /* \"#utility.yul\":15019:15191   */\n      pop\n      jump\t// out\n        /* \"#utility.yul\":15197:15563   */\n    tag_210:\n        /* \"#utility.yul\":15339:15342   */\n      0x00\n        /* \"#utility.yul\":15360:15427   */\n      tag_395\n        /* \"#utility.yul\":15424:15426   */\n      0x16\n        /* \"#utility.yul\":15419:15422   */\n      dup4\n        /* \"#utility.yul\":15360:15427   */\n      tag_201\n      jump\t// in\n    tag_395:\n        /* \"#utility.yul\":15353:15427   */\n      swap2\n      pop\n        /* \"#utility.yul\":15436:15529   */\n      tag_396\n        /* \"#utility.yul\":15525:15528   */\n      dup3\n        /* \"#utility.yul\":15436:15529   */\n      tag_209\n      jump\t// in\n    tag_396:\n        /* \"#utility.yul\":15554:15556   */\n      0x20\n        /* \"#utility.yul\":15549:15552   */\n      dup3\n        /* \"#utility.yul\":15545:15557   */\n      add\n        /* \"#utility.yul\":15538:15557   */\n      swap1\n      pop\n        /* \"#utility.yul\":15197:15563   */\n      swap2\n      swap1\n      pop\n      jump\t// out\n        /* \"#utility.yul\":15569:15988   */\n    tag_71:\n        /* \"#utility.yul\":15735:15739   */\n      0x00\n        /* \"#utility.yul\":15773:15775   */\n      0x20\n        /* \"#utility.yul\":15762:15771   */\n      dup3\n        /* \"#utility.yul\":15758:15776   */\n      add\n        /* \"#utility.yul\":15750:15776   */\n      swap1\n      pop\n        /* \"#utility.yul\":15822:15831   */\n      dup2\n        /* \"#utility.yul\":15816:15820   */\n      dup2\n        /* \"#utility.yul\":15812:15832   */\n      sub\n        /* \"#utility.yul\":15808:15809   */\n      0x00\n        /* \"#utility.yul\":15797:15806   */\n      dup4\n        /* \"#utility.yul\":15793:15810   */\n      add\n        /* \"#utility.yul\":15786:15833   */\n      mstore\n        /* \"#utility.yul\":15850:15981   */\n      tag_398\n        /* \"#utility.yul\":15976:15980   */\n      dup2\n        /* \"#utility.yul\":15850:15981   */\n      tag_210\n      jump\t// in\n    tag_398:\n        /* \"#utility.yul\":15842:15981   */\n      swap1\n      pop\n        /* \"#utility.yul\":15569:15988   */\n      swap2\n      swap1\n      pop\n      jump\t// out\n        /* \"#utility.yul\":15994:16174   */\n    tag_74:\n        /* \"#utility.yul\":16042:16119   */\n      0x4e487b7100000000000000000000000000000000000000000000000000000000\n        /* \"#utility.yul\":16039:16040   */\n      0x00\n        /* \"#utility.yul\":16032:16120   */\n      mstore\n        /* \"#utility.yul\":16139:16143   */\n      0x32\n        /* \"#utility.yul\":16136:16137   */\n      0x04\n        /* \"#utility.yul\":16129:16144   */\n      mstore\n        /* \"#utility.yul\":16163:16167   */\n      0x24\n        /* \"#utility.yul\":16160:16161   */\n      0x00\n        /* \"#utility.yul\":16153:16168   */\n      revert\n        /* \"#utility.yul\":16180:16405   */\n    tag_211:\n        /* \"#utility.yul\":16320:16354   */\n      0x4f6e6c792074686520617574686f722063616e2064656c657465207468652061\n        /* \"#utility.yul\":16316:16317   */\n      0x00\n        /* \"#utility.yul\":16308:16314   */\n      dup3\n        /* \"#utility.yul\":16304:16318   */\n      add\n        /* \"#utility.yul\":16297:16355   */\n      mstore\n        /* \"#utility.yul\":16389:16397   */\n      0x727469636c650000000000000000000000000000000000000000000000000000\n        /* \"#utility.yul\":16384:16386   */\n      0x20\n        /* \"#utility.yul\":16376:16382   */\n      dup3\n        /* \"#utility.yul\":16372:16387   */\n      add\n        /* \"#utility.yul\":16365:16398   */\n      mstore\n        /* \"#utility.yul\":16180:16405   */\n      pop\n      jump\t// out\n        /* \"#utility.yul\":16411:16777   */\n    tag_212:\n        /* \"#utility.yul\":16553:16556   */\n      0x00\n        /* \"#utility.yul\":16574:16641   */\n      tag_402\n        /* \"#utility.yul\":16638:16640   */\n      0x26\n        /* \"#utility.yul\":16633:16636   */\n      dup4\n        /* \"#utility.yul\":16574:16641   */\n      tag_201\n      jump\t// in\n    tag_402:\n        /* \"#utility.yul\":16567:16641   */\n      swap2\n      pop\n        /* \"#utility.yul\":16650:16743   */\n      tag_403\n        /* \"#utility.yul\":16739:16742   */\n      dup3\n        /* \"#utility.yul\":16650:16743   */\n      tag_211\n      jump\t// in\n    tag_403:\n        /* \"#utility.yul\":16768:16770   */\n      0x40\n        /* \"#utility.yul\":16763:16766   */\n      dup3\n        /* \"#utility.yul\":16759:16771   */\n      add\n        /* \"#utility.yul\":16752:16771   */\n      swap1\n      pop\n        /* \"#utility.yul\":16411:16777   */\n      swap2\n      swap1\n      pop\n      jump\t// out\n        /* \"#utility.yul\":16783:17202   */\n    tag_78:\n        /* \"#utility.yul\":16949:16953   */\n      0x00\n        /* \"#utility.yul\":16987:16989   */\n      0x20\n        /* \"#utility.yul\":16976:16985   */\n      dup3\n        /* \"#utility.yul\":16972:16990   */\n      add\n        /* \"#utility.yul\":16964:16990   */\n      swap1\n      pop\n        /* \"#utility.yul\":17036:17045   */\n      dup2\n        /* \"#utility.yul\":17030:17034   */\n      dup2\n        /* \"#utility.yul\":17026:17046   */\n      sub\n        /* \"#utility.yul\":17022:17023   */\n      0x00\n        /* \"#utility.yul\":17011:17020   */\n      dup4\n        /* \"#utility.yul\":17007:17024   */\n      add\n        /* \"#utility.yul\":17000:17047   */\n      mstore\n        /* \"#utility.yul\":17064:17195   */\n      tag_405\n        /* \"#utility.yul\":17190:17194   */\n      dup2\n        /* \"#utility.yul\":17064:17195   */\n      tag_212\n      jump\t// in\n    tag_405:\n        /* \"#utility.yul\":17056:17195   */\n      swap1\n      pop\n        /* \"#utility.yul\":16783:17202   */\n      swap2\n      swap1\n      pop\n      jump\t// out\n        /* \"#utility.yul\":17208:17349   */\n    tag_213:\n        /* \"#utility.yul\":17257:17261   */\n      0x00\n        /* \"#utility.yul\":17280:17283   */\n      dup2\n        /* \"#utility.yul\":17272:17283   */\n      swap1\n      pop\n        /* \"#utility.yul\":17303:17306   */\n      dup2\n        /* \"#utility.yul\":17300:17301   */\n      0x00\n        /* \"#utility.yul\":17293:17307   */\n      mstore\n        /* \"#utility.yul\":17337:17341   */\n      0x20\n        /* \"#utility.yul\":17334:17335   */\n      0x00\n        /* \"#utility.yul\":17324:17342   */\n      keccak256\n        /* \"#utility.yul\":17316:17342   */\n      swap1\n      pop\n        /* \"#utility.yul\":17208:17349   */\n      swap2\n      swap1\n      pop\n      jump\t// out\n        /* \"#utility.yul\":17379:18210   */\n    tag_214:\n        /* \"#utility.yul\":17464:17467   */\n      0x00\n        /* \"#utility.yul\":17501:17506   */\n      dup2\n        /* \"#utility.yul\":17495:17507   */\n      sload\n        /* \"#utility.yul\":17530:17566   */\n      tag_408\n        /* \"#utility.yul\":17556:17565   */\n      dup2\n        /* \"#utility.yul\":17530:17566   */\n      tag_61\n      jump\t// in\n    tag_408:\n        /* \"#utility.yul\":17582:17653   */\n      tag_409\n        /* \"#utility.yul\":17646:17652   */\n      dup2\n        /* \"#utility.yul\":17641:17644   */\n      dup7\n        /* \"#utility.yul\":17582:17653   */\n      tag_201\n      jump\t// in\n    tag_409:\n        /* \"#utility.yul\":17575:17653   */\n      swap5\n      pop\n        /* \"#utility.yul\":17684:17685   */\n      0x01\n        /* \"#utility.yul\":17673:17682   */\n      dup3\n        /* \"#utility.yul\":17669:17686   */\n      and\n        /* \"#utility.yul\":17700:17701   */\n      0x00\n        /* \"#utility.yul\":17695:17859   */\n      dup2\n      eq\n      tag_411\n      jumpi\n        /* \"#utility.yul\":17873:17874   */\n      0x01\n        /* \"#utility.yul\":17868:18204   */\n      dup2\n      eq\n      tag_412\n      jumpi\n        /* \"#utility.yul\":17662:18204   */\n      jump(tag_410)\n        /* \"#utility.yul\":17695:17859   */\n    tag_411:\n        /* \"#utility.yul\":17779:17783   */\n      0xff\n        /* \"#utility.yul\":17775:17784   */\n      not\n        /* \"#utility.yul\":17764:17773   */\n      dup4\n        /* \"#utility.yul\":17760:17785   */\n      and\n        /* \"#utility.yul\":17755:17758   */\n      dup7\n        /* \"#utility.yul\":17748:17786   */\n      mstore\n        /* \"#utility.yul\":17839:17845   */\n      dup2\n        /* \"#utility.yul\":17832:17846   */\n      iszero\n        /* \"#utility.yul\":17825:17847   */\n      iszero\n        /* \"#utility.yul\":17819:17823   */\n      0x20\n        /* \"#utility.yul\":17815:17848   */\n      mul\n        /* \"#utility.yul\":17810:17813   */\n      dup7\n        /* \"#utility.yul\":17806:17849   */\n      add\n        /* \"#utility.yul\":17799:17849   */\n      swap4\n      pop\n        /* \"#utility.yul\":17695:17859   */\n      jump(tag_410)\n        /* \"#utility.yul\":17868:18204   */\n    tag_412:\n        /* \"#utility.yul\":17935:17973   */\n      tag_413\n        /* \"#utility.yul\":17967:17972   */\n      dup6\n        /* \"#utility.yul\":17935:17973   */\n      tag_213\n      jump\t// in\n    tag_413:\n        /* \"#utility.yul\":17995:17996   */\n      0x00\n        /* \"#utility.yul\":18009:18163   */\n    tag_414:\n        /* \"#utility.yul\":18023:18029   */\n      dup4\n        /* \"#utility.yul\":18020:18021   */\n      dup2\n        /* \"#utility.yul\":18017:18030   */\n      lt\n        /* \"#utility.yul\":18009:18163   */\n      iszero\n      tag_416\n      jumpi\n        /* \"#utility.yul\":18097:18104   */\n      dup2\n        /* \"#utility.yul\":18091:18105   */\n      sload\n        /* \"#utility.yul\":18087:18088   */\n      dup2\n        /* \"#utility.yul\":18082:18085   */\n      dup10\n        /* \"#utility.yul\":18078:18089   */\n      add\n        /* \"#utility.yul\":18071:18106   */\n      mstore\n        /* \"#utility.yul\":18147:18148   */\n      0x01\n        /* \"#utility.yul\":18138:18145   */\n      dup3\n        /* \"#utility.yul\":18134:18149   */\n      add\n        /* \"#utility.yul\":18123:18149   */\n      swap2\n      pop\n        /* \"#utility.yul\":18045:18049   */\n      0x20\n        /* \"#utility.yul\":18042:18043   */\n      dup2\n        /* \"#utility.yul\":18038:18050   */\n      add\n        /* \"#utility.yul\":18033:18050   */\n      swap1\n      pop\n        /* \"#utility.yul\":18009:18163   */\n      jump(tag_414)\n    tag_416:\n        /* \"#utility.yul\":18192:18193   */\n      dup1\n        /* \"#utility.yul\":18187:18190   */\n      dup9\n        /* \"#utility.yul\":18183:18194   */\n      add\n        /* \"#utility.yul\":18176:18194   */\n      swap6\n      pop\n        /* \"#utility.yul\":17875:18204   */\n      pop\n      pop\n        /* \"#utility.yul\":17662:18204   */\n    tag_410:\n      pop\n        /* \"#utility.yul\":17468:18210   */\n      pop\n      pop\n        /* \"#utility.yul\":17379:18210   */\n      swap3\n      swap2\n      pop\n      pop\n      jump\t// out\n        /* \"#utility.yul\":18216:18633   */\n    tag_80:\n        /* \"#utility.yul\":18354:18358   */\n      0x00\n        /* \"#utility.yul\":18392:18394   */\n      0x40\n        /* \"#utility.yul\":18381:18390   */\n      dup3\n        /* \"#utility.yul\":18377:18395   */\n      add\n        /* \"#utility.yul\":18369:18395   */\n      swap1\n      pop\n        /* \"#utility.yul\":18405:18476   */\n      tag_418\n        /* \"#utility.yul\":18473:18474   */\n      0x00\n        /* \"#utility.yul\":18462:18471   */\n      dup4\n        /* \"#utility.yul\":18458:18475   */\n      add\n        /* \"#utility.yul\":18449:18455   */\n      dup6\n        /* \"#utility.yul\":18405:18476   */\n      tag_189\n      jump\t// in\n    tag_418:\n        /* \"#utility.yul\":18523:18532   */\n      dup2\n        /* \"#utility.yul\":18517:18521   */\n      dup2\n        /* \"#utility.yul\":18513:18533   */\n      sub\n        /* \"#utility.yul\":18508:18510   */\n      0x20\n        /* \"#utility.yul\":18497:18506   */\n      dup4\n        /* \"#utility.yul\":18493:18511   */\n      add\n        /* \"#utility.yul\":18486:18534   */\n      mstore\n        /* \"#utility.yul\":18551:18626   */\n      tag_419\n        /* \"#utility.yul\":18621:18625   */\n      dup2\n        /* \"#utility.yul\":18612:18618   */\n      dup5\n        /* \"#utility.yul\":18551:18626   */\n      tag_214\n      jump\t// in\n    tag_419:\n        /* \"#utility.yul\":18543:18626   */\n      swap1\n      pop\n        /* \"#utility.yul\":18216:18633   */\n      swap4\n      swap3\n      pop\n      pop\n      pop\n      jump\t// out\n        /* \"#utility.yul\":18639:18861   */\n    tag_83:\n        /* \"#utility.yul\":18732:18736   */\n      0x00\n        /* \"#utility.yul\":18770:18772   */\n      0x20\n        /* \"#utility.yul\":18759:18768   */\n      dup3\n        /* \"#utility.yul\":18755:18773   */\n      add\n        /* \"#utility.yul\":18747:18773   */\n      swap1\n      pop\n        /* \"#utility.yul\":18783:18854   */\n      tag_421\n        /* \"#utility.yul\":18851:18852   */\n      0x00\n        /* \"#utility.yul\":18840:18849   */\n      dup4\n        /* \"#utility.yul\":18836:18853   */\n      add\n        /* \"#utility.yul\":18827:18833   */\n      dup5\n        /* \"#utility.yul\":18783:18854   */\n      tag_203\n      jump\t// in\n    tag_421:\n        /* \"#utility.yul\":18639:18861   */\n      swap3\n      swap2\n      pop\n      pop\n      jump\t// out\n        /* \"#utility.yul\":18867:18984   */\n    tag_215:\n        /* \"#utility.yul\":18976:18977   */\n      0x00\n        /* \"#utility.yul\":18973:18974   */\n      dup1\n        /* \"#utility.yul\":18966:18978   */\n      revert\n        /* \"#utility.yul\":18990:19107   */\n    tag_216:\n        /* \"#utility.yul\":19099:19100   */\n      0x00\n        /* \"#utility.yul\":19096:19097   */\n      dup1\n        /* \"#utility.yul\":19089:19101   */\n      revert\n        /* \"#utility.yul\":19113:19547   */\n    tag_217:\n        /* \"#utility.yul\":19202:19207   */\n      0x00\n        /* \"#utility.yul\":19227:19293   */\n      tag_425\n        /* \"#utility.yul\":19243:19292   */\n      tag_426\n        /* \"#utility.yul\":19285:19291   */\n      dup5\n        /* \"#utility.yul\":19243:19292   */\n      tag_195\n      jump\t// in\n    tag_426:\n        /* \"#utility.yul\":19227:19293   */\n      tag_194\n      jump\t// in\n    tag_425:\n        /* \"#utility.yul\":19218:19293   */\n      swap1\n      pop\n        /* \"#utility.yul\":19316:19322   */\n      dup3\n        /* \"#utility.yul\":19309:19314   */\n      dup2\n        /* \"#utility.yul\":19302:19323   */\n      mstore\n        /* \"#utility.yul\":19354:19358   */\n      0x20\n        /* \"#utility.yul\":19347:19352   */\n      dup2\n        /* \"#utility.yul\":19343:19359   */\n      add\n        /* \"#utility.yul\":19392:19395   */\n      dup5\n        /* \"#utility.yul\":19383:19389   */\n      dup5\n        /* \"#utility.yul\":19378:19381   */\n      dup5\n        /* \"#utility.yul\":19374:19390   */\n      add\n        /* \"#utility.yul\":19371:19396   */\n      gt\n        /* \"#utility.yul\":19368:19480   */\n      iszero\n      tag_427\n      jumpi\n        /* \"#utility.yul\":19399:19478   */\n      tag_428\n      tag_191\n      jump\t// in\n    tag_428:\n        /* \"#utility.yul\":19368:19480   */\n    tag_427:\n        /* \"#utility.yul\":19489:19541   */\n      tag_429\n        /* \"#utility.yul\":19534:19540   */\n      dup5\n        /* \"#utility.yul\":19529:19532   */\n      dup3\n        /* \"#utility.yul\":19524:19527   */\n      dup6\n        /* \"#utility.yul\":19489:19541   */\n      tag_181\n      jump\t// in\n    tag_429:\n        /* \"#utility.yul\":19208:19547   */\n      pop\n        /* \"#utility.yul\":19113:19547   */\n      swap4\n      swap3\n      pop\n      pop\n      pop\n      jump\t// out\n        /* \"#utility.yul\":19567:19922   */\n    tag_218:\n        /* \"#utility.yul\":19634:19639   */\n      0x00\n        /* \"#utility.yul\":19683:19686   */\n      dup3\n        /* \"#utility.yul\":19676:19680   */\n      0x1f\n        /* \"#utility.yul\":19668:19674   */\n      dup4\n        /* \"#utility.yul\":19664:19681   */\n      add\n        /* \"#utility.yul\":19660:19687   */\n      slt\n        /* \"#utility.yul\":19650:19772   */\n      tag_431\n      jumpi\n        /* \"#utility.yul\":19691:19770   */\n      tag_432\n      tag_190\n      jump\t// in\n    tag_432:\n        /* \"#utility.yul\":19650:19772   */\n    tag_431:\n        /* \"#utility.yul\":19801:19807   */\n      dup2\n        /* \"#utility.yul\":19795:19808   */\n      mload\n        /* \"#utility.yul\":19826:19916   */\n      tag_433\n        /* \"#utility.yul\":19912:19915   */\n      dup5\n        /* \"#utility.yul\":19904:19910   */\n      dup3\n        /* \"#utility.yul\":19897:19901   */\n      0x20\n        /* \"#utility.yul\":19889:19895   */\n      dup7\n        /* \"#utility.yul\":19885:19902   */\n      add\n        /* \"#utility.yul\":19826:19916   */\n      tag_217\n      jump\t// in\n    tag_433:\n        /* \"#utility.yul\":19817:19916   */\n      swap2\n      pop\n        /* \"#utility.yul\":19640:19922   */\n      pop\n        /* \"#utility.yul\":19567:19922   */\n      swap3\n      swap2\n      pop\n      pop\n      jump\t// out\n        /* \"#utility.yul\":19928:20044   */\n    tag_219:\n        /* \"#utility.yul\":19998:20019   */\n      tag_435\n        /* \"#utility.yul\":20013:20018   */\n      dup2\n        /* \"#utility.yul\":19998:20019   */\n      tag_204\n      jump\t// in\n    tag_435:\n        /* \"#utility.yul\":19991:19996   */\n      dup2\n        /* \"#utility.yul\":19988:20020   */\n      eq\n        /* \"#utility.yul\":19978:20038   */\n      tag_436\n      jumpi\n        /* \"#utility.yul\":20034:20035   */\n      0x00\n        /* \"#utility.yul\":20031:20032   */\n      dup1\n        /* \"#utility.yul\":20024:20036   */\n      revert\n        /* \"#utility.yul\":19978:20038   */\n    tag_436:\n        /* \"#utility.yul\":19928:20044   */\n      pop\n      jump\t// out\n        /* \"#utility.yul\":20050:20187   */\n    tag_220:\n        /* \"#utility.yul\":20104:20109   */\n      0x00\n        /* \"#utility.yul\":20135:20141   */\n      dup2\n        /* \"#utility.yul\":20129:20142   */\n      mload\n        /* \"#utility.yul\":20120:20142   */\n      swap1\n      pop\n        /* \"#utility.yul\":20151:20181   */\n      tag_438\n        /* \"#utility.yul\":20175:20180   */\n      dup2\n        /* \"#utility.yul\":20151:20181   */\n      tag_219\n      jump\t// in\n    tag_438:\n        /* \"#utility.yul\":20050:20187   */\n      swap3\n      swap2\n      pop\n      pop\n      jump\t// out\n        /* \"#utility.yul\":20222:21325   */\n    tag_221:\n        /* \"#utility.yul\":20305:20310   */\n      0x00\n        /* \"#utility.yul\":20349:20353   */\n      0x60\n        /* \"#utility.yul\":20337:20346   */\n      dup3\n        /* \"#utility.yul\":20332:20335   */\n      dup5\n        /* \"#utility.yul\":20328:20347   */\n      sub\n        /* \"#utility.yul\":20324:20354   */\n      slt\n        /* \"#utility.yul\":20321:20438   */\n      iszero\n      tag_440\n      jumpi\n        /* \"#utility.yul\":20357:20436   */\n      tag_441\n      tag_215\n      jump\t// in\n    tag_441:\n        /* \"#utility.yul\":20321:20438   */\n    tag_440:\n        /* \"#utility.yul\":20456:20477   */\n      tag_442\n        /* \"#utility.yul\":20472:20476   */\n      0x60\n        /* \"#utility.yul\":20456:20477   */\n      tag_194\n      jump\t// in\n    tag_442:\n        /* \"#utility.yul\":20447:20477   */\n      swap1\n      pop\n        /* \"#utility.yul\":20557:20558   */\n      0x00\n        /* \"#utility.yul\":20546:20555   */\n      dup3\n        /* \"#utility.yul\":20542:20559   */\n      add\n        /* \"#utility.yul\":20536:20560   */\n      mload\n        /* \"#utility.yul\":20587:20605   */\n      0xffffffffffffffff\n        /* \"#utility.yul\":20579:20585   */\n      dup2\n        /* \"#utility.yul\":20576:20606   */\n      gt\n        /* \"#utility.yul\":20573:20690   */\n      iszero\n      tag_443\n      jumpi\n        /* \"#utility.yul\":20609:20688   */\n      tag_444\n      tag_216\n      jump\t// in\n    tag_444:\n        /* \"#utility.yul\":20573:20690   */\n    tag_443:\n        /* \"#utility.yul\":20729:20799   */\n      tag_445\n        /* \"#utility.yul\":20795:20798   */\n      dup5\n        /* \"#utility.yul\":20786:20792   */\n      dup3\n        /* \"#utility.yul\":20775:20784   */\n      dup6\n        /* \"#utility.yul\":20771:20793   */\n      add\n        /* \"#utility.yul\":20729:20799   */\n      tag_218\n      jump\t// in\n    tag_445:\n        /* \"#utility.yul\":20722:20726   */\n      0x00\n        /* \"#utility.yul\":20715:20720   */\n      dup4\n        /* \"#utility.yul\":20711:20727   */\n      add\n        /* \"#utility.yul\":20704:20800   */\n      mstore\n        /* \"#utility.yul\":20487:20811   */\n      pop\n        /* \"#utility.yul\":20892:20894   */\n      0x20\n        /* \"#utility.yul\":20881:20890   */\n      dup3\n        /* \"#utility.yul\":20877:20895   */\n      add\n        /* \"#utility.yul\":20871:20896   */\n      mload\n        /* \"#utility.yul\":20923:20941   */\n      0xffffffffffffffff\n        /* \"#utility.yul\":20915:20921   */\n      dup2\n        /* \"#utility.yul\":20912:20942   */\n      gt\n        /* \"#utility.yul\":20909:21026   */\n      iszero\n      tag_446\n      jumpi\n        /* \"#utility.yul\":20945:21024   */\n      tag_447\n      tag_216\n      jump\t// in\n    tag_447:\n        /* \"#utility.yul\":20909:21026   */\n    tag_446:\n        /* \"#utility.yul\":21065:21135   */\n      tag_448\n        /* \"#utility.yul\":21131:21134   */\n      dup5\n        /* \"#utility.yul\":21122:21128   */\n      dup3\n        /* \"#utility.yul\":21111:21120   */\n      dup6\n        /* \"#utility.yul\":21107:21129   */\n      add\n        /* \"#utility.yul\":21065:21135   */\n      tag_218\n      jump\t// in\n    tag_448:\n        /* \"#utility.yul\":21058:21062   */\n      0x20\n        /* \"#utility.yul\":21051:21056   */\n      dup4\n        /* \"#utility.yul\":21047:21063   */\n      add\n        /* \"#utility.yul\":21040:21136   */\n      mstore\n        /* \"#utility.yul\":20821:21147   */\n      pop\n        /* \"#utility.yul\":21208:21210   */\n      0x40\n        /* \"#utility.yul\":21249:21306   */\n      tag_449\n        /* \"#utility.yul\":21302:21305   */\n      dup5\n        /* \"#utility.yul\":21293:21299   */\n      dup3\n        /* \"#utility.yul\":21282:21291   */\n      dup6\n        /* \"#utility.yul\":21278:21300   */\n      add\n        /* \"#utility.yul\":21249:21306   */\n      tag_220\n      jump\t// in\n    tag_449:\n        /* \"#utility.yul\":21242:21246   */\n      0x40\n        /* \"#utility.yul\":21235:21240   */\n      dup4\n        /* \"#utility.yul\":21231:21247   */\n      add\n        /* \"#utility.yul\":21224:21307   */\n      mstore\n        /* \"#utility.yul\":21157:21318   */\n      pop\n        /* \"#utility.yul\":20222:21325   */\n      swap3\n      swap2\n      pop\n      pop\n      jump\t// out\n        /* \"#utility.yul\":21331:21881   */\n    tag_87:\n        /* \"#utility.yul\":21424:21430   */\n      0x00\n        /* \"#utility.yul\":21473:21475   */\n      0x20\n        /* \"#utility.yul\":21461:21470   */\n      dup3\n        /* \"#utility.yul\":21452:21459   */\n      dup5\n        /* \"#utility.yul\":21448:21471   */\n      sub\n        /* \"#utility.yul\":21444:21476   */\n      slt\n        /* \"#utility.yul\":21441:21560   */\n      iszero\n      tag_451\n      jumpi\n        /* \"#utility.yul\":21479:21558   */\n      tag_452\n      tag_168\n      jump\t// in\n    tag_452:\n        /* \"#utility.yul\":21441:21560   */\n    tag_451:\n        /* \"#utility.yul\":21620:21621   */\n      0x00\n        /* \"#utility.yul\":21609:21618   */\n      dup3\n        /* \"#utility.yul\":21605:21622   */\n      add\n        /* \"#utility.yul\":21599:21623   */\n      mload\n        /* \"#utility.yul\":21650:21668   */\n      0xffffffffffffffff\n        /* \"#utility.yul\":21642:21648   */\n      dup2\n        /* \"#utility.yul\":21639:21669   */\n      gt\n        /* \"#utility.yul\":21636:21753   */\n      iszero\n      tag_453\n      jumpi\n        /* \"#utility.yul\":21672:21751   */\n      tag_454\n      tag_169\n      jump\t// in\n    tag_454:\n        /* \"#utility.yul\":21636:21753   */\n    tag_453:\n        /* \"#utility.yul\":21777:21864   */\n      tag_455\n        /* \"#utility.yul\":21856:21863   */\n      dup5\n        /* \"#utility.yul\":21847:21853   */\n      dup3\n        /* \"#utility.yul\":21836:21845   */\n      dup6\n        /* \"#utility.yul\":21832:21854   */\n      add\n        /* \"#utility.yul\":21777:21864   */\n      tag_221\n      jump\t// in\n    tag_455:\n        /* \"#utility.yul\":21767:21864   */\n      swap2\n      pop\n        /* \"#utility.yul\":21570:21874   */\n      pop\n        /* \"#utility.yul\":21331:21881   */\n      swap3\n      swap2\n      pop\n      pop\n      jump\t// out\n        /* \"#utility.yul\":21887:22114   */\n    tag_222:\n        /* \"#utility.yul\":22027:22061   */\n      0x4f6e6c79207265676973746572656420617574686f72732063616e2061646420\n        /* \"#utility.yul\":22023:22024   */\n      0x00\n        /* \"#utility.yul\":22015:22021   */\n      dup3\n        /* \"#utility.yul\":22011:22025   */\n      add\n        /* \"#utility.yul\":22004:22062   */\n      mstore\n        /* \"#utility.yul\":22096:22106   */\n      0x61727469636c6573000000000000000000000000000000000000000000000000\n        /* \"#utility.yul\":22091:22093   */\n      0x20\n        /* \"#utility.yul\":22083:22089   */\n      dup3\n        /* \"#utility.yul\":22079:22094   */\n      add\n        /* \"#utility.yul\":22072:22107   */\n      mstore\n        /* \"#utility.yul\":21887:22114   */\n      pop\n      jump\t// out\n        /* \"#utility.yul\":22120:22486   */\n    tag_223:\n        /* \"#utility.yul\":22262:22265   */\n      0x00\n        /* \"#utility.yul\":22283:22350   */\n      tag_458\n        /* \"#utility.yul\":22347:22349   */\n      0x28\n        /* \"#utility.yul\":22342:22345   */\n      dup4\n        /* \"#utility.yul\":22283:22350   */\n      tag_201\n      jump\t// in\n    tag_458:\n        /* \"#utility.yul\":22276:22350   */\n      swap2\n      pop\n        /* \"#utility.yul\":22359:22452   */\n      tag_459\n        /* \"#utility.yul\":22448:22451   */\n      dup3\n        /* \"#utility.yul\":22359:22452   */\n      tag_222\n      jump\t// in\n    tag_459:\n        /* \"#utility.yul\":22477:22479   */\n      0x40\n        /* \"#utility.yul\":22472:22475   */\n      dup3\n        /* \"#utility.yul\":22468:22480   */\n      add\n        /* \"#utility.yul\":22461:22480   */\n      swap1\n      pop\n        /* \"#utility.yul\":22120:22486   */\n      swap2\n      swap1\n      pop\n      jump\t// out\n        /* \"#utility.yul\":22492:22911   */\n    tag_90:\n        /* \"#utility.yul\":22658:22662   */\n      0x00\n        /* \"#utility.yul\":22696:22698   */\n      0x20\n        /* \"#utility.yul\":22685:22694   */\n      dup3\n        /* \"#utility.yul\":22681:22699   */\n      add\n        /* \"#utility.yul\":22673:22699   */\n      swap1\n      pop\n        /* \"#utility.yul\":22745:22754   */\n      dup2\n        /* \"#utility.yul\":22739:22743   */\n      dup2\n        /* \"#utility.yul\":22735:22755   */\n      sub\n        /* \"#utility.yul\":22731:22732   */\n      0x00\n        /* \"#utility.yul\":22720:22729   */\n      dup4\n        /* \"#utility.yul\":22716:22733   */\n      add\n        /* \"#utility.yul\":22709:22756   */\n      mstore\n        /* \"#utility.yul\":22773:22904   */\n      tag_461\n        /* \"#utility.yul\":22899:22903   */\n      dup2\n        /* \"#utility.yul\":22773:22904   */\n      tag_223\n      jump\t// in\n    tag_461:\n        /* \"#utility.yul\":22765:22904   */\n      swap1\n      pop\n        /* \"#utility.yul\":22492:22911   */\n      swap2\n      swap1\n      pop\n      jump\t// out\n        /* \"#utility.yul\":22917:23010   */\n    tag_224:\n        /* \"#utility.yul\":22954:22960   */\n      0x00\n        /* \"#utility.yul\":23001:23003   */\n      0x20\n        /* \"#utility.yul\":22996:22998   */\n      0x1f\n        /* \"#utility.yul\":22989:22994   */\n      dup4\n        /* \"#utility.yul\":22985:22999   */\n      add\n        /* \"#utility.yul\":22981:23004   */\n      div\n        /* \"#utility.yul\":22971:23004   */\n      swap1\n      pop\n        /* \"#utility.yul\":22917:23010   */\n      swap2\n      swap1\n      pop\n      jump\t// out\n        /* \"#utility.yul\":23016:23123   */\n    tag_225:\n        /* \"#utility.yul\":23060:23068   */\n      0x00\n        /* \"#utility.yul\":23110:23115   */\n      dup3\n        /* \"#utility.yul\":23104:23108   */\n      dup3\n        /* \"#utility.yul\":23100:23116   */\n      shl\n        /* \"#utility.yul\":23079:23116   */\n      swap1\n      pop\n        /* \"#utility.yul\":23016:23123   */\n      swap3\n      swap2\n      pop\n      pop\n      jump\t// out\n        /* \"#utility.yul\":23129:23522   */\n    tag_226:\n        /* \"#utility.yul\":23198:23204   */\n      0x00\n        /* \"#utility.yul\":23248:23249   */\n      0x08\n        /* \"#utility.yul\":23236:23246   */\n      dup4\n        /* \"#utility.yul\":23232:23250   */\n      mul\n        /* \"#utility.yul\":23271:23368   */\n      tag_465\n        /* \"#utility.yul\":23301:23367   */\n      0xffffffffffffffffffffffffffffffffffffffffffffffffffffffffffffffff\n        /* \"#utility.yul\":23290:23299   */\n      dup3\n        /* \"#utility.yul\":23271:23368   */\n      tag_225\n      jump\t// in\n    tag_465:\n        /* \"#utility.yul\":23389:23428   */\n      tag_466\n        /* \"#utility.yul\":23419:23427   */\n      dup7\n        /* \"#utility.yul\":23408:23417   */\n      dup4\n        /* \"#utility.yul\":23389:23428   */\n      tag_225\n      jump\t// in\n    tag_466:\n        /* \"#utility.yul\":23377:23428   */\n      swap6\n      pop\n        /* \"#utility.yul\":23461:23465   */\n      dup1\n        /* \"#utility.yul\":23457:23466   */\n      not\n        /* \"#utility.yul\":23450:23455   */\n      dup5\n        /* \"#utility.yul\":23446:23467   */\n      and\n        /* \"#utility.yul\":23437:23467   */\n      swap4\n      pop\n        /* \"#utility.yul\":23510:23514   */\n      dup1\n        /* \"#utility.yul\":23500:23508   */\n      dup7\n        /* \"#utility.yul\":23496:23515   */\n      and\n        /* \"#utility.yul\":23489:23494   */\n      dup5\n        /* \"#utility.yul\":23486:23516   */\n      or\n        /* \"#utility.yul\":23476:23516   */\n      swap3\n      pop\n        /* \"#utility.yul\":23205:23522   */\n      pop\n      pop\n        /* \"#utility.yul\":23129:23522   */\n      swap4\n      swap3\n      pop\n      pop\n      pop\n      jump\t// out\n        /* \"#utility.yul\":23528:23588   */\n    tag_227:\n        /* \"#utility.yul\":23556:23559   */\n      0x00\n        /* \"#utility.yul\":23577:23582   */\n      dup2\n        /* \"#utility.yul\":23570:23582   */\n      swap1\n      pop\n        /* \"#utility.yul\":23528:23588   */\n      swap2\n      swap1\n      pop\n      jump\t// out\n        /* \"#utility.yul\":23594:23736   */\n    tag_228:\n        /* \"#utility.yul\":23644:23653   */\n      0x00\n        /* \"#utility.yul\":23677:23730   */\n      tag_469\n        /* \"#utility.yul\":23695:23729   */\n      tag_470\n        /* \"#utility.yul\":23704:23728   */\n      tag_471\n        /* \"#utility.yul\":23722:23727   */\n      dup5\n        /* \"#utility.yul\":23704:23728   */\n      tag_177\n      jump\t// in\n    tag_471:\n        /* \"#utility.yul\":23695:23729   */\n      tag_227\n      jump\t// in\n    tag_470:\n        /* \"#utility.yul\":23677:23730   */\n      tag_177\n      jump\t// in\n    tag_469:\n        /* \"#utility.yul\":23664:23730   */\n      swap1\n      pop\n        /* \"#utility.yul\":23594:23736   */\n      swap2\n      swap1\n      pop\n      jump\t// out\n        /* \"#utility.yul\":23742:23817   */\n    tag_229:\n        /* \"#utility.yul\":23785:23788   */\n      0x00\n        /* \"#utility.yul\":23806:23811   */\n      dup2\n        /* \"#utility.yul\":23799:23811   */\n      swap1\n      pop\n        /* \"#utility.yul\":23742:23817   */\n      swap2\n      swap1\n      pop\n      jump\t// out\n        /* \"#utility.yul\":23823:24092   */\n    tag_230:\n        /* \"#utility.yul\":23933:23972   */\n      tag_474\n        /* \"#utility.yul\":23964:23971   */\n      dup4\n        /* \"#utility.yul\":23933:23972   */\n      tag_228\n      jump\t// in\n    tag_474:\n        /* \"#utility.yul\":23994:24085   */\n      tag_475\n        /* \"#utility.yul\":24043:24084   */\n      tag_476\n        /* \"#utility.yul\":24067:24083   */\n      dup3\n        /* \"#utility.yul\":24043:24084   */\n      tag_229\n      jump\t// in\n    tag_476:\n        /* \"#utility.yul\":24035:24041   */\n      dup5\n        /* \"#utility.yul\":24028:24032   */\n      dup5\n        /* \"#utility.yul\":24022:24033   */\n      sload\n        /* \"#utility.yul\":23994:24085   */\n      tag_226\n      jump\t// in\n    tag_475:\n        /* \"#utility.yul\":23988:23992   */\n      dup3\n        /* \"#utility.yul\":23981:24086   */\n      sstore\n        /* \"#utility.yul\":23899:24092   */\n      pop\n        /* \"#utility.yul\":23823:24092   */\n      pop\n      pop\n      pop\n      jump\t// out\n        /* \"#utility.yul\":24098:24171   */\n    tag_231:\n        /* \"#utility.yul\":24143:24146   */\n      0x00\n        /* \"#utility.yul\":24098:24171   */\n      swap1\n      jump\t// out\n        /* \"#utility.yul\":24177:24366   */\n    tag_232:\n        /* \"#utility.yul\":24254:24286   */\n      tag_479\n      tag_231\n      jump\t// in\n    tag_479:\n        /* \"#utility.yul\":24295:24360   */\n      tag_480\n        /* \"#utility.yul\":24353:24359   */\n      dup2\n        /* \"#utility.yul\":24345:24351   */\n      dup5\n        /* \"#utility.yul\":24339:24343   */\n      dup5\n        /* \"#utility.yul\":24295:24360   */\n      tag_230\n      jump\t// in\n    tag_480:\n        /* \"#utility.yul\":24230:24366   */\n      pop\n        /* \"#utility.yul\":24177:24366   */\n      pop\n      pop\n      jump\t// out\n        /* \"#utility.yul\":24372:24558   */\n    tag_233:\n        /* \"#utility.yul\":24432:24552   */\n    tag_482:\n        /* \"#utility.yul\":24449:24452   */\n      dup2\n        /* \"#utility.yul\":24442:24447   */\n      dup2\n        /* \"#utility.yul\":24439:24453   */\n      lt\n        /* \"#utility.yul\":24432:24552   */\n      iszero\n      tag_484\n      jumpi\n        /* \"#utility.yul\":24503:24542   */\n      tag_485\n        /* \"#utility.yul\":24540:24541   */\n      0x00\n        /* \"#utility.yul\":24533:24538   */\n      dup3\n        /* \"#utility.yul\":24503:24542   */\n      tag_232\n      jump\t// in\n    tag_485:\n        /* \"#utility.yul\":24476:24477   */\n      0x01\n        /* \"#utility.yul\":24469:24474   */\n      dup2\n        /* \"#utility.yul\":24465:24478   */\n      add\n        /* \"#utility.yul\":24456:24478   */\n      swap1\n      pop\n        /* \"#utility.yul\":24432:24552   */\n      jump(tag_482)\n    tag_484:\n        /* \"#utility.yul\":24372:24558   */\n      pop\n      pop\n      jump\t// out\n        /* \"#utility.yul\":24564:25107   */\n    tag_234:\n        /* \"#utility.yul\":24665:24667   */\n      0x1f\n        /* \"#utility.yul\":24660:24663   */\n      dup3\n        /* \"#utility.yul\":24657:24668   */\n      gt\n        /* \"#utility.yul\":24654:25100   */\n      iszero\n      tag_487\n      jumpi\n        /* \"#utility.yul\":24699:24737   */\n      tag_488\n        /* \"#utility.yul\":24731:24736   */\n      dup2\n        /* \"#utility.yul\":24699:24737   */\n      tag_213\n      jump\t// in\n    tag_488:\n        /* \"#utility.yul\":24783:24812   */\n      tag_489\n        /* \"#utility.yul\":24801:24811   */\n      dup5\n        /* \"#utility.yul\":24783:24812   */\n      tag_224\n      jump\t// in\n    tag_489:\n        /* \"#utility.yul\":24773:24781   */\n      dup2\n        /* \"#utility.yul\":24769:24813   */\n      add\n        /* \"#utility.yul\":24966:24968   */\n      0x20\n        /* \"#utility.yul\":24954:24964   */\n      dup6\n        /* \"#utility.yul\":24951:24969   */\n      lt\n        /* \"#utility.yul\":24948:24997   */\n      iszero\n      tag_490\n      jumpi\n        /* \"#utility.yul\":24987:24995   */\n      dup2\n        /* \"#utility.yul\":24972:24995   */\n      swap1\n      pop\n        /* \"#utility.yul\":24948:24997   */\n    tag_490:\n        /* \"#utility.yul\":25010:25090   */\n      tag_491\n        /* \"#utility.yul\":25066:25088   */\n      tag_492\n        /* \"#utility.yul\":25084:25087   */\n      dup6\n        /* \"#utility.yul\":25066:25088   */\n      tag_224\n      jump\t// in\n    tag_492:\n        /* \"#utility.yul\":25056:25064   */\n      dup4\n        /* \"#utility.yul\":25052:25089   */\n      add\n        /* \"#utility.yul\":25039:25050   */\n      dup3\n        /* \"#utility.yul\":25010:25090   */\n      tag_233\n      jump\t// in\n    tag_491:\n        /* \"#utility.yul\":24669:25100   */\n      pop\n      pop\n        /* \"#utility.yul\":24654:25100   */\n    tag_487:\n        /* \"#utility.yul\":24564:25107   */\n      pop\n      pop\n      pop\n      jump\t// out\n        /* \"#utility.yul\":25113:25230   */\n    tag_235:\n        /* \"#utility.yul\":25167:25175   */\n      0x00\n        /* \"#utility.yul\":25217:25222   */\n      dup3\n        /* \"#utility.yul\":25211:25215   */\n      dup3\n        /* \"#utility.yul\":25207:25223   */\n      shr\n        /* \"#utility.yul\":25186:25223   */\n      swap1\n      pop\n        /* \"#utility.yul\":25113:25230   */\n      swap3\n      swap2\n      pop\n      pop\n      jump\t// out\n        /* \"#utility.yul\":25236:25405   */\n    tag_236:\n        /* \"#utility.yul\":25280:25286   */\n      0x00\n        /* \"#utility.yul\":25313:25364   */\n      tag_495\n        /* \"#utility.yul\":25361:25362   */\n      0x00\n        /* \"#utility.yul\":25357:25363   */\n      not\n        /* \"#utility.yul\":25349:25354   */\n      dup5\n        /* \"#utility.yul\":25346:25347   */\n      0x08\n        /* \"#utility.yul\":25342:25355   */\n      mul\n        /* \"#utility.yul\":25313:25364   */\n      tag_235\n      jump\t// in\n    tag_495:\n        /* \"#utility.yul\":25309:25365   */\n      not\n        /* \"#utility.yul\":25394:25398   */\n      dup1\n        /* \"#utility.yul\":25388:25392   */\n      dup4\n        /* \"#utility.yul\":25384:25399   */\n      and\n        /* \"#utility.yul\":25374:25399   */\n      swap2\n      pop\n        /* \"#utility.yul\":25287:25405   */\n      pop\n        /* \"#utility.yul\":25236:25405   */\n      swap3\n      swap2\n      pop\n      pop\n      jump\t// out\n        /* \"#utility.yul\":25410:25705   */\n    tag_237:\n        /* \"#utility.yul\":25486:25490   */\n      0x00\n        /* \"#utility.yul\":25632:25661   */\n      tag_497\n        /* \"#utility.yul\":25657:25660   */\n      dup4\n        /* \"#utility.yul\":25651:25655   */\n      dup4\n        /* \"#utility.yul\":25632:25661   */\n      tag_236\n      jump\t// in\n    tag_497:\n        /* \"#utility.yul\":25624:25661   */\n      swap2\n      pop\n        /* \"#utility.yul\":25694:25697   */\n      dup3\n        /* \"#utility.yul\":25691:25692   */\n      0x02\n        /* \"#utility.yul\":25687:25698   */\n      mul\n        /* \"#utility.yul\":25681:25685   */\n      dup3\n        /* \"#utility.yul\":25678:25699   */\n      or\n        /* \"#utility.yul\":25670:25699   */\n      swap1\n      pop\n        /* \"#utility.yul\":25410:25705   */\n      swap3\n      swap2\n      pop\n      pop\n      jump\t// out\n        /* \"#utility.yul\":25710:27105   */\n    tag_93:\n        /* \"#utility.yul\":25827:25864   */\n      tag_499\n        /* \"#utility.yul\":25860:25863   */\n      dup3\n        /* \"#utility.yul\":25827:25864   */\n      tag_179\n      jump\t// in\n    tag_499:\n        /* \"#utility.yul\":25929:25947   */\n      0xffffffffffffffff\n        /* \"#utility.yul\":25921:25927   */\n      dup2\n        /* \"#utility.yul\":25918:25948   */\n      gt\n        /* \"#utility.yul\":25915:25971   */\n      iszero\n      tag_500\n      jumpi\n        /* \"#utility.yul\":25951:25969   */\n      tag_501\n      tag_192\n      jump\t// in\n    tag_501:\n        /* \"#utility.yul\":25915:25971   */\n    tag_500:\n        /* \"#utility.yul\":25995:26033   */\n      tag_502\n        /* \"#utility.yul\":26027:26031   */\n      dup3\n        /* \"#utility.yul\":26021:26032   */\n      sload\n        /* \"#utility.yul\":25995:26033   */\n      tag_61\n      jump\t// in\n    tag_502:\n        /* \"#utility.yul\":26080:26147   */\n      tag_503\n        /* \"#utility.yul\":26140:26146   */\n      dup3\n        /* \"#utility.yul\":26132:26138   */\n      dup3\n        /* \"#utility.yul\":26126:26130   */\n      dup6\n        /* \"#utility.yul\":26080:26147   */\n      tag_234\n      jump\t// in\n    tag_503:\n        /* \"#utility.yul\":26174:26175   */\n      0x00\n        /* \"#utility.yul\":26198:26202   */\n      0x20\n        /* \"#utility.yul\":26185:26202   */\n      swap1\n      pop\n        /* \"#utility.yul\":26230:26232   */\n      0x1f\n        /* \"#utility.yul\":26222:26228   */\n      dup4\n        /* \"#utility.yul\":26219:26233   */\n      gt\n        /* \"#utility.yul\":26247:26248   */\n      0x01\n        /* \"#utility.yul\":26242:26860   */\n      dup2\n      eq\n      tag_505\n      jumpi\n        /* \"#utility.yul\":26904:26905   */\n      0x00\n        /* \"#utility.yul\":26921:26927   */\n      dup5\n        /* \"#utility.yul\":26918:26995   */\n      iszero\n      tag_506\n      jumpi\n        /* \"#utility.yul\":26970:26979   */\n      dup3\n        /* \"#utility.yul\":26965:26968   */\n      dup8\n        /* \"#utility.yul\":26961:26980   */\n      add\n        /* \"#utility.yul\":26955:26981   */\n      mload\n        /* \"#utility.yul\":26946:26981   */\n      swap1\n      pop\n        /* \"#utility.yul\":26918:26995   */\n    tag_506:\n        /* \"#utility.yul\":27021:27088   */\n      tag_507\n        /* \"#utility.yul\":27081:27087   */\n      dup6\n        /* \"#utility.yul\":27074:27079   */\n      dup3\n        /* \"#utility.yul\":27021:27088   */\n      tag_237\n      jump\t// in\n    tag_507:\n        /* \"#utility.yul\":27015:27019   */\n      dup7\n        /* \"#utility.yul\":27008:27089   */\n      sstore\n        /* \"#utility.yul\":26877:27099   */\n      pop\n        /* \"#utility.yul\":26212:27099   */\n      jump(tag_504)\n        /* \"#utility.yul\":26242:26860   */\n    tag_505:\n        /* \"#utility.yul\":26294:26298   */\n      0x1f\n        /* \"#utility.yul\":26290:26299   */\n      not\n        /* \"#utility.yul\":26282:26288   */\n      dup5\n        /* \"#utility.yul\":26278:26300   */\n      and\n        /* \"#utility.yul\":26328:26365   */\n      tag_508\n        /* \"#utility.yul\":26360:26364   */\n      dup7\n        /* \"#utility.yul\":26328:26365   */\n      tag_213\n      jump\t// in\n    tag_508:\n        /* \"#utility.yul\":26387:26388   */\n      0x00\n        /* \"#utility.yul\":26401:26609   */\n    tag_509:\n        /* \"#utility.yul\":26415:26422   */\n      dup3\n        /* \"#utility.yul\":26412:26413   */\n      dup2\n        /* \"#utility.yul\":26409:26423   */\n      lt\n        /* \"#utility.yul\":26401:26609   */\n      iszero\n      tag_511\n      jumpi\n        /* \"#utility.yul\":26494:26503   */\n      dup5\n        /* \"#utility.yul\":26489:26492   */\n      dup10\n        /* \"#utility.yul\":26485:26504   */\n      add\n        /* \"#utility.yul\":26479:26505   */\n      mload\n        /* \"#utility.yul\":26471:26477   */\n      dup3\n        /* \"#utility.yul\":26464:26506   */\n      sstore\n        /* \"#utility.yul\":26545:26546   */\n      0x01\n        /* \"#utility.yul\":26537:26543   */\n      dup3\n        /* \"#utility.yul\":26533:26547   */\n      add\n        /* \"#utility.yul\":26523:26547   */\n      swap2\n      pop\n        /* \"#utility.yul\":26592:26594   */\n      0x20\n        /* \"#utility.yul\":26581:26590   */\n      dup6\n        /* \"#utility.yul\":26577:26595   */\n      add\n        /* \"#utility.yul\":26564:26595   */\n      swap5\n      pop\n        /* \"#utility.yul\":26438:26442   */\n      0x20\n        /* \"#utility.yul\":26435:26436   */\n      dup2\n        /* \"#utility.yul\":26431:26443   */\n      add\n        /* \"#utility.yul\":26426:26443   */\n      swap1\n      pop\n        /* \"#utility.yul\":26401:26609   */\n      jump(tag_509)\n    tag_511:\n        /* \"#utility.yul\":26637:26643   */\n      dup7\n        /* \"#utility.yul\":26628:26635   */\n      dup4\n        /* \"#utility.yul\":26625:26644   */\n      lt\n        /* \"#utility.yul\":26622:26801   */\n      iszero\n      tag_512\n      jumpi\n        /* \"#utility.yul\":26695:26704   */\n      dup5\n        /* \"#utility.yul\":26690:26693   */\n      dup10\n        /* \"#utility.yul\":26686:26705   */\n      add\n        /* \"#utility.yul\":26680:26706   */\n      mload\n        /* \"#utility.yul\":26738:26786   */\n      tag_513\n        /* \"#utility.yul\":26780:26784   */\n      0x1f\n        /* \"#utility.yul\":26772:26778   */\n      dup10\n        /* \"#utility.yul\":26768:26785   */\n      and\n        /* \"#utility.yul\":26757:26766   */\n      dup3\n        /* \"#utility.yul\":26738:26786   */\n      tag_236\n      jump\t// in\n    tag_513:\n        /* \"#utility.yul\":26730:26736   */\n      dup4\n        /* \"#utility.yul\":26723:26787   */\n      sstore\n        /* \"#utility.yul\":26645:26801   */\n      pop\n        /* \"#utility.yul\":26622:26801   */\n    tag_512:\n        /* \"#utility.yul\":26847:26848   */\n      0x01\n        /* \"#utility.yul\":26843:26844   */\n      0x02\n        /* \"#utility.yul\":26835:26841   */\n      dup9\n        /* \"#utility.yul\":26831:26845   */\n      mul\n        /* \"#utility.yul\":26827:26849   */\n      add\n        /* \"#utility.yul\":26821:26825   */\n      dup9\n        /* \"#utility.yul\":26814:26850   */\n      sstore\n        /* \"#utility.yul\":26249:26860   */\n      pop\n      pop\n      pop\n        /* \"#utility.yul\":26212:27099   */\n    tag_504:\n      pop\n        /* \"#utility.yul\":25802:27105   */\n      pop\n      pop\n      pop\n        /* \"#utility.yul\":25710:27105   */\n      pop\n      pop\n      jump\t// out\n        /* \"#utility.yul\":27111:27291   */\n    tag_238:\n        /* \"#utility.yul\":27159:27236   */\n      0x4e487b7100000000000000000000000000000000000000000000000000000000\n        /* \"#utility.yul\":27156:27157   */\n      0x00\n        /* \"#utility.yul\":27149:27237   */\n      mstore\n        /* \"#utility.yul\":27256:27260   */\n      0x11\n        /* \"#utility.yul\":27253:27254   */\n      0x04\n        /* \"#utility.yul\":27246:27261   */\n      mstore\n        /* \"#utility.yul\":27280:27284   */\n      0x24\n        /* \"#utility.yul\":27277:27278   */\n      0x00\n        /* \"#utility.yul\":27270:27285   */\n      revert\n        /* \"#utility.yul\":27297:27491   */\n    tag_96:\n        /* \"#utility.yul\":27337:27341   */\n      0x00\n        /* \"#utility.yul\":27357:27377   */\n      tag_516\n        /* \"#utility.yul\":27375:27376   */\n      dup3\n        /* \"#utility.yul\":27357:27377   */\n      tag_177\n      jump\t// in\n    tag_516:\n        /* \"#utility.yul\":27352:27377   */\n      swap2\n      pop\n        /* \"#utility.yul\":27391:27411   */\n      tag_517\n        /* \"#utility.yul\":27409:27410   */\n      dup4\n        /* \"#utility.yul\":27391:27411   */\n      tag_177\n      jump\t// in\n    tag_517:\n        /* \"#utility.yul\":27386:27411   */\n      swap3\n      pop\n        /* \"#utility.yul\":27435:27436   */\n      dup3\n        /* \"#utility.yul\":27432:27433   */\n      dup3\n        /* \"#utility.yul\":27428:27437   */\n      sub\n        /* \"#utility.yul\":27420:27437   */\n      swap1\n      pop\n        /* \"#utility.yul\":27459:27460   */\n      dup2\n        /* \"#utility.yul\":27453:27457   */\n      dup2\n        /* \"#utility.yul\":27450:27461   */\n      gt\n        /* \"#utility.yul\":27447:27484   */\n      iszero\n      tag_518\n      jumpi\n        /* \"#utility.yul\":27464:27482   */\n      tag_519\n      tag_238\n      jump\t// in\n    tag_519:\n        /* \"#utility.yul\":27447:27484   */\n    tag_518:\n        /* \"#utility.yul\":27297:27491   */\n      swap3\n      swap2\n      pop\n      pop\n      jump\t// out\n        /* \"#utility.yul\":27497:27669   */\n    tag_239:\n        /* \"#utility.yul\":27637:27661   */\n      0x496e76616c696420617574686f72206164647265737300000000000000000000\n        /* \"#utility.yul\":27633:27634   */\n      0x00\n        /* \"#utility.yul\":27625:27631   */\n      dup3\n        /* \"#utility.yul\":27621:27635   */\n      add\n        /* \"#utility.yul\":27614:27662   */\n      mstore\n        /* \"#utility.yul\":27497:27669   */\n      pop\n      jump\t// out\n        /* \"#utility.yul\":27675:28041   */\n    tag_240:\n        /* \"#utility.yul\":27817:27820   */\n      0x00\n        /* \"#utility.yul\":27838:27905   */\n      tag_522\n        /* \"#utility.yul\":27902:27904   */\n      0x16\n        /* \"#utility.yul\":27897:27900   */\n      dup4\n        /* \"#utility.yul\":27838:27905   */\n      tag_201\n      jump\t// in\n    tag_522:\n        /* \"#utility.yul\":27831:27905   */\n      swap2\n      pop\n        /* \"#utility.yul\":27914:28007   */\n      tag_523\n        /* \"#utility.yul\":28003:28006   */\n      dup3\n        /* \"#utility.yul\":27914:28007   */\n      tag_239\n      jump\t// in\n    tag_523:\n        /* \"#utility.yul\":28032:28034   */\n      0x20\n        /* \"#utility.yul\":28027:28030   */\n      dup3\n        /* \"#utility.yul\":28023:28035   */\n      add\n        /* \"#utility.yul\":28016:28035   */\n      swap1\n      pop\n        /* \"#utility.yul\":27675:28041   */\n      swap2\n      swap1\n      pop\n      jump\t// out\n        /* \"#utility.yul\":28047:28466   */\n    tag_142:\n        /* \"#utility.yul\":28213:28217   */\n      0x00\n        /* \"#utility.yul\":28251:28253   */\n      0x20\n        /* \"#utility.yul\":28240:28249   */\n      dup3\n        /* \"#utility.yul\":28236:28254   */\n      add\n        /* \"#utility.yul\":28228:28254   */\n      swap1\n      pop\n        /* \"#utility.yul\":28300:28309   */\n      dup2\n        /* \"#utility.yul\":28294:28298   */\n      dup2\n        /* \"#utility.yul\":28290:28310   */\n      sub\n        /* \"#utility.yul\":28286:28287   */\n      0x00\n        /* \"#utility.yul\":28275:28284   */\n      dup4\n        /* \"#utility.yul\":28271:28288   */\n      add\n        /* \"#utility.yul\":28264:28311   */\n      mstore\n        /* \"#utility.yul\":28328:28459   */\n      tag_525\n        /* \"#utility.yul\":28454:28458   */\n      dup2\n        /* \"#utility.yul\":28328:28459   */\n      tag_240\n      jump\t// in\n    tag_525:\n        /* \"#utility.yul\":28320:28459   */\n      swap1\n      pop\n        /* \"#utility.yul\":28047:28466   */\n      swap2\n      swap1\n      pop\n      jump\t// out\n        /* \"#utility.yul\":28472:28619   */\n    tag_241:\n        /* \"#utility.yul\":28573:28584   */\n      0x00\n        /* \"#utility.yul\":28610:28613   */\n      dup2\n        /* \"#utility.yul\":28595:28613   */\n      swap1\n      pop\n        /* \"#utility.yul\":28472:28619   */\n      swap3\n      swap2\n      pop\n      pop\n      jump\t// out\n        /* \"#utility.yul\":28625:28739   */\n    tag_242:\n      pop\n      jump\t// out\n        /* \"#utility.yul\":28745:29143   */\n    tag_243:\n        /* \"#utility.yul\":28904:28907   */\n      0x00\n        /* \"#utility.yul\":28925:29008   */\n      tag_529\n        /* \"#utility.yul\":29006:29007   */\n      0x00\n        /* \"#utility.yul\":29001:29004   */\n      dup4\n        /* \"#utility.yul\":28925:29008   */\n      tag_241\n      jump\t// in\n    tag_529:\n        /* \"#utility.yul\":28918:29008   */\n      swap2\n      pop\n        /* \"#utility.yul\":29017:29110   */\n      tag_530\n        /* \"#utility.yul\":29106:29109   */\n      dup3\n        /* \"#utility.yul\":29017:29110   */\n      tag_242\n      jump\t// in\n    tag_530:\n        /* \"#utility.yul\":29135:29136   */\n      0x00\n        /* \"#utility.yul\":29130:29133   */\n      dup3\n        /* \"#utility.yul\":29126:29137   */\n      add\n        /* \"#utility.yul\":29119:29137   */\n      swap1\n      pop\n        /* \"#utility.yul\":28745:29143   */\n      swap2\n      swap1\n      pop\n      jump\t// out\n        /* \"#utility.yul\":29149:29528   */\n    tag_144:\n        /* \"#utility.yul\":29333:29336   */\n      0x00\n        /* \"#utility.yul\":29355:29502   */\n      tag_532\n        /* \"#utility.yul\":29498:29501   */\n      dup3\n        /* \"#utility.yul\":29355:29502   */\n      tag_243\n      jump\t// in\n    tag_532:\n        /* \"#utility.yul\":29348:29502   */\n      swap2\n      pop\n        /* \"#utility.yul\":29519:29522   */\n      dup2\n        /* \"#utility.yul\":29512:29522   */\n      swap1\n      pop\n        /* \"#utility.yul\":29149:29528   */\n      swap2\n      swap1\n      pop\n      jump\t// out\n        /* \"#utility.yul\":29534:29704   */\n    tag_244:\n        /* \"#utility.yul\":29674:29696   */\n      0x47696674207472616e73666572206661696c6564000000000000000000000000\n        /* \"#utility.yul\":29670:29671   */\n      0x00\n        /* \"#utility.yul\":29662:29668   */\n      dup3\n        /* \"#utility.yul\":29658:29672   */\n      add\n        /* \"#utility.yul\":29651:29697   */\n      mstore\n        /* \"#utility.yul\":29534:29704   */\n      pop\n      jump\t// out\n        /* \"#utility.yul\":29710:30076   */\n    tag_245:\n        /* \"#utility.yul\":29852:29855   */\n      0x00\n        /* \"#utility.yul\":29873:29940   */\n      tag_535\n        /* \"#utility.yul\":29937:29939   */\n      0x14\n        /* \"#utility.yul\":29932:29935   */\n      dup4\n        /* \"#utility.yul\":29873:29940   */\n      tag_201\n      jump\t// in\n    tag_535:\n        /* \"#utility.yul\":29866:29940   */\n      swap2\n      pop\n        /* \"#utility.yul\":29949:30042   */\n      tag_536\n        /* \"#utility.yul\":30038:30041   */\n      dup3\n        /* \"#utility.yul\":29949:30042   */\n      tag_244\n      jump\t// in\n    tag_536:\n        /* \"#utility.yul\":30067:30069   */\n      0x20\n        /* \"#utility.yul\":30062:30065   */\n      dup3\n        /* \"#utility.yul\":30058:30070   */\n      add\n        /* \"#utility.yul\":30051:30070   */\n      swap1\n      pop\n        /* \"#utility.yul\":29710:30076   */\n      swap2\n      swap1\n      pop\n      jump\t// out\n        /* \"#utility.yul\":30082:30501   */\n    tag_150:\n        /* \"#utility.yul\":30248:30252   */\n      0x00\n        /* \"#utility.yul\":30286:30288   */\n      0x20\n        /* \"#utility.yul\":30275:30284   */\n      dup3\n        /* \"#utility.yul\":30271:30289   */\n      add\n        /* \"#utility.yul\":30263:30289   */\n      swap1\n      pop\n        /* \"#utility.yul\":30335:30344   */\n      dup2\n        /* \"#utility.yul\":30329:30333   */\n      dup2\n        /* \"#utility.yul\":30325:30345   */\n      sub\n        /* \"#utility.yul\":30321:30322   */\n      0x00\n        /* \"#utility.yul\":30310:30319   */\n      dup4\n        /* \"#utility.yul\":30306:30323   */\n      add\n        /* \"#utility.yul\":30299:30346   */\n      mstore\n        /* \"#utility.yul\":30363:30494   */\n      tag_538\n        /* \"#utility.yul\":30489:30493   */\n      dup2\n        /* \"#utility.yul\":30363:30494   */\n      tag_245\n      jump\t// in\n    tag_538:\n        /* \"#utility.yul\":30355:30494   */\n      swap1\n      pop\n        /* \"#utility.yul\":30082:30501   */\n      swap2\n      swap1\n      pop\n      jump\t// out\n        /* \"#utility.yul\":30507:31040   */\n    tag_154:\n        /* \"#utility.yul\":30676:30680   */\n      0x00\n        /* \"#utility.yul\":30714:30716   */\n      0x60\n        /* \"#utility.yul\":30703:30712   */\n      dup3\n        /* \"#utility.yul\":30699:30717   */\n      add\n        /* \"#utility.yul\":30691:30717   */\n      swap1\n      pop\n        /* \"#utility.yul\":30727:30798   */\n      tag_540\n        /* \"#utility.yul\":30795:30796   */\n      0x00\n        /* \"#utility.yul\":30784:30793   */\n      dup4\n        /* \"#utility.yul\":30780:30797   */\n      add\n        /* \"#utility.yul\":30771:30777   */\n      dup7\n        /* \"#utility.yul\":30727:30798   */\n      tag_189\n      jump\t// in\n    tag_540:\n        /* \"#utility.yul\":30808:30880   */\n      tag_541\n        /* \"#utility.yul\":30876:30878   */\n      0x20\n        /* \"#utility.yul\":30865:30874   */\n      dup4\n        /* \"#utility.yul\":30861:30879   */\n      add\n        /* \"#utility.yul\":30852:30858   */\n      dup6\n        /* \"#utility.yul\":30808:30880   */\n      tag_189\n      jump\t// in\n    tag_541:\n        /* \"#utility.yul\":30927:30936   */\n      dup2\n        /* \"#utility.yul\":30921:30925   */\n      dup2\n        /* \"#utility.yul\":30917:30937   */\n      sub\n        /* \"#utility.yul\":30912:30914   */\n      0x40\n        /* \"#utility.yul\":30901:30910   */\n      dup4\n        /* \"#utility.yul\":30897:30915   */\n      add\n        /* \"#utility.yul\":30890:30938   */\n      mstore\n        /* \"#utility.yul\":30955:31033   */\n      tag_542\n        /* \"#utility.yul\":31028:31032   */\n      dup2\n        /* \"#utility.yul\":31019:31025   */\n      dup5\n        /* \"#utility.yul\":30955:31033   */\n      tag_202\n      jump\t// in\n    tag_542:\n        /* \"#utility.yul\":30947:31033   */\n      swap1\n      pop\n        /* \"#utility.yul\":30507:31040   */\n      swap5\n      swap4\n      pop\n      pop\n      pop\n      pop\n      jump\t// out\n\n    auxdata: 0xa264697066735822122091d7aabc6b627453b6cba20bbbc328e037c693795045f145042fdc8e9089c2ce64736f6c634300081a0033\n}\n",
				"bytecode": {
					"linkReferences": {},
					"object": "60806040525f600155348015610013575f80fd5b50604051612152380380612152833981810160405281019061003591906100d8565b805f806101000a81548173ffffffffffffffffffffffffffffffffffffffff021916908373ffffffffffffffffffffffffffffffffffffffff16021790555050610103565b5f80fd5b5f73ffffffffffffffffffffffffffffffffffffffff82169050919050565b5f6100a78261007e565b9050919050565b6100b78161009d565b81146100c1575f80fd5b50565b5f815190506100d2816100ae565b92915050565b5f602082840312156100ed576100ec61007a565b5b5f6100fa848285016100c4565b91505092915050565b612042806101105f395ff3fe60806040526004361061007a575f3560e01c80636ecb56711161004d5780636ecb567114610134578063a466666514610173578063c1cfe6a3146101b1578063edcfafe6146101cd5761007a565b8063180580661461007e5780632007c8f1146100ba5780633af38305146100e45780636ec67ec91461010c575b5f80fd5b348015610089575f80fd5b506100a4600480360381019061009f919061115d565b61020c565b6040516100b1919061133a565b60405180910390f35b3480156100c5575f80fd5b506100ce61039d565b6040516100db9190611369565b60405180910390f35b3480156100ef575f80fd5b5061010a600480360381019061010591906114ae565b6103a3565b005b348015610117575f80fd5b50610132600480360381019061012d91906114f5565b610533565b005b34801561013f575f80fd5b5061015a60048036038101906101559190611595565b610782565b60405161016a949392919061162a565b60405180910390f35b34801561017e575f80fd5b50610199600480360381019061019491906114ae565b61086d565b6040516101a893929190611674565b60405180910390f35b6101cb60048036038101906101c691906114ae565b610ab4565b005b3480156101d8575f80fd5b506101f360048036038101906101ee91906116b7565b610f7f565b60405161020394939291906116fc565b60405180910390f35b606060035f8373ffffffffffffffffffffffffffffffffffffffff1673ffffffffffffffffffffffffffffffffffffffff1681526020019081526020015f20805480602002602001604051908101604052809291908181526020015f905b82821015610392578382905f5260205f2090600402016040518060800160405290815f8201548152602001600182015481526020016002820180546102ae9061177a565b80601f01602080910402602001604051908101604052809291908181526020018280546102da9061177a565b80156103255780601f106102fc57610100808354040283529160200191610325565b820191905f5260205f20905b81548152906001019060200180831161030857829003601f168201915b50505050508152602001600382015f9054906101000a900473ffffffffffffffffffffffffffffffffffffffff1673ffffffffffffffffffffffffffffffffffffffff1673ffffffffffffffffffffffffffffffffffffffff16815250508152602001906001019061026a565b505050509050919050565b60015481565b5f6004826040516103b491906117e4565b9081526020016040518091039020549050600280549050811061040c576040517f08c379a000000000000000000000000000000000000000000000000000000000815260040161040390611844565b60405180910390fd5b5f6002828154811061042157610420611862565b5b905f5260205f20906003020190503373ffffffffffffffffffffffffffffffffffffffff16816002015f9054906101000a900473ffffffffffffffffffffffffffffffffffffffff1673ffffffffffffffffffffffffffffffffffffffff16146104c0576040517f08c379a00000000000000000000000000000000000000000000000000000000081526004016104b7906118ff565b60405180910390fd5b5f8160020160146101000a81548160ff0219169083151502179055503373ffffffffffffffffffffffffffffffffffffffff167f92b0267ae1289ea84247f15ee9011343df8ebde2e983ebdd1fc7cc339060776e83835f016040516105269291906119b0565b60405180910390a2505050565b5f805f9054906101000a900473ffffffffffffffffffffffffffffffffffffffff1673ffffffffffffffffffffffffffffffffffffffff16630ab30093336040518263ffffffff1660e01b815260040161058d91906119de565b5f60405180830381865afa1580156105a7573d5f803e3d5ffd5b505050506040513d5f823e3d601f19601f820116820180604052508101906105cf9190611b30565b90508060400151610615576040517f08c379a000000000000000000000000000000000000000000000000000000000815260040161060c90611be7565b60405180910390fd5b600260405180608001604052808581526020018481526020013373ffffffffffffffffffffffffffffffffffffffff16815260200160011515815250908060018154018082558091505060019003905f5260205f2090600302015f909190919091505f820151815f01908161068a9190611d90565b5060208201518160010190816106a09190611d90565b506040820151816002015f6101000a81548173ffffffffffffffffffffffffffffffffffffffff021916908373ffffffffffffffffffffffffffffffffffffffff16021790555060608201518160020160146101000a81548160ff02191690831515021790555050505f600160028054905061071c9190611e8c565b90508060048460405161072f91906117e4565b9081526020016040518091039020819055507fdbfe1f82a77201b0c570aeab9388d9d6cfb93f73f7cd224b1ba1f6da66f27cac84843360405161077493929190611674565b60405180910390a150505050565b6003602052815f5260405f20818154811061079b575f80fd5b905f5260205f2090600402015f9150915050805f0154908060010154908060020180546107c79061177a565b80601f01602080910402602001604051908101604052809291908181526020018280546107f39061177a565b801561083e5780601f106108155761010080835404028352916020019161083e565b820191905f5260205f20905b81548152906001019060200180831161082157829003601f168201915b505050505090806003015f9054906101000a900473ffffffffffffffffffffffffffffffffffffffff16905084565b6060805f8060048560405161088291906117e4565b908152602001604051809103902054905060028054905081106108da576040517f08c379a00000000000000000000000000000000000000000000000000000000081526004016108d190611844565b60405180910390fd5b5f600282815481106108ef576108ee611862565b5b905f5260205f2090600302016040518060800160405290815f820180546109159061177a565b80601f01602080910402602001604051908101604052809291908181526020018280546109419061177a565b801561098c5780601f106109635761010080835404028352916020019161098c565b820191905f5260205f20905b81548152906001019060200180831161096f57829003601f168201915b505050505081526020016001820180546109a59061177a565b80601f01602080910402602001604051908101604052809291908181526020018280546109d19061177a565b8015610a1c5780601f106109f357610100808354040283529160200191610a1c565b820191905f5260205f20905b8154815290600101906020018083116109ff57829003601f168201915b50505050508152602001600282015f9054906101000a900473ffffffffffffffffffffffffffffffffffffffff1673ffffffffffffffffffffffffffffffffffffffff1673ffffffffffffffffffffffffffffffffffffffff1681526020016002820160149054906101000a900460ff1615151515815250509050805f01518160200151826040015194509450945050509193909250565b5f600482604051610ac591906117e4565b90815260200160405180910390205490506002805490508110610b1d576040517f08c379a0000000000000000000000000000000000000000000000000000000008152600401610b1490611844565b60405180910390fd5b5f60028281548110610b3257610b31611862565b5b905f5260205f2090600302016040518060800160405290815f82018054610b589061177a565b80601f0160208091040260200160405190810160405280929190818152602001828054610b849061177a565b8015610bcf5780601f10610ba657610100808354040283529160200191610bcf565b820191905f5260205f20905b815481529060010190602001808311610bb257829003601f168201915b50505050508152602001600182018054610be89061177a565b80601f0160208091040260200160405190810160405280929190818152602001828054610c149061177a565b8015610c5f5780601f10610c3657610100808354040283529160200191610c5f565b820191905f5260205f20905b815481529060010190602001808311610c4257829003601f168201915b50505050508152602001600282015f9054906101000a900473ffffffffffffffffffffffffffffffffffffffff1673ffffffffffffffffffffffffffffffffffffffff1673ffffffffffffffffffffffffffffffffffffffff1681526020016002820160149054906101000a900460ff16151515158152505090505f73ffffffffffffffffffffffffffffffffffffffff16816040015173ffffffffffffffffffffffffffffffffffffffff1603610d4c576040517f08c379a0000000000000000000000000000000000000000000000000000000008152600401610d4390611f09565b60405180910390fd5b5f816040015173ffffffffffffffffffffffffffffffffffffffff1634604051610d7590611f54565b5f6040518083038185875af1925050503d805f8114610daf576040519150601f19603f3d011682016040523d82523d5f602084013e610db4565b606091505b5050905080610df8576040517f08c379a0000000000000000000000000000000000000000000000000000000008152600401610def90611fb2565b60405180910390fd5b60035f836040015173ffffffffffffffffffffffffffffffffffffffff1673ffffffffffffffffffffffffffffffffffffffff1681526020019081526020015f206040518060800160405280348152602001858152602001845f015181526020013373ffffffffffffffffffffffffffffffffffffffff16815250908060018154018082558091505060019003905f5260205f2090600402015f909190919091505f820151815f0155602082015181600101556040820151816002019081610ec09190611d90565b506060820151816003015f6101000a81548173ffffffffffffffffffffffffffffffffffffffff021916908373ffffffffffffffffffffffffffffffffffffffff1602179055505050816040015173ffffffffffffffffffffffffffffffffffffffff163373ffffffffffffffffffffffffffffffffffffffff167fb4b46f23cd35c79709ecdacc4152dd97a90f5b7bfa9d3f4bc3ec8374060bfa993486865f0151604051610f7193929190611fd0565b60405180910390a350505050565b60028181548110610f8e575f80fd5b905f5260205f2090600302015f91509050805f018054610fad9061177a565b80601f0160208091040260200160405190810160405280929190818152602001828054610fd99061177a565b80156110245780601f10610ffb57610100808354040283529160200191611024565b820191905f5260205f20905b81548152906001019060200180831161100757829003601f168201915b5050505050908060010180546110399061177a565b80601f01602080910402602001604051908101604052809291908181526020018280546110659061177a565b80156110b05780601f10611087576101008083540402835291602001916110b0565b820191905f5260205f20905b81548152906001019060200180831161109357829003601f168201915b505050505090806002015f9054906101000a900473ffffffffffffffffffffffffffffffffffffffff16908060020160149054906101000a900460ff16905084565b5f604051905090565b5f80fd5b5f80fd5b5f73ffffffffffffffffffffffffffffffffffffffff82169050919050565b5f61112c82611103565b9050919050565b61113c81611122565b8114611146575f80fd5b50565b5f8135905061115781611133565b92915050565b5f60208284031215611172576111716110fb565b5b5f61117f84828501611149565b91505092915050565b5f81519050919050565b5f82825260208201905092915050565b5f819050602082019050919050565b5f819050919050565b6111c3816111b1565b82525050565b5f81519050919050565b5f82825260208201905092915050565b8281835e5f83830152505050565b5f601f19601f8301169050919050565b5f61120b826111c9565b61121581856111d3565b93506112258185602086016111e3565b61122e816111f1565b840191505092915050565b61124281611122565b82525050565b5f608083015f83015161125d5f8601826111ba565b50602083015161127060208601826111ba565b50604083015184820360408601526112888282611201565b915050606083015161129d6060860182611239565b508091505092915050565b5f6112b38383611248565b905092915050565b5f602082019050919050565b5f6112d182611188565b6112db8185611192565b9350836020820285016112ed856111a2565b805f5b85811015611328578484038952815161130985826112a8565b9450611314836112bb565b925060208a019950506001810190506112f0565b50829750879550505050505092915050565b5f6020820190508181035f83015261135281846112c7565b905092915050565b611363816111b1565b82525050565b5f60208201905061137c5f83018461135a565b92915050565b5f80fd5b5f80fd5b7f4e487b71000000000000000000000000000000000000000000000000000000005f52604160045260245ffd5b6113c0826111f1565b810181811067ffffffffffffffff821117156113df576113de61138a565b5b80604052505050565b5f6113f16110f2565b90506113fd82826113b7565b919050565b5f67ffffffffffffffff82111561141c5761141b61138a565b5b611425826111f1565b9050602081019050919050565b828183375f83830152505050565b5f61145261144d84611402565b6113e8565b90508281526020810184848401111561146e5761146d611386565b5b611479848285611432565b509392505050565b5f82601f83011261149557611494611382565b5b81356114a5848260208601611440565b91505092915050565b5f602082840312156114c3576114c26110fb565b5b5f82013567ffffffffffffffff8111156114e0576114df6110ff565b5b6114ec84828501611481565b91505092915050565b5f806040838503121561150b5761150a6110fb565b5b5f83013567ffffffffffffffff811115611528576115276110ff565b5b61153485828601611481565b925050602083013567ffffffffffffffff811115611555576115546110ff565b5b61156185828601611481565b9150509250929050565b611574816111b1565b811461157e575f80fd5b50565b5f8135905061158f8161156b565b92915050565b5f80604083850312156115ab576115aa6110fb565b5b5f6115b885828601611149565b92505060206115c985828601611581565b9150509250929050565b5f82825260208201905092915050565b5f6115ed826111c9565b6115f781856115d3565b93506116078185602086016111e3565b611610816111f1565b840191505092915050565b61162481611122565b82525050565b5f60808201905061163d5f83018761135a565b61164a602083018661135a565b818103604083015261165c81856115e3565b905061166b606083018461161b565b95945050505050565b5f6060820190508181035f83015261168c81866115e3565b905081810360208301526116a081856115e3565b90506116af604083018461161b565b949350505050565b5f602082840312156116cc576116cb6110fb565b5b5f6116d984828501611581565b91505092915050565b5f8115159050919050565b6116f6816116e2565b82525050565b5f6080820190508181035f83015261171481876115e3565b9050818103602083015261172881866115e3565b9050611737604083018561161b565b61174460608301846116ed565b95945050505050565b7f4e487b71000000000000000000000000000000000000000000000000000000005f52602260045260245ffd5b5f600282049050600182168061179157607f821691505b6020821081036117a4576117a361174d565b5b50919050565b5f81905092915050565b5f6117be826111c9565b6117c881856117aa565b93506117d88185602086016111e3565b80840191505092915050565b5f6117ef82846117b4565b915081905092915050565b7f41727469636c6520646f6573206e6f74206578697374000000000000000000005f82015250565b5f61182e6016836115d3565b9150611839826117fa565b602082019050919050565b5f6020820190508181035f83015261185b81611822565b9050919050565b7f4e487b71000000000000000000000000000000000000000000000000000000005f52603260045260245ffd5b7f4f6e6c792074686520617574686f722063616e2064656c6574652074686520615f8201527f727469636c650000000000000000000000000000000000000000000000000000602082015250565b5f6118e96026836115d3565b91506118f48261188f565b604082019050919050565b5f6020820190508181035f830152611916816118dd565b9050919050565b5f819050815f5260205f209050919050565b5f815461193b8161177a565b61194581866115d3565b9450600182165f811461195f5760018114611975576119a7565b60ff1983168652811515602002860193506119a7565b61197e8561191d565b5f5b8381101561199f57815481890152600182019150602081019050611980565b808801955050505b50505092915050565b5f6040820190506119c35f83018561135a565b81810360208301526119d5818461192f565b90509392505050565b5f6020820190506119f15f83018461161b565b92915050565b5f80fd5b5f80fd5b5f611a11611a0c84611402565b6113e8565b905082815260208101848484011115611a2d57611a2c611386565b5b611a388482856111e3565b509392505050565b5f82601f830112611a5457611a53611382565b5b8151611a648482602086016119ff565b91505092915050565b611a76816116e2565b8114611a80575f80fd5b50565b5f81519050611a9181611a6d565b92915050565b5f60608284031215611aac57611aab6119f7565b5b611ab660606113e8565b90505f82015167ffffffffffffffff811115611ad557611ad46119fb565b5b611ae184828501611a40565b5f83015250602082015167ffffffffffffffff811115611b0457611b036119fb565b5b611b1084828501611a40565b6020830152506040611b2484828501611a83565b60408301525092915050565b5f60208284031215611b4557611b446110fb565b5b5f82015167ffffffffffffffff811115611b6257611b616110ff565b5b611b6e84828501611a97565b91505092915050565b7f4f6e6c79207265676973746572656420617574686f72732063616e20616464205f8201527f61727469636c6573000000000000000000000000000000000000000000000000602082015250565b5f611bd16028836115d3565b9150611bdc82611b77565b604082019050919050565b5f6020820190508181035f830152611bfe81611bc5565b9050919050565b5f6020601f8301049050919050565b5f82821b905092915050565b5f60088302611c4f7fffffffffffffffffffffffffffffffffffffffffffffffffffffffffffffffff82611c14565b611c598683611c14565b95508019841693508086168417925050509392505050565b5f819050919050565b5f611c94611c8f611c8a846111b1565b611c71565b6111b1565b9050919050565b5f819050919050565b611cad83611c7a565b611cc1611cb982611c9b565b848454611c20565b825550505050565b5f90565b611cd5611cc9565b611ce0818484611ca4565b505050565b5b81811015611d0357611cf85f82611ccd565b600181019050611ce6565b5050565b601f821115611d4857611d198161191d565b611d2284611c05565b81016020851015611d31578190505b611d45611d3d85611c05565b830182611ce5565b50505b505050565b5f82821c905092915050565b5f611d685f1984600802611d4d565b1980831691505092915050565b5f611d808383611d59565b9150826002028217905092915050565b611d99826111c9565b67ffffffffffffffff811115611db257611db161138a565b5b611dbc825461177a565b611dc7828285611d07565b5f60209050601f831160018114611df8575f8415611de6578287015190505b611df08582611d75565b865550611e57565b601f198416611e068661191d565b5f5b82811015611e2d57848901518255600182019150602085019450602081019050611e08565b86831015611e4a5784890151611e46601f891682611d59565b8355505b6001600288020188555050505b505050505050565b7f4e487b71000000000000000000000000000000000000000000000000000000005f52601160045260245ffd5b5f611e96826111b1565b9150611ea1836111b1565b9250828203905081811115611eb957611eb8611e5f565b5b92915050565b7f496e76616c696420617574686f722061646472657373000000000000000000005f82015250565b5f611ef36016836115d3565b9150611efe82611ebf565b602082019050919050565b5f6020820190508181035f830152611f2081611ee7565b9050919050565b5f81905092915050565b50565b5f611f3f5f83611f27565b9150611f4a82611f31565b5f82019050919050565b5f611f5e82611f34565b9150819050919050565b7f47696674207472616e73666572206661696c65640000000000000000000000005f82015250565b5f611f9c6014836115d3565b9150611fa782611f68565b602082019050919050565b5f6020820190508181035f830152611fc981611f90565b9050919050565b5f606082019050611fe35f83018661135a565b611ff0602083018561135a565b818103604083015261200281846115e3565b905094935050505056fea264697066735822122091d7aabc6b627453b6cba20bbbc328e037c693795045f145042fdc8e9089c2ce64736f6c634300081a0033",
					"opcodes": "PUSH1 0x80 PUSH1 0x40 MSTORE PUSH0 PUSH1 0x1 SSTORE CALLVALUE DUP1 ISZERO PUSH2 0x13 JUMPI PUSH0 DUP1 REVERT JUMPDEST POP PUSH1 0x40 MLOAD PUSH2 0x2152 CODESIZE SUB DUP1 PUSH2 0x2152 DUP4 CODECOPY DUP2 DUP2 ADD PUSH1 0x40 MSTORE DUP2 ADD SWAP1 PUSH2 0x35 SWAP2 SWAP1 PUSH2 0xD8 JUMP JUMPDEST DUP1 PUSH0 DUP1 PUSH2 0x100 EXP DUP2 SLOAD DUP2 PUSH20 0xFFFFFFFFFFFFFFFFFFFFFFFFFFFFFFFFFFFFFFFF MUL NOT AND SWAP1 DUP4 PUSH20 0xFFFFFFFFFFFFFFFFFFFFFFFFFFFFFFFFFFFFFFFF AND MUL OR SWAP1 SSTORE POP POP PUSH2 0x103 JUMP JUMPDEST PUSH0 DUP1 REVERT JUMPDEST PUSH0 PUSH20 0xFFFFFFFFFFFFFFFFFFFFFFFFFFFFFFFFFFFFFFFF DUP3 AND SWAP1 POP SWAP2 SWAP1 POP JUMP JUMPDEST PUSH0 PUSH2 0xA7 DUP3 PUSH2 0x7E JUMP JUMPDEST SWAP1 POP SWAP2 SWAP1 POP JUMP JUMPDEST PUSH2 0xB7 DUP2 PUSH2 0x9D JUMP JUMPDEST DUP2 EQ PUSH2 0xC1 JUMPI PUSH0 DUP1 REVERT JUMPDEST POP JUMP JUMPDEST PUSH0 DUP2 MLOAD SWAP1 POP PUSH2 0xD2 DUP2 PUSH2 0xAE JUMP JUMPDEST SWAP3 SWAP2 POP POP JUMP JUMPDEST PUSH0 PUSH1 0x20 DUP3 DUP5 SUB SLT ISZERO PUSH2 0xED JUMPI PUSH2 0xEC PUSH2 0x7A JUMP JUMPDEST JUMPDEST PUSH0 PUSH2 0xFA DUP5 DUP3 DUP6 ADD PUSH2 0xC4 JUMP JUMPDEST SWAP2 POP POP SWAP3 SWAP2 POP POP JUMP JUMPDEST PUSH2 0x2042 DUP1 PUSH2 0x110 PUSH0 CODECOPY PUSH0 RETURN INVALID PUSH1 0x80 PUSH1 0x40 MSTORE PUSH1 0x4 CALLDATASIZE LT PUSH2 0x7A JUMPI PUSH0 CALLDATALOAD PUSH1 0xE0 SHR DUP1 PUSH4 0x6ECB5671 GT PUSH2 0x4D JUMPI DUP1 PUSH4 0x6ECB5671 EQ PUSH2 0x134 JUMPI DUP1 PUSH4 0xA4666665 EQ PUSH2 0x173 JUMPI DUP1 PUSH4 0xC1CFE6A3 EQ PUSH2 0x1B1 JUMPI DUP1 PUSH4 0xEDCFAFE6 EQ PUSH2 0x1CD JUMPI PUSH2 0x7A JUMP JUMPDEST DUP1 PUSH4 0x18058066 EQ PUSH2 0x7E JUMPI DUP1 PUSH4 0x2007C8F1 EQ PUSH2 0xBA JUMPI DUP1 PUSH4 0x3AF38305 EQ PUSH2 0xE4 JUMPI DUP1 PUSH4 0x6EC67EC9 EQ PUSH2 0x10C JUMPI JUMPDEST PUSH0 DUP1 REVERT JUMPDEST CALLVALUE DUP1 ISZERO PUSH2 0x89 JUMPI PUSH0 DUP1 REVERT JUMPDEST POP PUSH2 0xA4 PUSH1 0x4 DUP1 CALLDATASIZE SUB DUP2 ADD SWAP1 PUSH2 0x9F SWAP2 SWAP1 PUSH2 0x115D JUMP JUMPDEST PUSH2 0x20C JUMP JUMPDEST PUSH1 0x40 MLOAD PUSH2 0xB1 SWAP2 SWAP1 PUSH2 0x133A JUMP JUMPDEST PUSH1 0x40 MLOAD DUP1 SWAP2 SUB SWAP1 RETURN JUMPDEST CALLVALUE DUP1 ISZERO PUSH2 0xC5 JUMPI PUSH0 DUP1 REVERT JUMPDEST POP PUSH2 0xCE PUSH2 0x39D JUMP JUMPDEST PUSH1 0x40 MLOAD PUSH2 0xDB SWAP2 SWAP1 PUSH2 0x1369 JUMP JUMPDEST PUSH1 0x40 MLOAD DUP1 SWAP2 SUB SWAP1 RETURN JUMPDEST CALLVALUE DUP1 ISZERO PUSH2 0xEF JUMPI PUSH0 DUP1 REVERT JUMPDEST POP PUSH2 0x10A PUSH1 0x4 DUP1 CALLDATASIZE SUB DUP2 ADD SWAP1 PUSH2 0x105 SWAP2 SWAP1 PUSH2 0x14AE JUMP JUMPDEST PUSH2 0x3A3 JUMP JUMPDEST STOP JUMPDEST CALLVALUE DUP1 ISZERO PUSH2 0x117 JUMPI PUSH0 DUP1 REVERT JUMPDEST POP PUSH2 0x132 PUSH1 0x4 DUP1 CALLDATASIZE SUB DUP2 ADD SWAP1 PUSH2 0x12D SWAP2 SWAP1 PUSH2 0x14F5 JUMP JUMPDEST PUSH2 0x533 JUMP JUMPDEST STOP JUMPDEST CALLVALUE DUP1 ISZERO PUSH2 0x13F JUMPI PUSH0 DUP1 REVERT JUMPDEST POP PUSH2 0x15A PUSH1 0x4 DUP1 CALLDATASIZE SUB DUP2 ADD SWAP1 PUSH2 0x155 SWAP2 SWAP1 PUSH2 0x1595 JUMP JUMPDEST PUSH2 0x782 JUMP JUMPDEST PUSH1 0x40 MLOAD PUSH2 0x16A SWAP5 SWAP4 SWAP3 SWAP2 SWAP1 PUSH2 0x162A JUMP JUMPDEST PUSH1 0x40 MLOAD DUP1 SWAP2 SUB SWAP1 RETURN JUMPDEST CALLVALUE DUP1 ISZERO PUSH2 0x17E JUMPI PUSH0 DUP1 REVERT JUMPDEST POP PUSH2 0x199 PUSH1 0x4 DUP1 CALLDATASIZE SUB DUP2 ADD SWAP1 PUSH2 0x194 SWAP2 SWAP1 PUSH2 0x14AE JUMP JUMPDEST PUSH2 0x86D JUMP JUMPDEST PUSH1 0x40 MLOAD PUSH2 0x1A8 SWAP4 SWAP3 SWAP2 SWAP1 PUSH2 0x1674 JUMP JUMPDEST PUSH1 0x40 MLOAD DUP1 SWAP2 SUB SWAP1 RETURN JUMPDEST PUSH2 0x1CB PUSH1 0x4 DUP1 CALLDATASIZE SUB DUP2 ADD SWAP1 PUSH2 0x1C6 SWAP2 SWAP1 PUSH2 0x14AE JUMP JUMPDEST PUSH2 0xAB4 JUMP JUMPDEST STOP JUMPDEST CALLVALUE DUP1 ISZERO PUSH2 0x1D8 JUMPI PUSH0 DUP1 REVERT JUMPDEST POP PUSH2 0x1F3 PUSH1 0x4 DUP1 CALLDATASIZE SUB DUP2 ADD SWAP1 PUSH2 0x1EE SWAP2 SWAP1 PUSH2 0x16B7 JUMP JUMPDEST PUSH2 0xF7F JUMP JUMPDEST PUSH1 0x40 MLOAD PUSH2 0x203 SWAP5 SWAP4 SWAP3 SWAP2 SWAP1 PUSH2 0x16FC JUMP JUMPDEST PUSH1 0x40 MLOAD DUP1 SWAP2 SUB SWAP1 RETURN JUMPDEST PUSH1 0x60 PUSH1 0x3 PUSH0 DUP4 PUSH20 0xFFFFFFFFFFFFFFFFFFFFFFFFFFFFFFFFFFFFFFFF AND PUSH20 0xFFFFFFFFFFFFFFFFFFFFFFFFFFFFFFFFFFFFFFFF AND DUP2 MSTORE PUSH1 0x20 ADD SWAP1 DUP2 MSTORE PUSH1 0x20 ADD PUSH0 KECCAK256 DUP1 SLOAD DUP1 PUSH1 0x20 MUL PUSH1 0x20 ADD PUSH1 0x40 MLOAD SWAP1 DUP2 ADD PUSH1 0x40 MSTORE DUP1 SWAP3 SWAP2 SWAP1 DUP2 DUP2 MSTORE PUSH1 0x20 ADD PUSH0 SWAP1 JUMPDEST DUP3 DUP3 LT ISZERO PUSH2 0x392 JUMPI DUP4 DUP3 SWAP1 PUSH0 MSTORE PUSH1 0x20 PUSH0 KECCAK256 SWAP1 PUSH1 0x4 MUL ADD PUSH1 0x40 MLOAD DUP1 PUSH1 0x80 ADD PUSH1 0x40 MSTORE SWAP1 DUP2 PUSH0 DUP3 ADD SLOAD DUP2 MSTORE PUSH1 0x20 ADD PUSH1 0x1 DUP3 ADD SLOAD DUP2 MSTORE PUSH1 0x20 ADD PUSH1 0x2 DUP3 ADD DUP1 SLOAD PUSH2 0x2AE SWAP1 PUSH2 0x177A JUMP JUMPDEST DUP1 PUSH1 0x1F ADD PUSH1 0x20 DUP1 SWAP2 DIV MUL PUSH1 0x20 ADD PUSH1 0x40 MLOAD SWAP1 DUP2 ADD PUSH1 0x40 MSTORE DUP1 SWAP3 SWAP2 SWAP1 DUP2 DUP2 MSTORE PUSH1 0x20 ADD DUP3 DUP1 SLOAD PUSH2 0x2DA SWAP1 PUSH2 0x177A JUMP JUMPDEST DUP1 ISZERO PUSH2 0x325 JUMPI DUP1 PUSH1 0x1F LT PUSH2 0x2FC JUMPI PUSH2 0x100 DUP1 DUP4 SLOAD DIV MUL DUP4 MSTORE SWAP2 PUSH1 0x20 ADD SWAP2 PUSH2 0x325 JUMP JUMPDEST DUP3 ADD SWAP2 SWAP1 PUSH0 MSTORE PUSH1 0x20 PUSH0 KECCAK256 SWAP1 JUMPDEST DUP2 SLOAD DUP2 MSTORE SWAP1 PUSH1 0x1 ADD SWAP1 PUSH1 0x20 ADD DUP1 DUP4 GT PUSH2 0x308 JUMPI DUP3 SWAP1 SUB PUSH1 0x1F AND DUP3 ADD SWAP2 JUMPDEST POP POP POP POP POP DUP2 MSTORE PUSH1 0x20 ADD PUSH1 0x3 DUP3 ADD PUSH0 SWAP1 SLOAD SWAP1 PUSH2 0x100 EXP SWAP1 DIV PUSH20 0xFFFFFFFFFFFFFFFFFFFFFFFFFFFFFFFFFFFFFFFF AND PUSH20 0xFFFFFFFFFFFFFFFFFFFFFFFFFFFFFFFFFFFFFFFF AND PUSH20 0xFFFFFFFFFFFFFFFFFFFFFFFFFFFFFFFFFFFFFFFF AND DUP2 MSTORE POP POP DUP2 MSTORE PUSH1 0x20 ADD SWAP1 PUSH1 0x1 ADD SWAP1 PUSH2 0x26A JUMP JUMPDEST POP POP POP POP SWAP1 POP SWAP2 SWAP1 POP JUMP JUMPDEST PUSH1 0x1 SLOAD DUP2 JUMP JUMPDEST PUSH0 PUSH1 0x4 DUP3 PUSH1 0x40 MLOAD PUSH2 0x3B4 SWAP2 SWAP1 PUSH2 0x17E4 JUMP JUMPDEST SWAP1 DUP2 MSTORE PUSH1 0x20 ADD PUSH1 0x40 MLOAD DUP1 SWAP2 SUB SWAP1 KECCAK256 SLOAD SWAP1 POP PUSH1 0x2 DUP1 SLOAD SWAP1 POP DUP2 LT PUSH2 0x40C JUMPI PUSH1 0x40 MLOAD PUSH32 0x8C379A000000000000000000000000000000000000000000000000000000000 DUP2 MSTORE PUSH1 0x4 ADD PUSH2 0x403 SWAP1 PUSH2 0x1844 JUMP JUMPDEST PUSH1 0x40 MLOAD DUP1 SWAP2 SUB SWAP1 REVERT JUMPDEST PUSH0 PUSH1 0x2 DUP3 DUP2 SLOAD DUP2 LT PUSH2 0x421 JUMPI PUSH2 0x420 PUSH2 0x1862 JUMP JUMPDEST JUMPDEST SWAP1 PUSH0 MSTORE PUSH1 0x20 PUSH0 KECCAK256 SWAP1 PUSH1 0x3 MUL ADD SWAP1 POP CALLER PUSH20 0xFFFFFFFFFFFFFFFFFFFFFFFFFFFFFFFFFFFFFFFF AND DUP2 PUSH1 0x2 ADD PUSH0 SWAP1 SLOAD SWAP1 PUSH2 0x100 EXP SWAP1 DIV PUSH20 0xFFFFFFFFFFFFFFFFFFFFFFFFFFFFFFFFFFFFFFFF AND PUSH20 0xFFFFFFFFFFFFFFFFFFFFFFFFFFFFFFFFFFFFFFFF AND EQ PUSH2 0x4C0 JUMPI PUSH1 0x40 MLOAD PUSH32 0x8C379A000000000000000000000000000000000000000000000000000000000 DUP2 MSTORE PUSH1 0x4 ADD PUSH2 0x4B7 SWAP1 PUSH2 0x18FF JUMP JUMPDEST PUSH1 0x40 MLOAD DUP1 SWAP2 SUB SWAP1 REVERT JUMPDEST PUSH0 DUP2 PUSH1 0x2 ADD PUSH1 0x14 PUSH2 0x100 EXP DUP2 SLOAD DUP2 PUSH1 0xFF MUL NOT AND SWAP1 DUP4 ISZERO ISZERO MUL OR SWAP1 SSTORE POP CALLER PUSH20 0xFFFFFFFFFFFFFFFFFFFFFFFFFFFFFFFFFFFFFFFF AND PUSH32 0x92B0267AE1289EA84247F15EE9011343DF8EBDE2E983EBDD1FC7CC339060776E DUP4 DUP4 PUSH0 ADD PUSH1 0x40 MLOAD PUSH2 0x526 SWAP3 SWAP2 SWAP1 PUSH2 0x19B0 JUMP JUMPDEST PUSH1 0x40 MLOAD DUP1 SWAP2 SUB SWAP1 LOG2 POP POP POP JUMP JUMPDEST PUSH0 DUP1 PUSH0 SWAP1 SLOAD SWAP1 PUSH2 0x100 EXP SWAP1 DIV PUSH20 0xFFFFFFFFFFFFFFFFFFFFFFFFFFFFFFFFFFFFFFFF AND PUSH20 0xFFFFFFFFFFFFFFFFFFFFFFFFFFFFFFFFFFFFFFFF AND PUSH4 0xAB30093 CALLER PUSH1 0x40 MLOAD DUP3 PUSH4 0xFFFFFFFF AND PUSH1 0xE0 SHL DUP2 MSTORE PUSH1 0x4 ADD PUSH2 0x58D SWAP2 SWAP1 PUSH2 0x19DE JUMP JUMPDEST PUSH0 PUSH1 0x40 MLOAD DUP1 DUP4 SUB DUP2 DUP7 GAS STATICCALL ISZERO DUP1 ISZERO PUSH2 0x5A7 JUMPI RETURNDATASIZE PUSH0 DUP1 RETURNDATACOPY RETURNDATASIZE PUSH0 REVERT JUMPDEST POP POP POP POP PUSH1 0x40 MLOAD RETURNDATASIZE PUSH0 DUP3 RETURNDATACOPY RETURNDATASIZE PUSH1 0x1F NOT PUSH1 0x1F DUP3 ADD AND DUP3 ADD DUP1 PUSH1 0x40 MSTORE POP DUP2 ADD SWAP1 PUSH2 0x5CF SWAP2 SWAP1 PUSH2 0x1B30 JUMP JUMPDEST SWAP1 POP DUP1 PUSH1 0x40 ADD MLOAD PUSH2 0x615 JUMPI PUSH1 0x40 MLOAD PUSH32 0x8C379A000000000000000000000000000000000000000000000000000000000 DUP2 MSTORE PUSH1 0x4 ADD PUSH2 0x60C SWAP1 PUSH2 0x1BE7 JUMP JUMPDEST PUSH1 0x40 MLOAD DUP1 SWAP2 SUB SWAP1 REVERT JUMPDEST PUSH1 0x2 PUSH1 0x40 MLOAD DUP1 PUSH1 0x80 ADD PUSH1 0x40 MSTORE DUP1 DUP6 DUP2 MSTORE PUSH1 0x20 ADD DUP5 DUP2 MSTORE PUSH1 0x20 ADD CALLER PUSH20 0xFFFFFFFFFFFFFFFFFFFFFFFFFFFFFFFFFFFFFFFF AND DUP2 MSTORE PUSH1 0x20 ADD PUSH1 0x1 ISZERO ISZERO DUP2 MSTORE POP SWAP1 DUP1 PUSH1 0x1 DUP2 SLOAD ADD DUP1 DUP3 SSTORE DUP1 SWAP2 POP POP PUSH1 0x1 SWAP1 SUB SWAP1 PUSH0 MSTORE PUSH1 0x20 PUSH0 KECCAK256 SWAP1 PUSH1 0x3 MUL ADD PUSH0 SWAP1 SWAP2 SWAP1 SWAP2 SWAP1 SWAP2 POP PUSH0 DUP3 ADD MLOAD DUP2 PUSH0 ADD SWAP1 DUP2 PUSH2 0x68A SWAP2 SWAP1 PUSH2 0x1D90 JUMP JUMPDEST POP PUSH1 0x20 DUP3 ADD MLOAD DUP2 PUSH1 0x1 ADD SWAP1 DUP2 PUSH2 0x6A0 SWAP2 SWAP1 PUSH2 0x1D90 JUMP JUMPDEST POP PUSH1 0x40 DUP3 ADD MLOAD DUP2 PUSH1 0x2 ADD PUSH0 PUSH2 0x100 EXP DUP2 SLOAD DUP2 PUSH20 0xFFFFFFFFFFFFFFFFFFFFFFFFFFFFFFFFFFFFFFFF MUL NOT AND SWAP1 DUP4 PUSH20 0xFFFFFFFFFFFFFFFFFFFFFFFFFFFFFFFFFFFFFFFF AND MUL OR SWAP1 SSTORE POP PUSH1 0x60 DUP3 ADD MLOAD DUP2 PUSH1 0x2 ADD PUSH1 0x14 PUSH2 0x100 EXP DUP2 SLOAD DUP2 PUSH1 0xFF MUL NOT AND SWAP1 DUP4 ISZERO ISZERO MUL OR SWAP1 SSTORE POP POP POP PUSH0 PUSH1 0x1 PUSH1 0x2 DUP1 SLOAD SWAP1 POP PUSH2 0x71C SWAP2 SWAP1 PUSH2 0x1E8C JUMP JUMPDEST SWAP1 POP DUP1 PUSH1 0x4 DUP5 PUSH1 0x40 MLOAD PUSH2 0x72F SWAP2 SWAP1 PUSH2 0x17E4 JUMP JUMPDEST SWAP1 DUP2 MSTORE PUSH1 0x20 ADD PUSH1 0x40 MLOAD DUP1 SWAP2 SUB SWAP1 KECCAK256 DUP2 SWAP1 SSTORE POP PUSH32 0xDBFE1F82A77201B0C570AEAB9388D9D6CFB93F73F7CD224B1BA1F6DA66F27CAC DUP5 DUP5 CALLER PUSH1 0x40 MLOAD PUSH2 0x774 SWAP4 SWAP3 SWAP2 SWAP1 PUSH2 0x1674 JUMP JUMPDEST PUSH1 0x40 MLOAD DUP1 SWAP2 SUB SWAP1 LOG1 POP POP POP POP JUMP JUMPDEST PUSH1 0x3 PUSH1 0x20 MSTORE DUP2 PUSH0 MSTORE PUSH1 0x40 PUSH0 KECCAK256 DUP2 DUP2 SLOAD DUP2 LT PUSH2 0x79B JUMPI PUSH0 DUP1 REVERT JUMPDEST SWAP1 PUSH0 MSTORE PUSH1 0x20 PUSH0 KECCAK256 SWAP1 PUSH1 0x4 MUL ADD PUSH0 SWAP2 POP SWAP2 POP POP DUP1 PUSH0 ADD SLOAD SWAP1 DUP1 PUSH1 0x1 ADD SLOAD SWAP1 DUP1 PUSH1 0x2 ADD DUP1 SLOAD PUSH2 0x7C7 SWAP1 PUSH2 0x177A JUMP JUMPDEST DUP1 PUSH1 0x1F ADD PUSH1 0x20 DUP1 SWAP2 DIV MUL PUSH1 0x20 ADD PUSH1 0x40 MLOAD SWAP1 DUP2 ADD PUSH1 0x40 MSTORE DUP1 SWAP3 SWAP2 SWAP1 DUP2 DUP2 MSTORE PUSH1 0x20 ADD DUP3 DUP1 SLOAD PUSH2 0x7F3 SWAP1 PUSH2 0x177A JUMP JUMPDEST DUP1 ISZERO PUSH2 0x83E JUMPI DUP1 PUSH1 0x1F LT PUSH2 0x815 JUMPI PUSH2 0x100 DUP1 DUP4 SLOAD DIV MUL DUP4 MSTORE SWAP2 PUSH1 0x20 ADD SWAP2 PUSH2 0x83E JUMP JUMPDEST DUP3 ADD SWAP2 SWAP1 PUSH0 MSTORE PUSH1 0x20 PUSH0 KECCAK256 SWAP1 JUMPDEST DUP2 SLOAD DUP2 MSTORE SWAP1 PUSH1 0x1 ADD SWAP1 PUSH1 0x20 ADD DUP1 DUP4 GT PUSH2 0x821 JUMPI DUP3 SWAP1 SUB PUSH1 0x1F AND DUP3 ADD SWAP2 JUMPDEST POP POP POP POP POP SWAP1 DUP1 PUSH1 0x3 ADD PUSH0 SWAP1 SLOAD SWAP1 PUSH2 0x100 EXP SWAP1 DIV PUSH20 0xFFFFFFFFFFFFFFFFFFFFFFFFFFFFFFFFFFFFFFFF AND SWAP1 POP DUP5 JUMP JUMPDEST PUSH1 0x60 DUP1 PUSH0 DUP1 PUSH1 0x4 DUP6 PUSH1 0x40 MLOAD PUSH2 0x882 SWAP2 SWAP1 PUSH2 0x17E4 JUMP JUMPDEST SWAP1 DUP2 MSTORE PUSH1 0x20 ADD PUSH1 0x40 MLOAD DUP1 SWAP2 SUB SWAP1 KECCAK256 SLOAD SWAP1 POP PUSH1 0x2 DUP1 SLOAD SWAP1 POP DUP2 LT PUSH2 0x8DA JUMPI PUSH1 0x40 MLOAD PUSH32 0x8C379A000000000000000000000000000000000000000000000000000000000 DUP2 MSTORE PUSH1 0x4 ADD PUSH2 0x8D1 SWAP1 PUSH2 0x1844 JUMP JUMPDEST PUSH1 0x40 MLOAD DUP1 SWAP2 SUB SWAP1 REVERT JUMPDEST PUSH0 PUSH1 0x2 DUP3 DUP2 SLOAD DUP2 LT PUSH2 0x8EF JUMPI PUSH2 0x8EE PUSH2 0x1862 JUMP JUMPDEST JUMPDEST SWAP1 PUSH0 MSTORE PUSH1 0x20 PUSH0 KECCAK256 SWAP1 PUSH1 0x3 MUL ADD PUSH1 0x40 MLOAD DUP1 PUSH1 0x80 ADD PUSH1 0x40 MSTORE SWAP1 DUP2 PUSH0 DUP3 ADD DUP1 SLOAD PUSH2 0x915 SWAP1 PUSH2 0x177A JUMP JUMPDEST DUP1 PUSH1 0x1F ADD PUSH1 0x20 DUP1 SWAP2 DIV MUL PUSH1 0x20 ADD PUSH1 0x40 MLOAD SWAP1 DUP2 ADD PUSH1 0x40 MSTORE DUP1 SWAP3 SWAP2 SWAP1 DUP2 DUP2 MSTORE PUSH1 0x20 ADD DUP3 DUP1 SLOAD PUSH2 0x941 SWAP1 PUSH2 0x177A JUMP JUMPDEST DUP1 ISZERO PUSH2 0x98C JUMPI DUP1 PUSH1 0x1F LT PUSH2 0x963 JUMPI PUSH2 0x100 DUP1 DUP4 SLOAD DIV MUL DUP4 MSTORE SWAP2 PUSH1 0x20 ADD SWAP2 PUSH2 0x98C JUMP JUMPDEST DUP3 ADD SWAP2 SWAP1 PUSH0 MSTORE PUSH1 0x20 PUSH0 KECCAK256 SWAP1 JUMPDEST DUP2 SLOAD DUP2 MSTORE SWAP1 PUSH1 0x1 ADD SWAP1 PUSH1 0x20 ADD DUP1 DUP4 GT PUSH2 0x96F JUMPI DUP3 SWAP1 SUB PUSH1 0x1F AND DUP3 ADD SWAP2 JUMPDEST POP POP POP POP POP DUP2 MSTORE PUSH1 0x20 ADD PUSH1 0x1 DUP3 ADD DUP1 SLOAD PUSH2 0x9A5 SWAP1 PUSH2 0x177A JUMP JUMPDEST DUP1 PUSH1 0x1F ADD PUSH1 0x20 DUP1 SWAP2 DIV MUL PUSH1 0x20 ADD PUSH1 0x40 MLOAD SWAP1 DUP2 ADD PUSH1 0x40 MSTORE DUP1 SWAP3 SWAP2 SWAP1 DUP2 DUP2 MSTORE PUSH1 0x20 ADD DUP3 DUP1 SLOAD PUSH2 0x9D1 SWAP1 PUSH2 0x177A JUMP JUMPDEST DUP1 ISZERO PUSH2 0xA1C JUMPI DUP1 PUSH1 0x1F LT PUSH2 0x9F3 JUMPI PUSH2 0x100 DUP1 DUP4 SLOAD DIV MUL DUP4 MSTORE SWAP2 PUSH1 0x20 ADD SWAP2 PUSH2 0xA1C JUMP JUMPDEST DUP3 ADD SWAP2 SWAP1 PUSH0 MSTORE PUSH1 0x20 PUSH0 KECCAK256 SWAP1 JUMPDEST DUP2 SLOAD DUP2 MSTORE SWAP1 PUSH1 0x1 ADD SWAP1 PUSH1 0x20 ADD DUP1 DUP4 GT PUSH2 0x9FF JUMPI DUP3 SWAP1 SUB PUSH1 0x1F AND DUP3 ADD SWAP2 JUMPDEST POP POP POP POP POP DUP2 MSTORE PUSH1 0x20 ADD PUSH1 0x2 DUP3 ADD PUSH0 SWAP1 SLOAD SWAP1 PUSH2 0x100 EXP SWAP1 DIV PUSH20 0xFFFFFFFFFFFFFFFFFFFFFFFFFFFFFFFFFFFFFFFF AND PUSH20 0xFFFFFFFFFFFFFFFFFFFFFFFFFFFFFFFFFFFFFFFF AND PUSH20 0xFFFFFFFFFFFFFFFFFFFFFFFFFFFFFFFFFFFFFFFF AND DUP2 MSTORE PUSH1 0x20 ADD PUSH1 0x2 DUP3 ADD PUSH1 0x14 SWAP1 SLOAD SWAP1 PUSH2 0x100 EXP SWAP1 DIV PUSH1 0xFF AND ISZERO ISZERO ISZERO ISZERO DUP2 MSTORE POP POP SWAP1 POP DUP1 PUSH0 ADD MLOAD DUP2 PUSH1 0x20 ADD MLOAD DUP3 PUSH1 0x40 ADD MLOAD SWAP5 POP SWAP5 POP SWAP5 POP POP POP SWAP2 SWAP4 SWAP1 SWAP3 POP JUMP JUMPDEST PUSH0 PUSH1 0x4 DUP3 PUSH1 0x40 MLOAD PUSH2 0xAC5 SWAP2 SWAP1 PUSH2 0x17E4 JUMP JUMPDEST SWAP1 DUP2 MSTORE PUSH1 0x20 ADD PUSH1 0x40 MLOAD DUP1 SWAP2 SUB SWAP1 KECCAK256 SLOAD SWAP1 POP PUSH1 0x2 DUP1 SLOAD SWAP1 POP DUP2 LT PUSH2 0xB1D JUMPI PUSH1 0x40 MLOAD PUSH32 0x8C379A000000000000000000000000000000000000000000000000000000000 DUP2 MSTORE PUSH1 0x4 ADD PUSH2 0xB14 SWAP1 PUSH2 0x1844 JUMP JUMPDEST PUSH1 0x40 MLOAD DUP1 SWAP2 SUB SWAP1 REVERT JUMPDEST PUSH0 PUSH1 0x2 DUP3 DUP2 SLOAD DUP2 LT PUSH2 0xB32 JUMPI PUSH2 0xB31 PUSH2 0x1862 JUMP JUMPDEST JUMPDEST SWAP1 PUSH0 MSTORE PUSH1 0x20 PUSH0 KECCAK256 SWAP1 PUSH1 0x3 MUL ADD PUSH1 0x40 MLOAD DUP1 PUSH1 0x80 ADD PUSH1 0x40 MSTORE SWAP1 DUP2 PUSH0 DUP3 ADD DUP1 SLOAD PUSH2 0xB58 SWAP1 PUSH2 0x177A JUMP JUMPDEST DUP1 PUSH1 0x1F ADD PUSH1 0x20 DUP1 SWAP2 DIV MUL PUSH1 0x20 ADD PUSH1 0x40 MLOAD SWAP1 DUP2 ADD PUSH1 0x40 MSTORE DUP1 SWAP3 SWAP2 SWAP1 DUP2 DUP2 MSTORE PUSH1 0x20 ADD DUP3 DUP1 SLOAD PUSH2 0xB84 SWAP1 PUSH2 0x177A JUMP JUMPDEST DUP1 ISZERO PUSH2 0xBCF JUMPI DUP1 PUSH1 0x1F LT PUSH2 0xBA6 JUMPI PUSH2 0x100 DUP1 DUP4 SLOAD DIV MUL DUP4 MSTORE SWAP2 PUSH1 0x20 ADD SWAP2 PUSH2 0xBCF JUMP JUMPDEST DUP3 ADD SWAP2 SWAP1 PUSH0 MSTORE PUSH1 0x20 PUSH0 KECCAK256 SWAP1 JUMPDEST DUP2 SLOAD DUP2 MSTORE SWAP1 PUSH1 0x1 ADD SWAP1 PUSH1 0x20 ADD DUP1 DUP4 GT PUSH2 0xBB2 JUMPI DUP3 SWAP1 SUB PUSH1 0x1F AND DUP3 ADD SWAP2 JUMPDEST POP POP POP POP POP DUP2 MSTORE PUSH1 0x20 ADD PUSH1 0x1 DUP3 ADD DUP1 SLOAD PUSH2 0xBE8 SWAP1 PUSH2 0x177A JUMP JUMPDEST DUP1 PUSH1 0x1F ADD PUSH1 0x20 DUP1 SWAP2 DIV MUL PUSH1 0x20 ADD PUSH1 0x40 MLOAD SWAP1 DUP2 ADD PUSH1 0x40 MSTORE DUP1 SWAP3 SWAP2 SWAP1 DUP2 DUP2 MSTORE PUSH1 0x20 ADD DUP3 DUP1 SLOAD PUSH2 0xC14 SWAP1 PUSH2 0x177A JUMP JUMPDEST DUP1 ISZERO PUSH2 0xC5F JUMPI DUP1 PUSH1 0x1F LT PUSH2 0xC36 JUMPI PUSH2 0x100 DUP1 DUP4 SLOAD DIV MUL DUP4 MSTORE SWAP2 PUSH1 0x20 ADD SWAP2 PUSH2 0xC5F JUMP JUMPDEST DUP3 ADD SWAP2 SWAP1 PUSH0 MSTORE PUSH1 0x20 PUSH0 KECCAK256 SWAP1 JUMPDEST DUP2 SLOAD DUP2 MSTORE SWAP1 PUSH1 0x1 ADD SWAP1 PUSH1 0x20 ADD DUP1 DUP4 GT PUSH2 0xC42 JUMPI DUP3 SWAP1 SUB PUSH1 0x1F AND DUP3 ADD SWAP2 JUMPDEST POP POP POP POP POP DUP2 MSTORE PUSH1 0x20 ADD PUSH1 0x2 DUP3 ADD PUSH0 SWAP1 SLOAD SWAP1 PUSH2 0x100 EXP SWAP1 DIV PUSH20 0xFFFFFFFFFFFFFFFFFFFFFFFFFFFFFFFFFFFFFFFF AND PUSH20 0xFFFFFFFFFFFFFFFFFFFFFFFFFFFFFFFFFFFFFFFF AND PUSH20 0xFFFFFFFFFFFFFFFFFFFFFFFFFFFFFFFFFFFFFFFF AND DUP2 MSTORE PUSH1 0x20 ADD PUSH1 0x2 DUP3 ADD PUSH1 0x14 SWAP1 SLOAD SWAP1 PUSH2 0x100 EXP SWAP1 DIV PUSH1 0xFF AND ISZERO ISZERO ISZERO ISZERO DUP2 MSTORE POP POP SWAP1 POP PUSH0 PUSH20 0xFFFFFFFFFFFFFFFFFFFFFFFFFFFFFFFFFFFFFFFF AND DUP2 PUSH1 0x40 ADD MLOAD PUSH20 0xFFFFFFFFFFFFFFFFFFFFFFFFFFFFFFFFFFFFFFFF AND SUB PUSH2 0xD4C JUMPI PUSH1 0x40 MLOAD PUSH32 0x8C379A000000000000000000000000000000000000000000000000000000000 DUP2 MSTORE PUSH1 0x4 ADD PUSH2 0xD43 SWAP1 PUSH2 0x1F09 JUMP JUMPDEST PUSH1 0x40 MLOAD DUP1 SWAP2 SUB SWAP1 REVERT JUMPDEST PUSH0 DUP2 PUSH1 0x40 ADD MLOAD PUSH20 0xFFFFFFFFFFFFFFFFFFFFFFFFFFFFFFFFFFFFFFFF AND CALLVALUE PUSH1 0x40 MLOAD PUSH2 0xD75 SWAP1 PUSH2 0x1F54 JUMP JUMPDEST PUSH0 PUSH1 0x40 MLOAD DUP1 DUP4 SUB DUP2 DUP6 DUP8 GAS CALL SWAP3 POP POP POP RETURNDATASIZE DUP1 PUSH0 DUP2 EQ PUSH2 0xDAF JUMPI PUSH1 0x40 MLOAD SWAP2 POP PUSH1 0x1F NOT PUSH1 0x3F RETURNDATASIZE ADD AND DUP3 ADD PUSH1 0x40 MSTORE RETURNDATASIZE DUP3 MSTORE RETURNDATASIZE PUSH0 PUSH1 0x20 DUP5 ADD RETURNDATACOPY PUSH2 0xDB4 JUMP JUMPDEST PUSH1 0x60 SWAP2 POP JUMPDEST POP POP SWAP1 POP DUP1 PUSH2 0xDF8 JUMPI PUSH1 0x40 MLOAD PUSH32 0x8C379A000000000000000000000000000000000000000000000000000000000 DUP2 MSTORE PUSH1 0x4 ADD PUSH2 0xDEF SWAP1 PUSH2 0x1FB2 JUMP JUMPDEST PUSH1 0x40 MLOAD DUP1 SWAP2 SUB SWAP1 REVERT JUMPDEST PUSH1 0x3 PUSH0 DUP4 PUSH1 0x40 ADD MLOAD PUSH20 0xFFFFFFFFFFFFFFFFFFFFFFFFFFFFFFFFFFFFFFFF AND PUSH20 0xFFFFFFFFFFFFFFFFFFFFFFFFFFFFFFFFFFFFFFFF AND DUP2 MSTORE PUSH1 0x20 ADD SWAP1 DUP2 MSTORE PUSH1 0x20 ADD PUSH0 KECCAK256 PUSH1 0x40 MLOAD DUP1 PUSH1 0x80 ADD PUSH1 0x40 MSTORE DUP1 CALLVALUE DUP2 MSTORE PUSH1 0x20 ADD DUP6 DUP2 MSTORE PUSH1 0x20 ADD DUP5 PUSH0 ADD MLOAD DUP2 MSTORE PUSH1 0x20 ADD CALLER PUSH20 0xFFFFFFFFFFFFFFFFFFFFFFFFFFFFFFFFFFFFFFFF AND DUP2 MSTORE POP SWAP1 DUP1 PUSH1 0x1 DUP2 SLOAD ADD DUP1 DUP3 SSTORE DUP1 SWAP2 POP POP PUSH1 0x1 SWAP1 SUB SWAP1 PUSH0 MSTORE PUSH1 0x20 PUSH0 KECCAK256 SWAP1 PUSH1 0x4 MUL ADD PUSH0 SWAP1 SWAP2 SWAP1 SWAP2 SWAP1 SWAP2 POP PUSH0 DUP3 ADD MLOAD DUP2 PUSH0 ADD SSTORE PUSH1 0x20 DUP3 ADD MLOAD DUP2 PUSH1 0x1 ADD SSTORE PUSH1 0x40 DUP3 ADD MLOAD DUP2 PUSH1 0x2 ADD SWAP1 DUP2 PUSH2 0xEC0 SWAP2 SWAP1 PUSH2 0x1D90 JUMP JUMPDEST POP PUSH1 0x60 DUP3 ADD MLOAD DUP2 PUSH1 0x3 ADD PUSH0 PUSH2 0x100 EXP DUP2 SLOAD DUP2 PUSH20 0xFFFFFFFFFFFFFFFFFFFFFFFFFFFFFFFFFFFFFFFF MUL NOT AND SWAP1 DUP4 PUSH20 0xFFFFFFFFFFFFFFFFFFFFFFFFFFFFFFFFFFFFFFFF AND MUL OR SWAP1 SSTORE POP POP POP DUP2 PUSH1 0x40 ADD MLOAD PUSH20 0xFFFFFFFFFFFFFFFFFFFFFFFFFFFFFFFFFFFFFFFF AND CALLER PUSH20 0xFFFFFFFFFFFFFFFFFFFFFFFFFFFFFFFFFFFFFFFF AND PUSH32 0xB4B46F23CD35C79709ECDACC4152DD97A90F5B7BFA9D3F4BC3EC8374060BFA99 CALLVALUE DUP7 DUP7 PUSH0 ADD MLOAD PUSH1 0x40 MLOAD PUSH2 0xF71 SWAP4 SWAP3 SWAP2 SWAP1 PUSH2 0x1FD0 JUMP JUMPDEST PUSH1 0x40 MLOAD DUP1 SWAP2 SUB SWAP1 LOG3 POP POP POP POP JUMP JUMPDEST PUSH1 0x2 DUP2 DUP2 SLOAD DUP2 LT PUSH2 0xF8E JUMPI PUSH0 DUP1 REVERT JUMPDEST SWAP1 PUSH0 MSTORE PUSH1 0x20 PUSH0 KECCAK256 SWAP1 PUSH1 0x3 MUL ADD PUSH0 SWAP2 POP SWAP1 POP DUP1 PUSH0 ADD DUP1 SLOAD PUSH2 0xFAD SWAP1 PUSH2 0x177A JUMP JUMPDEST DUP1 PUSH1 0x1F ADD PUSH1 0x20 DUP1 SWAP2 DIV MUL PUSH1 0x20 ADD PUSH1 0x40 MLOAD SWAP1 DUP2 ADD PUSH1 0x40 MSTORE DUP1 SWAP3 SWAP2 SWAP1 DUP2 DUP2 MSTORE PUSH1 0x20 ADD DUP3 DUP1 SLOAD PUSH2 0xFD9 SWAP1 PUSH2 0x177A JUMP JUMPDEST DUP1 ISZERO PUSH2 0x1024 JUMPI DUP1 PUSH1 0x1F LT PUSH2 0xFFB JUMPI PUSH2 0x100 DUP1 DUP4 SLOAD DIV MUL DUP4 MSTORE SWAP2 PUSH1 0x20 ADD SWAP2 PUSH2 0x1024 JUMP JUMPDEST DUP3 ADD SWAP2 SWAP1 PUSH0 MSTORE PUSH1 0x20 PUSH0 KECCAK256 SWAP1 JUMPDEST DUP2 SLOAD DUP2 MSTORE SWAP1 PUSH1 0x1 ADD SWAP1 PUSH1 0x20 ADD DUP1 DUP4 GT PUSH2 0x1007 JUMPI DUP3 SWAP1 SUB PUSH1 0x1F AND DUP3 ADD SWAP2 JUMPDEST POP POP POP POP POP SWAP1 DUP1 PUSH1 0x1 ADD DUP1 SLOAD PUSH2 0x1039 SWAP1 PUSH2 0x177A JUMP JUMPDEST DUP1 PUSH1 0x1F ADD PUSH1 0x20 DUP1 SWAP2 DIV MUL PUSH1 0x20 ADD PUSH1 0x40 MLOAD SWAP1 DUP2 ADD PUSH1 0x40 MSTORE DUP1 SWAP3 SWAP2 SWAP1 DUP2 DUP2 MSTORE PUSH1 0x20 ADD DUP3 DUP1 SLOAD PUSH2 0x1065 SWAP1 PUSH2 0x177A JUMP JUMPDEST DUP1 ISZERO PUSH2 0x10B0 JUMPI DUP1 PUSH1 0x1F LT PUSH2 0x1087 JUMPI PUSH2 0x100 DUP1 DUP4 SLOAD DIV MUL DUP4 MSTORE SWAP2 PUSH1 0x20 ADD SWAP2 PUSH2 0x10B0 JUMP JUMPDEST DUP3 ADD SWAP2 SWAP1 PUSH0 MSTORE PUSH1 0x20 PUSH0 KECCAK256 SWAP1 JUMPDEST DUP2 SLOAD DUP2 MSTORE SWAP1 PUSH1 0x1 ADD SWAP1 PUSH1 0x20 ADD DUP1 DUP4 GT PUSH2 0x1093 JUMPI DUP3 SWAP1 SUB PUSH1 0x1F AND DUP3 ADD SWAP2 JUMPDEST POP POP POP POP POP SWAP1 DUP1 PUSH1 0x2 ADD PUSH0 SWAP1 SLOAD SWAP1 PUSH2 0x100 EXP SWAP1 DIV PUSH20 0xFFFFFFFFFFFFFFFFFFFFFFFFFFFFFFFFFFFFFFFF AND SWAP1 DUP1 PUSH1 0x2 ADD PUSH1 0x14 SWAP1 SLOAD SWAP1 PUSH2 0x100 EXP SWAP1 DIV PUSH1 0xFF AND SWAP1 POP DUP5 JUMP JUMPDEST PUSH0 PUSH1 0x40 MLOAD SWAP1 POP SWAP1 JUMP JUMPDEST PUSH0 DUP1 REVERT JUMPDEST PUSH0 DUP1 REVERT JUMPDEST PUSH0 PUSH20 0xFFFFFFFFFFFFFFFFFFFFFFFFFFFFFFFFFFFFFFFF DUP3 AND SWAP1 POP SWAP2 SWAP1 POP JUMP JUMPDEST PUSH0 PUSH2 0x112C DUP3 PUSH2 0x1103 JUMP JUMPDEST SWAP1 POP SWAP2 SWAP1 POP JUMP JUMPDEST PUSH2 0x113C DUP2 PUSH2 0x1122 JUMP JUMPDEST DUP2 EQ PUSH2 0x1146 JUMPI PUSH0 DUP1 REVERT JUMPDEST POP JUMP JUMPDEST PUSH0 DUP2 CALLDATALOAD SWAP1 POP PUSH2 0x1157 DUP2 PUSH2 0x1133 JUMP JUMPDEST SWAP3 SWAP2 POP POP JUMP JUMPDEST PUSH0 PUSH1 0x20 DUP3 DUP5 SUB SLT ISZERO PUSH2 0x1172 JUMPI PUSH2 0x1171 PUSH2 0x10FB JUMP JUMPDEST JUMPDEST PUSH0 PUSH2 0x117F DUP5 DUP3 DUP6 ADD PUSH2 0x1149 JUMP JUMPDEST SWAP2 POP POP SWAP3 SWAP2 POP POP JUMP JUMPDEST PUSH0 DUP2 MLOAD SWAP1 POP SWAP2 SWAP1 POP JUMP JUMPDEST PUSH0 DUP3 DUP3 MSTORE PUSH1 0x20 DUP3 ADD SWAP1 POP SWAP3 SWAP2 POP POP JUMP JUMPDEST PUSH0 DUP2 SWAP1 POP PUSH1 0x20 DUP3 ADD SWAP1 POP SWAP2 SWAP1 POP JUMP JUMPDEST PUSH0 DUP2 SWAP1 POP SWAP2 SWAP1 POP JUMP JUMPDEST PUSH2 0x11C3 DUP2 PUSH2 0x11B1 JUMP JUMPDEST DUP3 MSTORE POP POP JUMP JUMPDEST PUSH0 DUP2 MLOAD SWAP1 POP SWAP2 SWAP1 POP JUMP JUMPDEST PUSH0 DUP3 DUP3 MSTORE PUSH1 0x20 DUP3 ADD SWAP1 POP SWAP3 SWAP2 POP POP JUMP JUMPDEST DUP3 DUP2 DUP4 MCOPY PUSH0 DUP4 DUP4 ADD MSTORE POP POP POP JUMP JUMPDEST PUSH0 PUSH1 0x1F NOT PUSH1 0x1F DUP4 ADD AND SWAP1 POP SWAP2 SWAP1 POP JUMP JUMPDEST PUSH0 PUSH2 0x120B DUP3 PUSH2 0x11C9 JUMP JUMPDEST PUSH2 0x1215 DUP2 DUP6 PUSH2 0x11D3 JUMP JUMPDEST SWAP4 POP PUSH2 0x1225 DUP2 DUP6 PUSH1 0x20 DUP7 ADD PUSH2 0x11E3 JUMP JUMPDEST PUSH2 0x122E DUP2 PUSH2 0x11F1 JUMP JUMPDEST DUP5 ADD SWAP2 POP POP SWAP3 SWAP2 POP POP JUMP JUMPDEST PUSH2 0x1242 DUP2 PUSH2 0x1122 JUMP JUMPDEST DUP3 MSTORE POP POP JUMP JUMPDEST PUSH0 PUSH1 0x80 DUP4 ADD PUSH0 DUP4 ADD MLOAD PUSH2 0x125D PUSH0 DUP7 ADD DUP3 PUSH2 0x11BA JUMP JUMPDEST POP PUSH1 0x20 DUP4 ADD MLOAD PUSH2 0x1270 PUSH1 0x20 DUP7 ADD DUP3 PUSH2 0x11BA JUMP JUMPDEST POP PUSH1 0x40 DUP4 ADD MLOAD DUP5 DUP3 SUB PUSH1 0x40 DUP7 ADD MSTORE PUSH2 0x1288 DUP3 DUP3 PUSH2 0x1201 JUMP JUMPDEST SWAP2 POP POP PUSH1 0x60 DUP4 ADD MLOAD PUSH2 0x129D PUSH1 0x60 DUP7 ADD DUP3 PUSH2 0x1239 JUMP JUMPDEST POP DUP1 SWAP2 POP POP SWAP3 SWAP2 POP POP JUMP JUMPDEST PUSH0 PUSH2 0x12B3 DUP4 DUP4 PUSH2 0x1248 JUMP JUMPDEST SWAP1 POP SWAP3 SWAP2 POP POP JUMP JUMPDEST PUSH0 PUSH1 0x20 DUP3 ADD SWAP1 POP SWAP2 SWAP1 POP JUMP JUMPDEST PUSH0 PUSH2 0x12D1 DUP3 PUSH2 0x1188 JUMP JUMPDEST PUSH2 0x12DB DUP2 DUP6 PUSH2 0x1192 JUMP JUMPDEST SWAP4 POP DUP4 PUSH1 0x20 DUP3 MUL DUP6 ADD PUSH2 0x12ED DUP6 PUSH2 0x11A2 JUMP JUMPDEST DUP1 PUSH0 JUMPDEST DUP6 DUP2 LT ISZERO PUSH2 0x1328 JUMPI DUP5 DUP5 SUB DUP10 MSTORE DUP2 MLOAD PUSH2 0x1309 DUP6 DUP3 PUSH2 0x12A8 JUMP JUMPDEST SWAP5 POP PUSH2 0x1314 DUP4 PUSH2 0x12BB JUMP JUMPDEST SWAP3 POP PUSH1 0x20 DUP11 ADD SWAP10 POP POP PUSH1 0x1 DUP2 ADD SWAP1 POP PUSH2 0x12F0 JUMP JUMPDEST POP DUP3 SWAP8 POP DUP8 SWAP6 POP POP POP POP POP POP SWAP3 SWAP2 POP POP JUMP JUMPDEST PUSH0 PUSH1 0x20 DUP3 ADD SWAP1 POP DUP2 DUP2 SUB PUSH0 DUP4 ADD MSTORE PUSH2 0x1352 DUP2 DUP5 PUSH2 0x12C7 JUMP JUMPDEST SWAP1 POP SWAP3 SWAP2 POP POP JUMP JUMPDEST PUSH2 0x1363 DUP2 PUSH2 0x11B1 JUMP JUMPDEST DUP3 MSTORE POP POP JUMP JUMPDEST PUSH0 PUSH1 0x20 DUP3 ADD SWAP1 POP PUSH2 0x137C PUSH0 DUP4 ADD DUP5 PUSH2 0x135A JUMP JUMPDEST SWAP3 SWAP2 POP POP JUMP JUMPDEST PUSH0 DUP1 REVERT JUMPDEST PUSH0 DUP1 REVERT JUMPDEST PUSH32 0x4E487B7100000000000000000000000000000000000000000000000000000000 PUSH0 MSTORE PUSH1 0x41 PUSH1 0x4 MSTORE PUSH1 0x24 PUSH0 REVERT JUMPDEST PUSH2 0x13C0 DUP3 PUSH2 0x11F1 JUMP JUMPDEST DUP2 ADD DUP2 DUP2 LT PUSH8 0xFFFFFFFFFFFFFFFF DUP3 GT OR ISZERO PUSH2 0x13DF JUMPI PUSH2 0x13DE PUSH2 0x138A JUMP JUMPDEST JUMPDEST DUP1 PUSH1 0x40 MSTORE POP POP POP JUMP JUMPDEST PUSH0 PUSH2 0x13F1 PUSH2 0x10F2 JUMP JUMPDEST SWAP1 POP PUSH2 0x13FD DUP3 DUP3 PUSH2 0x13B7 JUMP JUMPDEST SWAP2 SWAP1 POP JUMP JUMPDEST PUSH0 PUSH8 0xFFFFFFFFFFFFFFFF DUP3 GT ISZERO PUSH2 0x141C JUMPI PUSH2 0x141B PUSH2 0x138A JUMP JUMPDEST JUMPDEST PUSH2 0x1425 DUP3 PUSH2 0x11F1 JUMP JUMPDEST SWAP1 POP PUSH1 0x20 DUP2 ADD SWAP1 POP SWAP2 SWAP1 POP JUMP JUMPDEST DUP3 DUP2 DUP4 CALLDATACOPY PUSH0 DUP4 DUP4 ADD MSTORE POP POP POP JUMP JUMPDEST PUSH0 PUSH2 0x1452 PUSH2 0x144D DUP5 PUSH2 0x1402 JUMP JUMPDEST PUSH2 0x13E8 JUMP JUMPDEST SWAP1 POP DUP3 DUP2 MSTORE PUSH1 0x20 DUP2 ADD DUP5 DUP5 DUP5 ADD GT ISZERO PUSH2 0x146E JUMPI PUSH2 0x146D PUSH2 0x1386 JUMP JUMPDEST JUMPDEST PUSH2 0x1479 DUP5 DUP3 DUP6 PUSH2 0x1432 JUMP JUMPDEST POP SWAP4 SWAP3 POP POP POP JUMP JUMPDEST PUSH0 DUP3 PUSH1 0x1F DUP4 ADD SLT PUSH2 0x1495 JUMPI PUSH2 0x1494 PUSH2 0x1382 JUMP JUMPDEST JUMPDEST DUP2 CALLDATALOAD PUSH2 0x14A5 DUP5 DUP3 PUSH1 0x20 DUP7 ADD PUSH2 0x1440 JUMP JUMPDEST SWAP2 POP POP SWAP3 SWAP2 POP POP JUMP JUMPDEST PUSH0 PUSH1 0x20 DUP3 DUP5 SUB SLT ISZERO PUSH2 0x14C3 JUMPI PUSH2 0x14C2 PUSH2 0x10FB JUMP JUMPDEST JUMPDEST PUSH0 DUP3 ADD CALLDATALOAD PUSH8 0xFFFFFFFFFFFFFFFF DUP2 GT ISZERO PUSH2 0x14E0 JUMPI PUSH2 0x14DF PUSH2 0x10FF JUMP JUMPDEST JUMPDEST PUSH2 0x14EC DUP5 DUP3 DUP6 ADD PUSH2 0x1481 JUMP JUMPDEST SWAP2 POP POP SWAP3 SWAP2 POP POP JUMP JUMPDEST PUSH0 DUP1 PUSH1 0x40 DUP4 DUP6 SUB SLT ISZERO PUSH2 0x150B JUMPI PUSH2 0x150A PUSH2 0x10FB JUMP JUMPDEST JUMPDEST PUSH0 DUP4 ADD CALLDATALOAD PUSH8 0xFFFFFFFFFFFFFFFF DUP2 GT ISZERO PUSH2 0x1528 JUMPI PUSH2 0x1527 PUSH2 0x10FF JUMP JUMPDEST JUMPDEST PUSH2 0x1534 DUP6 DUP3 DUP7 ADD PUSH2 0x1481 JUMP JUMPDEST SWAP3 POP POP PUSH1 0x20 DUP4 ADD CALLDATALOAD PUSH8 0xFFFFFFFFFFFFFFFF DUP2 GT ISZERO PUSH2 0x1555 JUMPI PUSH2 0x1554 PUSH2 0x10FF JUMP JUMPDEST JUMPDEST PUSH2 0x1561 DUP6 DUP3 DUP7 ADD PUSH2 0x1481 JUMP JUMPDEST SWAP2 POP POP SWAP3 POP SWAP3 SWAP1 POP JUMP JUMPDEST PUSH2 0x1574 DUP2 PUSH2 0x11B1 JUMP JUMPDEST DUP2 EQ PUSH2 0x157E JUMPI PUSH0 DUP1 REVERT JUMPDEST POP JUMP JUMPDEST PUSH0 DUP2 CALLDATALOAD SWAP1 POP PUSH2 0x158F DUP2 PUSH2 0x156B JUMP JUMPDEST SWAP3 SWAP2 POP POP JUMP JUMPDEST PUSH0 DUP1 PUSH1 0x40 DUP4 DUP6 SUB SLT ISZERO PUSH2 0x15AB JUMPI PUSH2 0x15AA PUSH2 0x10FB JUMP JUMPDEST JUMPDEST PUSH0 PUSH2 0x15B8 DUP6 DUP3 DUP7 ADD PUSH2 0x1149 JUMP JUMPDEST SWAP3 POP POP PUSH1 0x20 PUSH2 0x15C9 DUP6 DUP3 DUP7 ADD PUSH2 0x1581 JUMP JUMPDEST SWAP2 POP POP SWAP3 POP SWAP3 SWAP1 POP JUMP JUMPDEST PUSH0 DUP3 DUP3 MSTORE PUSH1 0x20 DUP3 ADD SWAP1 POP SWAP3 SWAP2 POP POP JUMP JUMPDEST PUSH0 PUSH2 0x15ED DUP3 PUSH2 0x11C9 JUMP JUMPDEST PUSH2 0x15F7 DUP2 DUP6 PUSH2 0x15D3 JUMP JUMPDEST SWAP4 POP PUSH2 0x1607 DUP2 DUP6 PUSH1 0x20 DUP7 ADD PUSH2 0x11E3 JUMP JUMPDEST PUSH2 0x1610 DUP2 PUSH2 0x11F1 JUMP JUMPDEST DUP5 ADD SWAP2 POP POP SWAP3 SWAP2 POP POP JUMP JUMPDEST PUSH2 0x1624 DUP2 PUSH2 0x1122 JUMP JUMPDEST DUP3 MSTORE POP POP JUMP JUMPDEST PUSH0 PUSH1 0x80 DUP3 ADD SWAP1 POP PUSH2 0x163D PUSH0 DUP4 ADD DUP8 PUSH2 0x135A JUMP JUMPDEST PUSH2 0x164A PUSH1 0x20 DUP4 ADD DUP7 PUSH2 0x135A JUMP JUMPDEST DUP2 DUP2 SUB PUSH1 0x40 DUP4 ADD MSTORE PUSH2 0x165C DUP2 DUP6 PUSH2 0x15E3 JUMP JUMPDEST SWAP1 POP PUSH2 0x166B PUSH1 0x60 DUP4 ADD DUP5 PUSH2 0x161B JUMP JUMPDEST SWAP6 SWAP5 POP POP POP POP POP JUMP JUMPDEST PUSH0 PUSH1 0x60 DUP3 ADD SWAP1 POP DUP2 DUP2 SUB PUSH0 DUP4 ADD MSTORE PUSH2 0x168C DUP2 DUP7 PUSH2 0x15E3 JUMP JUMPDEST SWAP1 POP DUP2 DUP2 SUB PUSH1 0x20 DUP4 ADD MSTORE PUSH2 0x16A0 DUP2 DUP6 PUSH2 0x15E3 JUMP JUMPDEST SWAP1 POP PUSH2 0x16AF PUSH1 0x40 DUP4 ADD DUP5 PUSH2 0x161B JUMP JUMPDEST SWAP5 SWAP4 POP POP POP POP JUMP JUMPDEST PUSH0 PUSH1 0x20 DUP3 DUP5 SUB SLT ISZERO PUSH2 0x16CC JUMPI PUSH2 0x16CB PUSH2 0x10FB JUMP JUMPDEST JUMPDEST PUSH0 PUSH2 0x16D9 DUP5 DUP3 DUP6 ADD PUSH2 0x1581 JUMP JUMPDEST SWAP2 POP POP SWAP3 SWAP2 POP POP JUMP JUMPDEST PUSH0 DUP2 ISZERO ISZERO SWAP1 POP SWAP2 SWAP1 POP JUMP JUMPDEST PUSH2 0x16F6 DUP2 PUSH2 0x16E2 JUMP JUMPDEST DUP3 MSTORE POP POP JUMP JUMPDEST PUSH0 PUSH1 0x80 DUP3 ADD SWAP1 POP DUP2 DUP2 SUB PUSH0 DUP4 ADD MSTORE PUSH2 0x1714 DUP2 DUP8 PUSH2 0x15E3 JUMP JUMPDEST SWAP1 POP DUP2 DUP2 SUB PUSH1 0x20 DUP4 ADD MSTORE PUSH2 0x1728 DUP2 DUP7 PUSH2 0x15E3 JUMP JUMPDEST SWAP1 POP PUSH2 0x1737 PUSH1 0x40 DUP4 ADD DUP6 PUSH2 0x161B JUMP JUMPDEST PUSH2 0x1744 PUSH1 0x60 DUP4 ADD DUP5 PUSH2 0x16ED JUMP JUMPDEST SWAP6 SWAP5 POP POP POP POP POP JUMP JUMPDEST PUSH32 0x4E487B7100000000000000000000000000000000000000000000000000000000 PUSH0 MSTORE PUSH1 0x22 PUSH1 0x4 MSTORE PUSH1 0x24 PUSH0 REVERT JUMPDEST PUSH0 PUSH1 0x2 DUP3 DIV SWAP1 POP PUSH1 0x1 DUP3 AND DUP1 PUSH2 0x1791 JUMPI PUSH1 0x7F DUP3 AND SWAP2 POP JUMPDEST PUSH1 0x20 DUP3 LT DUP2 SUB PUSH2 0x17A4 JUMPI PUSH2 0x17A3 PUSH2 0x174D JUMP JUMPDEST JUMPDEST POP SWAP2 SWAP1 POP JUMP JUMPDEST PUSH0 DUP2 SWAP1 POP SWAP3 SWAP2 POP POP JUMP JUMPDEST PUSH0 PUSH2 0x17BE DUP3 PUSH2 0x11C9 JUMP JUMPDEST PUSH2 0x17C8 DUP2 DUP6 PUSH2 0x17AA JUMP JUMPDEST SWAP4 POP PUSH2 0x17D8 DUP2 DUP6 PUSH1 0x20 DUP7 ADD PUSH2 0x11E3 JUMP JUMPDEST DUP1 DUP5 ADD SWAP2 POP POP SWAP3 SWAP2 POP POP JUMP JUMPDEST PUSH0 PUSH2 0x17EF DUP3 DUP5 PUSH2 0x17B4 JUMP JUMPDEST SWAP2 POP DUP2 SWAP1 POP SWAP3 SWAP2 POP POP JUMP JUMPDEST PUSH32 0x41727469636C6520646F6573206E6F7420657869737400000000000000000000 PUSH0 DUP3 ADD MSTORE POP JUMP JUMPDEST PUSH0 PUSH2 0x182E PUSH1 0x16 DUP4 PUSH2 0x15D3 JUMP JUMPDEST SWAP2 POP PUSH2 0x1839 DUP3 PUSH2 0x17FA JUMP JUMPDEST PUSH1 0x20 DUP3 ADD SWAP1 POP SWAP2 SWAP1 POP JUMP JUMPDEST PUSH0 PUSH1 0x20 DUP3 ADD SWAP1 POP DUP2 DUP2 SUB PUSH0 DUP4 ADD MSTORE PUSH2 0x185B DUP2 PUSH2 0x1822 JUMP JUMPDEST SWAP1 POP SWAP2 SWAP1 POP JUMP JUMPDEST PUSH32 0x4E487B7100000000000000000000000000000000000000000000000000000000 PUSH0 MSTORE PUSH1 0x32 PUSH1 0x4 MSTORE PUSH1 0x24 PUSH0 REVERT JUMPDEST PUSH32 0x4F6E6C792074686520617574686F722063616E2064656C657465207468652061 PUSH0 DUP3 ADD MSTORE PUSH32 0x727469636C650000000000000000000000000000000000000000000000000000 PUSH1 0x20 DUP3 ADD MSTORE POP JUMP JUMPDEST PUSH0 PUSH2 0x18E9 PUSH1 0x26 DUP4 PUSH2 0x15D3 JUMP JUMPDEST SWAP2 POP PUSH2 0x18F4 DUP3 PUSH2 0x188F JUMP JUMPDEST PUSH1 0x40 DUP3 ADD SWAP1 POP SWAP2 SWAP1 POP JUMP JUMPDEST PUSH0 PUSH1 0x20 DUP3 ADD SWAP1 POP DUP2 DUP2 SUB PUSH0 DUP4 ADD MSTORE PUSH2 0x1916 DUP2 PUSH2 0x18DD JUMP JUMPDEST SWAP1 POP SWAP2 SWAP1 POP JUMP JUMPDEST PUSH0 DUP2 SWAP1 POP DUP2 PUSH0 MSTORE PUSH1 0x20 PUSH0 KECCAK256 SWAP1 POP SWAP2 SWAP1 POP JUMP JUMPDEST PUSH0 DUP2 SLOAD PUSH2 0x193B DUP2 PUSH2 0x177A JUMP JUMPDEST PUSH2 0x1945 DUP2 DUP7 PUSH2 0x15D3 JUMP JUMPDEST SWAP5 POP PUSH1 0x1 DUP3 AND PUSH0 DUP2 EQ PUSH2 0x195F JUMPI PUSH1 0x1 DUP2 EQ PUSH2 0x1975 JUMPI PUSH2 0x19A7 JUMP JUMPDEST PUSH1 0xFF NOT DUP4 AND DUP7 MSTORE DUP2 ISZERO ISZERO PUSH1 0x20 MUL DUP7 ADD SWAP4 POP PUSH2 0x19A7 JUMP JUMPDEST PUSH2 0x197E DUP6 PUSH2 0x191D JUMP JUMPDEST PUSH0 JUMPDEST DUP4 DUP2 LT ISZERO PUSH2 0x199F JUMPI DUP2 SLOAD DUP2 DUP10 ADD MSTORE PUSH1 0x1 DUP3 ADD SWAP2 POP PUSH1 0x20 DUP2 ADD SWAP1 POP PUSH2 0x1980 JUMP JUMPDEST DUP1 DUP9 ADD SWAP6 POP POP POP JUMPDEST POP POP POP SWAP3 SWAP2 POP POP JUMP JUMPDEST PUSH0 PUSH1 0x40 DUP3 ADD SWAP1 POP PUSH2 0x19C3 PUSH0 DUP4 ADD DUP6 PUSH2 0x135A JUMP JUMPDEST DUP2 DUP2 SUB PUSH1 0x20 DUP4 ADD MSTORE PUSH2 0x19D5 DUP2 DUP5 PUSH2 0x192F JUMP JUMPDEST SWAP1 POP SWAP4 SWAP3 POP POP POP JUMP JUMPDEST PUSH0 PUSH1 0x20 DUP3 ADD SWAP1 POP PUSH2 0x19F1 PUSH0 DUP4 ADD DUP5 PUSH2 0x161B JUMP JUMPDEST SWAP3 SWAP2 POP POP JUMP JUMPDEST PUSH0 DUP1 REVERT JUMPDEST PUSH0 DUP1 REVERT JUMPDEST PUSH0 PUSH2 0x1A11 PUSH2 0x1A0C DUP5 PUSH2 0x1402 JUMP JUMPDEST PUSH2 0x13E8 JUMP JUMPDEST SWAP1 POP DUP3 DUP2 MSTORE PUSH1 0x20 DUP2 ADD DUP5 DUP5 DUP5 ADD GT ISZERO PUSH2 0x1A2D JUMPI PUSH2 0x1A2C PUSH2 0x1386 JUMP JUMPDEST JUMPDEST PUSH2 0x1A38 DUP5 DUP3 DUP6 PUSH2 0x11E3 JUMP JUMPDEST POP SWAP4 SWAP3 POP POP POP JUMP JUMPDEST PUSH0 DUP3 PUSH1 0x1F DUP4 ADD SLT PUSH2 0x1A54 JUMPI PUSH2 0x1A53 PUSH2 0x1382 JUMP JUMPDEST JUMPDEST DUP2 MLOAD PUSH2 0x1A64 DUP5 DUP3 PUSH1 0x20 DUP7 ADD PUSH2 0x19FF JUMP JUMPDEST SWAP2 POP POP SWAP3 SWAP2 POP POP JUMP JUMPDEST PUSH2 0x1A76 DUP2 PUSH2 0x16E2 JUMP JUMPDEST DUP2 EQ PUSH2 0x1A80 JUMPI PUSH0 DUP1 REVERT JUMPDEST POP JUMP JUMPDEST PUSH0 DUP2 MLOAD SWAP1 POP PUSH2 0x1A91 DUP2 PUSH2 0x1A6D JUMP JUMPDEST SWAP3 SWAP2 POP POP JUMP JUMPDEST PUSH0 PUSH1 0x60 DUP3 DUP5 SUB SLT ISZERO PUSH2 0x1AAC JUMPI PUSH2 0x1AAB PUSH2 0x19F7 JUMP JUMPDEST JUMPDEST PUSH2 0x1AB6 PUSH1 0x60 PUSH2 0x13E8 JUMP JUMPDEST SWAP1 POP PUSH0 DUP3 ADD MLOAD PUSH8 0xFFFFFFFFFFFFFFFF DUP2 GT ISZERO PUSH2 0x1AD5 JUMPI PUSH2 0x1AD4 PUSH2 0x19FB JUMP JUMPDEST JUMPDEST PUSH2 0x1AE1 DUP5 DUP3 DUP6 ADD PUSH2 0x1A40 JUMP JUMPDEST PUSH0 DUP4 ADD MSTORE POP PUSH1 0x20 DUP3 ADD MLOAD PUSH8 0xFFFFFFFFFFFFFFFF DUP2 GT ISZERO PUSH2 0x1B04 JUMPI PUSH2 0x1B03 PUSH2 0x19FB JUMP JUMPDEST JUMPDEST PUSH2 0x1B10 DUP5 DUP3 DUP6 ADD PUSH2 0x1A40 JUMP JUMPDEST PUSH1 0x20 DUP4 ADD MSTORE POP PUSH1 0x40 PUSH2 0x1B24 DUP5 DUP3 DUP6 ADD PUSH2 0x1A83 JUMP JUMPDEST PUSH1 0x40 DUP4 ADD MSTORE POP SWAP3 SWAP2 POP POP JUMP JUMPDEST PUSH0 PUSH1 0x20 DUP3 DUP5 SUB SLT ISZERO PUSH2 0x1B45 JUMPI PUSH2 0x1B44 PUSH2 0x10FB JUMP JUMPDEST JUMPDEST PUSH0 DUP3 ADD MLOAD PUSH8 0xFFFFFFFFFFFFFFFF DUP2 GT ISZERO PUSH2 0x1B62 JUMPI PUSH2 0x1B61 PUSH2 0x10FF JUMP JUMPDEST JUMPDEST PUSH2 0x1B6E DUP5 DUP3 DUP6 ADD PUSH2 0x1A97 JUMP JUMPDEST SWAP2 POP POP SWAP3 SWAP2 POP POP JUMP JUMPDEST PUSH32 0x4F6E6C79207265676973746572656420617574686F72732063616E2061646420 PUSH0 DUP3 ADD MSTORE PUSH32 0x61727469636C6573000000000000000000000000000000000000000000000000 PUSH1 0x20 DUP3 ADD MSTORE POP JUMP JUMPDEST PUSH0 PUSH2 0x1BD1 PUSH1 0x28 DUP4 PUSH2 0x15D3 JUMP JUMPDEST SWAP2 POP PUSH2 0x1BDC DUP3 PUSH2 0x1B77 JUMP JUMPDEST PUSH1 0x40 DUP3 ADD SWAP1 POP SWAP2 SWAP1 POP JUMP JUMPDEST PUSH0 PUSH1 0x20 DUP3 ADD SWAP1 POP DUP2 DUP2 SUB PUSH0 DUP4 ADD MSTORE PUSH2 0x1BFE DUP2 PUSH2 0x1BC5 JUMP JUMPDEST SWAP1 POP SWAP2 SWAP1 POP JUMP JUMPDEST PUSH0 PUSH1 0x20 PUSH1 0x1F DUP4 ADD DIV SWAP1 POP SWAP2 SWAP1 POP JUMP JUMPDEST PUSH0 DUP3 DUP3 SHL SWAP1 POP SWAP3 SWAP2 POP POP JUMP JUMPDEST PUSH0 PUSH1 0x8 DUP4 MUL PUSH2 0x1C4F PUSH32 0xFFFFFFFFFFFFFFFFFFFFFFFFFFFFFFFFFFFFFFFFFFFFFFFFFFFFFFFFFFFFFFFF DUP3 PUSH2 0x1C14 JUMP JUMPDEST PUSH2 0x1C59 DUP7 DUP4 PUSH2 0x1C14 JUMP JUMPDEST SWAP6 POP DUP1 NOT DUP5 AND SWAP4 POP DUP1 DUP7 AND DUP5 OR SWAP3 POP POP POP SWAP4 SWAP3 POP POP POP JUMP JUMPDEST PUSH0 DUP2 SWAP1 POP SWAP2 SWAP1 POP JUMP JUMPDEST PUSH0 PUSH2 0x1C94 PUSH2 0x1C8F PUSH2 0x1C8A DUP5 PUSH2 0x11B1 JUMP JUMPDEST PUSH2 0x1C71 JUMP JUMPDEST PUSH2 0x11B1 JUMP JUMPDEST SWAP1 POP SWAP2 SWAP1 POP JUMP JUMPDEST PUSH0 DUP2 SWAP1 POP SWAP2 SWAP1 POP JUMP JUMPDEST PUSH2 0x1CAD DUP4 PUSH2 0x1C7A JUMP JUMPDEST PUSH2 0x1CC1 PUSH2 0x1CB9 DUP3 PUSH2 0x1C9B JUMP JUMPDEST DUP5 DUP5 SLOAD PUSH2 0x1C20 JUMP JUMPDEST DUP3 SSTORE POP POP POP POP JUMP JUMPDEST PUSH0 SWAP1 JUMP JUMPDEST PUSH2 0x1CD5 PUSH2 0x1CC9 JUMP JUMPDEST PUSH2 0x1CE0 DUP2 DUP5 DUP5 PUSH2 0x1CA4 JUMP JUMPDEST POP POP POP JUMP JUMPDEST JUMPDEST DUP2 DUP2 LT ISZERO PUSH2 0x1D03 JUMPI PUSH2 0x1CF8 PUSH0 DUP3 PUSH2 0x1CCD JUMP JUMPDEST PUSH1 0x1 DUP2 ADD SWAP1 POP PUSH2 0x1CE6 JUMP JUMPDEST POP POP JUMP JUMPDEST PUSH1 0x1F DUP3 GT ISZERO PUSH2 0x1D48 JUMPI PUSH2 0x1D19 DUP2 PUSH2 0x191D JUMP JUMPDEST PUSH2 0x1D22 DUP5 PUSH2 0x1C05 JUMP JUMPDEST DUP2 ADD PUSH1 0x20 DUP6 LT ISZERO PUSH2 0x1D31 JUMPI DUP2 SWAP1 POP JUMPDEST PUSH2 0x1D45 PUSH2 0x1D3D DUP6 PUSH2 0x1C05 JUMP JUMPDEST DUP4 ADD DUP3 PUSH2 0x1CE5 JUMP JUMPDEST POP POP JUMPDEST POP POP POP JUMP JUMPDEST PUSH0 DUP3 DUP3 SHR SWAP1 POP SWAP3 SWAP2 POP POP JUMP JUMPDEST PUSH0 PUSH2 0x1D68 PUSH0 NOT DUP5 PUSH1 0x8 MUL PUSH2 0x1D4D JUMP JUMPDEST NOT DUP1 DUP4 AND SWAP2 POP POP SWAP3 SWAP2 POP POP JUMP JUMPDEST PUSH0 PUSH2 0x1D80 DUP4 DUP4 PUSH2 0x1D59 JUMP JUMPDEST SWAP2 POP DUP3 PUSH1 0x2 MUL DUP3 OR SWAP1 POP SWAP3 SWAP2 POP POP JUMP JUMPDEST PUSH2 0x1D99 DUP3 PUSH2 0x11C9 JUMP JUMPDEST PUSH8 0xFFFFFFFFFFFFFFFF DUP2 GT ISZERO PUSH2 0x1DB2 JUMPI PUSH2 0x1DB1 PUSH2 0x138A JUMP JUMPDEST JUMPDEST PUSH2 0x1DBC DUP3 SLOAD PUSH2 0x177A JUMP JUMPDEST PUSH2 0x1DC7 DUP3 DUP3 DUP6 PUSH2 0x1D07 JUMP JUMPDEST PUSH0 PUSH1 0x20 SWAP1 POP PUSH1 0x1F DUP4 GT PUSH1 0x1 DUP2 EQ PUSH2 0x1DF8 JUMPI PUSH0 DUP5 ISZERO PUSH2 0x1DE6 JUMPI DUP3 DUP8 ADD MLOAD SWAP1 POP JUMPDEST PUSH2 0x1DF0 DUP6 DUP3 PUSH2 0x1D75 JUMP JUMPDEST DUP7 SSTORE POP PUSH2 0x1E57 JUMP JUMPDEST PUSH1 0x1F NOT DUP5 AND PUSH2 0x1E06 DUP7 PUSH2 0x191D JUMP JUMPDEST PUSH0 JUMPDEST DUP3 DUP2 LT ISZERO PUSH2 0x1E2D JUMPI DUP5 DUP10 ADD MLOAD DUP3 SSTORE PUSH1 0x1 DUP3 ADD SWAP2 POP PUSH1 0x20 DUP6 ADD SWAP5 POP PUSH1 0x20 DUP2 ADD SWAP1 POP PUSH2 0x1E08 JUMP JUMPDEST DUP7 DUP4 LT ISZERO PUSH2 0x1E4A JUMPI DUP5 DUP10 ADD MLOAD PUSH2 0x1E46 PUSH1 0x1F DUP10 AND DUP3 PUSH2 0x1D59 JUMP JUMPDEST DUP4 SSTORE POP JUMPDEST PUSH1 0x1 PUSH1 0x2 DUP9 MUL ADD DUP9 SSTORE POP POP POP JUMPDEST POP POP POP POP POP POP JUMP JUMPDEST PUSH32 0x4E487B7100000000000000000000000000000000000000000000000000000000 PUSH0 MSTORE PUSH1 0x11 PUSH1 0x4 MSTORE PUSH1 0x24 PUSH0 REVERT JUMPDEST PUSH0 PUSH2 0x1E96 DUP3 PUSH2 0x11B1 JUMP JUMPDEST SWAP2 POP PUSH2 0x1EA1 DUP4 PUSH2 0x11B1 JUMP JUMPDEST SWAP3 POP DUP3 DUP3 SUB SWAP1 POP DUP2 DUP2 GT ISZERO PUSH2 0x1EB9 JUMPI PUSH2 0x1EB8 PUSH2 0x1E5F JUMP JUMPDEST JUMPDEST SWAP3 SWAP2 POP POP JUMP JUMPDEST PUSH32 0x496E76616C696420617574686F72206164647265737300000000000000000000 PUSH0 DUP3 ADD MSTORE POP JUMP JUMPDEST PUSH0 PUSH2 0x1EF3 PUSH1 0x16 DUP4 PUSH2 0x15D3 JUMP JUMPDEST SWAP2 POP PUSH2 0x1EFE DUP3 PUSH2 0x1EBF JUMP JUMPDEST PUSH1 0x20 DUP3 ADD SWAP1 POP SWAP2 SWAP1 POP JUMP JUMPDEST PUSH0 PUSH1 0x20 DUP3 ADD SWAP1 POP DUP2 DUP2 SUB PUSH0 DUP4 ADD MSTORE PUSH2 0x1F20 DUP2 PUSH2 0x1EE7 JUMP JUMPDEST SWAP1 POP SWAP2 SWAP1 POP JUMP JUMPDEST PUSH0 DUP2 SWAP1 POP SWAP3 SWAP2 POP POP JUMP JUMPDEST POP JUMP JUMPDEST PUSH0 PUSH2 0x1F3F PUSH0 DUP4 PUSH2 0x1F27 JUMP JUMPDEST SWAP2 POP PUSH2 0x1F4A DUP3 PUSH2 0x1F31 JUMP JUMPDEST PUSH0 DUP3 ADD SWAP1 POP SWAP2 SWAP1 POP JUMP JUMPDEST PUSH0 PUSH2 0x1F5E DUP3 PUSH2 0x1F34 JUMP JUMPDEST SWAP2 POP DUP2 SWAP1 POP SWAP2 SWAP1 POP JUMP JUMPDEST PUSH32 0x47696674207472616E73666572206661696C6564000000000000000000000000 PUSH0 DUP3 ADD MSTORE POP JUMP JUMPDEST PUSH0 PUSH2 0x1F9C PUSH1 0x14 DUP4 PUSH2 0x15D3 JUMP JUMPDEST SWAP2 POP PUSH2 0x1FA7 DUP3 PUSH2 0x1F68 JUMP JUMPDEST PUSH1 0x20 DUP3 ADD SWAP1 POP SWAP2 SWAP1 POP JUMP JUMPDEST PUSH0 PUSH1 0x20 DUP3 ADD SWAP1 POP DUP2 DUP2 SUB PUSH0 DUP4 ADD MSTORE PUSH2 0x1FC9 DUP2 PUSH2 0x1F90 JUMP JUMPDEST SWAP1 POP SWAP2 SWAP1 POP JUMP JUMPDEST PUSH0 PUSH1 0x60 DUP3 ADD SWAP1 POP PUSH2 0x1FE3 PUSH0 DUP4 ADD DUP7 PUSH2 0x135A JUMP JUMPDEST PUSH2 0x1FF0 PUSH1 0x20 DUP4 ADD DUP6 PUSH2 0x135A JUMP JUMPDEST DUP2 DUP2 SUB PUSH1 0x40 DUP4 ADD MSTORE PUSH2 0x2002 DUP2 DUP5 PUSH2 0x15E3 JUMP JUMPDEST SWAP1 POP SWAP5 SWAP4 POP POP POP POP JUMP INVALID LOG2 PUSH5 0x6970667358 0x22 SLT KECCAK256 SWAP2 0xD7 0xAA 0xBC PUSH12 0x627453B6CBA20BBBC328E037 0xC6 SWAP4 PUSH26 0x5045F145042FDC8E9089C2CE64736F6C634300081A0033000000 "
				},
				"gasEstimates": {
					"creation": {
						"codeDepositCost": "1651600",
						"executionCost": "infinite",
						"totalCost": "infinite"
					},
					"external": {
						"addArticle(string,string)": "infinite",
						"articles(uint256)": "infinite",
						"authorGifts(address,uint256)": "infinite",
						"deleteArticle(string)": "infinite",
						"getArticle(string)": "infinite",
						"getAuthorGifts(address)": "infinite",
						"noOfArticles()": "2448",
						"sendGift(string)": "infinite"
					}
				},
				"methodIdentifiers": {
					"addArticle(string,string)": "6ec67ec9",
					"articles(uint256)": "edcfafe6",
					"authorGifts(address,uint256)": "6ecb5671",
					"deleteArticle(string)": "3af38305",
					"getArticle(string)": "a4666665",
					"getAuthorGifts(address)": "18058066",
					"noOfArticles()": "2007c8f1",
					"sendGift(string)": "c1cfe6a3"
				}
			},
			"storageLayout": {
				"storage": [
					{
						"astId": 5,
						"contract": "contracts/articles.sol:Articles",
						"label": "authorsContract",
						"offset": 0,
						"slot": "0",
						"type": "t_contract(Authors)435"
					},
					{
						"astId": 8,
						"contract": "contracts/articles.sol:Articles",
						"label": "noOfArticles",
						"offset": 0,
						"slot": "1",
						"type": "t_uint256"
					},
					{
						"astId": 42,
						"contract": "contracts/articles.sol:Articles",
						"label": "articles",
						"offset": 0,
						"slot": "2",
						"type": "t_array(t_struct(Article)29_storage)dyn_storage"
					},
					{
						"astId": 48,
						"contract": "contracts/articles.sol:Articles",
						"label": "authorGifts",
						"offset": 0,
						"slot": "3",
						"type": "t_mapping(t_address,t_array(t_struct(Gift)38_storage)dyn_storage)"
					},
					{
						"astId": 52,
						"contract": "contracts/articles.sol:Articles",
						"label": "metadataToIndex",
						"offset": 0,
						"slot": "4",
						"type": "t_mapping(t_string_memory_ptr,t_uint256)"
					}
				],
				"types": {
					"t_address": {
						"encoding": "inplace",
						"label": "address",
						"numberOfBytes": "20"
					},
					"t_array(t_struct(Article)29_storage)dyn_storage": {
						"base": "t_struct(Article)29_storage",
						"encoding": "dynamic_array",
						"label": "struct Articles.Article[]",
						"numberOfBytes": "32"
					},
					"t_array(t_struct(Gift)38_storage)dyn_storage": {
						"base": "t_struct(Gift)38_storage",
						"encoding": "dynamic_array",
						"label": "struct Articles.Gift[]",
						"numberOfBytes": "32"
					},
					"t_bool": {
						"encoding": "inplace",
						"label": "bool",
						"numberOfBytes": "1"
					},
					"t_contract(Authors)435": {
						"encoding": "inplace",
						"label": "contract Authors",
						"numberOfBytes": "20"
					},
					"t_mapping(t_address,t_array(t_struct(Gift)38_storage)dyn_storage)": {
						"encoding": "mapping",
						"key": "t_address",
						"label": "mapping(address => struct Articles.Gift[])",
						"numberOfBytes": "32",
						"value": "t_array(t_struct(Gift)38_storage)dyn_storage"
					},
					"t_mapping(t_string_memory_ptr,t_uint256)": {
						"encoding": "mapping",
						"key": "t_string_memory_ptr",
						"label": "mapping(string => uint256)",
						"numberOfBytes": "32",
						"value": "t_uint256"
					},
					"t_string_memory_ptr": {
						"encoding": "bytes",
						"label": "string",
						"numberOfBytes": "32"
					},
					"t_string_storage": {
						"encoding": "bytes",
						"label": "string",
						"numberOfBytes": "32"
					},
					"t_struct(Article)29_storage": {
						"encoding": "inplace",
						"label": "struct Articles.Article",
						"members": [
							{
								"astId": 22,
								"contract": "contracts/articles.sol:Articles",
								"label": "title",
								"offset": 0,
								"slot": "0",
								"type": "t_string_storage"
							},
							{
								"astId": 24,
								"contract": "contracts/articles.sol:Articles",
								"label": "metadataId",
								"offset": 0,
								"slot": "1",
								"type": "t_string_storage"
							},
							{
								"astId": 26,
								"contract": "contracts/articles.sol:Articles",
								"label": "authorAddress",
								"offset": 0,
								"slot": "2",
								"type": "t_address"
							},
							{
								"astId": 28,
								"contract": "contracts/articles.sol:Articles",
								"label": "exists",
								"offset": 20,
								"slot": "2",
								"type": "t_bool"
							}
						],
						"numberOfBytes": "96"
					},
					"t_struct(Gift)38_storage": {
						"encoding": "inplace",
						"label": "struct Articles.Gift",
						"members": [
							{
								"astId": 31,
								"contract": "contracts/articles.sol:Articles",
								"label": "amount",
								"offset": 0,
								"slot": "0",
								"type": "t_uint256"
							},
							{
								"astId": 33,
								"contract": "contracts/articles.sol:Articles",
								"label": "articleIndex",
								"offset": 0,
								"slot": "1",
								"type": "t_uint256"
							},
							{
								"astId": 35,
								"contract": "contracts/articles.sol:Articles",
								"label": "articleTitle",
								"offset": 0,
								"slot": "2",
								"type": "t_string_storage"
							},
							{
								"astId": 37,
								"contract": "contracts/articles.sol:Articles",
								"label": "sender",
								"offset": 0,
								"slot": "3",
								"type": "t_address"
							}
						],
						"numberOfBytes": "128"
					},
					"t_uint256": {
						"encoding": "inplace",
						"label": "uint256",
						"numberOfBytes": "32"
					}
				}
			},
			"userdoc": {
				"kind": "user",
				"methods": {},
				"version": 1
			}
		}
	}
}