{
	"contracts/authors.sol": {
		"Authors": {
			"abi": [
				{
					"anonymous": false,
					"inputs": [
						{
							"indexed": true,
							"internalType": "address",
							"name": "authorAddress",
							"type": "address"
						},
						{
							"indexed": false,
							"internalType": "string",
							"name": "name",
							"type": "string"
						},
						{
							"indexed": false,
							"internalType": "string",
							"name": "skills",
							"type": "string"
						}
					],
					"name": "AuthorAdded",
					"type": "event"
				},
				{
					"inputs": [
						{
							"internalType": "string",
							"name": "_name",
							"type": "string"
						},
						{
							"internalType": "string",
							"name": "_title",
							"type": "string"
						}
					],
					"name": "addAuthor",
					"outputs": [],
					"stateMutability": "nonpayable",
					"type": "function"
				},
				{
					"inputs": [
						{
							"internalType": "uint256",
							"name": "",
							"type": "uint256"
						}
					],
					"name": "authorAddresses",
					"outputs": [
						{
							"internalType": "address",
							"name": "",
							"type": "address"
						}
					],
					"stateMutability": "view",
					"type": "function"
				},
				{
					"inputs": [
						{
							"internalType": "address",
							"name": "",
							"type": "address"
						}
					],
					"name": "authors",
					"outputs": [
						{
							"internalType": "string",
							"name": "name",
							"type": "string"
						},
						{
							"internalType": "string",
							"name": "title",
							"type": "string"
						},
						{
							"internalType": "bool",
							"name": "exists",
							"type": "bool"
						}
					],
					"stateMutability": "view",
					"type": "function"
				},
				{
					"inputs": [],
					"name": "getAllAuthors",
					"outputs": [
						{
							"internalType": "address[]",
							"name": "",
							"type": "address[]"
						}
					],
					"stateMutability": "view",
					"type": "function"
				},
				{
					"inputs": [
						{
							"internalType": "address",
							"name": "_authorAddress",
							"type": "address"
						}
					],
					"name": "getAuthor",
					"outputs": [
						{
							"components": [
								{
									"internalType": "string",
									"name": "name",
									"type": "string"
								},
								{
									"internalType": "string",
									"name": "title",
									"type": "string"
								},
								{
									"internalType": "bool",
									"name": "exists",
									"type": "bool"
								}
							],
							"internalType": "struct Authors.Author",
							"name": "",
							"type": "tuple"
						}
					],
					"stateMutability": "view",
					"type": "function"
				},
				{
					"inputs": [],
					"name": "noOfAuthors",
					"outputs": [
						{
							"internalType": "uint256",
							"name": "",
							"type": "uint256"
						}
					],
					"stateMutability": "view",
					"type": "function"
				}
			],
			"devdoc": {
				"kind": "dev",
				"methods": {},
				"version": 1
			},
			"evm": {
				"assembly": "    /* \"contracts/authors.sol\":69:1092  contract Authors{... */\n  mstore(0x40, 0x80)\n    /* \"contracts/authors.sol\":118:119  0 */\n  0x00\n    /* \"contracts/authors.sol\":92:119  uint public noOfAuthors = 0 */\n  dup1\n  sstore\n    /* \"contracts/authors.sol\":69:1092  contract Authors{... */\n  callvalue\n  dup1\n  iszero\n  tag_1\n  jumpi\n  0x00\n  dup1\n  revert\ntag_1:\n  pop\n  dataSize(sub_0)\n  dup1\n  dataOffset(sub_0)\n  0x00\n  codecopy\n  0x00\n  return\nstop\n\nsub_0: assembly {\n        /* \"contracts/authors.sol\":69:1092  contract Authors{... */\n      mstore(0x40, 0x80)\n      callvalue\n      dup1\n      iszero\n      tag_1\n      jumpi\n      0x00\n      dup1\n      revert\n    tag_1:\n      pop\n      jumpi(tag_2, lt(calldatasize, 0x04))\n      shr(0xe0, calldataload(0x00))\n      dup1\n      0x0ab30093\n      eq\n      tag_3\n      jumpi\n      dup1\n      0x228ea0f6\n      eq\n      tag_4\n      jumpi\n      dup1\n      0x4a56dd58\n      eq\n      tag_5\n      jumpi\n      dup1\n      0x5d7869e4\n      eq\n      tag_6\n      jumpi\n      dup1\n      0x9692f5f4\n      eq\n      tag_7\n      jumpi\n      dup1\n      0xbf9c5001\n      eq\n      tag_8\n      jumpi\n    tag_2:\n      0x00\n      dup1\n      revert\n        /* \"contracts/authors.sol\":735:976  function getAuthor(address _authorAddress) public view returns(Author memory){... */\n    tag_3:\n      tag_9\n      0x04\n      dup1\n      calldatasize\n      sub\n      dup2\n      add\n      swap1\n      tag_10\n      swap2\n      swap1\n      tag_11\n      jump\t// in\n    tag_10:\n      tag_12\n      jump\t// in\n    tag_9:\n      mload(0x40)\n      tag_13\n      swap2\n      swap1\n      tag_14\n      jump\t// in\n    tag_13:\n      mload(0x40)\n      dup1\n      swap2\n      sub\n      swap1\n      return\n        /* \"contracts/authors.sol\":92:119  uint public noOfAuthors = 0 */\n    tag_4:\n      tag_15\n      tag_16\n      jump\t// in\n    tag_15:\n      mload(0x40)\n      tag_17\n      swap2\n      swap1\n      tag_18\n      jump\t// in\n    tag_17:\n      mload(0x40)\n      dup1\n      swap2\n      sub\n      swap1\n      return\n        /* \"contracts/authors.sol\":397:727  function addAuthor(string memory _name, string memory _title) public {... */\n    tag_5:\n      tag_19\n      0x04\n      dup1\n      calldatasize\n      sub\n      dup2\n      add\n      swap1\n      tag_20\n      swap2\n      swap1\n      tag_21\n      jump\t// in\n    tag_20:\n      tag_22\n      jump\t// in\n    tag_19:\n      stop\n        /* \"contracts/authors.sol\":984:1089  function getAllAuthors() public view returns (address[] memory) {... */\n    tag_6:\n      tag_23\n      tag_24\n      jump\t// in\n    tag_23:\n      mload(0x40)\n      tag_25\n      swap2\n      swap1\n      tag_26\n      jump\t// in\n    tag_25:\n      mload(0x40)\n      dup1\n      swap2\n      sub\n      swap1\n      return\n        /* \"contracts/authors.sol\":126:158  address[] public authorAddresses */\n    tag_7:\n      tag_27\n      0x04\n      dup1\n      calldatasize\n      sub\n      dup2\n      add\n      swap1\n      tag_28\n      swap2\n      swap1\n      tag_29\n      jump\t// in\n    tag_28:\n      tag_30\n      jump\t// in\n    tag_27:\n      mload(0x40)\n      tag_31\n      swap2\n      swap1\n      tag_32\n      jump\t// in\n    tag_31:\n      mload(0x40)\n      dup1\n      swap2\n      sub\n      swap1\n      return\n        /* \"contracts/authors.sol\":263:305  mapping (address => Author) public authors */\n    tag_8:\n      tag_33\n      0x04\n      dup1\n      calldatasize\n      sub\n      dup2\n      add\n      swap1\n      tag_34\n      swap2\n      swap1\n      tag_11\n      jump\t// in\n    tag_34:\n      tag_35\n      jump\t// in\n    tag_33:\n      mload(0x40)\n      tag_36\n      swap4\n      swap3\n      swap2\n      swap1\n      tag_37\n      jump\t// in\n    tag_36:\n      mload(0x40)\n      dup1\n      swap2\n      sub\n      swap1\n      return\n        /* \"contracts/authors.sol\":735:976  function getAuthor(address _authorAddress) public view returns(Author memory){... */\n    tag_12:\n        /* \"contracts/authors.sol\":798:811  Author memory */\n      tag_38\n      tag_39\n      jump\t// in\n    tag_38:\n        /* \"contracts/authors.sol\":831:838  authors */\n      0x02\n        /* \"contracts/authors.sol\":831:854  authors[_authorAddress] */\n      0x00\n        /* \"contracts/authors.sol\":839:853  _authorAddress */\n      dup4\n        /* \"contracts/authors.sol\":831:854  authors[_authorAddress] */\n      0xffffffffffffffffffffffffffffffffffffffff\n      and\n      0xffffffffffffffffffffffffffffffffffffffff\n      and\n      dup2\n      mstore\n      0x20\n      add\n      swap1\n      dup2\n      mstore\n      0x20\n      add\n      0x00\n      keccak256\n        /* \"contracts/authors.sol\":831:861  authors[_authorAddress].exists */\n      0x02\n      add\n      0x00\n      swap1\n      sload\n      swap1\n      0x0100\n      exp\n      swap1\n      div\n      0xff\n      and\n        /* \"contracts/authors.sol\":823:887  require(authors[_authorAddress].exists, \"Author does not exist\") */\n      tag_41\n      jumpi\n      mload(0x40)\n      0x08c379a000000000000000000000000000000000000000000000000000000000\n      dup2\n      mstore\n      0x04\n      add\n      tag_42\n      swap1\n      tag_43\n      jump\t// in\n    tag_42:\n      mload(0x40)\n      dup1\n      swap2\n      sub\n      swap1\n      revert\n    tag_41:\n        /* \"contracts/authors.sol\":898:918  Author memory author */\n      0x00\n        /* \"contracts/authors.sol\":921:928  authors */\n      0x02\n        /* \"contracts/authors.sol\":921:944  authors[_authorAddress] */\n      0x00\n        /* \"contracts/authors.sol\":929:943  _authorAddress */\n      dup5\n        /* \"contracts/authors.sol\":921:944  authors[_authorAddress] */\n      0xffffffffffffffffffffffffffffffffffffffff\n      and\n      0xffffffffffffffffffffffffffffffffffffffff\n      and\n      dup2\n      mstore\n      0x20\n      add\n      swap1\n      dup2\n      mstore\n      0x20\n      add\n      0x00\n      keccak256\n        /* \"contracts/authors.sol\":898:944  Author memory author = authors[_authorAddress] */\n      mload(0x40)\n      dup1\n      0x60\n      add\n      0x40\n      mstore\n      swap1\n      dup2\n      0x00\n      dup3\n      add\n      dup1\n      sload\n      tag_44\n      swap1\n      tag_45\n      jump\t// in\n    tag_44:\n      dup1\n      0x1f\n      add\n      0x20\n      dup1\n      swap2\n      div\n      mul\n      0x20\n      add\n      mload(0x40)\n      swap1\n      dup2\n      add\n      0x40\n      mstore\n      dup1\n      swap3\n      swap2\n      swap1\n      dup2\n      dup2\n      mstore\n      0x20\n      add\n      dup3\n      dup1\n      sload\n      tag_46\n      swap1\n      tag_45\n      jump\t// in\n    tag_46:\n      dup1\n      iszero\n      tag_47\n      jumpi\n      dup1\n      0x1f\n      lt\n      tag_48\n      jumpi\n      0x0100\n      dup1\n      dup4\n      sload\n      div\n      mul\n      dup4\n      mstore\n      swap2\n      0x20\n      add\n      swap2\n      jump(tag_47)\n    tag_48:\n      dup3\n      add\n      swap2\n      swap1\n      0x00\n      mstore\n      keccak256(0x00, 0x20)\n      swap1\n    tag_49:\n      dup2\n      sload\n      dup2\n      mstore\n      swap1\n      0x01\n      add\n      swap1\n      0x20\n      add\n      dup1\n      dup4\n      gt\n      tag_49\n      jumpi\n      dup3\n      swap1\n      sub\n      0x1f\n      and\n      dup3\n      add\n      swap2\n    tag_47:\n      pop\n      pop\n      pop\n      pop\n      pop\n      dup2\n      mstore\n      0x20\n      add\n      0x01\n      dup3\n      add\n      dup1\n      sload\n      tag_50\n      swap1\n      tag_45\n      jump\t// in\n    tag_50:\n      dup1\n      0x1f\n      add\n      0x20\n      dup1\n      swap2\n      div\n      mul\n      0x20\n      add\n      mload(0x40)\n      swap1\n      dup2\n      add\n      0x40\n      mstore\n      dup1\n      swap3\n      swap2\n      swap1\n      dup2\n      dup2\n      mstore\n      0x20\n      add\n      dup3\n      dup1\n      sload\n      tag_51\n      swap1\n      tag_45\n      jump\t// in\n    tag_51:\n      dup1\n      iszero\n      tag_52\n      jumpi\n      dup1\n      0x1f\n      lt\n      tag_53\n      jumpi\n      0x0100\n      dup1\n      dup4\n      sload\n      div\n      mul\n      dup4\n      mstore\n      swap2\n      0x20\n      add\n      swap2\n      jump(tag_52)\n    tag_53:\n      dup3\n      add\n      swap2\n      swap1\n      0x00\n      mstore\n      keccak256(0x00, 0x20)\n      swap1\n    tag_54:\n      dup2\n      sload\n      dup2\n      mstore\n      swap1\n      0x01\n      add\n      swap1\n      0x20\n      add\n      dup1\n      dup4\n      gt\n      tag_54\n      jumpi\n      dup3\n      swap1\n      sub\n      0x1f\n      and\n      dup3\n      add\n      swap2\n    tag_52:\n      pop\n      pop\n      pop\n      pop\n      pop\n      dup2\n      mstore\n      0x20\n      add\n      0x02\n      dup3\n      add\n      0x00\n      swap1\n      sload\n      swap1\n      0x0100\n      exp\n      swap1\n      div\n      0xff\n      and\n      iszero\n      iszero\n      iszero\n      iszero\n      dup2\n      mstore\n      pop\n      pop\n      swap1\n      pop\n        /* \"contracts/authors.sol\":962:968  author */\n      dup1\n        /* \"contracts/authors.sol\":955:968  return author */\n      swap2\n      pop\n      pop\n        /* \"contracts/authors.sol\":735:976  function getAuthor(address _authorAddress) public view returns(Author memory){... */\n      swap2\n      swap1\n      pop\n      jump\t// out\n        /* \"contracts/authors.sol\":92:119  uint public noOfAuthors = 0 */\n    tag_16:\n      sload(0x00)\n      dup2\n      jump\t// out\n        /* \"contracts/authors.sol\":397:727  function addAuthor(string memory _name, string memory _title) public {... */\n    tag_22:\n        /* \"contracts/authors.sol\":486:493  authors */\n      0x02\n        /* \"contracts/authors.sol\":486:505  authors[msg.sender] */\n      0x00\n        /* \"contracts/authors.sol\":494:504  msg.sender */\n      caller\n        /* \"contracts/authors.sol\":486:505  authors[msg.sender] */\n      0xffffffffffffffffffffffffffffffffffffffff\n      and\n      0xffffffffffffffffffffffffffffffffffffffff\n      and\n      dup2\n      mstore\n      0x20\n      add\n      swap1\n      dup2\n      mstore\n      0x20\n      add\n      0x00\n      keccak256\n        /* \"contracts/authors.sol\":486:512  authors[msg.sender].exists */\n      0x02\n      add\n      0x00\n      swap1\n      sload\n      swap1\n      0x0100\n      exp\n      swap1\n      div\n      0xff\n      and\n        /* \"contracts/authors.sol\":485:512  !authors[msg.sender].exists */\n      iszero\n        /* \"contracts/authors.sol\":477:538  require(!authors[msg.sender].exists, \"Author already exists\") */\n      tag_56\n      jumpi\n      mload(0x40)\n      0x08c379a000000000000000000000000000000000000000000000000000000000\n      dup2\n      mstore\n      0x04\n      add\n      tag_57\n      swap1\n      tag_58\n      jump\t// in\n    tag_57:\n      mload(0x40)\n      dup1\n      swap2\n      sub\n      swap1\n      revert\n    tag_56:\n        /* \"contracts/authors.sol\":549:560  noOfAuthors */\n      0x00\n      dup1\n        /* \"contracts/authors.sol\":549:563  noOfAuthors ++ */\n      dup2\n      sload\n      dup1\n      swap3\n      swap2\n      swap1\n      tag_59\n      swap1\n      tag_60\n      jump\t// in\n    tag_59:\n      swap2\n      swap1\n      pop\n      sstore\n      pop\n        /* \"contracts/authors.sol\":596:622  Author(_name,_title, true) */\n      mload(0x40)\n      dup1\n      0x60\n      add\n      0x40\n      mstore\n      dup1\n        /* \"contracts/authors.sol\":603:608  _name */\n      dup4\n        /* \"contracts/authors.sol\":596:622  Author(_name,_title, true) */\n      dup2\n      mstore\n      0x20\n      add\n        /* \"contracts/authors.sol\":609:615  _title */\n      dup3\n        /* \"contracts/authors.sol\":596:622  Author(_name,_title, true) */\n      dup2\n      mstore\n      0x20\n      add\n        /* \"contracts/authors.sol\":617:621  true */\n      0x01\n        /* \"contracts/authors.sol\":596:622  Author(_name,_title, true) */\n      iszero\n      iszero\n      dup2\n      mstore\n      pop\n        /* \"contracts/authors.sol\":574:581  authors */\n      0x02\n        /* \"contracts/authors.sol\":574:593  authors[msg.sender] */\n      0x00\n        /* \"contracts/authors.sol\":582:592  msg.sender */\n      caller\n        /* \"contracts/authors.sol\":574:593  authors[msg.sender] */\n      0xffffffffffffffffffffffffffffffffffffffff\n      and\n      0xffffffffffffffffffffffffffffffffffffffff\n      and\n      dup2\n      mstore\n      0x20\n      add\n      swap1\n      dup2\n      mstore\n      0x20\n      add\n      0x00\n      keccak256\n        /* \"contracts/authors.sol\":574:622  authors[msg.sender] = Author(_name,_title, true) */\n      0x00\n      dup3\n      add\n      mload\n      dup2\n      0x00\n      add\n      swap1\n      dup2\n      tag_61\n      swap2\n      swap1\n      tag_62\n      jump\t// in\n    tag_61:\n      pop\n      0x20\n      dup3\n      add\n      mload\n      dup2\n      0x01\n      add\n      swap1\n      dup2\n      tag_63\n      swap2\n      swap1\n      tag_62\n      jump\t// in\n    tag_63:\n      pop\n      0x40\n      dup3\n      add\n      mload\n      dup2\n      0x02\n      add\n      exp(0x0100, 0x00)\n      dup2\n      sload\n      dup2\n      0xff\n      mul\n      not\n      and\n      swap1\n      dup4\n      iszero\n      iszero\n      mul\n      or\n      swap1\n      sstore\n      pop\n      swap1\n      pop\n      pop\n        /* \"contracts/authors.sol\":633:648  authorAddresses */\n      0x01\n        /* \"contracts/authors.sol\":654:664  msg.sender */\n      caller\n        /* \"contracts/authors.sol\":633:665  authorAddresses.push(msg.sender) */\n      swap1\n      dup1\n      0x01\n      dup2\n      sload\n      add\n      dup1\n      dup3\n      sstore\n      dup1\n      swap2\n      pop\n      pop\n      0x01\n      swap1\n      sub\n      swap1\n      0x00\n      mstore\n      keccak256(0x00, 0x20)\n      add\n      0x00\n      swap1\n      swap2\n      swap1\n      swap2\n      swap1\n      swap2\n      0x0100\n      exp\n      dup2\n      sload\n      dup2\n      0xffffffffffffffffffffffffffffffffffffffff\n      mul\n      not\n      and\n      swap1\n      dup4\n      0xffffffffffffffffffffffffffffffffffffffff\n      and\n      mul\n      or\n      swap1\n      sstore\n      pop\n        /* \"contracts/authors.sol\":693:703  msg.sender */\n      caller\n        /* \"contracts/authors.sol\":681:719  AuthorAdded(msg.sender, _name, _title) */\n      0xffffffffffffffffffffffffffffffffffffffff\n      and\n      0x7684f961e9f2fba83a8b498e45c72cfa5302033c5a60c3a2e2a08f214598e00f\n        /* \"contracts/authors.sol\":705:710  _name */\n      dup4\n        /* \"contracts/authors.sol\":712:718  _title */\n      dup4\n        /* \"contracts/authors.sol\":681:719  AuthorAdded(msg.sender, _name, _title) */\n      mload(0x40)\n      tag_65\n      swap3\n      swap2\n      swap1\n      tag_66\n      jump\t// in\n    tag_65:\n      mload(0x40)\n      dup1\n      swap2\n      sub\n      swap1\n      log2\n        /* \"contracts/authors.sol\":397:727  function addAuthor(string memory _name, string memory _title) public {... */\n      pop\n      pop\n      jump\t// out\n        /* \"contracts/authors.sol\":984:1089  function getAllAuthors() public view returns (address[] memory) {... */\n    tag_24:\n        /* \"contracts/authors.sol\":1030:1046  address[] memory */\n      0x60\n        /* \"contracts/authors.sol\":1066:1081  authorAddresses */\n      0x01\n        /* \"contracts/authors.sol\":1059:1081  return authorAddresses */\n      dup1\n      sload\n      dup1\n      0x20\n      mul\n      0x20\n      add\n      mload(0x40)\n      swap1\n      dup2\n      add\n      0x40\n      mstore\n      dup1\n      swap3\n      swap2\n      swap1\n      dup2\n      dup2\n      mstore\n      0x20\n      add\n      dup3\n      dup1\n      sload\n      dup1\n      iszero\n      tag_68\n      jumpi\n      0x20\n      mul\n      dup3\n      add\n      swap2\n      swap1\n      0x00\n      mstore\n      keccak256(0x00, 0x20)\n      swap1\n    tag_69:\n      dup2\n      0x00\n      swap1\n      sload\n      swap1\n      0x0100\n      exp\n      swap1\n      div\n      0xffffffffffffffffffffffffffffffffffffffff\n      and\n      0xffffffffffffffffffffffffffffffffffffffff\n      and\n      dup2\n      mstore\n      0x20\n      add\n      swap1\n      0x01\n      add\n      swap1\n      dup1\n      dup4\n      gt\n      tag_69\n      jumpi\n    tag_68:\n      pop\n      pop\n      pop\n      pop\n      pop\n      swap1\n      pop\n        /* \"contracts/authors.sol\":984:1089  function getAllAuthors() public view returns (address[] memory) {... */\n      swap1\n      jump\t// out\n        /* \"contracts/authors.sol\":126:158  address[] public authorAddresses */\n    tag_30:\n      0x01\n      dup2\n      dup2\n      sload\n      dup2\n      lt\n      tag_70\n      jumpi\n      0x00\n      dup1\n      revert\n    tag_70:\n      swap1\n      0x00\n      mstore\n      keccak256(0x00, 0x20)\n      add\n      0x00\n      swap2\n      pop\n      sload\n      swap1\n      0x0100\n      exp\n      swap1\n      div\n      0xffffffffffffffffffffffffffffffffffffffff\n      and\n      dup2\n      jump\t// out\n        /* \"contracts/authors.sol\":263:305  mapping (address => Author) public authors */\n    tag_35:\n      mstore(0x20, 0x02)\n      dup1\n      0x00\n      mstore\n      keccak256(0x00, 0x40)\n      0x00\n      swap2\n      pop\n      swap1\n      pop\n      dup1\n      0x00\n      add\n      dup1\n      sload\n      tag_72\n      swap1\n      tag_45\n      jump\t// in\n    tag_72:\n      dup1\n      0x1f\n      add\n      0x20\n      dup1\n      swap2\n      div\n      mul\n      0x20\n      add\n      mload(0x40)\n      swap1\n      dup2\n      add\n      0x40\n      mstore\n      dup1\n      swap3\n      swap2\n      swap1\n      dup2\n      dup2\n      mstore\n      0x20\n      add\n      dup3\n      dup1\n      sload\n      tag_73\n      swap1\n      tag_45\n      jump\t// in\n    tag_73:\n      dup1\n      iszero\n      tag_74\n      jumpi\n      dup1\n      0x1f\n      lt\n      tag_75\n      jumpi\n      0x0100\n      dup1\n      dup4\n      sload\n      div\n      mul\n      dup4\n      mstore\n      swap2\n      0x20\n      add\n      swap2\n      jump(tag_74)\n    tag_75:\n      dup3\n      add\n      swap2\n      swap1\n      0x00\n      mstore\n      keccak256(0x00, 0x20)\n      swap1\n    tag_76:\n      dup2\n      sload\n      dup2\n      mstore\n      swap1\n      0x01\n      add\n      swap1\n      0x20\n      add\n      dup1\n      dup4\n      gt\n      tag_76\n      jumpi\n      dup3\n      swap1\n      sub\n      0x1f\n      and\n      dup3\n      add\n      swap2\n    tag_74:\n      pop\n      pop\n      pop\n      pop\n      pop\n      swap1\n      dup1\n      0x01\n      add\n      dup1\n      sload\n      tag_77\n      swap1\n      tag_45\n      jump\t// in\n    tag_77:\n      dup1\n      0x1f\n      add\n      0x20\n      dup1\n      swap2\n      div\n      mul\n      0x20\n      add\n      mload(0x40)\n      swap1\n      dup2\n      add\n      0x40\n      mstore\n      dup1\n      swap3\n      swap2\n      swap1\n      dup2\n      dup2\n      mstore\n      0x20\n      add\n      dup3\n      dup1\n      sload\n      tag_78\n      swap1\n      tag_45\n      jump\t// in\n    tag_78:\n      dup1\n      iszero\n      tag_79\n      jumpi\n      dup1\n      0x1f\n      lt\n      tag_80\n      jumpi\n      0x0100\n      dup1\n      dup4\n      sload\n      div\n      mul\n      dup4\n      mstore\n      swap2\n      0x20\n      add\n      swap2\n      jump(tag_79)\n    tag_80:\n      dup3\n      add\n      swap2\n      swap1\n      0x00\n      mstore\n      keccak256(0x00, 0x20)\n      swap1\n    tag_81:\n      dup2\n      sload\n      dup2\n      mstore\n      swap1\n      0x01\n      add\n      swap1\n      0x20\n      add\n      dup1\n      dup4\n      gt\n      tag_81\n      jumpi\n      dup3\n      swap1\n      sub\n      0x1f\n      and\n      dup3\n      add\n      swap2\n    tag_79:\n      pop\n      pop\n      pop\n      pop\n      pop\n      swap1\n      dup1\n      0x02\n      add\n      0x00\n      swap1\n      sload\n      swap1\n      0x0100\n      exp\n      swap1\n      div\n      0xff\n      and\n      swap1\n      pop\n      dup4\n      jump\t// out\n    tag_39:\n      mload(0x40)\n      dup1\n      0x60\n      add\n      0x40\n      mstore\n      dup1\n      0x60\n      dup2\n      mstore\n      0x20\n      add\n      0x60\n      dup2\n      mstore\n      0x20\n      add\n      iszero(iszero(0x00))\n      dup2\n      mstore\n      pop\n      swap1\n      jump\t// out\n        /* \"#utility.yul\":7:82   */\n    tag_82:\n        /* \"#utility.yul\":40:46   */\n      0x00\n        /* \"#utility.yul\":73:75   */\n      0x40\n        /* \"#utility.yul\":67:76   */\n      mload\n        /* \"#utility.yul\":57:76   */\n      swap1\n      pop\n        /* \"#utility.yul\":7:82   */\n      swap1\n      jump\t// out\n        /* \"#utility.yul\":88:205   */\n    tag_83:\n        /* \"#utility.yul\":197:198   */\n      0x00\n        /* \"#utility.yul\":194:195   */\n      dup1\n        /* \"#utility.yul\":187:199   */\n      revert\n        /* \"#utility.yul\":211:328   */\n    tag_84:\n        /* \"#utility.yul\":320:321   */\n      0x00\n        /* \"#utility.yul\":317:318   */\n      dup1\n        /* \"#utility.yul\":310:322   */\n      revert\n        /* \"#utility.yul\":334:460   */\n    tag_85:\n        /* \"#utility.yul\":371:378   */\n      0x00\n        /* \"#utility.yul\":411:453   */\n      0xffffffffffffffffffffffffffffffffffffffff\n        /* \"#utility.yul\":404:409   */\n      dup3\n        /* \"#utility.yul\":400:454   */\n      and\n        /* \"#utility.yul\":389:454   */\n      swap1\n      pop\n        /* \"#utility.yul\":334:460   */\n      swap2\n      swap1\n      pop\n      jump\t// out\n        /* \"#utility.yul\":466:562   */\n    tag_86:\n        /* \"#utility.yul\":503:510   */\n      0x00\n        /* \"#utility.yul\":532:556   */\n      tag_148\n        /* \"#utility.yul\":550:555   */\n      dup3\n        /* \"#utility.yul\":532:556   */\n      tag_85\n      jump\t// in\n    tag_148:\n        /* \"#utility.yul\":521:556   */\n      swap1\n      pop\n        /* \"#utility.yul\":466:562   */\n      swap2\n      swap1\n      pop\n      jump\t// out\n        /* \"#utility.yul\":568:690   */\n    tag_87:\n        /* \"#utility.yul\":641:665   */\n      tag_150\n        /* \"#utility.yul\":659:664   */\n      dup2\n        /* \"#utility.yul\":641:665   */\n      tag_86\n      jump\t// in\n    tag_150:\n        /* \"#utility.yul\":634:639   */\n      dup2\n        /* \"#utility.yul\":631:666   */\n      eq\n        /* \"#utility.yul\":621:684   */\n      tag_151\n      jumpi\n        /* \"#utility.yul\":680:681   */\n      0x00\n        /* \"#utility.yul\":677:678   */\n      dup1\n        /* \"#utility.yul\":670:682   */\n      revert\n        /* \"#utility.yul\":621:684   */\n    tag_151:\n        /* \"#utility.yul\":568:690   */\n      pop\n      jump\t// out\n        /* \"#utility.yul\":696:835   */\n    tag_88:\n        /* \"#utility.yul\":742:747   */\n      0x00\n        /* \"#utility.yul\":780:786   */\n      dup2\n        /* \"#utility.yul\":767:787   */\n      calldataload\n        /* \"#utility.yul\":758:787   */\n      swap1\n      pop\n        /* \"#utility.yul\":796:829   */\n      tag_153\n        /* \"#utility.yul\":823:828   */\n      dup2\n        /* \"#utility.yul\":796:829   */\n      tag_87\n      jump\t// in\n    tag_153:\n        /* \"#utility.yul\":696:835   */\n      swap3\n      swap2\n      pop\n      pop\n      jump\t// out\n        /* \"#utility.yul\":841:1170   */\n    tag_11:\n        /* \"#utility.yul\":900:906   */\n      0x00\n        /* \"#utility.yul\":949:951   */\n      0x20\n        /* \"#utility.yul\":937:946   */\n      dup3\n        /* \"#utility.yul\":928:935   */\n      dup5\n        /* \"#utility.yul\":924:947   */\n      sub\n        /* \"#utility.yul\":920:952   */\n      slt\n        /* \"#utility.yul\":917:1036   */\n      iszero\n      tag_155\n      jumpi\n        /* \"#utility.yul\":955:1034   */\n      tag_156\n      tag_83\n      jump\t// in\n    tag_156:\n        /* \"#utility.yul\":917:1036   */\n    tag_155:\n        /* \"#utility.yul\":1075:1076   */\n      0x00\n        /* \"#utility.yul\":1100:1153   */\n      tag_157\n        /* \"#utility.yul\":1145:1152   */\n      dup5\n        /* \"#utility.yul\":1136:1142   */\n      dup3\n        /* \"#utility.yul\":1125:1134   */\n      dup6\n        /* \"#utility.yul\":1121:1143   */\n      add\n        /* \"#utility.yul\":1100:1153   */\n      tag_88\n      jump\t// in\n    tag_157:\n        /* \"#utility.yul\":1090:1153   */\n      swap2\n      pop\n        /* \"#utility.yul\":1046:1163   */\n      pop\n        /* \"#utility.yul\":841:1170   */\n      swap3\n      swap2\n      pop\n      pop\n      jump\t// out\n        /* \"#utility.yul\":1176:1275   */\n    tag_89:\n        /* \"#utility.yul\":1228:1234   */\n      0x00\n        /* \"#utility.yul\":1262:1267   */\n      dup2\n        /* \"#utility.yul\":1256:1268   */\n      mload\n        /* \"#utility.yul\":1246:1268   */\n      swap1\n      pop\n        /* \"#utility.yul\":1176:1275   */\n      swap2\n      swap1\n      pop\n      jump\t// out\n        /* \"#utility.yul\":1281:1440   */\n    tag_90:\n        /* \"#utility.yul\":1355:1366   */\n      0x00\n        /* \"#utility.yul\":1389:1395   */\n      dup3\n        /* \"#utility.yul\":1384:1387   */\n      dup3\n        /* \"#utility.yul\":1377:1396   */\n      mstore\n        /* \"#utility.yul\":1429:1433   */\n      0x20\n        /* \"#utility.yul\":1424:1427   */\n      dup3\n        /* \"#utility.yul\":1420:1434   */\n      add\n        /* \"#utility.yul\":1405:1434   */\n      swap1\n      pop\n        /* \"#utility.yul\":1281:1440   */\n      swap3\n      swap2\n      pop\n      pop\n      jump\t// out\n        /* \"#utility.yul\":1446:1585   */\n    tag_91:\n        /* \"#utility.yul\":1535:1541   */\n      dup3\n        /* \"#utility.yul\":1530:1533   */\n      dup2\n        /* \"#utility.yul\":1525:1528   */\n      dup4\n        /* \"#utility.yul\":1519:1542   */\n      mcopy\n        /* \"#utility.yul\":1576:1577   */\n      0x00\n        /* \"#utility.yul\":1567:1573   */\n      dup4\n        /* \"#utility.yul\":1562:1565   */\n      dup4\n        /* \"#utility.yul\":1558:1574   */\n      add\n        /* \"#utility.yul\":1551:1578   */\n      mstore\n        /* \"#utility.yul\":1446:1585   */\n      pop\n      pop\n      pop\n      jump\t// out\n        /* \"#utility.yul\":1591:1693   */\n    tag_92:\n        /* \"#utility.yul\":1632:1638   */\n      0x00\n        /* \"#utility.yul\":1683:1685   */\n      0x1f\n        /* \"#utility.yul\":1679:1686   */\n      not\n        /* \"#utility.yul\":1674:1676   */\n      0x1f\n        /* \"#utility.yul\":1667:1672   */\n      dup4\n        /* \"#utility.yul\":1663:1677   */\n      add\n        /* \"#utility.yul\":1659:1687   */\n      and\n        /* \"#utility.yul\":1649:1687   */\n      swap1\n      pop\n        /* \"#utility.yul\":1591:1693   */\n      swap2\n      swap1\n      pop\n      jump\t// out\n        /* \"#utility.yul\":1699:2056   */\n    tag_93:\n        /* \"#utility.yul\":1777:1780   */\n      0x00\n        /* \"#utility.yul\":1805:1844   */\n      tag_163\n        /* \"#utility.yul\":1838:1843   */\n      dup3\n        /* \"#utility.yul\":1805:1844   */\n      tag_89\n      jump\t// in\n    tag_163:\n        /* \"#utility.yul\":1860:1921   */\n      tag_164\n        /* \"#utility.yul\":1914:1920   */\n      dup2\n        /* \"#utility.yul\":1909:1912   */\n      dup6\n        /* \"#utility.yul\":1860:1921   */\n      tag_90\n      jump\t// in\n    tag_164:\n        /* \"#utility.yul\":1853:1921   */\n      swap4\n      pop\n        /* \"#utility.yul\":1930:1995   */\n      tag_165\n        /* \"#utility.yul\":1988:1994   */\n      dup2\n        /* \"#utility.yul\":1983:1986   */\n      dup6\n        /* \"#utility.yul\":1976:1980   */\n      0x20\n        /* \"#utility.yul\":1969:1974   */\n      dup7\n        /* \"#utility.yul\":1965:1981   */\n      add\n        /* \"#utility.yul\":1930:1995   */\n      tag_91\n      jump\t// in\n    tag_165:\n        /* \"#utility.yul\":2020:2049   */\n      tag_166\n        /* \"#utility.yul\":2042:2048   */\n      dup2\n        /* \"#utility.yul\":2020:2049   */\n      tag_92\n      jump\t// in\n    tag_166:\n        /* \"#utility.yul\":2015:2018   */\n      dup5\n        /* \"#utility.yul\":2011:2050   */\n      add\n        /* \"#utility.yul\":2004:2050   */\n      swap2\n      pop\n        /* \"#utility.yul\":1781:2056   */\n      pop\n        /* \"#utility.yul\":1699:2056   */\n      swap3\n      swap2\n      pop\n      pop\n      jump\t// out\n        /* \"#utility.yul\":2062:2152   */\n    tag_94:\n        /* \"#utility.yul\":2096:2103   */\n      0x00\n        /* \"#utility.yul\":2139:2144   */\n      dup2\n        /* \"#utility.yul\":2132:2145   */\n      iszero\n        /* \"#utility.yul\":2125:2146   */\n      iszero\n        /* \"#utility.yul\":2114:2146   */\n      swap1\n      pop\n        /* \"#utility.yul\":2062:2152   */\n      swap2\n      swap1\n      pop\n      jump\t// out\n        /* \"#utility.yul\":2158:2257   */\n    tag_95:\n        /* \"#utility.yul\":2229:2250   */\n      tag_169\n        /* \"#utility.yul\":2244:2249   */\n      dup2\n        /* \"#utility.yul\":2229:2250   */\n      tag_94\n      jump\t// in\n    tag_169:\n        /* \"#utility.yul\":2224:2227   */\n      dup3\n        /* \"#utility.yul\":2217:2251   */\n      mstore\n        /* \"#utility.yul\":2158:2257   */\n      pop\n      pop\n      jump\t// out\n        /* \"#utility.yul\":2317:3161   */\n    tag_96:\n        /* \"#utility.yul\":2432:2435   */\n      0x00\n        /* \"#utility.yul\":2468:2472   */\n      0x60\n        /* \"#utility.yul\":2463:2466   */\n      dup4\n        /* \"#utility.yul\":2459:2473   */\n      add\n        /* \"#utility.yul\":2555:2559   */\n      0x00\n        /* \"#utility.yul\":2548:2553   */\n      dup4\n        /* \"#utility.yul\":2544:2560   */\n      add\n        /* \"#utility.yul\":2538:2561   */\n      mload\n        /* \"#utility.yul\":2608:2611   */\n      dup5\n        /* \"#utility.yul\":2602:2606   */\n      dup3\n        /* \"#utility.yul\":2598:2612   */\n      sub\n        /* \"#utility.yul\":2591:2595   */\n      0x00\n        /* \"#utility.yul\":2586:2589   */\n      dup7\n        /* \"#utility.yul\":2582:2596   */\n      add\n        /* \"#utility.yul\":2575:2613   */\n      mstore\n        /* \"#utility.yul\":2634:2707   */\n      tag_171\n        /* \"#utility.yul\":2702:2706   */\n      dup3\n        /* \"#utility.yul\":2688:2700   */\n      dup3\n        /* \"#utility.yul\":2634:2707   */\n      tag_93\n      jump\t// in\n    tag_171:\n        /* \"#utility.yul\":2626:2707   */\n      swap2\n      pop\n        /* \"#utility.yul\":2483:2718   */\n      pop\n        /* \"#utility.yul\":2801:2805   */\n      0x20\n        /* \"#utility.yul\":2794:2799   */\n      dup4\n        /* \"#utility.yul\":2790:2806   */\n      add\n        /* \"#utility.yul\":2784:2807   */\n      mload\n        /* \"#utility.yul\":2854:2857   */\n      dup5\n        /* \"#utility.yul\":2848:2852   */\n      dup3\n        /* \"#utility.yul\":2844:2858   */\n      sub\n        /* \"#utility.yul\":2837:2841   */\n      0x20\n        /* \"#utility.yul\":2832:2835   */\n      dup7\n        /* \"#utility.yul\":2828:2842   */\n      add\n        /* \"#utility.yul\":2821:2859   */\n      mstore\n        /* \"#utility.yul\":2880:2953   */\n      tag_172\n        /* \"#utility.yul\":2948:2952   */\n      dup3\n        /* \"#utility.yul\":2934:2946   */\n      dup3\n        /* \"#utility.yul\":2880:2953   */\n      tag_93\n      jump\t// in\n    tag_172:\n        /* \"#utility.yul\":2872:2953   */\n      swap2\n      pop\n        /* \"#utility.yul\":2728:2964   */\n      pop\n        /* \"#utility.yul\":3048:3052   */\n      0x40\n        /* \"#utility.yul\":3041:3046   */\n      dup4\n        /* \"#utility.yul\":3037:3053   */\n      add\n        /* \"#utility.yul\":3031:3054   */\n      mload\n        /* \"#utility.yul\":3067:3124   */\n      tag_173\n        /* \"#utility.yul\":3118:3122   */\n      0x40\n        /* \"#utility.yul\":3113:3116   */\n      dup7\n        /* \"#utility.yul\":3109:3123   */\n      add\n        /* \"#utility.yul\":3095:3107   */\n      dup3\n        /* \"#utility.yul\":3067:3124   */\n      tag_95\n      jump\t// in\n    tag_173:\n        /* \"#utility.yul\":2974:3134   */\n      pop\n        /* \"#utility.yul\":3151:3155   */\n      dup1\n        /* \"#utility.yul\":3144:3155   */\n      swap2\n      pop\n        /* \"#utility.yul\":2437:3161   */\n      pop\n        /* \"#utility.yul\":2317:3161   */\n      swap3\n      swap2\n      pop\n      pop\n      jump\t// out\n        /* \"#utility.yul\":3167:3532   */\n    tag_14:\n        /* \"#utility.yul\":3306:3310   */\n      0x00\n        /* \"#utility.yul\":3344:3346   */\n      0x20\n        /* \"#utility.yul\":3333:3342   */\n      dup3\n        /* \"#utility.yul\":3329:3347   */\n      add\n        /* \"#utility.yul\":3321:3347   */\n      swap1\n      pop\n        /* \"#utility.yul\":3393:3402   */\n      dup2\n        /* \"#utility.yul\":3387:3391   */\n      dup2\n        /* \"#utility.yul\":3383:3403   */\n      sub\n        /* \"#utility.yul\":3379:3380   */\n      0x00\n        /* \"#utility.yul\":3368:3377   */\n      dup4\n        /* \"#utility.yul\":3364:3381   */\n      add\n        /* \"#utility.yul\":3357:3404   */\n      mstore\n        /* \"#utility.yul\":3421:3525   */\n      tag_175\n        /* \"#utility.yul\":3520:3524   */\n      dup2\n        /* \"#utility.yul\":3511:3517   */\n      dup5\n        /* \"#utility.yul\":3421:3525   */\n      tag_96\n      jump\t// in\n    tag_175:\n        /* \"#utility.yul\":3413:3525   */\n      swap1\n      pop\n        /* \"#utility.yul\":3167:3532   */\n      swap3\n      swap2\n      pop\n      pop\n      jump\t// out\n        /* \"#utility.yul\":3538:3615   */\n    tag_97:\n        /* \"#utility.yul\":3575:3582   */\n      0x00\n        /* \"#utility.yul\":3604:3609   */\n      dup2\n        /* \"#utility.yul\":3593:3609   */\n      swap1\n      pop\n        /* \"#utility.yul\":3538:3615   */\n      swap2\n      swap1\n      pop\n      jump\t// out\n        /* \"#utility.yul\":3621:3739   */\n    tag_98:\n        /* \"#utility.yul\":3708:3732   */\n      tag_178\n        /* \"#utility.yul\":3726:3731   */\n      dup2\n        /* \"#utility.yul\":3708:3732   */\n      tag_97\n      jump\t// in\n    tag_178:\n        /* \"#utility.yul\":3703:3706   */\n      dup3\n        /* \"#utility.yul\":3696:3733   */\n      mstore\n        /* \"#utility.yul\":3621:3739   */\n      pop\n      pop\n      jump\t// out\n        /* \"#utility.yul\":3745:3967   */\n    tag_18:\n        /* \"#utility.yul\":3838:3842   */\n      0x00\n        /* \"#utility.yul\":3876:3878   */\n      0x20\n        /* \"#utility.yul\":3865:3874   */\n      dup3\n        /* \"#utility.yul\":3861:3879   */\n      add\n        /* \"#utility.yul\":3853:3879   */\n      swap1\n      pop\n        /* \"#utility.yul\":3889:3960   */\n      tag_180\n        /* \"#utility.yul\":3957:3958   */\n      0x00\n        /* \"#utility.yul\":3946:3955   */\n      dup4\n        /* \"#utility.yul\":3942:3959   */\n      add\n        /* \"#utility.yul\":3933:3939   */\n      dup5\n        /* \"#utility.yul\":3889:3960   */\n      tag_98\n      jump\t// in\n    tag_180:\n        /* \"#utility.yul\":3745:3967   */\n      swap3\n      swap2\n      pop\n      pop\n      jump\t// out\n        /* \"#utility.yul\":3973:4090   */\n    tag_99:\n        /* \"#utility.yul\":4082:4083   */\n      0x00\n        /* \"#utility.yul\":4079:4080   */\n      dup1\n        /* \"#utility.yul\":4072:4084   */\n      revert\n        /* \"#utility.yul\":4096:4213   */\n    tag_100:\n        /* \"#utility.yul\":4205:4206   */\n      0x00\n        /* \"#utility.yul\":4202:4203   */\n      dup1\n        /* \"#utility.yul\":4195:4207   */\n      revert\n        /* \"#utility.yul\":4219:4399   */\n    tag_101:\n        /* \"#utility.yul\":4267:4344   */\n      0x4e487b7100000000000000000000000000000000000000000000000000000000\n        /* \"#utility.yul\":4264:4265   */\n      0x00\n        /* \"#utility.yul\":4257:4345   */\n      mstore\n        /* \"#utility.yul\":4364:4368   */\n      0x41\n        /* \"#utility.yul\":4361:4362   */\n      0x04\n        /* \"#utility.yul\":4354:4369   */\n      mstore\n        /* \"#utility.yul\":4388:4392   */\n      0x24\n        /* \"#utility.yul\":4385:4386   */\n      0x00\n        /* \"#utility.yul\":4378:4393   */\n      revert\n        /* \"#utility.yul\":4405:4686   */\n    tag_102:\n        /* \"#utility.yul\":4488:4515   */\n      tag_185\n        /* \"#utility.yul\":4510:4514   */\n      dup3\n        /* \"#utility.yul\":4488:4515   */\n      tag_92\n      jump\t// in\n    tag_185:\n        /* \"#utility.yul\":4480:4486   */\n      dup2\n        /* \"#utility.yul\":4476:4516   */\n      add\n        /* \"#utility.yul\":4618:4624   */\n      dup2\n        /* \"#utility.yul\":4606:4616   */\n      dup2\n        /* \"#utility.yul\":4603:4625   */\n      lt\n        /* \"#utility.yul\":4582:4600   */\n      0xffffffffffffffff\n        /* \"#utility.yul\":4570:4580   */\n      dup3\n        /* \"#utility.yul\":4567:4601   */\n      gt\n        /* \"#utility.yul\":4564:4626   */\n      or\n        /* \"#utility.yul\":4561:4649   */\n      iszero\n      tag_186\n      jumpi\n        /* \"#utility.yul\":4629:4647   */\n      tag_187\n      tag_101\n      jump\t// in\n    tag_187:\n        /* \"#utility.yul\":4561:4649   */\n    tag_186:\n        /* \"#utility.yul\":4669:4679   */\n      dup1\n        /* \"#utility.yul\":4665:4667   */\n      0x40\n        /* \"#utility.yul\":4658:4680   */\n      mstore\n        /* \"#utility.yul\":4448:4686   */\n      pop\n        /* \"#utility.yul\":4405:4686   */\n      pop\n      pop\n      jump\t// out\n        /* \"#utility.yul\":4692:4821   */\n    tag_103:\n        /* \"#utility.yul\":4726:4732   */\n      0x00\n        /* \"#utility.yul\":4753:4773   */\n      tag_189\n      tag_82\n      jump\t// in\n    tag_189:\n        /* \"#utility.yul\":4743:4773   */\n      swap1\n      pop\n        /* \"#utility.yul\":4782:4815   */\n      tag_190\n        /* \"#utility.yul\":4810:4814   */\n      dup3\n        /* \"#utility.yul\":4802:4808   */\n      dup3\n        /* \"#utility.yul\":4782:4815   */\n      tag_102\n      jump\t// in\n    tag_190:\n        /* \"#utility.yul\":4692:4821   */\n      swap2\n      swap1\n      pop\n      jump\t// out\n        /* \"#utility.yul\":4827:5135   */\n    tag_104:\n        /* \"#utility.yul\":4889:4893   */\n      0x00\n        /* \"#utility.yul\":4979:4997   */\n      0xffffffffffffffff\n        /* \"#utility.yul\":4971:4977   */\n      dup3\n        /* \"#utility.yul\":4968:4998   */\n      gt\n        /* \"#utility.yul\":4965:5021   */\n      iszero\n      tag_192\n      jumpi\n        /* \"#utility.yul\":5001:5019   */\n      tag_193\n      tag_101\n      jump\t// in\n    tag_193:\n        /* \"#utility.yul\":4965:5021   */\n    tag_192:\n        /* \"#utility.yul\":5039:5068   */\n      tag_194\n        /* \"#utility.yul\":5061:5067   */\n      dup3\n        /* \"#utility.yul\":5039:5068   */\n      tag_92\n      jump\t// in\n    tag_194:\n        /* \"#utility.yul\":5031:5068   */\n      swap1\n      pop\n        /* \"#utility.yul\":5123:5127   */\n      0x20\n        /* \"#utility.yul\":5117:5121   */\n      dup2\n        /* \"#utility.yul\":5113:5128   */\n      add\n        /* \"#utility.yul\":5105:5128   */\n      swap1\n      pop\n        /* \"#utility.yul\":4827:5135   */\n      swap2\n      swap1\n      pop\n      jump\t// out\n        /* \"#utility.yul\":5141:5289   */\n    tag_105:\n        /* \"#utility.yul\":5239:5245   */\n      dup3\n        /* \"#utility.yul\":5234:5237   */\n      dup2\n        /* \"#utility.yul\":5229:5232   */\n      dup4\n        /* \"#utility.yul\":5216:5246   */\n      calldatacopy\n        /* \"#utility.yul\":5280:5281   */\n      0x00\n        /* \"#utility.yul\":5271:5277   */\n      dup4\n        /* \"#utility.yul\":5266:5269   */\n      dup4\n        /* \"#utility.yul\":5262:5278   */\n      add\n        /* \"#utility.yul\":5255:5282   */\n      mstore\n        /* \"#utility.yul\":5141:5289   */\n      pop\n      pop\n      pop\n      jump\t// out\n        /* \"#utility.yul\":5295:5720   */\n    tag_106:\n        /* \"#utility.yul\":5373:5378   */\n      0x00\n        /* \"#utility.yul\":5398:5464   */\n      tag_197\n        /* \"#utility.yul\":5414:5463   */\n      tag_198\n        /* \"#utility.yul\":5456:5462   */\n      dup5\n        /* \"#utility.yul\":5414:5463   */\n      tag_104\n      jump\t// in\n    tag_198:\n        /* \"#utility.yul\":5398:5464   */\n      tag_103\n      jump\t// in\n    tag_197:\n        /* \"#utility.yul\":5389:5464   */\n      swap1\n      pop\n        /* \"#utility.yul\":5487:5493   */\n      dup3\n        /* \"#utility.yul\":5480:5485   */\n      dup2\n        /* \"#utility.yul\":5473:5494   */\n      mstore\n        /* \"#utility.yul\":5525:5529   */\n      0x20\n        /* \"#utility.yul\":5518:5523   */\n      dup2\n        /* \"#utility.yul\":5514:5530   */\n      add\n        /* \"#utility.yul\":5563:5566   */\n      dup5\n        /* \"#utility.yul\":5554:5560   */\n      dup5\n        /* \"#utility.yul\":5549:5552   */\n      dup5\n        /* \"#utility.yul\":5545:5561   */\n      add\n        /* \"#utility.yul\":5542:5567   */\n      gt\n        /* \"#utility.yul\":5539:5651   */\n      iszero\n      tag_199\n      jumpi\n        /* \"#utility.yul\":5570:5649   */\n      tag_200\n      tag_100\n      jump\t// in\n    tag_200:\n        /* \"#utility.yul\":5539:5651   */\n    tag_199:\n        /* \"#utility.yul\":5660:5714   */\n      tag_201\n        /* \"#utility.yul\":5707:5713   */\n      dup5\n        /* \"#utility.yul\":5702:5705   */\n      dup3\n        /* \"#utility.yul\":5697:5700   */\n      dup6\n        /* \"#utility.yul\":5660:5714   */\n      tag_105\n      jump\t// in\n    tag_201:\n        /* \"#utility.yul\":5379:5720   */\n      pop\n        /* \"#utility.yul\":5295:5720   */\n      swap4\n      swap3\n      pop\n      pop\n      pop\n      jump\t// out\n        /* \"#utility.yul\":5740:6080   */\n    tag_107:\n        /* \"#utility.yul\":5796:5801   */\n      0x00\n        /* \"#utility.yul\":5845:5848   */\n      dup3\n        /* \"#utility.yul\":5838:5842   */\n      0x1f\n        /* \"#utility.yul\":5830:5836   */\n      dup4\n        /* \"#utility.yul\":5826:5843   */\n      add\n        /* \"#utility.yul\":5822:5849   */\n      slt\n        /* \"#utility.yul\":5812:5934   */\n      tag_203\n      jumpi\n        /* \"#utility.yul\":5853:5932   */\n      tag_204\n      tag_99\n      jump\t// in\n    tag_204:\n        /* \"#utility.yul\":5812:5934   */\n    tag_203:\n        /* \"#utility.yul\":5970:5976   */\n      dup2\n        /* \"#utility.yul\":5957:5977   */\n      calldataload\n        /* \"#utility.yul\":5995:6074   */\n      tag_205\n        /* \"#utility.yul\":6070:6073   */\n      dup5\n        /* \"#utility.yul\":6062:6068   */\n      dup3\n        /* \"#utility.yul\":6055:6059   */\n      0x20\n        /* \"#utility.yul\":6047:6053   */\n      dup7\n        /* \"#utility.yul\":6043:6060   */\n      add\n        /* \"#utility.yul\":5995:6074   */\n      tag_106\n      jump\t// in\n    tag_205:\n        /* \"#utility.yul\":5986:6074   */\n      swap2\n      pop\n        /* \"#utility.yul\":5802:6080   */\n      pop\n        /* \"#utility.yul\":5740:6080   */\n      swap3\n      swap2\n      pop\n      pop\n      jump\t// out\n        /* \"#utility.yul\":6086:6920   */\n    tag_21:\n        /* \"#utility.yul\":6174:6180   */\n      0x00\n        /* \"#utility.yul\":6182:6188   */\n      dup1\n        /* \"#utility.yul\":6231:6233   */\n      0x40\n        /* \"#utility.yul\":6219:6228   */\n      dup4\n        /* \"#utility.yul\":6210:6217   */\n      dup6\n        /* \"#utility.yul\":6206:6229   */\n      sub\n        /* \"#utility.yul\":6202:6234   */\n      slt\n        /* \"#utility.yul\":6199:6318   */\n      iszero\n      tag_207\n      jumpi\n        /* \"#utility.yul\":6237:6316   */\n      tag_208\n      tag_83\n      jump\t// in\n    tag_208:\n        /* \"#utility.yul\":6199:6318   */\n    tag_207:\n        /* \"#utility.yul\":6385:6386   */\n      0x00\n        /* \"#utility.yul\":6374:6383   */\n      dup4\n        /* \"#utility.yul\":6370:6387   */\n      add\n        /* \"#utility.yul\":6357:6388   */\n      calldataload\n        /* \"#utility.yul\":6415:6433   */\n      0xffffffffffffffff\n        /* \"#utility.yul\":6407:6413   */\n      dup2\n        /* \"#utility.yul\":6404:6434   */\n      gt\n        /* \"#utility.yul\":6401:6518   */\n      iszero\n      tag_209\n      jumpi\n        /* \"#utility.yul\":6437:6516   */\n      tag_210\n      tag_84\n      jump\t// in\n    tag_210:\n        /* \"#utility.yul\":6401:6518   */\n    tag_209:\n        /* \"#utility.yul\":6542:6605   */\n      tag_211\n        /* \"#utility.yul\":6597:6604   */\n      dup6\n        /* \"#utility.yul\":6588:6594   */\n      dup3\n        /* \"#utility.yul\":6577:6586   */\n      dup7\n        /* \"#utility.yul\":6573:6595   */\n      add\n        /* \"#utility.yul\":6542:6605   */\n      tag_107\n      jump\t// in\n    tag_211:\n        /* \"#utility.yul\":6532:6605   */\n      swap3\n      pop\n        /* \"#utility.yul\":6328:6615   */\n      pop\n        /* \"#utility.yul\":6682:6684   */\n      0x20\n        /* \"#utility.yul\":6671:6680   */\n      dup4\n        /* \"#utility.yul\":6667:6685   */\n      add\n        /* \"#utility.yul\":6654:6686   */\n      calldataload\n        /* \"#utility.yul\":6713:6731   */\n      0xffffffffffffffff\n        /* \"#utility.yul\":6705:6711   */\n      dup2\n        /* \"#utility.yul\":6702:6732   */\n      gt\n        /* \"#utility.yul\":6699:6816   */\n      iszero\n      tag_212\n      jumpi\n        /* \"#utility.yul\":6735:6814   */\n      tag_213\n      tag_84\n      jump\t// in\n    tag_213:\n        /* \"#utility.yul\":6699:6816   */\n    tag_212:\n        /* \"#utility.yul\":6840:6903   */\n      tag_214\n        /* \"#utility.yul\":6895:6902   */\n      dup6\n        /* \"#utility.yul\":6886:6892   */\n      dup3\n        /* \"#utility.yul\":6875:6884   */\n      dup7\n        /* \"#utility.yul\":6871:6893   */\n      add\n        /* \"#utility.yul\":6840:6903   */\n      tag_107\n      jump\t// in\n    tag_214:\n        /* \"#utility.yul\":6830:6903   */\n      swap2\n      pop\n        /* \"#utility.yul\":6625:6913   */\n      pop\n        /* \"#utility.yul\":6086:6920   */\n      swap3\n      pop\n      swap3\n      swap1\n      pop\n      jump\t// out\n        /* \"#utility.yul\":6926:7040   */\n    tag_108:\n        /* \"#utility.yul\":6993:6999   */\n      0x00\n        /* \"#utility.yul\":7027:7032   */\n      dup2\n        /* \"#utility.yul\":7021:7033   */\n      mload\n        /* \"#utility.yul\":7011:7033   */\n      swap1\n      pop\n        /* \"#utility.yul\":6926:7040   */\n      swap2\n      swap1\n      pop\n      jump\t// out\n        /* \"#utility.yul\":7046:7230   */\n    tag_109:\n        /* \"#utility.yul\":7145:7156   */\n      0x00\n        /* \"#utility.yul\":7179:7185   */\n      dup3\n        /* \"#utility.yul\":7174:7177   */\n      dup3\n        /* \"#utility.yul\":7167:7186   */\n      mstore\n        /* \"#utility.yul\":7219:7223   */\n      0x20\n        /* \"#utility.yul\":7214:7217   */\n      dup3\n        /* \"#utility.yul\":7210:7224   */\n      add\n        /* \"#utility.yul\":7195:7224   */\n      swap1\n      pop\n        /* \"#utility.yul\":7046:7230   */\n      swap3\n      swap2\n      pop\n      pop\n      jump\t// out\n        /* \"#utility.yul\":7236:7368   */\n    tag_110:\n        /* \"#utility.yul\":7303:7307   */\n      0x00\n        /* \"#utility.yul\":7326:7329   */\n      dup2\n        /* \"#utility.yul\":7318:7329   */\n      swap1\n      pop\n        /* \"#utility.yul\":7356:7360   */\n      0x20\n        /* \"#utility.yul\":7351:7354   */\n      dup3\n        /* \"#utility.yul\":7347:7361   */\n      add\n        /* \"#utility.yul\":7339:7361   */\n      swap1\n      pop\n        /* \"#utility.yul\":7236:7368   */\n      swap2\n      swap1\n      pop\n      jump\t// out\n        /* \"#utility.yul\":7374:7482   */\n    tag_111:\n        /* \"#utility.yul\":7451:7475   */\n      tag_219\n        /* \"#utility.yul\":7469:7474   */\n      dup2\n        /* \"#utility.yul\":7451:7475   */\n      tag_86\n      jump\t// in\n    tag_219:\n        /* \"#utility.yul\":7446:7449   */\n      dup3\n        /* \"#utility.yul\":7439:7476   */\n      mstore\n        /* \"#utility.yul\":7374:7482   */\n      pop\n      pop\n      jump\t// out\n        /* \"#utility.yul\":7488:7667   */\n    tag_112:\n        /* \"#utility.yul\":7557:7567   */\n      0x00\n        /* \"#utility.yul\":7578:7624   */\n      tag_221\n        /* \"#utility.yul\":7620:7623   */\n      dup4\n        /* \"#utility.yul\":7612:7618   */\n      dup4\n        /* \"#utility.yul\":7578:7624   */\n      tag_111\n      jump\t// in\n    tag_221:\n        /* \"#utility.yul\":7656:7660   */\n      0x20\n        /* \"#utility.yul\":7651:7654   */\n      dup4\n        /* \"#utility.yul\":7647:7661   */\n      add\n        /* \"#utility.yul\":7633:7661   */\n      swap1\n      pop\n        /* \"#utility.yul\":7488:7667   */\n      swap3\n      swap2\n      pop\n      pop\n      jump\t// out\n        /* \"#utility.yul\":7673:7786   */\n    tag_113:\n        /* \"#utility.yul\":7743:7747   */\n      0x00\n        /* \"#utility.yul\":7775:7779   */\n      0x20\n        /* \"#utility.yul\":7770:7773   */\n      dup3\n        /* \"#utility.yul\":7766:7780   */\n      add\n        /* \"#utility.yul\":7758:7780   */\n      swap1\n      pop\n        /* \"#utility.yul\":7673:7786   */\n      swap2\n      swap1\n      pop\n      jump\t// out\n        /* \"#utility.yul\":7822:8554   */\n    tag_114:\n        /* \"#utility.yul\":7941:7944   */\n      0x00\n        /* \"#utility.yul\":7970:8024   */\n      tag_224\n        /* \"#utility.yul\":8018:8023   */\n      dup3\n        /* \"#utility.yul\":7970:8024   */\n      tag_108\n      jump\t// in\n    tag_224:\n        /* \"#utility.yul\":8040:8126   */\n      tag_225\n        /* \"#utility.yul\":8119:8125   */\n      dup2\n        /* \"#utility.yul\":8114:8117   */\n      dup6\n        /* \"#utility.yul\":8040:8126   */\n      tag_109\n      jump\t// in\n    tag_225:\n        /* \"#utility.yul\":8033:8126   */\n      swap4\n      pop\n        /* \"#utility.yul\":8150:8206   */\n      tag_226\n        /* \"#utility.yul\":8200:8205   */\n      dup4\n        /* \"#utility.yul\":8150:8206   */\n      tag_110\n      jump\t// in\n    tag_226:\n        /* \"#utility.yul\":8229:8236   */\n      dup1\n        /* \"#utility.yul\":8260:8261   */\n      0x00\n        /* \"#utility.yul\":8245:8529   */\n    tag_227:\n        /* \"#utility.yul\":8270:8276   */\n      dup4\n        /* \"#utility.yul\":8267:8268   */\n      dup2\n        /* \"#utility.yul\":8264:8277   */\n      lt\n        /* \"#utility.yul\":8245:8529   */\n      iszero\n      tag_229\n      jumpi\n        /* \"#utility.yul\":8346:8352   */\n      dup2\n        /* \"#utility.yul\":8340:8353   */\n      mload\n        /* \"#utility.yul\":8373:8436   */\n      tag_230\n        /* \"#utility.yul\":8432:8435   */\n      dup9\n        /* \"#utility.yul\":8417:8430   */\n      dup3\n        /* \"#utility.yul\":8373:8436   */\n      tag_112\n      jump\t// in\n    tag_230:\n        /* \"#utility.yul\":8366:8436   */\n      swap8\n      pop\n        /* \"#utility.yul\":8459:8519   */\n      tag_231\n        /* \"#utility.yul\":8512:8518   */\n      dup4\n        /* \"#utility.yul\":8459:8519   */\n      tag_113\n      jump\t// in\n    tag_231:\n        /* \"#utility.yul\":8449:8519   */\n      swap3\n      pop\n        /* \"#utility.yul\":8305:8529   */\n      pop\n        /* \"#utility.yul\":8292:8293   */\n      0x01\n        /* \"#utility.yul\":8289:8290   */\n      dup2\n        /* \"#utility.yul\":8285:8294   */\n      add\n        /* \"#utility.yul\":8280:8294   */\n      swap1\n      pop\n        /* \"#utility.yul\":8245:8529   */\n      jump(tag_227)\n    tag_229:\n        /* \"#utility.yul\":8249:8263   */\n      pop\n        /* \"#utility.yul\":8545:8548   */\n      dup6\n        /* \"#utility.yul\":8538:8548   */\n      swap4\n      pop\n        /* \"#utility.yul\":7946:8554   */\n      pop\n      pop\n      pop\n        /* \"#utility.yul\":7822:8554   */\n      swap3\n      swap2\n      pop\n      pop\n      jump\t// out\n        /* \"#utility.yul\":8560:8933   */\n    tag_26:\n        /* \"#utility.yul\":8703:8707   */\n      0x00\n        /* \"#utility.yul\":8741:8743   */\n      0x20\n        /* \"#utility.yul\":8730:8739   */\n      dup3\n        /* \"#utility.yul\":8726:8744   */\n      add\n        /* \"#utility.yul\":8718:8744   */\n      swap1\n      pop\n        /* \"#utility.yul\":8790:8799   */\n      dup2\n        /* \"#utility.yul\":8784:8788   */\n      dup2\n        /* \"#utility.yul\":8780:8800   */\n      sub\n        /* \"#utility.yul\":8776:8777   */\n      0x00\n        /* \"#utility.yul\":8765:8774   */\n      dup4\n        /* \"#utility.yul\":8761:8778   */\n      add\n        /* \"#utility.yul\":8754:8801   */\n      mstore\n        /* \"#utility.yul\":8818:8926   */\n      tag_233\n        /* \"#utility.yul\":8921:8925   */\n      dup2\n        /* \"#utility.yul\":8912:8918   */\n      dup5\n        /* \"#utility.yul\":8818:8926   */\n      tag_114\n      jump\t// in\n    tag_233:\n        /* \"#utility.yul\":8810:8926   */\n      swap1\n      pop\n        /* \"#utility.yul\":8560:8933   */\n      swap3\n      swap2\n      pop\n      pop\n      jump\t// out\n        /* \"#utility.yul\":8939:9061   */\n    tag_115:\n        /* \"#utility.yul\":9012:9036   */\n      tag_235\n        /* \"#utility.yul\":9030:9035   */\n      dup2\n        /* \"#utility.yul\":9012:9036   */\n      tag_97\n      jump\t// in\n    tag_235:\n        /* \"#utility.yul\":9005:9010   */\n      dup2\n        /* \"#utility.yul\":9002:9037   */\n      eq\n        /* \"#utility.yul\":8992:9055   */\n      tag_236\n      jumpi\n        /* \"#utility.yul\":9051:9052   */\n      0x00\n        /* \"#utility.yul\":9048:9049   */\n      dup1\n        /* \"#utility.yul\":9041:9053   */\n      revert\n        /* \"#utility.yul\":8992:9055   */\n    tag_236:\n        /* \"#utility.yul\":8939:9061   */\n      pop\n      jump\t// out\n        /* \"#utility.yul\":9067:9206   */\n    tag_116:\n        /* \"#utility.yul\":9113:9118   */\n      0x00\n        /* \"#utility.yul\":9151:9157   */\n      dup2\n        /* \"#utility.yul\":9138:9158   */\n      calldataload\n        /* \"#utility.yul\":9129:9158   */\n      swap1\n      pop\n        /* \"#utility.yul\":9167:9200   */\n      tag_238\n        /* \"#utility.yul\":9194:9199   */\n      dup2\n        /* \"#utility.yul\":9167:9200   */\n      tag_115\n      jump\t// in\n    tag_238:\n        /* \"#utility.yul\":9067:9206   */\n      swap3\n      swap2\n      pop\n      pop\n      jump\t// out\n        /* \"#utility.yul\":9212:9541   */\n    tag_29:\n        /* \"#utility.yul\":9271:9277   */\n      0x00\n        /* \"#utility.yul\":9320:9322   */\n      0x20\n        /* \"#utility.yul\":9308:9317   */\n      dup3\n        /* \"#utility.yul\":9299:9306   */\n      dup5\n        /* \"#utility.yul\":9295:9318   */\n      sub\n        /* \"#utility.yul\":9291:9323   */\n      slt\n        /* \"#utility.yul\":9288:9407   */\n      iszero\n      tag_240\n      jumpi\n        /* \"#utility.yul\":9326:9405   */\n      tag_241\n      tag_83\n      jump\t// in\n    tag_241:\n        /* \"#utility.yul\":9288:9407   */\n    tag_240:\n        /* \"#utility.yul\":9446:9447   */\n      0x00\n        /* \"#utility.yul\":9471:9524   */\n      tag_242\n        /* \"#utility.yul\":9516:9523   */\n      dup5\n        /* \"#utility.yul\":9507:9513   */\n      dup3\n        /* \"#utility.yul\":9496:9505   */\n      dup6\n        /* \"#utility.yul\":9492:9514   */\n      add\n        /* \"#utility.yul\":9471:9524   */\n      tag_116\n      jump\t// in\n    tag_242:\n        /* \"#utility.yul\":9461:9524   */\n      swap2\n      pop\n        /* \"#utility.yul\":9417:9534   */\n      pop\n        /* \"#utility.yul\":9212:9541   */\n      swap3\n      swap2\n      pop\n      pop\n      jump\t// out\n        /* \"#utility.yul\":9547:9665   */\n    tag_117:\n        /* \"#utility.yul\":9634:9658   */\n      tag_244\n        /* \"#utility.yul\":9652:9657   */\n      dup2\n        /* \"#utility.yul\":9634:9658   */\n      tag_86\n      jump\t// in\n    tag_244:\n        /* \"#utility.yul\":9629:9632   */\n      dup3\n        /* \"#utility.yul\":9622:9659   */\n      mstore\n        /* \"#utility.yul\":9547:9665   */\n      pop\n      pop\n      jump\t// out\n        /* \"#utility.yul\":9671:9893   */\n    tag_32:\n        /* \"#utility.yul\":9764:9768   */\n      0x00\n        /* \"#utility.yul\":9802:9804   */\n      0x20\n        /* \"#utility.yul\":9791:9800   */\n      dup3\n        /* \"#utility.yul\":9787:9805   */\n      add\n        /* \"#utility.yul\":9779:9805   */\n      swap1\n      pop\n        /* \"#utility.yul\":9815:9886   */\n      tag_246\n        /* \"#utility.yul\":9883:9884   */\n      0x00\n        /* \"#utility.yul\":9872:9881   */\n      dup4\n        /* \"#utility.yul\":9868:9885   */\n      add\n        /* \"#utility.yul\":9859:9865   */\n      dup5\n        /* \"#utility.yul\":9815:9886   */\n      tag_117\n      jump\t// in\n    tag_246:\n        /* \"#utility.yul\":9671:9893   */\n      swap3\n      swap2\n      pop\n      pop\n      jump\t// out\n        /* \"#utility.yul\":9899:10068   */\n    tag_118:\n        /* \"#utility.yul\":9983:9994   */\n      0x00\n        /* \"#utility.yul\":10017:10023   */\n      dup3\n        /* \"#utility.yul\":10012:10015   */\n      dup3\n        /* \"#utility.yul\":10005:10024   */\n      mstore\n        /* \"#utility.yul\":10057:10061   */\n      0x20\n        /* \"#utility.yul\":10052:10055   */\n      dup3\n        /* \"#utility.yul\":10048:10062   */\n      add\n        /* \"#utility.yul\":10033:10062   */\n      swap1\n      pop\n        /* \"#utility.yul\":9899:10068   */\n      swap3\n      swap2\n      pop\n      pop\n      jump\t// out\n        /* \"#utility.yul\":10074:10451   */\n    tag_119:\n        /* \"#utility.yul\":10162:10165   */\n      0x00\n        /* \"#utility.yul\":10190:10229   */\n      tag_249\n        /* \"#utility.yul\":10223:10228   */\n      dup3\n        /* \"#utility.yul\":10190:10229   */\n      tag_89\n      jump\t// in\n    tag_249:\n        /* \"#utility.yul\":10245:10316   */\n      tag_250\n        /* \"#utility.yul\":10309:10315   */\n      dup2\n        /* \"#utility.yul\":10304:10307   */\n      dup6\n        /* \"#utility.yul\":10245:10316   */\n      tag_118\n      jump\t// in\n    tag_250:\n        /* \"#utility.yul\":10238:10316   */\n      swap4\n      pop\n        /* \"#utility.yul\":10325:10390   */\n      tag_251\n        /* \"#utility.yul\":10383:10389   */\n      dup2\n        /* \"#utility.yul\":10378:10381   */\n      dup6\n        /* \"#utility.yul\":10371:10375   */\n      0x20\n        /* \"#utility.yul\":10364:10369   */\n      dup7\n        /* \"#utility.yul\":10360:10376   */\n      add\n        /* \"#utility.yul\":10325:10390   */\n      tag_91\n      jump\t// in\n    tag_251:\n        /* \"#utility.yul\":10415:10444   */\n      tag_252\n        /* \"#utility.yul\":10437:10443   */\n      dup2\n        /* \"#utility.yul\":10415:10444   */\n      tag_92\n      jump\t// in\n    tag_252:\n        /* \"#utility.yul\":10410:10413   */\n      dup5\n        /* \"#utility.yul\":10406:10445   */\n      add\n        /* \"#utility.yul\":10399:10445   */\n      swap2\n      pop\n        /* \"#utility.yul\":10166:10451   */\n      pop\n        /* \"#utility.yul\":10074:10451   */\n      swap3\n      swap2\n      pop\n      pop\n      jump\t// out\n        /* \"#utility.yul\":10457:10566   */\n    tag_120:\n        /* \"#utility.yul\":10538:10559   */\n      tag_254\n        /* \"#utility.yul\":10553:10558   */\n      dup2\n        /* \"#utility.yul\":10538:10559   */\n      tag_94\n      jump\t// in\n    tag_254:\n        /* \"#utility.yul\":10533:10536   */\n      dup3\n        /* \"#utility.yul\":10526:10560   */\n      mstore\n        /* \"#utility.yul\":10457:10566   */\n      pop\n      pop\n      jump\t// out\n        /* \"#utility.yul\":10572:11184   */\n    tag_37:\n        /* \"#utility.yul\":10755:10759   */\n      0x00\n        /* \"#utility.yul\":10793:10795   */\n      0x60\n        /* \"#utility.yul\":10782:10791   */\n      dup3\n        /* \"#utility.yul\":10778:10796   */\n      add\n        /* \"#utility.yul\":10770:10796   */\n      swap1\n      pop\n        /* \"#utility.yul\":10842:10851   */\n      dup2\n        /* \"#utility.yul\":10836:10840   */\n      dup2\n        /* \"#utility.yul\":10832:10852   */\n      sub\n        /* \"#utility.yul\":10828:10829   */\n      0x00\n        /* \"#utility.yul\":10817:10826   */\n      dup4\n        /* \"#utility.yul\":10813:10830   */\n      add\n        /* \"#utility.yul\":10806:10853   */\n      mstore\n        /* \"#utility.yul\":10870:10948   */\n      tag_256\n        /* \"#utility.yul\":10943:10947   */\n      dup2\n        /* \"#utility.yul\":10934:10940   */\n      dup7\n        /* \"#utility.yul\":10870:10948   */\n      tag_119\n      jump\t// in\n    tag_256:\n        /* \"#utility.yul\":10862:10948   */\n      swap1\n      pop\n        /* \"#utility.yul\":10995:11004   */\n      dup2\n        /* \"#utility.yul\":10989:10993   */\n      dup2\n        /* \"#utility.yul\":10985:11005   */\n      sub\n        /* \"#utility.yul\":10980:10982   */\n      0x20\n        /* \"#utility.yul\":10969:10978   */\n      dup4\n        /* \"#utility.yul\":10965:10983   */\n      add\n        /* \"#utility.yul\":10958:11006   */\n      mstore\n        /* \"#utility.yul\":11023:11101   */\n      tag_257\n        /* \"#utility.yul\":11096:11100   */\n      dup2\n        /* \"#utility.yul\":11087:11093   */\n      dup6\n        /* \"#utility.yul\":11023:11101   */\n      tag_119\n      jump\t// in\n    tag_257:\n        /* \"#utility.yul\":11015:11101   */\n      swap1\n      pop\n        /* \"#utility.yul\":11111:11177   */\n      tag_258\n        /* \"#utility.yul\":11173:11175   */\n      0x40\n        /* \"#utility.yul\":11162:11171   */\n      dup4\n        /* \"#utility.yul\":11158:11176   */\n      add\n        /* \"#utility.yul\":11149:11155   */\n      dup5\n        /* \"#utility.yul\":11111:11177   */\n      tag_120\n      jump\t// in\n    tag_258:\n        /* \"#utility.yul\":10572:11184   */\n      swap5\n      swap4\n      pop\n      pop\n      pop\n      pop\n      jump\t// out\n        /* \"#utility.yul\":11190:11361   */\n    tag_121:\n        /* \"#utility.yul\":11330:11353   */\n      0x417574686f7220646f6573206e6f742065786973740000000000000000000000\n        /* \"#utility.yul\":11326:11327   */\n      0x00\n        /* \"#utility.yul\":11318:11324   */\n      dup3\n        /* \"#utility.yul\":11314:11328   */\n      add\n        /* \"#utility.yul\":11307:11354   */\n      mstore\n        /* \"#utility.yul\":11190:11361   */\n      pop\n      jump\t// out\n        /* \"#utility.yul\":11367:11733   */\n    tag_122:\n        /* \"#utility.yul\":11509:11512   */\n      0x00\n        /* \"#utility.yul\":11530:11597   */\n      tag_261\n        /* \"#utility.yul\":11594:11596   */\n      0x15\n        /* \"#utility.yul\":11589:11592   */\n      dup4\n        /* \"#utility.yul\":11530:11597   */\n      tag_118\n      jump\t// in\n    tag_261:\n        /* \"#utility.yul\":11523:11597   */\n      swap2\n      pop\n        /* \"#utility.yul\":11606:11699   */\n      tag_262\n        /* \"#utility.yul\":11695:11698   */\n      dup3\n        /* \"#utility.yul\":11606:11699   */\n      tag_121\n      jump\t// in\n    tag_262:\n        /* \"#utility.yul\":11724:11726   */\n      0x20\n        /* \"#utility.yul\":11719:11722   */\n      dup3\n        /* \"#utility.yul\":11715:11727   */\n      add\n        /* \"#utility.yul\":11708:11727   */\n      swap1\n      pop\n        /* \"#utility.yul\":11367:11733   */\n      swap2\n      swap1\n      pop\n      jump\t// out\n        /* \"#utility.yul\":11739:12158   */\n    tag_43:\n        /* \"#utility.yul\":11905:11909   */\n      0x00\n        /* \"#utility.yul\":11943:11945   */\n      0x20\n        /* \"#utility.yul\":11932:11941   */\n      dup3\n        /* \"#utility.yul\":11928:11946   */\n      add\n        /* \"#utility.yul\":11920:11946   */\n      swap1\n      pop\n        /* \"#utility.yul\":11992:12001   */\n      dup2\n        /* \"#utility.yul\":11986:11990   */\n      dup2\n        /* \"#utility.yul\":11982:12002   */\n      sub\n        /* \"#utility.yul\":11978:11979   */\n      0x00\n        /* \"#utility.yul\":11967:11976   */\n      dup4\n        /* \"#utility.yul\":11963:11980   */\n      add\n        /* \"#utility.yul\":11956:12003   */\n      mstore\n        /* \"#utility.yul\":12020:12151   */\n      tag_264\n        /* \"#utility.yul\":12146:12150   */\n      dup2\n        /* \"#utility.yul\":12020:12151   */\n      tag_122\n      jump\t// in\n    tag_264:\n        /* \"#utility.yul\":12012:12151   */\n      swap1\n      pop\n        /* \"#utility.yul\":11739:12158   */\n      swap2\n      swap1\n      pop\n      jump\t// out\n        /* \"#utility.yul\":12164:12344   */\n    tag_123:\n        /* \"#utility.yul\":12212:12289   */\n      0x4e487b7100000000000000000000000000000000000000000000000000000000\n        /* \"#utility.yul\":12209:12210   */\n      0x00\n        /* \"#utility.yul\":12202:12290   */\n      mstore\n        /* \"#utility.yul\":12309:12313   */\n      0x22\n        /* \"#utility.yul\":12306:12307   */\n      0x04\n        /* \"#utility.yul\":12299:12314   */\n      mstore\n        /* \"#utility.yul\":12333:12337   */\n      0x24\n        /* \"#utility.yul\":12330:12331   */\n      0x00\n        /* \"#utility.yul\":12323:12338   */\n      revert\n        /* \"#utility.yul\":12350:12670   */\n    tag_45:\n        /* \"#utility.yul\":12394:12400   */\n      0x00\n        /* \"#utility.yul\":12431:12432   */\n      0x02\n        /* \"#utility.yul\":12425:12429   */\n      dup3\n        /* \"#utility.yul\":12421:12433   */\n      div\n        /* \"#utility.yul\":12411:12433   */\n      swap1\n      pop\n        /* \"#utility.yul\":12478:12479   */\n      0x01\n        /* \"#utility.yul\":12472:12476   */\n      dup3\n        /* \"#utility.yul\":12468:12480   */\n      and\n        /* \"#utility.yul\":12499:12517   */\n      dup1\n        /* \"#utility.yul\":12489:12570   */\n      tag_267\n      jumpi\n        /* \"#utility.yul\":12555:12559   */\n      0x7f\n        /* \"#utility.yul\":12547:12553   */\n      dup3\n        /* \"#utility.yul\":12543:12560   */\n      and\n        /* \"#utility.yul\":12533:12560   */\n      swap2\n      pop\n        /* \"#utility.yul\":12489:12570   */\n    tag_267:\n        /* \"#utility.yul\":12617:12619   */\n      0x20\n        /* \"#utility.yul\":12609:12615   */\n      dup3\n        /* \"#utility.yul\":12606:12620   */\n      lt\n        /* \"#utility.yul\":12586:12604   */\n      dup2\n        /* \"#utility.yul\":12583:12621   */\n      sub\n        /* \"#utility.yul\":12580:12664   */\n      tag_268\n      jumpi\n        /* \"#utility.yul\":12636:12654   */\n      tag_269\n      tag_123\n      jump\t// in\n    tag_269:\n        /* \"#utility.yul\":12580:12664   */\n    tag_268:\n        /* \"#utility.yul\":12401:12670   */\n      pop\n        /* \"#utility.yul\":12350:12670   */\n      swap2\n      swap1\n      pop\n      jump\t// out\n        /* \"#utility.yul\":12676:12847   */\n    tag_124:\n        /* \"#utility.yul\":12816:12839   */\n      0x417574686f7220616c7265616479206578697374730000000000000000000000\n        /* \"#utility.yul\":12812:12813   */\n      0x00\n        /* \"#utility.yul\":12804:12810   */\n      dup3\n        /* \"#utility.yul\":12800:12814   */\n      add\n        /* \"#utility.yul\":12793:12840   */\n      mstore\n        /* \"#utility.yul\":12676:12847   */\n      pop\n      jump\t// out\n        /* \"#utility.yul\":12853:13219   */\n    tag_125:\n        /* \"#utility.yul\":12995:12998   */\n      0x00\n        /* \"#utility.yul\":13016:13083   */\n      tag_272\n        /* \"#utility.yul\":13080:13082   */\n      0x15\n        /* \"#utility.yul\":13075:13078   */\n      dup4\n        /* \"#utility.yul\":13016:13083   */\n      tag_118\n      jump\t// in\n    tag_272:\n        /* \"#utility.yul\":13009:13083   */\n      swap2\n      pop\n        /* \"#utility.yul\":13092:13185   */\n      tag_273\n        /* \"#utility.yul\":13181:13184   */\n      dup3\n        /* \"#utility.yul\":13092:13185   */\n      tag_124\n      jump\t// in\n    tag_273:\n        /* \"#utility.yul\":13210:13212   */\n      0x20\n        /* \"#utility.yul\":13205:13208   */\n      dup3\n        /* \"#utility.yul\":13201:13213   */\n      add\n        /* \"#utility.yul\":13194:13213   */\n      swap1\n      pop\n        /* \"#utility.yul\":12853:13219   */\n      swap2\n      swap1\n      pop\n      jump\t// out\n        /* \"#utility.yul\":13225:13644   */\n    tag_58:\n        /* \"#utility.yul\":13391:13395   */\n      0x00\n        /* \"#utility.yul\":13429:13431   */\n      0x20\n        /* \"#utility.yul\":13418:13427   */\n      dup3\n        /* \"#utility.yul\":13414:13432   */\n      add\n        /* \"#utility.yul\":13406:13432   */\n      swap1\n      pop\n        /* \"#utility.yul\":13478:13487   */\n      dup2\n        /* \"#utility.yul\":13472:13476   */\n      dup2\n        /* \"#utility.yul\":13468:13488   */\n      sub\n        /* \"#utility.yul\":13464:13465   */\n      0x00\n        /* \"#utility.yul\":13453:13462   */\n      dup4\n        /* \"#utility.yul\":13449:13466   */\n      add\n        /* \"#utility.yul\":13442:13489   */\n      mstore\n        /* \"#utility.yul\":13506:13637   */\n      tag_275\n        /* \"#utility.yul\":13632:13636   */\n      dup2\n        /* \"#utility.yul\":13506:13637   */\n      tag_125\n      jump\t// in\n    tag_275:\n        /* \"#utility.yul\":13498:13637   */\n      swap1\n      pop\n        /* \"#utility.yul\":13225:13644   */\n      swap2\n      swap1\n      pop\n      jump\t// out\n        /* \"#utility.yul\":13650:13830   */\n    tag_126:\n        /* \"#utility.yul\":13698:13775   */\n      0x4e487b7100000000000000000000000000000000000000000000000000000000\n        /* \"#utility.yul\":13695:13696   */\n      0x00\n        /* \"#utility.yul\":13688:13776   */\n      mstore\n        /* \"#utility.yul\":13795:13799   */\n      0x11\n        /* \"#utility.yul\":13792:13793   */\n      0x04\n        /* \"#utility.yul\":13785:13800   */\n      mstore\n        /* \"#utility.yul\":13819:13823   */\n      0x24\n        /* \"#utility.yul\":13816:13817   */\n      0x00\n        /* \"#utility.yul\":13809:13824   */\n      revert\n        /* \"#utility.yul\":13836:14069   */\n    tag_60:\n        /* \"#utility.yul\":13875:13878   */\n      0x00\n        /* \"#utility.yul\":13898:13922   */\n      tag_278\n        /* \"#utility.yul\":13916:13921   */\n      dup3\n        /* \"#utility.yul\":13898:13922   */\n      tag_97\n      jump\t// in\n    tag_278:\n        /* \"#utility.yul\":13889:13922   */\n      swap2\n      pop\n        /* \"#utility.yul\":13944:14010   */\n      0xffffffffffffffffffffffffffffffffffffffffffffffffffffffffffffffff\n        /* \"#utility.yul\":13937:13942   */\n      dup3\n        /* \"#utility.yul\":13934:14011   */\n      sub\n        /* \"#utility.yul\":13931:14034   */\n      tag_279\n      jumpi\n        /* \"#utility.yul\":14014:14032   */\n      tag_280\n      tag_126\n      jump\t// in\n    tag_280:\n        /* \"#utility.yul\":13931:14034   */\n    tag_279:\n        /* \"#utility.yul\":14061:14062   */\n      0x01\n        /* \"#utility.yul\":14054:14059   */\n      dup3\n        /* \"#utility.yul\":14050:14063   */\n      add\n        /* \"#utility.yul\":14043:14063   */\n      swap1\n      pop\n        /* \"#utility.yul\":13836:14069   */\n      swap2\n      swap1\n      pop\n      jump\t// out\n        /* \"#utility.yul\":14075:14216   */\n    tag_127:\n        /* \"#utility.yul\":14124:14128   */\n      0x00\n        /* \"#utility.yul\":14147:14150   */\n      dup2\n        /* \"#utility.yul\":14139:14150   */\n      swap1\n      pop\n        /* \"#utility.yul\":14170:14173   */\n      dup2\n        /* \"#utility.yul\":14167:14168   */\n      0x00\n        /* \"#utility.yul\":14160:14174   */\n      mstore\n        /* \"#utility.yul\":14204:14208   */\n      0x20\n        /* \"#utility.yul\":14201:14202   */\n      0x00\n        /* \"#utility.yul\":14191:14209   */\n      keccak256\n        /* \"#utility.yul\":14183:14209   */\n      swap1\n      pop\n        /* \"#utility.yul\":14075:14216   */\n      swap2\n      swap1\n      pop\n      jump\t// out\n        /* \"#utility.yul\":14222:14315   */\n    tag_128:\n        /* \"#utility.yul\":14259:14265   */\n      0x00\n        /* \"#utility.yul\":14306:14308   */\n      0x20\n        /* \"#utility.yul\":14301:14303   */\n      0x1f\n        /* \"#utility.yul\":14294:14299   */\n      dup4\n        /* \"#utility.yul\":14290:14304   */\n      add\n        /* \"#utility.yul\":14286:14309   */\n      div\n        /* \"#utility.yul\":14276:14309   */\n      swap1\n      pop\n        /* \"#utility.yul\":14222:14315   */\n      swap2\n      swap1\n      pop\n      jump\t// out\n        /* \"#utility.yul\":14321:14428   */\n    tag_129:\n        /* \"#utility.yul\":14365:14373   */\n      0x00\n        /* \"#utility.yul\":14415:14420   */\n      dup3\n        /* \"#utility.yul\":14409:14413   */\n      dup3\n        /* \"#utility.yul\":14405:14421   */\n      shl\n        /* \"#utility.yul\":14384:14421   */\n      swap1\n      pop\n        /* \"#utility.yul\":14321:14428   */\n      swap3\n      swap2\n      pop\n      pop\n      jump\t// out\n        /* \"#utility.yul\":14434:14827   */\n    tag_130:\n        /* \"#utility.yul\":14503:14509   */\n      0x00\n        /* \"#utility.yul\":14553:14554   */\n      0x08\n        /* \"#utility.yul\":14541:14551   */\n      dup4\n        /* \"#utility.yul\":14537:14555   */\n      mul\n        /* \"#utility.yul\":14576:14673   */\n      tag_285\n        /* \"#utility.yul\":14606:14672   */\n      0xffffffffffffffffffffffffffffffffffffffffffffffffffffffffffffffff\n        /* \"#utility.yul\":14595:14604   */\n      dup3\n        /* \"#utility.yul\":14576:14673   */\n      tag_129\n      jump\t// in\n    tag_285:\n        /* \"#utility.yul\":14694:14733   */\n      tag_286\n        /* \"#utility.yul\":14724:14732   */\n      dup7\n        /* \"#utility.yul\":14713:14722   */\n      dup4\n        /* \"#utility.yul\":14694:14733   */\n      tag_129\n      jump\t// in\n    tag_286:\n        /* \"#utility.yul\":14682:14733   */\n      swap6\n      pop\n        /* \"#utility.yul\":14766:14770   */\n      dup1\n        /* \"#utility.yul\":14762:14771   */\n      not\n        /* \"#utility.yul\":14755:14760   */\n      dup5\n        /* \"#utility.yul\":14751:14772   */\n      and\n        /* \"#utility.yul\":14742:14772   */\n      swap4\n      pop\n        /* \"#utility.yul\":14815:14819   */\n      dup1\n        /* \"#utility.yul\":14805:14813   */\n      dup7\n        /* \"#utility.yul\":14801:14820   */\n      and\n        /* \"#utility.yul\":14794:14799   */\n      dup5\n        /* \"#utility.yul\":14791:14821   */\n      or\n        /* \"#utility.yul\":14781:14821   */\n      swap3\n      pop\n        /* \"#utility.yul\":14510:14827   */\n      pop\n      pop\n        /* \"#utility.yul\":14434:14827   */\n      swap4\n      swap3\n      pop\n      pop\n      pop\n      jump\t// out\n        /* \"#utility.yul\":14833:14893   */\n    tag_131:\n        /* \"#utility.yul\":14861:14864   */\n      0x00\n        /* \"#utility.yul\":14882:14887   */\n      dup2\n        /* \"#utility.yul\":14875:14887   */\n      swap1\n      pop\n        /* \"#utility.yul\":14833:14893   */\n      swap2\n      swap1\n      pop\n      jump\t// out\n        /* \"#utility.yul\":14899:15041   */\n    tag_132:\n        /* \"#utility.yul\":14949:14958   */\n      0x00\n        /* \"#utility.yul\":14982:15035   */\n      tag_289\n        /* \"#utility.yul\":15000:15034   */\n      tag_290\n        /* \"#utility.yul\":15009:15033   */\n      tag_291\n        /* \"#utility.yul\":15027:15032   */\n      dup5\n        /* \"#utility.yul\":15009:15033   */\n      tag_97\n      jump\t// in\n    tag_291:\n        /* \"#utility.yul\":15000:15034   */\n      tag_131\n      jump\t// in\n    tag_290:\n        /* \"#utility.yul\":14982:15035   */\n      tag_97\n      jump\t// in\n    tag_289:\n        /* \"#utility.yul\":14969:15035   */\n      swap1\n      pop\n        /* \"#utility.yul\":14899:15041   */\n      swap2\n      swap1\n      pop\n      jump\t// out\n        /* \"#utility.yul\":15047:15122   */\n    tag_133:\n        /* \"#utility.yul\":15090:15093   */\n      0x00\n        /* \"#utility.yul\":15111:15116   */\n      dup2\n        /* \"#utility.yul\":15104:15116   */\n      swap1\n      pop\n        /* \"#utility.yul\":15047:15122   */\n      swap2\n      swap1\n      pop\n      jump\t// out\n        /* \"#utility.yul\":15128:15397   */\n    tag_134:\n        /* \"#utility.yul\":15238:15277   */\n      tag_294\n        /* \"#utility.yul\":15269:15276   */\n      dup4\n        /* \"#utility.yul\":15238:15277   */\n      tag_132\n      jump\t// in\n    tag_294:\n        /* \"#utility.yul\":15299:15390   */\n      tag_295\n        /* \"#utility.yul\":15348:15389   */\n      tag_296\n        /* \"#utility.yul\":15372:15388   */\n      dup3\n        /* \"#utility.yul\":15348:15389   */\n      tag_133\n      jump\t// in\n    tag_296:\n        /* \"#utility.yul\":15340:15346   */\n      dup5\n        /* \"#utility.yul\":15333:15337   */\n      dup5\n        /* \"#utility.yul\":15327:15338   */\n      sload\n        /* \"#utility.yul\":15299:15390   */\n      tag_130\n      jump\t// in\n    tag_295:\n        /* \"#utility.yul\":15293:15297   */\n      dup3\n        /* \"#utility.yul\":15286:15391   */\n      sstore\n        /* \"#utility.yul\":15204:15397   */\n      pop\n        /* \"#utility.yul\":15128:15397   */\n      pop\n      pop\n      pop\n      jump\t// out\n        /* \"#utility.yul\":15403:15476   */\n    tag_135:\n        /* \"#utility.yul\":15448:15451   */\n      0x00\n        /* \"#utility.yul\":15403:15476   */\n      swap1\n      jump\t// out\n        /* \"#utility.yul\":15482:15671   */\n    tag_136:\n        /* \"#utility.yul\":15559:15591   */\n      tag_299\n      tag_135\n      jump\t// in\n    tag_299:\n        /* \"#utility.yul\":15600:15665   */\n      tag_300\n        /* \"#utility.yul\":15658:15664   */\n      dup2\n        /* \"#utility.yul\":15650:15656   */\n      dup5\n        /* \"#utility.yul\":15644:15648   */\n      dup5\n        /* \"#utility.yul\":15600:15665   */\n      tag_134\n      jump\t// in\n    tag_300:\n        /* \"#utility.yul\":15535:15671   */\n      pop\n        /* \"#utility.yul\":15482:15671   */\n      pop\n      pop\n      jump\t// out\n        /* \"#utility.yul\":15677:15863   */\n    tag_137:\n        /* \"#utility.yul\":15737:15857   */\n    tag_302:\n        /* \"#utility.yul\":15754:15757   */\n      dup2\n        /* \"#utility.yul\":15747:15752   */\n      dup2\n        /* \"#utility.yul\":15744:15758   */\n      lt\n        /* \"#utility.yul\":15737:15857   */\n      iszero\n      tag_304\n      jumpi\n        /* \"#utility.yul\":15808:15847   */\n      tag_305\n        /* \"#utility.yul\":15845:15846   */\n      0x00\n        /* \"#utility.yul\":15838:15843   */\n      dup3\n        /* \"#utility.yul\":15808:15847   */\n      tag_136\n      jump\t// in\n    tag_305:\n        /* \"#utility.yul\":15781:15782   */\n      0x01\n        /* \"#utility.yul\":15774:15779   */\n      dup2\n        /* \"#utility.yul\":15770:15783   */\n      add\n        /* \"#utility.yul\":15761:15783   */\n      swap1\n      pop\n        /* \"#utility.yul\":15737:15857   */\n      jump(tag_302)\n    tag_304:\n        /* \"#utility.yul\":15677:15863   */\n      pop\n      pop\n      jump\t// out\n        /* \"#utility.yul\":15869:16412   */\n    tag_138:\n        /* \"#utility.yul\":15970:15972   */\n      0x1f\n        /* \"#utility.yul\":15965:15968   */\n      dup3\n        /* \"#utility.yul\":15962:15973   */\n      gt\n        /* \"#utility.yul\":15959:16405   */\n      iszero\n      tag_307\n      jumpi\n        /* \"#utility.yul\":16004:16042   */\n      tag_308\n        /* \"#utility.yul\":16036:16041   */\n      dup2\n        /* \"#utility.yul\":16004:16042   */\n      tag_127\n      jump\t// in\n    tag_308:\n        /* \"#utility.yul\":16088:16117   */\n      tag_309\n        /* \"#utility.yul\":16106:16116   */\n      dup5\n        /* \"#utility.yul\":16088:16117   */\n      tag_128\n      jump\t// in\n    tag_309:\n        /* \"#utility.yul\":16078:16086   */\n      dup2\n        /* \"#utility.yul\":16074:16118   */\n      add\n        /* \"#utility.yul\":16271:16273   */\n      0x20\n        /* \"#utility.yul\":16259:16269   */\n      dup6\n        /* \"#utility.yul\":16256:16274   */\n      lt\n        /* \"#utility.yul\":16253:16302   */\n      iszero\n      tag_310\n      jumpi\n        /* \"#utility.yul\":16292:16300   */\n      dup2\n        /* \"#utility.yul\":16277:16300   */\n      swap1\n      pop\n        /* \"#utility.yul\":16253:16302   */\n    tag_310:\n        /* \"#utility.yul\":16315:16395   */\n      tag_311\n        /* \"#utility.yul\":16371:16393   */\n      tag_312\n        /* \"#utility.yul\":16389:16392   */\n      dup6\n        /* \"#utility.yul\":16371:16393   */\n      tag_128\n      jump\t// in\n    tag_312:\n        /* \"#utility.yul\":16361:16369   */\n      dup4\n        /* \"#utility.yul\":16357:16394   */\n      add\n        /* \"#utility.yul\":16344:16355   */\n      dup3\n        /* \"#utility.yul\":16315:16395   */\n      tag_137\n      jump\t// in\n    tag_311:\n        /* \"#utility.yul\":15974:16405   */\n      pop\n      pop\n        /* \"#utility.yul\":15959:16405   */\n    tag_307:\n        /* \"#utility.yul\":15869:16412   */\n      pop\n      pop\n      pop\n      jump\t// out\n        /* \"#utility.yul\":16418:16535   */\n    tag_139:\n        /* \"#utility.yul\":16472:16480   */\n      0x00\n        /* \"#utility.yul\":16522:16527   */\n      dup3\n        /* \"#utility.yul\":16516:16520   */\n      dup3\n        /* \"#utility.yul\":16512:16528   */\n      shr\n        /* \"#utility.yul\":16491:16528   */\n      swap1\n      pop\n        /* \"#utility.yul\":16418:16535   */\n      swap3\n      swap2\n      pop\n      pop\n      jump\t// out\n        /* \"#utility.yul\":16541:16710   */\n    tag_140:\n        /* \"#utility.yul\":16585:16591   */\n      0x00\n        /* \"#utility.yul\":16618:16669   */\n      tag_315\n        /* \"#utility.yul\":16666:16667   */\n      0x00\n        /* \"#utility.yul\":16662:16668   */\n      not\n        /* \"#utility.yul\":16654:16659   */\n      dup5\n        /* \"#utility.yul\":16651:16652   */\n      0x08\n        /* \"#utility.yul\":16647:16660   */\n      mul\n        /* \"#utility.yul\":16618:16669   */\n      tag_139\n      jump\t// in\n    tag_315:\n        /* \"#utility.yul\":16614:16670   */\n      not\n        /* \"#utility.yul\":16699:16703   */\n      dup1\n        /* \"#utility.yul\":16693:16697   */\n      dup4\n        /* \"#utility.yul\":16689:16704   */\n      and\n        /* \"#utility.yul\":16679:16704   */\n      swap2\n      pop\n        /* \"#utility.yul\":16592:16710   */\n      pop\n        /* \"#utility.yul\":16541:16710   */\n      swap3\n      swap2\n      pop\n      pop\n      jump\t// out\n        /* \"#utility.yul\":16715:17010   */\n    tag_141:\n        /* \"#utility.yul\":16791:16795   */\n      0x00\n        /* \"#utility.yul\":16937:16966   */\n      tag_317\n        /* \"#utility.yul\":16962:16965   */\n      dup4\n        /* \"#utility.yul\":16956:16960   */\n      dup4\n        /* \"#utility.yul\":16937:16966   */\n      tag_140\n      jump\t// in\n    tag_317:\n        /* \"#utility.yul\":16929:16966   */\n      swap2\n      pop\n        /* \"#utility.yul\":16999:17002   */\n      dup3\n        /* \"#utility.yul\":16996:16997   */\n      0x02\n        /* \"#utility.yul\":16992:17003   */\n      mul\n        /* \"#utility.yul\":16986:16990   */\n      dup3\n        /* \"#utility.yul\":16983:17004   */\n      or\n        /* \"#utility.yul\":16975:17004   */\n      swap1\n      pop\n        /* \"#utility.yul\":16715:17010   */\n      swap3\n      swap2\n      pop\n      pop\n      jump\t// out\n        /* \"#utility.yul\":17015:18410   */\n    tag_62:\n        /* \"#utility.yul\":17132:17169   */\n      tag_319\n        /* \"#utility.yul\":17165:17168   */\n      dup3\n        /* \"#utility.yul\":17132:17169   */\n      tag_89\n      jump\t// in\n    tag_319:\n        /* \"#utility.yul\":17234:17252   */\n      0xffffffffffffffff\n        /* \"#utility.yul\":17226:17232   */\n      dup2\n        /* \"#utility.yul\":17223:17253   */\n      gt\n        /* \"#utility.yul\":17220:17276   */\n      iszero\n      tag_320\n      jumpi\n        /* \"#utility.yul\":17256:17274   */\n      tag_321\n      tag_101\n      jump\t// in\n    tag_321:\n        /* \"#utility.yul\":17220:17276   */\n    tag_320:\n        /* \"#utility.yul\":17300:17338   */\n      tag_322\n        /* \"#utility.yul\":17332:17336   */\n      dup3\n        /* \"#utility.yul\":17326:17337   */\n      sload\n        /* \"#utility.yul\":17300:17338   */\n      tag_45\n      jump\t// in\n    tag_322:\n        /* \"#utility.yul\":17385:17452   */\n      tag_323\n        /* \"#utility.yul\":17445:17451   */\n      dup3\n        /* \"#utility.yul\":17437:17443   */\n      dup3\n        /* \"#utility.yul\":17431:17435   */\n      dup6\n        /* \"#utility.yul\":17385:17452   */\n      tag_138\n      jump\t// in\n    tag_323:\n        /* \"#utility.yul\":17479:17480   */\n      0x00\n        /* \"#utility.yul\":17503:17507   */\n      0x20\n        /* \"#utility.yul\":17490:17507   */\n      swap1\n      pop\n        /* \"#utility.yul\":17535:17537   */\n      0x1f\n        /* \"#utility.yul\":17527:17533   */\n      dup4\n        /* \"#utility.yul\":17524:17538   */\n      gt\n        /* \"#utility.yul\":17552:17553   */\n      0x01\n        /* \"#utility.yul\":17547:18165   */\n      dup2\n      eq\n      tag_325\n      jumpi\n        /* \"#utility.yul\":18209:18210   */\n      0x00\n        /* \"#utility.yul\":18226:18232   */\n      dup5\n        /* \"#utility.yul\":18223:18300   */\n      iszero\n      tag_326\n      jumpi\n        /* \"#utility.yul\":18275:18284   */\n      dup3\n        /* \"#utility.yul\":18270:18273   */\n      dup8\n        /* \"#utility.yul\":18266:18285   */\n      add\n        /* \"#utility.yul\":18260:18286   */\n      mload\n        /* \"#utility.yul\":18251:18286   */\n      swap1\n      pop\n        /* \"#utility.yul\":18223:18300   */\n    tag_326:\n        /* \"#utility.yul\":18326:18393   */\n      tag_327\n        /* \"#utility.yul\":18386:18392   */\n      dup6\n        /* \"#utility.yul\":18379:18384   */\n      dup3\n        /* \"#utility.yul\":18326:18393   */\n      tag_141\n      jump\t// in\n    tag_327:\n        /* \"#utility.yul\":18320:18324   */\n      dup7\n        /* \"#utility.yul\":18313:18394   */\n      sstore\n        /* \"#utility.yul\":18182:18404   */\n      pop\n        /* \"#utility.yul\":17517:18404   */\n      jump(tag_324)\n        /* \"#utility.yul\":17547:18165   */\n    tag_325:\n        /* \"#utility.yul\":17599:17603   */\n      0x1f\n        /* \"#utility.yul\":17595:17604   */\n      not\n        /* \"#utility.yul\":17587:17593   */\n      dup5\n        /* \"#utility.yul\":17583:17605   */\n      and\n        /* \"#utility.yul\":17633:17670   */\n      tag_328\n        /* \"#utility.yul\":17665:17669   */\n      dup7\n        /* \"#utility.yul\":17633:17670   */\n      tag_127\n      jump\t// in\n    tag_328:\n        /* \"#utility.yul\":17692:17693   */\n      0x00\n        /* \"#utility.yul\":17706:17914   */\n    tag_329:\n        /* \"#utility.yul\":17720:17727   */\n      dup3\n        /* \"#utility.yul\":17717:17718   */\n      dup2\n        /* \"#utility.yul\":17714:17728   */\n      lt\n        /* \"#utility.yul\":17706:17914   */\n      iszero\n      tag_331\n      jumpi\n        /* \"#utility.yul\":17799:17808   */\n      dup5\n        /* \"#utility.yul\":17794:17797   */\n      dup10\n        /* \"#utility.yul\":17790:17809   */\n      add\n        /* \"#utility.yul\":17784:17810   */\n      mload\n        /* \"#utility.yul\":17776:17782   */\n      dup3\n        /* \"#utility.yul\":17769:17811   */\n      sstore\n        /* \"#utility.yul\":17850:17851   */\n      0x01\n        /* \"#utility.yul\":17842:17848   */\n      dup3\n        /* \"#utility.yul\":17838:17852   */\n      add\n        /* \"#utility.yul\":17828:17852   */\n      swap2\n      pop\n        /* \"#utility.yul\":17897:17899   */\n      0x20\n        /* \"#utility.yul\":17886:17895   */\n      dup6\n        /* \"#utility.yul\":17882:17900   */\n      add\n        /* \"#utility.yul\":17869:17900   */\n      swap5\n      pop\n        /* \"#utility.yul\":17743:17747   */\n      0x20\n        /* \"#utility.yul\":17740:17741   */\n      dup2\n        /* \"#utility.yul\":17736:17748   */\n      add\n        /* \"#utility.yul\":17731:17748   */\n      swap1\n      pop\n        /* \"#utility.yul\":17706:17914   */\n      jump(tag_329)\n    tag_331:\n        /* \"#utility.yul\":17942:17948   */\n      dup7\n        /* \"#utility.yul\":17933:17940   */\n      dup4\n        /* \"#utility.yul\":17930:17949   */\n      lt\n        /* \"#utility.yul\":17927:18106   */\n      iszero\n      tag_332\n      jumpi\n        /* \"#utility.yul\":18000:18009   */\n      dup5\n        /* \"#utility.yul\":17995:17998   */\n      dup10\n        /* \"#utility.yul\":17991:18010   */\n      add\n        /* \"#utility.yul\":17985:18011   */\n      mload\n        /* \"#utility.yul\":18043:18091   */\n      tag_333\n        /* \"#utility.yul\":18085:18089   */\n      0x1f\n        /* \"#utility.yul\":18077:18083   */\n      dup10\n        /* \"#utility.yul\":18073:18090   */\n      and\n        /* \"#utility.yul\":18062:18071   */\n      dup3\n        /* \"#utility.yul\":18043:18091   */\n      tag_140\n      jump\t// in\n    tag_333:\n        /* \"#utility.yul\":18035:18041   */\n      dup4\n        /* \"#utility.yul\":18028:18092   */\n      sstore\n        /* \"#utility.yul\":17950:18106   */\n      pop\n        /* \"#utility.yul\":17927:18106   */\n    tag_332:\n        /* \"#utility.yul\":18152:18153   */\n      0x01\n        /* \"#utility.yul\":18148:18149   */\n      0x02\n        /* \"#utility.yul\":18140:18146   */\n      dup9\n        /* \"#utility.yul\":18136:18150   */\n      mul\n        /* \"#utility.yul\":18132:18154   */\n      add\n        /* \"#utility.yul\":18126:18130   */\n      dup9\n        /* \"#utility.yul\":18119:18155   */\n      sstore\n        /* \"#utility.yul\":17554:18165   */\n      pop\n      pop\n      pop\n        /* \"#utility.yul\":17517:18404   */\n    tag_324:\n      pop\n        /* \"#utility.yul\":17107:18410   */\n      pop\n      pop\n      pop\n        /* \"#utility.yul\":17015:18410   */\n      pop\n      pop\n      jump\t// out\n        /* \"#utility.yul\":18416:18930   */\n    tag_66:\n        /* \"#utility.yul\":18577:18581   */\n      0x00\n        /* \"#utility.yul\":18615:18617   */\n      0x40\n        /* \"#utility.yul\":18604:18613   */\n      dup3\n        /* \"#utility.yul\":18600:18618   */\n      add\n        /* \"#utility.yul\":18592:18618   */\n      swap1\n      pop\n        /* \"#utility.yul\":18664:18673   */\n      dup2\n        /* \"#utility.yul\":18658:18662   */\n      dup2\n        /* \"#utility.yul\":18654:18674   */\n      sub\n        /* \"#utility.yul\":18650:18651   */\n      0x00\n        /* \"#utility.yul\":18639:18648   */\n      dup4\n        /* \"#utility.yul\":18635:18652   */\n      add\n        /* \"#utility.yul\":18628:18675   */\n      mstore\n        /* \"#utility.yul\":18692:18770   */\n      tag_335\n        /* \"#utility.yul\":18765:18769   */\n      dup2\n        /* \"#utility.yul\":18756:18762   */\n      dup6\n        /* \"#utility.yul\":18692:18770   */\n      tag_119\n      jump\t// in\n    tag_335:\n        /* \"#utility.yul\":18684:18770   */\n      swap1\n      pop\n        /* \"#utility.yul\":18817:18826   */\n      dup2\n        /* \"#utility.yul\":18811:18815   */\n      dup2\n        /* \"#utility.yul\":18807:18827   */\n      sub\n        /* \"#utility.yul\":18802:18804   */\n      0x20\n        /* \"#utility.yul\":18791:18800   */\n      dup4\n        /* \"#utility.yul\":18787:18805   */\n      add\n        /* \"#utility.yul\":18780:18828   */\n      mstore\n        /* \"#utility.yul\":18845:18923   */\n      tag_336\n        /* \"#utility.yul\":18918:18922   */\n      dup2\n        /* \"#utility.yul\":18909:18915   */\n      dup5\n        /* \"#utility.yul\":18845:18923   */\n      tag_119\n      jump\t// in\n    tag_336:\n        /* \"#utility.yul\":18837:18923   */\n      swap1\n      pop\n        /* \"#utility.yul\":18416:18930   */\n      swap4\n      swap3\n      pop\n      pop\n      pop\n      jump\t// out\n\n    auxdata: 0xa2646970667358221220589f4f94cc80b3da15e252c5e86a20d381cf8b784951619c563ba63bbbfe547464736f6c634300081a0033\n}\n",
				"bytecode": {
					"linkReferences": {},
					"object": "60806040525f80553480156011575f80fd5b506111658061001f5f395ff3fe608060405234801561000f575f80fd5b5060043610610060575f3560e01c80630ab3009314610064578063228ea0f6146100945780634a56dd58146100b25780635d7869e4146100ce5780639692f5f4146100ec578063bf9c50011461011c575b5f80fd5b61007e60048036038101906100799190610803565b61014e565b60405161008b919061090c565b60405180910390f35b61009c61036f565b6040516100a99190610944565b60405180910390f35b6100cc60048036038101906100c79190610a89565b610374565b005b6100d6610572565b6040516100e39190610bb6565b60405180910390f35b61010660048036038101906101019190610c00565b6105fd565b6040516101139190610c3a565b60405180910390f35b61013660048036038101906101319190610803565b610638565b60405161014593929190610caa565b60405180910390f35b610156610776565b60025f8373ffffffffffffffffffffffffffffffffffffffff1673ffffffffffffffffffffffffffffffffffffffff1681526020019081526020015f206002015f9054906101000a900460ff166101e2576040517f08c379a00000000000000000000000000000000000000000000000000000000081526004016101d990610d37565b60405180910390fd5b5f60025f8473ffffffffffffffffffffffffffffffffffffffff1673ffffffffffffffffffffffffffffffffffffffff1681526020019081526020015f206040518060600160405290815f8201805461023a90610d82565b80601f016020809104026020016040519081016040528092919081815260200182805461026690610d82565b80156102b15780601f10610288576101008083540402835291602001916102b1565b820191905f5260205f20905b81548152906001019060200180831161029457829003601f168201915b505050505081526020016001820180546102ca90610d82565b80601f01602080910402602001604051908101604052809291908181526020018280546102f690610d82565b80156103415780601f1061031857610100808354040283529160200191610341565b820191905f5260205f20905b81548152906001019060200180831161032457829003601f168201915b50505050508152602001600282015f9054906101000a900460ff161515151581525050905080915050919050565b5f5481565b60025f3373ffffffffffffffffffffffffffffffffffffffff1673ffffffffffffffffffffffffffffffffffffffff1681526020019081526020015f206002015f9054906101000a900460ff1615610401576040517f08c379a00000000000000000000000000000000000000000000000000000000081526004016103f890610dfc565b60405180910390fd5b5f8081548092919061041290610e47565b919050555060405180606001604052808381526020018281526020016001151581525060025f3373ffffffffffffffffffffffffffffffffffffffff1673ffffffffffffffffffffffffffffffffffffffff1681526020019081526020015f205f820151815f019081610485919061102b565b50602082015181600101908161049b919061102b565b506040820151816002015f6101000a81548160ff021916908315150217905550905050600133908060018154018082558091505060019003905f5260205f20015f9091909190916101000a81548173ffffffffffffffffffffffffffffffffffffffff021916908373ffffffffffffffffffffffffffffffffffffffff1602179055503373ffffffffffffffffffffffffffffffffffffffff167f7684f961e9f2fba83a8b498e45c72cfa5302033c5a60c3a2e2a08f214598e00f83836040516105669291906110fa565b60405180910390a25050565b606060018054806020026020016040519081016040528092919081815260200182805480156105f357602002820191905f5260205f20905b815f9054906101000a900473ffffffffffffffffffffffffffffffffffffffff1673ffffffffffffffffffffffffffffffffffffffff16815260200190600101908083116105aa575b5050505050905090565b6001818154811061060c575f80fd5b905f5260205f20015f915054906101000a900473ffffffffffffffffffffffffffffffffffffffff1681565b6002602052805f5260405f205f91509050805f01805461065790610d82565b80601f016020809104026020016040519081016040528092919081815260200182805461068390610d82565b80156106ce5780601f106106a5576101008083540402835291602001916106ce565b820191905f5260205f20905b8154815290600101906020018083116106b157829003601f168201915b5050505050908060010180546106e390610d82565b80601f016020809104026020016040519081016040528092919081815260200182805461070f90610d82565b801561075a5780601f106107315761010080835404028352916020019161075a565b820191905f5260205f20905b81548152906001019060200180831161073d57829003601f168201915b505050505090806002015f9054906101000a900460ff16905083565b604051806060016040528060608152602001606081526020015f151581525090565b5f604051905090565b5f80fd5b5f80fd5b5f73ffffffffffffffffffffffffffffffffffffffff82169050919050565b5f6107d2826107a9565b9050919050565b6107e2816107c8565b81146107ec575f80fd5b50565b5f813590506107fd816107d9565b92915050565b5f60208284031215610818576108176107a1565b5b5f610825848285016107ef565b91505092915050565b5f81519050919050565b5f82825260208201905092915050565b8281835e5f83830152505050565b5f601f19601f8301169050919050565b5f6108708261082e565b61087a8185610838565b935061088a818560208601610848565b61089381610856565b840191505092915050565b5f8115159050919050565b6108b28161089e565b82525050565b5f606083015f8301518482035f8601526108d28282610866565b915050602083015184820360208601526108ec8282610866565b915050604083015161090160408601826108a9565b508091505092915050565b5f6020820190508181035f83015261092481846108b8565b905092915050565b5f819050919050565b61093e8161092c565b82525050565b5f6020820190506109575f830184610935565b92915050565b5f80fd5b5f80fd5b7f4e487b71000000000000000000000000000000000000000000000000000000005f52604160045260245ffd5b61099b82610856565b810181811067ffffffffffffffff821117156109ba576109b9610965565b5b80604052505050565b5f6109cc610798565b90506109d88282610992565b919050565b5f67ffffffffffffffff8211156109f7576109f6610965565b5b610a0082610856565b9050602081019050919050565b828183375f83830152505050565b5f610a2d610a28846109dd565b6109c3565b905082815260208101848484011115610a4957610a48610961565b5b610a54848285610a0d565b509392505050565b5f82601f830112610a7057610a6f61095d565b5b8135610a80848260208601610a1b565b91505092915050565b5f8060408385031215610a9f57610a9e6107a1565b5b5f83013567ffffffffffffffff811115610abc57610abb6107a5565b5b610ac885828601610a5c565b925050602083013567ffffffffffffffff811115610ae957610ae86107a5565b5b610af585828601610a5c565b9150509250929050565b5f81519050919050565b5f82825260208201905092915050565b5f819050602082019050919050565b610b31816107c8565b82525050565b5f610b428383610b28565b60208301905092915050565b5f602082019050919050565b5f610b6482610aff565b610b6e8185610b09565b9350610b7983610b19565b805f5b83811015610ba9578151610b908882610b37565b9750610b9b83610b4e565b925050600181019050610b7c565b5085935050505092915050565b5f6020820190508181035f830152610bce8184610b5a565b905092915050565b610bdf8161092c565b8114610be9575f80fd5b50565b5f81359050610bfa81610bd6565b92915050565b5f60208284031215610c1557610c146107a1565b5b5f610c2284828501610bec565b91505092915050565b610c34816107c8565b82525050565b5f602082019050610c4d5f830184610c2b565b92915050565b5f82825260208201905092915050565b5f610c6d8261082e565b610c778185610c53565b9350610c87818560208601610848565b610c9081610856565b840191505092915050565b610ca48161089e565b82525050565b5f6060820190508181035f830152610cc28186610c63565b90508181036020830152610cd68185610c63565b9050610ce56040830184610c9b565b949350505050565b7f417574686f7220646f6573206e6f7420657869737400000000000000000000005f82015250565b5f610d21601583610c53565b9150610d2c82610ced565b602082019050919050565b5f6020820190508181035f830152610d4e81610d15565b9050919050565b7f4e487b71000000000000000000000000000000000000000000000000000000005f52602260045260245ffd5b5f6002820490506001821680610d9957607f821691505b602082108103610dac57610dab610d55565b5b50919050565b7f417574686f7220616c72656164792065786973747300000000000000000000005f82015250565b5f610de6601583610c53565b9150610df182610db2565b602082019050919050565b5f6020820190508181035f830152610e1381610dda565b9050919050565b7f4e487b71000000000000000000000000000000000000000000000000000000005f52601160045260245ffd5b5f610e518261092c565b91507fffffffffffffffffffffffffffffffffffffffffffffffffffffffffffffffff8203610e8357610e82610e1a565b5b600182019050919050565b5f819050815f5260205f209050919050565b5f6020601f8301049050919050565b5f82821b905092915050565b5f60088302610eea7fffffffffffffffffffffffffffffffffffffffffffffffffffffffffffffffff82610eaf565b610ef48683610eaf565b95508019841693508086168417925050509392505050565b5f819050919050565b5f610f2f610f2a610f258461092c565b610f0c565b61092c565b9050919050565b5f819050919050565b610f4883610f15565b610f5c610f5482610f36565b848454610ebb565b825550505050565b5f90565b610f70610f64565b610f7b818484610f3f565b505050565b5b81811015610f9e57610f935f82610f68565b600181019050610f81565b5050565b601f821115610fe357610fb481610e8e565b610fbd84610ea0565b81016020851015610fcc578190505b610fe0610fd885610ea0565b830182610f80565b50505b505050565b5f82821c905092915050565b5f6110035f1984600802610fe8565b1980831691505092915050565b5f61101b8383610ff4565b9150826002028217905092915050565b6110348261082e565b67ffffffffffffffff81111561104d5761104c610965565b5b6110578254610d82565b611062828285610fa2565b5f60209050601f831160018114611093575f8415611081578287015190505b61108b8582611010565b8655506110f2565b601f1984166110a186610e8e565b5f5b828110156110c8578489015182556001820191506020850194506020810190506110a3565b868310156110e557848901516110e1601f891682610ff4565b8355505b6001600288020188555050505b505050505050565b5f6040820190508181035f8301526111128185610c63565b905081810360208301526111268184610c63565b9050939250505056fea2646970667358221220589f4f94cc80b3da15e252c5e86a20d381cf8b784951619c563ba63bbbfe547464736f6c634300081a0033",
					"opcodes": "PUSH1 0x80 PUSH1 0x40 MSTORE PUSH0 DUP1 SSTORE CALLVALUE DUP1 ISZERO PUSH1 0x11 JUMPI PUSH0 DUP1 REVERT JUMPDEST POP PUSH2 0x1165 DUP1 PUSH2 0x1F PUSH0 CODECOPY PUSH0 RETURN INVALID PUSH1 0x80 PUSH1 0x40 MSTORE CALLVALUE DUP1 ISZERO PUSH2 0xF JUMPI PUSH0 DUP1 REVERT JUMPDEST POP PUSH1 0x4 CALLDATASIZE LT PUSH2 0x60 JUMPI PUSH0 CALLDATALOAD PUSH1 0xE0 SHR DUP1 PUSH4 0xAB30093 EQ PUSH2 0x64 JUMPI DUP1 PUSH4 0x228EA0F6 EQ PUSH2 0x94 JUMPI DUP1 PUSH4 0x4A56DD58 EQ PUSH2 0xB2 JUMPI DUP1 PUSH4 0x5D7869E4 EQ PUSH2 0xCE JUMPI DUP1 PUSH4 0x9692F5F4 EQ PUSH2 0xEC JUMPI DUP1 PUSH4 0xBF9C5001 EQ PUSH2 0x11C JUMPI JUMPDEST PUSH0 DUP1 REVERT JUMPDEST PUSH2 0x7E PUSH1 0x4 DUP1 CALLDATASIZE SUB DUP2 ADD SWAP1 PUSH2 0x79 SWAP2 SWAP1 PUSH2 0x803 JUMP JUMPDEST PUSH2 0x14E JUMP JUMPDEST PUSH1 0x40 MLOAD PUSH2 0x8B SWAP2 SWAP1 PUSH2 0x90C JUMP JUMPDEST PUSH1 0x40 MLOAD DUP1 SWAP2 SUB SWAP1 RETURN JUMPDEST PUSH2 0x9C PUSH2 0x36F JUMP JUMPDEST PUSH1 0x40 MLOAD PUSH2 0xA9 SWAP2 SWAP1 PUSH2 0x944 JUMP JUMPDEST PUSH1 0x40 MLOAD DUP1 SWAP2 SUB SWAP1 RETURN JUMPDEST PUSH2 0xCC PUSH1 0x4 DUP1 CALLDATASIZE SUB DUP2 ADD SWAP1 PUSH2 0xC7 SWAP2 SWAP1 PUSH2 0xA89 JUMP JUMPDEST PUSH2 0x374 JUMP JUMPDEST STOP JUMPDEST PUSH2 0xD6 PUSH2 0x572 JUMP JUMPDEST PUSH1 0x40 MLOAD PUSH2 0xE3 SWAP2 SWAP1 PUSH2 0xBB6 JUMP JUMPDEST PUSH1 0x40 MLOAD DUP1 SWAP2 SUB SWAP1 RETURN JUMPDEST PUSH2 0x106 PUSH1 0x4 DUP1 CALLDATASIZE SUB DUP2 ADD SWAP1 PUSH2 0x101 SWAP2 SWAP1 PUSH2 0xC00 JUMP JUMPDEST PUSH2 0x5FD JUMP JUMPDEST PUSH1 0x40 MLOAD PUSH2 0x113 SWAP2 SWAP1 PUSH2 0xC3A JUMP JUMPDEST PUSH1 0x40 MLOAD DUP1 SWAP2 SUB SWAP1 RETURN JUMPDEST PUSH2 0x136 PUSH1 0x4 DUP1 CALLDATASIZE SUB DUP2 ADD SWAP1 PUSH2 0x131 SWAP2 SWAP1 PUSH2 0x803 JUMP JUMPDEST PUSH2 0x638 JUMP JUMPDEST PUSH1 0x40 MLOAD PUSH2 0x145 SWAP4 SWAP3 SWAP2 SWAP1 PUSH2 0xCAA JUMP JUMPDEST PUSH1 0x40 MLOAD DUP1 SWAP2 SUB SWAP1 RETURN JUMPDEST PUSH2 0x156 PUSH2 0x776 JUMP JUMPDEST PUSH1 0x2 PUSH0 DUP4 PUSH20 0xFFFFFFFFFFFFFFFFFFFFFFFFFFFFFFFFFFFFFFFF AND PUSH20 0xFFFFFFFFFFFFFFFFFFFFFFFFFFFFFFFFFFFFFFFF AND DUP2 MSTORE PUSH1 0x20 ADD SWAP1 DUP2 MSTORE PUSH1 0x20 ADD PUSH0 KECCAK256 PUSH1 0x2 ADD PUSH0 SWAP1 SLOAD SWAP1 PUSH2 0x100 EXP SWAP1 DIV PUSH1 0xFF AND PUSH2 0x1E2 JUMPI PUSH1 0x40 MLOAD PUSH32 0x8C379A000000000000000000000000000000000000000000000000000000000 DUP2 MSTORE PUSH1 0x4 ADD PUSH2 0x1D9 SWAP1 PUSH2 0xD37 JUMP JUMPDEST PUSH1 0x40 MLOAD DUP1 SWAP2 SUB SWAP1 REVERT JUMPDEST PUSH0 PUSH1 0x2 PUSH0 DUP5 PUSH20 0xFFFFFFFFFFFFFFFFFFFFFFFFFFFFFFFFFFFFFFFF AND PUSH20 0xFFFFFFFFFFFFFFFFFFFFFFFFFFFFFFFFFFFFFFFF AND DUP2 MSTORE PUSH1 0x20 ADD SWAP1 DUP2 MSTORE PUSH1 0x20 ADD PUSH0 KECCAK256 PUSH1 0x40 MLOAD DUP1 PUSH1 0x60 ADD PUSH1 0x40 MSTORE SWAP1 DUP2 PUSH0 DUP3 ADD DUP1 SLOAD PUSH2 0x23A SWAP1 PUSH2 0xD82 JUMP JUMPDEST DUP1 PUSH1 0x1F ADD PUSH1 0x20 DUP1 SWAP2 DIV MUL PUSH1 0x20 ADD PUSH1 0x40 MLOAD SWAP1 DUP2 ADD PUSH1 0x40 MSTORE DUP1 SWAP3 SWAP2 SWAP1 DUP2 DUP2 MSTORE PUSH1 0x20 ADD DUP3 DUP1 SLOAD PUSH2 0x266 SWAP1 PUSH2 0xD82 JUMP JUMPDEST DUP1 ISZERO PUSH2 0x2B1 JUMPI DUP1 PUSH1 0x1F LT PUSH2 0x288 JUMPI PUSH2 0x100 DUP1 DUP4 SLOAD DIV MUL DUP4 MSTORE SWAP2 PUSH1 0x20 ADD SWAP2 PUSH2 0x2B1 JUMP JUMPDEST DUP3 ADD SWAP2 SWAP1 PUSH0 MSTORE PUSH1 0x20 PUSH0 KECCAK256 SWAP1 JUMPDEST DUP2 SLOAD DUP2 MSTORE SWAP1 PUSH1 0x1 ADD SWAP1 PUSH1 0x20 ADD DUP1 DUP4 GT PUSH2 0x294 JUMPI DUP3 SWAP1 SUB PUSH1 0x1F AND DUP3 ADD SWAP2 JUMPDEST POP POP POP POP POP DUP2 MSTORE PUSH1 0x20 ADD PUSH1 0x1 DUP3 ADD DUP1 SLOAD PUSH2 0x2CA SWAP1 PUSH2 0xD82 JUMP JUMPDEST DUP1 PUSH1 0x1F ADD PUSH1 0x20 DUP1 SWAP2 DIV MUL PUSH1 0x20 ADD PUSH1 0x40 MLOAD SWAP1 DUP2 ADD PUSH1 0x40 MSTORE DUP1 SWAP3 SWAP2 SWAP1 DUP2 DUP2 MSTORE PUSH1 0x20 ADD DUP3 DUP1 SLOAD PUSH2 0x2F6 SWAP1 PUSH2 0xD82 JUMP JUMPDEST DUP1 ISZERO PUSH2 0x341 JUMPI DUP1 PUSH1 0x1F LT PUSH2 0x318 JUMPI PUSH2 0x100 DUP1 DUP4 SLOAD DIV MUL DUP4 MSTORE SWAP2 PUSH1 0x20 ADD SWAP2 PUSH2 0x341 JUMP JUMPDEST DUP3 ADD SWAP2 SWAP1 PUSH0 MSTORE PUSH1 0x20 PUSH0 KECCAK256 SWAP1 JUMPDEST DUP2 SLOAD DUP2 MSTORE SWAP1 PUSH1 0x1 ADD SWAP1 PUSH1 0x20 ADD DUP1 DUP4 GT PUSH2 0x324 JUMPI DUP3 SWAP1 SUB PUSH1 0x1F AND DUP3 ADD SWAP2 JUMPDEST POP POP POP POP POP DUP2 MSTORE PUSH1 0x20 ADD PUSH1 0x2 DUP3 ADD PUSH0 SWAP1 SLOAD SWAP1 PUSH2 0x100 EXP SWAP1 DIV PUSH1 0xFF AND ISZERO ISZERO ISZERO ISZERO DUP2 MSTORE POP POP SWAP1 POP DUP1 SWAP2 POP POP SWAP2 SWAP1 POP JUMP JUMPDEST PUSH0 SLOAD DUP2 JUMP JUMPDEST PUSH1 0x2 PUSH0 CALLER PUSH20 0xFFFFFFFFFFFFFFFFFFFFFFFFFFFFFFFFFFFFFFFF AND PUSH20 0xFFFFFFFFFFFFFFFFFFFFFFFFFFFFFFFFFFFFFFFF AND DUP2 MSTORE PUSH1 0x20 ADD SWAP1 DUP2 MSTORE PUSH1 0x20 ADD PUSH0 KECCAK256 PUSH1 0x2 ADD PUSH0 SWAP1 SLOAD SWAP1 PUSH2 0x100 EXP SWAP1 DIV PUSH1 0xFF AND ISZERO PUSH2 0x401 JUMPI PUSH1 0x40 MLOAD PUSH32 0x8C379A000000000000000000000000000000000000000000000000000000000 DUP2 MSTORE PUSH1 0x4 ADD PUSH2 0x3F8 SWAP1 PUSH2 0xDFC JUMP JUMPDEST PUSH1 0x40 MLOAD DUP1 SWAP2 SUB SWAP1 REVERT JUMPDEST PUSH0 DUP1 DUP2 SLOAD DUP1 SWAP3 SWAP2 SWAP1 PUSH2 0x412 SWAP1 PUSH2 0xE47 JUMP JUMPDEST SWAP2 SWAP1 POP SSTORE POP PUSH1 0x40 MLOAD DUP1 PUSH1 0x60 ADD PUSH1 0x40 MSTORE DUP1 DUP4 DUP2 MSTORE PUSH1 0x20 ADD DUP3 DUP2 MSTORE PUSH1 0x20 ADD PUSH1 0x1 ISZERO ISZERO DUP2 MSTORE POP PUSH1 0x2 PUSH0 CALLER PUSH20 0xFFFFFFFFFFFFFFFFFFFFFFFFFFFFFFFFFFFFFFFF AND PUSH20 0xFFFFFFFFFFFFFFFFFFFFFFFFFFFFFFFFFFFFFFFF AND DUP2 MSTORE PUSH1 0x20 ADD SWAP1 DUP2 MSTORE PUSH1 0x20 ADD PUSH0 KECCAK256 PUSH0 DUP3 ADD MLOAD DUP2 PUSH0 ADD SWAP1 DUP2 PUSH2 0x485 SWAP2 SWAP1 PUSH2 0x102B JUMP JUMPDEST POP PUSH1 0x20 DUP3 ADD MLOAD DUP2 PUSH1 0x1 ADD SWAP1 DUP2 PUSH2 0x49B SWAP2 SWAP1 PUSH2 0x102B JUMP JUMPDEST POP PUSH1 0x40 DUP3 ADD MLOAD DUP2 PUSH1 0x2 ADD PUSH0 PUSH2 0x100 EXP DUP2 SLOAD DUP2 PUSH1 0xFF MUL NOT AND SWAP1 DUP4 ISZERO ISZERO MUL OR SWAP1 SSTORE POP SWAP1 POP POP PUSH1 0x1 CALLER SWAP1 DUP1 PUSH1 0x1 DUP2 SLOAD ADD DUP1 DUP3 SSTORE DUP1 SWAP2 POP POP PUSH1 0x1 SWAP1 SUB SWAP1 PUSH0 MSTORE PUSH1 0x20 PUSH0 KECCAK256 ADD PUSH0 SWAP1 SWAP2 SWAP1 SWAP2 SWAP1 SWAP2 PUSH2 0x100 EXP DUP2 SLOAD DUP2 PUSH20 0xFFFFFFFFFFFFFFFFFFFFFFFFFFFFFFFFFFFFFFFF MUL NOT AND SWAP1 DUP4 PUSH20 0xFFFFFFFFFFFFFFFFFFFFFFFFFFFFFFFFFFFFFFFF AND MUL OR SWAP1 SSTORE POP CALLER PUSH20 0xFFFFFFFFFFFFFFFFFFFFFFFFFFFFFFFFFFFFFFFF AND PUSH32 0x7684F961E9F2FBA83A8B498E45C72CFA5302033C5A60C3A2E2A08F214598E00F DUP4 DUP4 PUSH1 0x40 MLOAD PUSH2 0x566 SWAP3 SWAP2 SWAP1 PUSH2 0x10FA JUMP JUMPDEST PUSH1 0x40 MLOAD DUP1 SWAP2 SUB SWAP1 LOG2 POP POP JUMP JUMPDEST PUSH1 0x60 PUSH1 0x1 DUP1 SLOAD DUP1 PUSH1 0x20 MUL PUSH1 0x20 ADD PUSH1 0x40 MLOAD SWAP1 DUP2 ADD PUSH1 0x40 MSTORE DUP1 SWAP3 SWAP2 SWAP1 DUP2 DUP2 MSTORE PUSH1 0x20 ADD DUP3 DUP1 SLOAD DUP1 ISZERO PUSH2 0x5F3 JUMPI PUSH1 0x20 MUL DUP3 ADD SWAP2 SWAP1 PUSH0 MSTORE PUSH1 0x20 PUSH0 KECCAK256 SWAP1 JUMPDEST DUP2 PUSH0 SWAP1 SLOAD SWAP1 PUSH2 0x100 EXP SWAP1 DIV PUSH20 0xFFFFFFFFFFFFFFFFFFFFFFFFFFFFFFFFFFFFFFFF AND PUSH20 0xFFFFFFFFFFFFFFFFFFFFFFFFFFFFFFFFFFFFFFFF AND DUP2 MSTORE PUSH1 0x20 ADD SWAP1 PUSH1 0x1 ADD SWAP1 DUP1 DUP4 GT PUSH2 0x5AA JUMPI JUMPDEST POP POP POP POP POP SWAP1 POP SWAP1 JUMP JUMPDEST PUSH1 0x1 DUP2 DUP2 SLOAD DUP2 LT PUSH2 0x60C JUMPI PUSH0 DUP1 REVERT JUMPDEST SWAP1 PUSH0 MSTORE PUSH1 0x20 PUSH0 KECCAK256 ADD PUSH0 SWAP2 POP SLOAD SWAP1 PUSH2 0x100 EXP SWAP1 DIV PUSH20 0xFFFFFFFFFFFFFFFFFFFFFFFFFFFFFFFFFFFFFFFF AND DUP2 JUMP JUMPDEST PUSH1 0x2 PUSH1 0x20 MSTORE DUP1 PUSH0 MSTORE PUSH1 0x40 PUSH0 KECCAK256 PUSH0 SWAP2 POP SWAP1 POP DUP1 PUSH0 ADD DUP1 SLOAD PUSH2 0x657 SWAP1 PUSH2 0xD82 JUMP JUMPDEST DUP1 PUSH1 0x1F ADD PUSH1 0x20 DUP1 SWAP2 DIV MUL PUSH1 0x20 ADD PUSH1 0x40 MLOAD SWAP1 DUP2 ADD PUSH1 0x40 MSTORE DUP1 SWAP3 SWAP2 SWAP1 DUP2 DUP2 MSTORE PUSH1 0x20 ADD DUP3 DUP1 SLOAD PUSH2 0x683 SWAP1 PUSH2 0xD82 JUMP JUMPDEST DUP1 ISZERO PUSH2 0x6CE JUMPI DUP1 PUSH1 0x1F LT PUSH2 0x6A5 JUMPI PUSH2 0x100 DUP1 DUP4 SLOAD DIV MUL DUP4 MSTORE SWAP2 PUSH1 0x20 ADD SWAP2 PUSH2 0x6CE JUMP JUMPDEST DUP3 ADD SWAP2 SWAP1 PUSH0 MSTORE PUSH1 0x20 PUSH0 KECCAK256 SWAP1 JUMPDEST DUP2 SLOAD DUP2 MSTORE SWAP1 PUSH1 0x1 ADD SWAP1 PUSH1 0x20 ADD DUP1 DUP4 GT PUSH2 0x6B1 JUMPI DUP3 SWAP1 SUB PUSH1 0x1F AND DUP3 ADD SWAP2 JUMPDEST POP POP POP POP POP SWAP1 DUP1 PUSH1 0x1 ADD DUP1 SLOAD PUSH2 0x6E3 SWAP1 PUSH2 0xD82 JUMP JUMPDEST DUP1 PUSH1 0x1F ADD PUSH1 0x20 DUP1 SWAP2 DIV MUL PUSH1 0x20 ADD PUSH1 0x40 MLOAD SWAP1 DUP2 ADD PUSH1 0x40 MSTORE DUP1 SWAP3 SWAP2 SWAP1 DUP2 DUP2 MSTORE PUSH1 0x20 ADD DUP3 DUP1 SLOAD PUSH2 0x70F SWAP1 PUSH2 0xD82 JUMP JUMPDEST DUP1 ISZERO PUSH2 0x75A JUMPI DUP1 PUSH1 0x1F LT PUSH2 0x731 JUMPI PUSH2 0x100 DUP1 DUP4 SLOAD DIV MUL DUP4 MSTORE SWAP2 PUSH1 0x20 ADD SWAP2 PUSH2 0x75A JUMP JUMPDEST DUP3 ADD SWAP2 SWAP1 PUSH0 MSTORE PUSH1 0x20 PUSH0 KECCAK256 SWAP1 JUMPDEST DUP2 SLOAD DUP2 MSTORE SWAP1 PUSH1 0x1 ADD SWAP1 PUSH1 0x20 ADD DUP1 DUP4 GT PUSH2 0x73D JUMPI DUP3 SWAP1 SUB PUSH1 0x1F AND DUP3 ADD SWAP2 JUMPDEST POP POP POP POP POP SWAP1 DUP1 PUSH1 0x2 ADD PUSH0 SWAP1 SLOAD SWAP1 PUSH2 0x100 EXP SWAP1 DIV PUSH1 0xFF AND SWAP1 POP DUP4 JUMP JUMPDEST PUSH1 0x40 MLOAD DUP1 PUSH1 0x60 ADD PUSH1 0x40 MSTORE DUP1 PUSH1 0x60 DUP2 MSTORE PUSH1 0x20 ADD PUSH1 0x60 DUP2 MSTORE PUSH1 0x20 ADD PUSH0 ISZERO ISZERO DUP2 MSTORE POP SWAP1 JUMP JUMPDEST PUSH0 PUSH1 0x40 MLOAD SWAP1 POP SWAP1 JUMP JUMPDEST PUSH0 DUP1 REVERT JUMPDEST PUSH0 DUP1 REVERT JUMPDEST PUSH0 PUSH20 0xFFFFFFFFFFFFFFFFFFFFFFFFFFFFFFFFFFFFFFFF DUP3 AND SWAP1 POP SWAP2 SWAP1 POP JUMP JUMPDEST PUSH0 PUSH2 0x7D2 DUP3 PUSH2 0x7A9 JUMP JUMPDEST SWAP1 POP SWAP2 SWAP1 POP JUMP JUMPDEST PUSH2 0x7E2 DUP2 PUSH2 0x7C8 JUMP JUMPDEST DUP2 EQ PUSH2 0x7EC JUMPI PUSH0 DUP1 REVERT JUMPDEST POP JUMP JUMPDEST PUSH0 DUP2 CALLDATALOAD SWAP1 POP PUSH2 0x7FD DUP2 PUSH2 0x7D9 JUMP JUMPDEST SWAP3 SWAP2 POP POP JUMP JUMPDEST PUSH0 PUSH1 0x20 DUP3 DUP5 SUB SLT ISZERO PUSH2 0x818 JUMPI PUSH2 0x817 PUSH2 0x7A1 JUMP JUMPDEST JUMPDEST PUSH0 PUSH2 0x825 DUP5 DUP3 DUP6 ADD PUSH2 0x7EF JUMP JUMPDEST SWAP2 POP POP SWAP3 SWAP2 POP POP JUMP JUMPDEST PUSH0 DUP2 MLOAD SWAP1 POP SWAP2 SWAP1 POP JUMP JUMPDEST PUSH0 DUP3 DUP3 MSTORE PUSH1 0x20 DUP3 ADD SWAP1 POP SWAP3 SWAP2 POP POP JUMP JUMPDEST DUP3 DUP2 DUP4 MCOPY PUSH0 DUP4 DUP4 ADD MSTORE POP POP POP JUMP JUMPDEST PUSH0 PUSH1 0x1F NOT PUSH1 0x1F DUP4 ADD AND SWAP1 POP SWAP2 SWAP1 POP JUMP JUMPDEST PUSH0 PUSH2 0x870 DUP3 PUSH2 0x82E JUMP JUMPDEST PUSH2 0x87A DUP2 DUP6 PUSH2 0x838 JUMP JUMPDEST SWAP4 POP PUSH2 0x88A DUP2 DUP6 PUSH1 0x20 DUP7 ADD PUSH2 0x848 JUMP JUMPDEST PUSH2 0x893 DUP2 PUSH2 0x856 JUMP JUMPDEST DUP5 ADD SWAP2 POP POP SWAP3 SWAP2 POP POP JUMP JUMPDEST PUSH0 DUP2 ISZERO ISZERO SWAP1 POP SWAP2 SWAP1 POP JUMP JUMPDEST PUSH2 0x8B2 DUP2 PUSH2 0x89E JUMP JUMPDEST DUP3 MSTORE POP POP JUMP JUMPDEST PUSH0 PUSH1 0x60 DUP4 ADD PUSH0 DUP4 ADD MLOAD DUP5 DUP3 SUB PUSH0 DUP7 ADD MSTORE PUSH2 0x8D2 DUP3 DUP3 PUSH2 0x866 JUMP JUMPDEST SWAP2 POP POP PUSH1 0x20 DUP4 ADD MLOAD DUP5 DUP3 SUB PUSH1 0x20 DUP7 ADD MSTORE PUSH2 0x8EC DUP3 DUP3 PUSH2 0x866 JUMP JUMPDEST SWAP2 POP POP PUSH1 0x40 DUP4 ADD MLOAD PUSH2 0x901 PUSH1 0x40 DUP7 ADD DUP3 PUSH2 0x8A9 JUMP JUMPDEST POP DUP1 SWAP2 POP POP SWAP3 SWAP2 POP POP JUMP JUMPDEST PUSH0 PUSH1 0x20 DUP3 ADD SWAP1 POP DUP2 DUP2 SUB PUSH0 DUP4 ADD MSTORE PUSH2 0x924 DUP2 DUP5 PUSH2 0x8B8 JUMP JUMPDEST SWAP1 POP SWAP3 SWAP2 POP POP JUMP JUMPDEST PUSH0 DUP2 SWAP1 POP SWAP2 SWAP1 POP JUMP JUMPDEST PUSH2 0x93E DUP2 PUSH2 0x92C JUMP JUMPDEST DUP3 MSTORE POP POP JUMP JUMPDEST PUSH0 PUSH1 0x20 DUP3 ADD SWAP1 POP PUSH2 0x957 PUSH0 DUP4 ADD DUP5 PUSH2 0x935 JUMP JUMPDEST SWAP3 SWAP2 POP POP JUMP JUMPDEST PUSH0 DUP1 REVERT JUMPDEST PUSH0 DUP1 REVERT JUMPDEST PUSH32 0x4E487B7100000000000000000000000000000000000000000000000000000000 PUSH0 MSTORE PUSH1 0x41 PUSH1 0x4 MSTORE PUSH1 0x24 PUSH0 REVERT JUMPDEST PUSH2 0x99B DUP3 PUSH2 0x856 JUMP JUMPDEST DUP2 ADD DUP2 DUP2 LT PUSH8 0xFFFFFFFFFFFFFFFF DUP3 GT OR ISZERO PUSH2 0x9BA JUMPI PUSH2 0x9B9 PUSH2 0x965 JUMP JUMPDEST JUMPDEST DUP1 PUSH1 0x40 MSTORE POP POP POP JUMP JUMPDEST PUSH0 PUSH2 0x9CC PUSH2 0x798 JUMP JUMPDEST SWAP1 POP PUSH2 0x9D8 DUP3 DUP3 PUSH2 0x992 JUMP JUMPDEST SWAP2 SWAP1 POP JUMP JUMPDEST PUSH0 PUSH8 0xFFFFFFFFFFFFFFFF DUP3 GT ISZERO PUSH2 0x9F7 JUMPI PUSH2 0x9F6 PUSH2 0x965 JUMP JUMPDEST JUMPDEST PUSH2 0xA00 DUP3 PUSH2 0x856 JUMP JUMPDEST SWAP1 POP PUSH1 0x20 DUP2 ADD SWAP1 POP SWAP2 SWAP1 POP JUMP JUMPDEST DUP3 DUP2 DUP4 CALLDATACOPY PUSH0 DUP4 DUP4 ADD MSTORE POP POP POP JUMP JUMPDEST PUSH0 PUSH2 0xA2D PUSH2 0xA28 DUP5 PUSH2 0x9DD JUMP JUMPDEST PUSH2 0x9C3 JUMP JUMPDEST SWAP1 POP DUP3 DUP2 MSTORE PUSH1 0x20 DUP2 ADD DUP5 DUP5 DUP5 ADD GT ISZERO PUSH2 0xA49 JUMPI PUSH2 0xA48 PUSH2 0x961 JUMP JUMPDEST JUMPDEST PUSH2 0xA54 DUP5 DUP3 DUP6 PUSH2 0xA0D JUMP JUMPDEST POP SWAP4 SWAP3 POP POP POP JUMP JUMPDEST PUSH0 DUP3 PUSH1 0x1F DUP4 ADD SLT PUSH2 0xA70 JUMPI PUSH2 0xA6F PUSH2 0x95D JUMP JUMPDEST JUMPDEST DUP2 CALLDATALOAD PUSH2 0xA80 DUP5 DUP3 PUSH1 0x20 DUP7 ADD PUSH2 0xA1B JUMP JUMPDEST SWAP2 POP POP SWAP3 SWAP2 POP POP JUMP JUMPDEST PUSH0 DUP1 PUSH1 0x40 DUP4 DUP6 SUB SLT ISZERO PUSH2 0xA9F JUMPI PUSH2 0xA9E PUSH2 0x7A1 JUMP JUMPDEST JUMPDEST PUSH0 DUP4 ADD CALLDATALOAD PUSH8 0xFFFFFFFFFFFFFFFF DUP2 GT ISZERO PUSH2 0xABC JUMPI PUSH2 0xABB PUSH2 0x7A5 JUMP JUMPDEST JUMPDEST PUSH2 0xAC8 DUP6 DUP3 DUP7 ADD PUSH2 0xA5C JUMP JUMPDEST SWAP3 POP POP PUSH1 0x20 DUP4 ADD CALLDATALOAD PUSH8 0xFFFFFFFFFFFFFFFF DUP2 GT ISZERO PUSH2 0xAE9 JUMPI PUSH2 0xAE8 PUSH2 0x7A5 JUMP JUMPDEST JUMPDEST PUSH2 0xAF5 DUP6 DUP3 DUP7 ADD PUSH2 0xA5C JUMP JUMPDEST SWAP2 POP POP SWAP3 POP SWAP3 SWAP1 POP JUMP JUMPDEST PUSH0 DUP2 MLOAD SWAP1 POP SWAP2 SWAP1 POP JUMP JUMPDEST PUSH0 DUP3 DUP3 MSTORE PUSH1 0x20 DUP3 ADD SWAP1 POP SWAP3 SWAP2 POP POP JUMP JUMPDEST PUSH0 DUP2 SWAP1 POP PUSH1 0x20 DUP3 ADD SWAP1 POP SWAP2 SWAP1 POP JUMP JUMPDEST PUSH2 0xB31 DUP2 PUSH2 0x7C8 JUMP JUMPDEST DUP3 MSTORE POP POP JUMP JUMPDEST PUSH0 PUSH2 0xB42 DUP4 DUP4 PUSH2 0xB28 JUMP JUMPDEST PUSH1 0x20 DUP4 ADD SWAP1 POP SWAP3 SWAP2 POP POP JUMP JUMPDEST PUSH0 PUSH1 0x20 DUP3 ADD SWAP1 POP SWAP2 SWAP1 POP JUMP JUMPDEST PUSH0 PUSH2 0xB64 DUP3 PUSH2 0xAFF JUMP JUMPDEST PUSH2 0xB6E DUP2 DUP6 PUSH2 0xB09 JUMP JUMPDEST SWAP4 POP PUSH2 0xB79 DUP4 PUSH2 0xB19 JUMP JUMPDEST DUP1 PUSH0 JUMPDEST DUP4 DUP2 LT ISZERO PUSH2 0xBA9 JUMPI DUP2 MLOAD PUSH2 0xB90 DUP9 DUP3 PUSH2 0xB37 JUMP JUMPDEST SWAP8 POP PUSH2 0xB9B DUP4 PUSH2 0xB4E JUMP JUMPDEST SWAP3 POP POP PUSH1 0x1 DUP2 ADD SWAP1 POP PUSH2 0xB7C JUMP JUMPDEST POP DUP6 SWAP4 POP POP POP POP SWAP3 SWAP2 POP POP JUMP JUMPDEST PUSH0 PUSH1 0x20 DUP3 ADD SWAP1 POP DUP2 DUP2 SUB PUSH0 DUP4 ADD MSTORE PUSH2 0xBCE DUP2 DUP5 PUSH2 0xB5A JUMP JUMPDEST SWAP1 POP SWAP3 SWAP2 POP POP JUMP JUMPDEST PUSH2 0xBDF DUP2 PUSH2 0x92C JUMP JUMPDEST DUP2 EQ PUSH2 0xBE9 JUMPI PUSH0 DUP1 REVERT JUMPDEST POP JUMP JUMPDEST PUSH0 DUP2 CALLDATALOAD SWAP1 POP PUSH2 0xBFA DUP2 PUSH2 0xBD6 JUMP JUMPDEST SWAP3 SWAP2 POP POP JUMP JUMPDEST PUSH0 PUSH1 0x20 DUP3 DUP5 SUB SLT ISZERO PUSH2 0xC15 JUMPI PUSH2 0xC14 PUSH2 0x7A1 JUMP JUMPDEST JUMPDEST PUSH0 PUSH2 0xC22 DUP5 DUP3 DUP6 ADD PUSH2 0xBEC JUMP JUMPDEST SWAP2 POP POP SWAP3 SWAP2 POP POP JUMP JUMPDEST PUSH2 0xC34 DUP2 PUSH2 0x7C8 JUMP JUMPDEST DUP3 MSTORE POP POP JUMP JUMPDEST PUSH0 PUSH1 0x20 DUP3 ADD SWAP1 POP PUSH2 0xC4D PUSH0 DUP4 ADD DUP5 PUSH2 0xC2B JUMP JUMPDEST SWAP3 SWAP2 POP POP JUMP JUMPDEST PUSH0 DUP3 DUP3 MSTORE PUSH1 0x20 DUP3 ADD SWAP1 POP SWAP3 SWAP2 POP POP JUMP JUMPDEST PUSH0 PUSH2 0xC6D DUP3 PUSH2 0x82E JUMP JUMPDEST PUSH2 0xC77 DUP2 DUP6 PUSH2 0xC53 JUMP JUMPDEST SWAP4 POP PUSH2 0xC87 DUP2 DUP6 PUSH1 0x20 DUP7 ADD PUSH2 0x848 JUMP JUMPDEST PUSH2 0xC90 DUP2 PUSH2 0x856 JUMP JUMPDEST DUP5 ADD SWAP2 POP POP SWAP3 SWAP2 POP POP JUMP JUMPDEST PUSH2 0xCA4 DUP2 PUSH2 0x89E JUMP JUMPDEST DUP3 MSTORE POP POP JUMP JUMPDEST PUSH0 PUSH1 0x60 DUP3 ADD SWAP1 POP DUP2 DUP2 SUB PUSH0 DUP4 ADD MSTORE PUSH2 0xCC2 DUP2 DUP7 PUSH2 0xC63 JUMP JUMPDEST SWAP1 POP DUP2 DUP2 SUB PUSH1 0x20 DUP4 ADD MSTORE PUSH2 0xCD6 DUP2 DUP6 PUSH2 0xC63 JUMP JUMPDEST SWAP1 POP PUSH2 0xCE5 PUSH1 0x40 DUP4 ADD DUP5 PUSH2 0xC9B JUMP JUMPDEST SWAP5 SWAP4 POP POP POP POP JUMP JUMPDEST PUSH32 0x417574686F7220646F6573206E6F742065786973740000000000000000000000 PUSH0 DUP3 ADD MSTORE POP JUMP JUMPDEST PUSH0 PUSH2 0xD21 PUSH1 0x15 DUP4 PUSH2 0xC53 JUMP JUMPDEST SWAP2 POP PUSH2 0xD2C DUP3 PUSH2 0xCED JUMP JUMPDEST PUSH1 0x20 DUP3 ADD SWAP1 POP SWAP2 SWAP1 POP JUMP JUMPDEST PUSH0 PUSH1 0x20 DUP3 ADD SWAP1 POP DUP2 DUP2 SUB PUSH0 DUP4 ADD MSTORE PUSH2 0xD4E DUP2 PUSH2 0xD15 JUMP JUMPDEST SWAP1 POP SWAP2 SWAP1 POP JUMP JUMPDEST PUSH32 0x4E487B7100000000000000000000000000000000000000000000000000000000 PUSH0 MSTORE PUSH1 0x22 PUSH1 0x4 MSTORE PUSH1 0x24 PUSH0 REVERT JUMPDEST PUSH0 PUSH1 0x2 DUP3 DIV SWAP1 POP PUSH1 0x1 DUP3 AND DUP1 PUSH2 0xD99 JUMPI PUSH1 0x7F DUP3 AND SWAP2 POP JUMPDEST PUSH1 0x20 DUP3 LT DUP2 SUB PUSH2 0xDAC JUMPI PUSH2 0xDAB PUSH2 0xD55 JUMP JUMPDEST JUMPDEST POP SWAP2 SWAP1 POP JUMP JUMPDEST PUSH32 0x417574686F7220616C7265616479206578697374730000000000000000000000 PUSH0 DUP3 ADD MSTORE POP JUMP JUMPDEST PUSH0 PUSH2 0xDE6 PUSH1 0x15 DUP4 PUSH2 0xC53 JUMP JUMPDEST SWAP2 POP PUSH2 0xDF1 DUP3 PUSH2 0xDB2 JUMP JUMPDEST PUSH1 0x20 DUP3 ADD SWAP1 POP SWAP2 SWAP1 POP JUMP JUMPDEST PUSH0 PUSH1 0x20 DUP3 ADD SWAP1 POP DUP2 DUP2 SUB PUSH0 DUP4 ADD MSTORE PUSH2 0xE13 DUP2 PUSH2 0xDDA JUMP JUMPDEST SWAP1 POP SWAP2 SWAP1 POP JUMP JUMPDEST PUSH32 0x4E487B7100000000000000000000000000000000000000000000000000000000 PUSH0 MSTORE PUSH1 0x11 PUSH1 0x4 MSTORE PUSH1 0x24 PUSH0 REVERT JUMPDEST PUSH0 PUSH2 0xE51 DUP3 PUSH2 0x92C JUMP JUMPDEST SWAP2 POP PUSH32 0xFFFFFFFFFFFFFFFFFFFFFFFFFFFFFFFFFFFFFFFFFFFFFFFFFFFFFFFFFFFFFFFF DUP3 SUB PUSH2 0xE83 JUMPI PUSH2 0xE82 PUSH2 0xE1A JUMP JUMPDEST JUMPDEST PUSH1 0x1 DUP3 ADD SWAP1 POP SWAP2 SWAP1 POP JUMP JUMPDEST PUSH0 DUP2 SWAP1 POP DUP2 PUSH0 MSTORE PUSH1 0x20 PUSH0 KECCAK256 SWAP1 POP SWAP2 SWAP1 POP JUMP JUMPDEST PUSH0 PUSH1 0x20 PUSH1 0x1F DUP4 ADD DIV SWAP1 POP SWAP2 SWAP1 POP JUMP JUMPDEST PUSH0 DUP3 DUP3 SHL SWAP1 POP SWAP3 SWAP2 POP POP JUMP JUMPDEST PUSH0 PUSH1 0x8 DUP4 MUL PUSH2 0xEEA PUSH32 0xFFFFFFFFFFFFFFFFFFFFFFFFFFFFFFFFFFFFFFFFFFFFFFFFFFFFFFFFFFFFFFFF DUP3 PUSH2 0xEAF JUMP JUMPDEST PUSH2 0xEF4 DUP7 DUP4 PUSH2 0xEAF JUMP JUMPDEST SWAP6 POP DUP1 NOT DUP5 AND SWAP4 POP DUP1 DUP7 AND DUP5 OR SWAP3 POP POP POP SWAP4 SWAP3 POP POP POP JUMP JUMPDEST PUSH0 DUP2 SWAP1 POP SWAP2 SWAP1 POP JUMP JUMPDEST PUSH0 PUSH2 0xF2F PUSH2 0xF2A PUSH2 0xF25 DUP5 PUSH2 0x92C JUMP JUMPDEST PUSH2 0xF0C JUMP JUMPDEST PUSH2 0x92C JUMP JUMPDEST SWAP1 POP SWAP2 SWAP1 POP JUMP JUMPDEST PUSH0 DUP2 SWAP1 POP SWAP2 SWAP1 POP JUMP JUMPDEST PUSH2 0xF48 DUP4 PUSH2 0xF15 JUMP JUMPDEST PUSH2 0xF5C PUSH2 0xF54 DUP3 PUSH2 0xF36 JUMP JUMPDEST DUP5 DUP5 SLOAD PUSH2 0xEBB JUMP JUMPDEST DUP3 SSTORE POP POP POP POP JUMP JUMPDEST PUSH0 SWAP1 JUMP JUMPDEST PUSH2 0xF70 PUSH2 0xF64 JUMP JUMPDEST PUSH2 0xF7B DUP2 DUP5 DUP5 PUSH2 0xF3F JUMP JUMPDEST POP POP POP JUMP JUMPDEST JUMPDEST DUP2 DUP2 LT ISZERO PUSH2 0xF9E JUMPI PUSH2 0xF93 PUSH0 DUP3 PUSH2 0xF68 JUMP JUMPDEST PUSH1 0x1 DUP2 ADD SWAP1 POP PUSH2 0xF81 JUMP JUMPDEST POP POP JUMP JUMPDEST PUSH1 0x1F DUP3 GT ISZERO PUSH2 0xFE3 JUMPI PUSH2 0xFB4 DUP2 PUSH2 0xE8E JUMP JUMPDEST PUSH2 0xFBD DUP5 PUSH2 0xEA0 JUMP JUMPDEST DUP2 ADD PUSH1 0x20 DUP6 LT ISZERO PUSH2 0xFCC JUMPI DUP2 SWAP1 POP JUMPDEST PUSH2 0xFE0 PUSH2 0xFD8 DUP6 PUSH2 0xEA0 JUMP JUMPDEST DUP4 ADD DUP3 PUSH2 0xF80 JUMP JUMPDEST POP POP JUMPDEST POP POP POP JUMP JUMPDEST PUSH0 DUP3 DUP3 SHR SWAP1 POP SWAP3 SWAP2 POP POP JUMP JUMPDEST PUSH0 PUSH2 0x1003 PUSH0 NOT DUP5 PUSH1 0x8 MUL PUSH2 0xFE8 JUMP JUMPDEST NOT DUP1 DUP4 AND SWAP2 POP POP SWAP3 SWAP2 POP POP JUMP JUMPDEST PUSH0 PUSH2 0x101B DUP4 DUP4 PUSH2 0xFF4 JUMP JUMPDEST SWAP2 POP DUP3 PUSH1 0x2 MUL DUP3 OR SWAP1 POP SWAP3 SWAP2 POP POP JUMP JUMPDEST PUSH2 0x1034 DUP3 PUSH2 0x82E JUMP JUMPDEST PUSH8 0xFFFFFFFFFFFFFFFF DUP2 GT ISZERO PUSH2 0x104D JUMPI PUSH2 0x104C PUSH2 0x965 JUMP JUMPDEST JUMPDEST PUSH2 0x1057 DUP3 SLOAD PUSH2 0xD82 JUMP JUMPDEST PUSH2 0x1062 DUP3 DUP3 DUP6 PUSH2 0xFA2 JUMP JUMPDEST PUSH0 PUSH1 0x20 SWAP1 POP PUSH1 0x1F DUP4 GT PUSH1 0x1 DUP2 EQ PUSH2 0x1093 JUMPI PUSH0 DUP5 ISZERO PUSH2 0x1081 JUMPI DUP3 DUP8 ADD MLOAD SWAP1 POP JUMPDEST PUSH2 0x108B DUP6 DUP3 PUSH2 0x1010 JUMP JUMPDEST DUP7 SSTORE POP PUSH2 0x10F2 JUMP JUMPDEST PUSH1 0x1F NOT DUP5 AND PUSH2 0x10A1 DUP7 PUSH2 0xE8E JUMP JUMPDEST PUSH0 JUMPDEST DUP3 DUP2 LT ISZERO PUSH2 0x10C8 JUMPI DUP5 DUP10 ADD MLOAD DUP3 SSTORE PUSH1 0x1 DUP3 ADD SWAP2 POP PUSH1 0x20 DUP6 ADD SWAP5 POP PUSH1 0x20 DUP2 ADD SWAP1 POP PUSH2 0x10A3 JUMP JUMPDEST DUP7 DUP4 LT ISZERO PUSH2 0x10E5 JUMPI DUP5 DUP10 ADD MLOAD PUSH2 0x10E1 PUSH1 0x1F DUP10 AND DUP3 PUSH2 0xFF4 JUMP JUMPDEST DUP4 SSTORE POP JUMPDEST PUSH1 0x1 PUSH1 0x2 DUP9 MUL ADD DUP9 SSTORE POP POP POP JUMPDEST POP POP POP POP POP POP JUMP JUMPDEST PUSH0 PUSH1 0x40 DUP3 ADD SWAP1 POP DUP2 DUP2 SUB PUSH0 DUP4 ADD MSTORE PUSH2 0x1112 DUP2 DUP6 PUSH2 0xC63 JUMP JUMPDEST SWAP1 POP DUP2 DUP2 SUB PUSH1 0x20 DUP4 ADD MSTORE PUSH2 0x1126 DUP2 DUP5 PUSH2 0xC63 JUMP JUMPDEST SWAP1 POP SWAP4 SWAP3 POP POP POP JUMP INVALID LOG2 PUSH5 0x6970667358 0x22 SLT KECCAK256 PC SWAP16 0x4F SWAP5 0xCC DUP1 0xB3 0xDA ISZERO 0xE2 MSTORE 0xC5 0xE8 PUSH11 0x20D381CF8B784951619C56 EXTCODESIZE 0xA6 EXTCODESIZE 0xBB INVALID SLOAD PUSH21 0x64736F6C634300081A003300000000000000000000 "
				},
				"gasEstimates": {
					"creation": {
						"codeDepositCost": "890600",
						"executionCost": "5932",
						"totalCost": "896532"
					},
					"external": {
						"addAuthor(string,string)": "infinite",
						"authorAddresses(uint256)": "5010",
						"authors(address)": "infinite",
						"getAllAuthors()": "infinite",
						"getAuthor(address)": "infinite",
						"noOfAuthors()": "2424"
					}
				},
				"methodIdentifiers": {
					"addAuthor(string,string)": "4a56dd58",
					"authorAddresses(uint256)": "9692f5f4",
					"authors(address)": "bf9c5001",
					"getAllAuthors()": "5d7869e4",
					"getAuthor(address)": "0ab30093",
					"noOfAuthors()": "228ea0f6"
				}
			},
			"storageLayout": {
				"storage": [
					{
						"astId": 330,
						"contract": "contracts/authors.sol:Authors",
						"label": "noOfAuthors",
						"offset": 0,
						"slot": "0",
						"type": "t_uint256"
					},
					{
						"astId": 333,
						"contract": "contracts/authors.sol:Authors",
						"label": "authorAddresses",
						"offset": 0,
						"slot": "1",
						"type": "t_array(t_address)dyn_storage"
					},
					{
						"astId": 345,
						"contract": "contracts/authors.sol:Authors",
						"label": "authors",
						"offset": 0,
						"slot": "2",
						"type": "t_mapping(t_address,t_struct(Author)340_storage)"
					}
				],
				"types": {
					"t_address": {
						"encoding": "inplace",
						"label": "address",
						"numberOfBytes": "20"
					},
					"t_array(t_address)dyn_storage": {
						"base": "t_address",
						"encoding": "dynamic_array",
						"label": "address[]",
						"numberOfBytes": "32"
					},
					"t_bool": {
						"encoding": "inplace",
						"label": "bool",
						"numberOfBytes": "1"
					},
					"t_mapping(t_address,t_struct(Author)340_storage)": {
						"encoding": "mapping",
						"key": "t_address",
						"label": "mapping(address => struct Authors.Author)",
						"numberOfBytes": "32",
						"value": "t_struct(Author)340_storage"
					},
					"t_string_storage": {
						"encoding": "bytes",
						"label": "string",
						"numberOfBytes": "32"
					},
					"t_struct(Author)340_storage": {
						"encoding": "inplace",
						"label": "struct Authors.Author",
						"members": [
							{
								"astId": 335,
								"contract": "contracts/authors.sol:Authors",
								"label": "name",
								"offset": 0,
								"slot": "0",
								"type": "t_string_storage"
							},
							{
								"astId": 337,
								"contract": "contracts/authors.sol:Authors",
								"label": "title",
								"offset": 0,
								"slot": "1",
								"type": "t_string_storage"
							},
							{
								"astId": 339,
								"contract": "contracts/authors.sol:Authors",
								"label": "exists",
								"offset": 0,
								"slot": "2",
								"type": "t_bool"
							}
						],
						"numberOfBytes": "96"
					},
					"t_uint256": {
						"encoding": "inplace",
						"label": "uint256",
						"numberOfBytes": "32"
					}
				}
			},
			"userdoc": {
				"kind": "user",
				"methods": {},
				"version": 1
			}
		}
	}
}