{
  "_format": "hh-sol-artifact-1",
  "contractName": "Articles",
  "sourceName": "contracts/Article.sol",
  "abi": [
    {
      "inputs": [
        {
          "internalType": "address",
          "name": "_authorAddress",
          "type": "address"
        }
      ],
      "stateMutability": "nonpayable",
      "type": "constructor"
    },
    {
      "anonymous": false,
      "inputs": [
        {
          "indexed": false,
          "internalType": "string",
          "name": "title",
          "type": "string"
        },
        {
          "indexed": false,
          "internalType": "string",
          "name": "metadataId",
          "type": "string"
        },
        {
          "indexed": false,
          "internalType": "address",
          "name": "authorAddress",
          "type": "address"
        }
      ],
      "name": "ArticleAdded",
      "type": "event"
    },
    {
      "anonymous": false,
      "inputs": [
        {
          "indexed": true,
          "internalType": "address",
          "name": "author",
          "type": "address"
        },
        {
          "indexed": false,
          "internalType": "uint256",
          "name": "articleIndex",
          "type": "uint256"
        },
        {
          "indexed": false,
          "internalType": "string",
          "name": "articleTitle",
          "type": "string"
        }
      ],
      "name": "ArticleDeleted",
      "type": "event"
    },
    {
      "anonymous": false,
      "inputs": [
        {
          "indexed": true,
          "internalType": "address",
          "name": "sender",
          "type": "address"
        },
        {
          "indexed": true,
          "internalType": "address",
          "name": "recipient",
          "type": "address"
        },
        {
          "indexed": false,
          "internalType": "uint256",
          "name": "amount",
          "type": "uint256"
        },
        {
          "indexed": false,
          "internalType": "uint256",
          "name": "articleIndex",
          "type": "uint256"
        },
        {
          "indexed": false,
          "internalType": "string",
          "name": "articleTitle",
          "type": "string"
        }
      ],
      "name": "GiftSent",
      "type": "event"
    },
    {
      "inputs": [
        {
          "internalType": "string",
          "name": "_title",
          "type": "string"
        },
        {
          "internalType": "string",
          "name": "_metadataHash",
          "type": "string"
        }
      ],
      "name": "addArticle",
      "outputs": [],
      "stateMutability": "nonpayable",
      "type": "function"
    },
    {
      "inputs": [
        {
          "internalType": "uint256",
          "name": "",
          "type": "uint256"
        }
      ],
      "name": "articles",
      "outputs": [
        {
          "internalType": "string",
          "name": "title",
          "type": "string"
        },
        {
          "internalType": "string",
          "name": "metadataId",
          "type": "string"
        },
        {
          "internalType": "address",
          "name": "authorAddress",
          "type": "address"
        },
        {
          "internalType": "bool",
          "name": "exists",
          "type": "bool"
        }
      ],
      "stateMutability": "view",
      "type": "function"
    },
    {
      "inputs": [
        {
          "internalType": "address",
          "name": "",
          "type": "address"
        },
        {
          "internalType": "uint256",
          "name": "",
          "type": "uint256"
        }
      ],
      "name": "authorGifts",
      "outputs": [
        {
          "internalType": "uint256",
          "name": "amount",
          "type": "uint256"
        },
        {
          "internalType": "uint256",
          "name": "articleIndex",
          "type": "uint256"
        },
        {
          "internalType": "string",
          "name": "articleTitle",
          "type": "string"
        },
        {
          "internalType": "address",
          "name": "sender",
          "type": "address"
        }
      ],
      "stateMutability": "view",
      "type": "function"
    },
    {
      "inputs": [
        {
          "internalType": "string",
          "name": "_metadataHash",
          "type": "string"
        }
      ],
      "name": "deleteArticle",
      "outputs": [],
      "stateMutability": "nonpayable",
      "type": "function"
    },
    {
      "inputs": [
        {
          "internalType": "string",
          "name": "_metadataHash",
          "type": "string"
        }
      ],
      "name": "getArticle",
      "outputs": [
        {
          "internalType": "string",
          "name": "",
          "type": "string"
        },
        {
          "internalType": "string",
          "name": "",
          "type": "string"
        },
        {
          "internalType": "address",
          "name": "",
          "type": "address"
        }
      ],
      "stateMutability": "view",
      "type": "function"
    },
    {
      "inputs": [
        {
          "internalType": "address",
          "name": "_author",
          "type": "address"
        }
      ],
      "name": "getAuthorGifts",
      "outputs": [
        {
          "components": [
            {
              "internalType": "uint256",
              "name": "amount",
              "type": "uint256"
            },
            {
              "internalType": "uint256",
              "name": "articleIndex",
              "type": "uint256"
            },
            {
              "internalType": "string",
              "name": "articleTitle",
              "type": "string"
            },
            {
              "internalType": "address",
              "name": "sender",
              "type": "address"
            }
          ],
          "internalType": "struct Articles.Gift[]",
          "name": "",
          "type": "tuple[]"
        }
      ],
      "stateMutability": "view",
      "type": "function"
    },
    {
      "inputs": [],
      "name": "noOfArticles",
      "outputs": [
        {
          "internalType": "uint256",
          "name": "",
          "type": "uint256"
        }
      ],
      "stateMutability": "view",
      "type": "function"
    },
    {
      "inputs": [
        {
          "internalType": "string",
          "name": "_metadataHash",
          "type": "string"
        }
      ],
      "name": "sendGift",
      "outputs": [],
      "stateMutability": "payable",
      "type": "function"
    }
  ],
  "bytecode": "0x608060405260006001553480156200001657600080fd5b506040516200226d3803806200226d83398181016040528101906200003c9190620000ed565b806000806101000a81548173ffffffffffffffffffffffffffffffffffffffff021916908373ffffffffffffffffffffffffffffffffffffffff160217905550506200011f565b600080fd5b600073ffffffffffffffffffffffffffffffffffffffff82169050919050565b6000620000b58262000088565b9050919050565b620000c781620000a8565b8114620000d357600080fd5b50565b600081519050620000e781620000bc565b92915050565b60006020828403121562000106576200010562000083565b5b60006200011684828501620000d6565b91505092915050565b61213e806200012f6000396000f3fe60806040526004361061007b5760003560e01c80636ecb56711161004e5780636ecb56711461013a578063a46666651461017a578063c1cfe6a3146101b9578063edcfafe6146101d55761007b565b806318058066146100805780632007c8f1146100bd5780633af38305146100e85780636ec67ec914610111575b600080fd5b34801561008c57600080fd5b506100a760048036038101906100a291906111c2565b610215565b6040516100b491906113cc565b60405180910390f35b3480156100c957600080fd5b506100d26103af565b6040516100df91906113fd565b60405180910390f35b3480156100f457600080fd5b5061010f600480360381019061010a919061154d565b6103b5565b005b34801561011d57600080fd5b5061013860048036038101906101339190611596565b61054c565b005b34801561014657600080fd5b50610161600480360381019061015c919061163a565b6107a8565b60405161017194939291906116d3565b60405180910390f35b34801561018657600080fd5b506101a1600480360381019061019c919061154d565b61089d565b6040516101b09392919061171f565b60405180910390f35b6101d360048036038101906101ce919061154d565b610aef565b005b3480156101e157600080fd5b506101fc60048036038101906101f79190611764565b610fd3565b60405161020c94939291906117ac565b60405180910390f35b6060600360008373ffffffffffffffffffffffffffffffffffffffff1673ffffffffffffffffffffffffffffffffffffffff168152602001908152602001600020805480602002602001604051908101604052809291908181526020016000905b828210156103a4578382906000526020600020906004020160405180608001604052908160008201548152602001600182015481526020016002820180546102bd9061182e565b80601f01602080910402602001604051908101604052809291908181526020018280546102e99061182e565b80156103365780601f1061030b57610100808354040283529160200191610336565b820191906000526020600020905b81548152906001019060200180831161031957829003601f168201915b505050505081526020016003820160009054906101000a900473ffffffffffffffffffffffffffffffffffffffff1673ffffffffffffffffffffffffffffffffffffffff1673ffffffffffffffffffffffffffffffffffffffff168152505081526020019060010190610276565b505050509050919050565b60015481565b60006004826040516103c7919061189b565b9081526020016040518091039020549050600280549050811061041f576040517f08c379a0000000000000000000000000000000000000000000000000000000008152600401610416906118fe565b60405180910390fd5b6000600282815481106104355761043461191e565b5b906000526020600020906003020190503373ffffffffffffffffffffffffffffffffffffffff168160020160009054906101000a900473ffffffffffffffffffffffffffffffffffffffff1673ffffffffffffffffffffffffffffffffffffffff16146104d7576040517f08c379a00000000000000000000000000000000000000000000000000000000081526004016104ce906119bf565b60405180910390fd5b60008160020160146101000a81548160ff0219169083151502179055503373ffffffffffffffffffffffffffffffffffffffff167f92b0267ae1289ea84247f15ee9011343df8ebde2e983ebdd1fc7cc339060776e838360000160405161053f929190611a78565b60405180910390a2505050565b60008060009054906101000a900473ffffffffffffffffffffffffffffffffffffffff1673ffffffffffffffffffffffffffffffffffffffff16630ab30093336040518263ffffffff1660e01b81526004016105a89190611aa8565b600060405180830381865afa1580156105c5573d6000803e3d6000fd5b505050506040513d6000823e3d601f19601f820116820180604052508101906105ee9190611c05565b90508060400151610634576040517f08c379a000000000000000000000000000000000000000000000000000000000815260040161062b90611cc0565b60405180910390fd5b600260405180608001604052808581526020018481526020013373ffffffffffffffffffffffffffffffffffffffff16815260200160011515815250908060018154018082558091505060019003906000526020600020906003020160009091909190915060008201518160000190816106ae9190611e77565b5060208201518160010190816106c49190611e77565b5060408201518160020160006101000a81548173ffffffffffffffffffffffffffffffffffffffff021916908373ffffffffffffffffffffffffffffffffffffffff16021790555060608201518160020160146101000a81548160ff0219169083151502179055505050600060016002805490506107429190611f78565b905080600484604051610755919061189b565b9081526020016040518091039020819055507fdbfe1f82a77201b0c570aeab9388d9d6cfb93f73f7cd224b1ba1f6da66f27cac84843360405161079a9392919061171f565b60405180910390a150505050565b600360205281600052604060002081815481106107c457600080fd5b9060005260206000209060040201600091509150508060000154908060010154908060020180546107f49061182e565b80601f01602080910402602001604051908101604052809291908181526020018280546108209061182e565b801561086d5780601f106108425761010080835404028352916020019161086d565b820191906000526020600020905b81548152906001019060200180831161085057829003601f168201915b5050505050908060030160009054906101000a900473ffffffffffffffffffffffffffffffffffffffff16905084565b6060806000806004856040516108b3919061189b565b9081526020016040518091039020549050600280549050811061090b576040517f08c379a0000000000000000000000000000000000000000000000000000000008152600401610902906118fe565b60405180910390fd5b6000600282815481106109215761092061191e565b5b906000526020600020906003020160405180608001604052908160008201805461094a9061182e565b80601f01602080910402602001604051908101604052809291908181526020018280546109769061182e565b80156109c35780601f10610998576101008083540402835291602001916109c3565b820191906000526020600020905b8154815290600101906020018083116109a657829003601f168201915b505050505081526020016001820180546109dc9061182e565b80601f0160208091040260200160405190810160405280929190818152602001828054610a089061182e565b8015610a555780601f10610a2a57610100808354040283529160200191610a55565b820191906000526020600020905b815481529060010190602001808311610a3857829003601f168201915b505050505081526020016002820160009054906101000a900473ffffffffffffffffffffffffffffffffffffffff1673ffffffffffffffffffffffffffffffffffffffff1673ffffffffffffffffffffffffffffffffffffffff1681526020016002820160149054906101000a900460ff161515151581525050905080600001518160200151826040015194509450945050509193909250565b6000600482604051610b01919061189b565b90815260200160405180910390205490506002805490508110610b59576040517f08c379a0000000000000000000000000000000000000000000000000000000008152600401610b50906118fe565b60405180910390fd5b600060028281548110610b6f57610b6e61191e565b5b9060005260206000209060030201604051806080016040529081600082018054610b989061182e565b80601f0160208091040260200160405190810160405280929190818152602001828054610bc49061182e565b8015610c115780601f10610be657610100808354040283529160200191610c11565b820191906000526020600020905b815481529060010190602001808311610bf457829003601f168201915b50505050508152602001600182018054610c2a9061182e565b80601f0160208091040260200160405190810160405280929190818152602001828054610c569061182e565b8015610ca35780601f10610c7857610100808354040283529160200191610ca3565b820191906000526020600020905b815481529060010190602001808311610c8657829003601f168201915b505050505081526020016002820160009054906101000a900473ffffffffffffffffffffffffffffffffffffffff1673ffffffffffffffffffffffffffffffffffffffff1673ffffffffffffffffffffffffffffffffffffffff1681526020016002820160149054906101000a900460ff1615151515815250509050600073ffffffffffffffffffffffffffffffffffffffff16816040015173ffffffffffffffffffffffffffffffffffffffff1603610d92576040517f08c379a0000000000000000000000000000000000000000000000000000000008152600401610d8990611ff8565b60405180910390fd5b6000816040015173ffffffffffffffffffffffffffffffffffffffff1634604051610dbc90612049565b60006040518083038185875af1925050503d8060008114610df9576040519150601f19603f3d011682016040523d82523d6000602084013e610dfe565b606091505b5050905080610e42576040517f08c379a0000000000000000000000000000000000000000000000000000000008152600401610e39906120aa565b60405180910390fd5b60036000836040015173ffffffffffffffffffffffffffffffffffffffff1673ffffffffffffffffffffffffffffffffffffffff1681526020019081526020016000206040518060800160405280348152602001858152602001846000015181526020013373ffffffffffffffffffffffffffffffffffffffff16815250908060018154018082558091505060019003906000526020600020906004020160009091909190915060008201518160000155602082015181600101556040820151816002019081610f129190611e77565b5060608201518160030160006101000a81548173ffffffffffffffffffffffffffffffffffffffff021916908373ffffffffffffffffffffffffffffffffffffffff1602179055505050816040015173ffffffffffffffffffffffffffffffffffffffff163373ffffffffffffffffffffffffffffffffffffffff167fb4b46f23cd35c79709ecdacc4152dd97a90f5b7bfa9d3f4bc3ec8374060bfa9934868660000151604051610fc5939291906120ca565b60405180910390a350505050565b60028181548110610fe357600080fd5b90600052602060002090600302016000915090508060000180546110069061182e565b80601f01602080910402602001604051908101604052809291908181526020018280546110329061182e565b801561107f5780601f106110545761010080835404028352916020019161107f565b820191906000526020600020905b81548152906001019060200180831161106257829003601f168201915b5050505050908060010180546110949061182e565b80601f01602080910402602001604051908101604052809291908181526020018280546110c09061182e565b801561110d5780601f106110e25761010080835404028352916020019161110d565b820191906000526020600020905b8154815290600101906020018083116110f057829003601f168201915b5050505050908060020160009054906101000a900473ffffffffffffffffffffffffffffffffffffffff16908060020160149054906101000a900460ff16905084565b6000604051905090565b600080fd5b600080fd5b600073ffffffffffffffffffffffffffffffffffffffff82169050919050565b600061118f82611164565b9050919050565b61119f81611184565b81146111aa57600080fd5b50565b6000813590506111bc81611196565b92915050565b6000602082840312156111d8576111d761115a565b5b60006111e6848285016111ad565b91505092915050565b600081519050919050565b600082825260208201905092915050565b6000819050602082019050919050565b6000819050919050565b61122e8161121b565b82525050565b600081519050919050565b600082825260208201905092915050565b60005b8381101561126e578082015181840152602081019050611253565b60008484015250505050565b6000601f19601f8301169050919050565b600061129682611234565b6112a0818561123f565b93506112b0818560208601611250565b6112b98161127a565b840191505092915050565b6112cd81611184565b82525050565b60006080830160008301516112eb6000860182611225565b5060208301516112fe6020860182611225565b5060408301518482036040860152611316828261128b565b915050606083015161132b60608601826112c4565b508091505092915050565b600061134283836112d3565b905092915050565b6000602082019050919050565b6000611362826111ef565b61136c81856111fa565b93508360208202850161137e8561120b565b8060005b858110156113ba578484038952815161139b8582611336565b94506113a68361134a565b925060208a01995050600181019050611382565b50829750879550505050505092915050565b600060208201905081810360008301526113e68184611357565b905092915050565b6113f78161121b565b82525050565b600060208201905061141260008301846113ee565b92915050565b600080fd5b600080fd5b7f4e487b7100000000000000000000000000000000000000000000000000000000600052604160045260246000fd5b61145a8261127a565b810181811067ffffffffffffffff8211171561147957611478611422565b5b80604052505050565b600061148c611150565b90506114988282611451565b919050565b600067ffffffffffffffff8211156114b8576114b7611422565b5b6114c18261127a565b9050602081019050919050565b82818337600083830152505050565b60006114f06114eb8461149d565b611482565b90508281526020810184848401111561150c5761150b61141d565b5b6115178482856114ce565b509392505050565b600082601f83011261153457611533611418565b5b81356115448482602086016114dd565b91505092915050565b6000602082840312156115635761156261115a565b5b600082013567ffffffffffffffff8111156115815761158061115f565b5b61158d8482850161151f565b91505092915050565b600080604083850312156115ad576115ac61115a565b5b600083013567ffffffffffffffff8111156115cb576115ca61115f565b5b6115d78582860161151f565b925050602083013567ffffffffffffffff8111156115f8576115f761115f565b5b6116048582860161151f565b9150509250929050565b6116178161121b565b811461162257600080fd5b50565b6000813590506116348161160e565b92915050565b600080604083850312156116515761165061115a565b5b600061165f858286016111ad565b925050602061167085828601611625565b9150509250929050565b600082825260208201905092915050565b600061169682611234565b6116a0818561167a565b93506116b0818560208601611250565b6116b98161127a565b840191505092915050565b6116cd81611184565b82525050565b60006080820190506116e860008301876113ee565b6116f560208301866113ee565b8181036040830152611707818561168b565b905061171660608301846116c4565b95945050505050565b60006060820190508181036000830152611739818661168b565b9050818103602083015261174d818561168b565b905061175c60408301846116c4565b949350505050565b60006020828403121561177a5761177961115a565b5b600061178884828501611625565b91505092915050565b60008115159050919050565b6117a681611791565b82525050565b600060808201905081810360008301526117c6818761168b565b905081810360208301526117da818661168b565b90506117e960408301856116c4565b6117f6606083018461179d565b95945050505050565b7f4e487b7100000000000000000000000000000000000000000000000000000000600052602260045260246000fd5b6000600282049050600182168061184657607f821691505b602082108103611859576118586117ff565b5b50919050565b600081905092915050565b600061187582611234565b61187f818561185f565b935061188f818560208601611250565b80840191505092915050565b60006118a7828461186a565b915081905092915050565b7f41727469636c6520646f6573206e6f7420657869737400000000000000000000600082015250565b60006118e860168361167a565b91506118f3826118b2565b602082019050919050565b60006020820190508181036000830152611917816118db565b9050919050565b7f4e487b7100000000000000000000000000000000000000000000000000000000600052603260045260246000fd5b7f4f6e6c792074686520617574686f722063616e2064656c65746520746865206160008201527f727469636c650000000000000000000000000000000000000000000000000000602082015250565b60006119a960268361167a565b91506119b48261194d565b604082019050919050565b600060208201905081810360008301526119d88161199c565b9050919050565b60008190508160005260206000209050919050565b60008154611a018161182e565b611a0b818661167a565b94506001821660008114611a265760018114611a3c57611a6f565b60ff198316865281151560200286019350611a6f565b611a45856119df565b60005b83811015611a6757815481890152600182019150602081019050611a48565b808801955050505b50505092915050565b6000604082019050611a8d60008301856113ee565b8181036020830152611a9f81846119f4565b90509392505050565b6000602082019050611abd60008301846116c4565b92915050565b600080fd5b600080fd5b6000611ae0611adb8461149d565b611482565b905082815260208101848484011115611afc57611afb61141d565b5b611b07848285611250565b509392505050565b600082601f830112611b2457611b23611418565b5b8151611b34848260208601611acd565b91505092915050565b611b4681611791565b8114611b5157600080fd5b50565b600081519050611b6381611b3d565b92915050565b600060608284031215611b7f57611b7e611ac3565b5b611b896060611482565b9050600082015167ffffffffffffffff811115611ba957611ba8611ac8565b5b611bb584828501611b0f565b600083015250602082015167ffffffffffffffff811115611bd957611bd8611ac8565b5b611be584828501611b0f565b6020830152506040611bf984828501611b54565b60408301525092915050565b600060208284031215611c1b57611c1a61115a565b5b600082015167ffffffffffffffff811115611c3957611c3861115f565b5b611c4584828501611b69565b91505092915050565b7f4f6e6c79207265676973746572656420617574686f72732063616e206164642060008201527f61727469636c6573000000000000000000000000000000000000000000000000602082015250565b6000611caa60288361167a565b9150611cb582611c4e565b604082019050919050565b60006020820190508181036000830152611cd981611c9d565b9050919050565b60006020601f8301049050919050565b600082821b905092915050565b600060088302611d2d7fffffffffffffffffffffffffffffffffffffffffffffffffffffffffffffffff82611cf0565b611d378683611cf0565b95508019841693508086168417925050509392505050565b6000819050919050565b6000611d74611d6f611d6a8461121b565b611d4f565b61121b565b9050919050565b6000819050919050565b611d8e83611d59565b611da2611d9a82611d7b565b848454611cfd565b825550505050565b600090565b611db7611daa565b611dc2818484611d85565b505050565b5b81811015611de657611ddb600082611daf565b600181019050611dc8565b5050565b601f821115611e2b57611dfc816119df565b611e0584611ce0565b81016020851015611e14578190505b611e28611e2085611ce0565b830182611dc7565b50505b505050565b600082821c905092915050565b6000611e4e60001984600802611e30565b1980831691505092915050565b6000611e678383611e3d565b9150826002028217905092915050565b611e8082611234565b67ffffffffffffffff811115611e9957611e98611422565b5b611ea3825461182e565b611eae828285611dea565b600060209050601f831160018114611ee15760008415611ecf578287015190505b611ed98582611e5b565b865550611f41565b601f198416611eef866119df565b60005b82811015611f1757848901518255600182019150602085019450602081019050611ef2565b86831015611f345784890151611f30601f891682611e3d565b8355505b6001600288020188555050505b505050505050565b7f4e487b7100000000000000000000000000000000000000000000000000000000600052601160045260246000fd5b6000611f838261121b565b9150611f8e8361121b565b9250828203905081811115611fa657611fa5611f49565b5b92915050565b7f496e76616c696420617574686f72206164647265737300000000000000000000600082015250565b6000611fe260168361167a565b9150611fed82611fac565b602082019050919050565b6000602082019050818103600083015261201181611fd5565b9050919050565b600081905092915050565b50565b6000612033600083612018565b915061203e82612023565b600082019050919050565b600061205482612026565b9150819050919050565b7f47696674207472616e73666572206661696c6564000000000000000000000000600082015250565b600061209460148361167a565b915061209f8261205e565b602082019050919050565b600060208201905081810360008301526120c381612087565b9050919050565b60006060820190506120df60008301866113ee565b6120ec60208301856113ee565b81810360408301526120fe818461168b565b905094935050505056fea264697066735822122043c37084951d1e1fc12afb6bd3aed5574d185a1e888a23f2ae55ce9015cb1db264736f6c63430008180033",
  "linkReferences": {},
  "deployedLinkReferences": {}
}