{
  "_format": "hh-sol-artifact-1",
  "contractName": "Articles",
  "sourceName": "contracts/Article.sol",
  "abi": [
    {
      "inputs": [
        {
          "internalType": "address",
          "name": "_authorAddress",
          "type": "address"
        }
      ],
      "stateMutability": "nonpayable",
      "type": "constructor"
    },
    {
      "anonymous": false,
      "inputs": [
        {
          "indexed": false,
          "internalType": "string",
          "name": "title",
          "type": "string"
        },
        {
          "indexed": false,
          "internalType": "string",
          "name": "metadataId",
          "type": "string"
        },
        {
          "indexed": false,
          "internalType": "address",
          "name": "authorAddress",
          "type": "address"
        }
      ],
      "name": "ArticleAdded",
      "type": "event"
    },
    {
      "anonymous": false,
      "inputs": [
        {
          "indexed": true,
          "internalType": "address",
          "name": "author",
          "type": "address"
        },
        {
          "indexed": false,
          "internalType": "string",
          "name": "metadataId",
          "type": "string"
        },
        {
          "indexed": false,
          "internalType": "string",
          "name": "articleTitle",
          "type": "string"
        }
      ],
      "name": "ArticleDeleted",
      "type": "event"
    },
    {
      "anonymous": false,
      "inputs": [
        {
          "indexed": true,
          "internalType": "address",
          "name": "sender",
          "type": "address"
        },
        {
          "indexed": true,
          "internalType": "address",
          "name": "recipient",
          "type": "address"
        },
        {
          "indexed": false,
          "internalType": "uint256",
          "name": "amount",
          "type": "uint256"
        },
        {
          "indexed": false,
          "internalType": "string",
          "name": "metadataId",
          "type": "string"
        },
        {
          "indexed": false,
          "internalType": "string",
          "name": "articleTitle",
          "type": "string"
        }
      ],
      "name": "GiftSent",
      "type": "event"
    },
    {
      "inputs": [
        {
          "internalType": "string",
          "name": "_title",
          "type": "string"
        },
        {
          "internalType": "string",
          "name": "_metadataId",
          "type": "string"
        }
      ],
      "name": "addArticle",
      "outputs": [],
      "stateMutability": "nonpayable",
      "type": "function"
    },
    {
      "inputs": [
        {
          "internalType": "uint256",
          "name": "",
          "type": "uint256"
        }
      ],
      "name": "articles",
      "outputs": [
        {
          "internalType": "string",
          "name": "title",
          "type": "string"
        },
        {
          "internalType": "string",
          "name": "metadataId",
          "type": "string"
        },
        {
          "internalType": "address",
          "name": "authorAddress",
          "type": "address"
        },
        {
          "internalType": "bool",
          "name": "exists",
          "type": "bool"
        }
      ],
      "stateMutability": "view",
      "type": "function"
    },
    {
      "inputs": [
        {
          "internalType": "address",
          "name": "",
          "type": "address"
        },
        {
          "internalType": "uint256",
          "name": "",
          "type": "uint256"
        }
      ],
      "name": "authorGifts",
      "outputs": [
        {
          "internalType": "uint256",
          "name": "amount",
          "type": "uint256"
        },
        {
          "internalType": "uint256",
          "name": "articleIndex",
          "type": "uint256"
        },
        {
          "internalType": "string",
          "name": "articleTitle",
          "type": "string"
        },
        {
          "internalType": "address",
          "name": "sender",
          "type": "address"
        }
      ],
      "stateMutability": "view",
      "type": "function"
    },
    {
      "inputs": [
        {
          "internalType": "string",
          "name": "_metadataId",
          "type": "string"
        }
      ],
      "name": "deleteArticle",
      "outputs": [],
      "stateMutability": "nonpayable",
      "type": "function"
    },
    {
      "inputs": [],
      "name": "getAllActiveArticles",
      "outputs": [
        {
          "components": [
            {
              "internalType": "string",
              "name": "title",
              "type": "string"
            },
            {
              "internalType": "string",
              "name": "metadataId",
              "type": "string"
            },
            {
              "internalType": "address",
              "name": "authorAddress",
              "type": "address"
            },
            {
              "internalType": "bool",
              "name": "exists",
              "type": "bool"
            }
          ],
          "internalType": "struct Articles.Article[]",
          "name": "",
          "type": "tuple[]"
        }
      ],
      "stateMutability": "view",
      "type": "function"
    },
    {
      "inputs": [],
      "name": "getAllArticles",
      "outputs": [
        {
          "components": [
            {
              "internalType": "string",
              "name": "title",
              "type": "string"
            },
            {
              "internalType": "string",
              "name": "metadataId",
              "type": "string"
            },
            {
              "internalType": "address",
              "name": "authorAddress",
              "type": "address"
            },
            {
              "internalType": "bool",
              "name": "exists",
              "type": "bool"
            }
          ],
          "internalType": "struct Articles.Article[]",
          "name": "",
          "type": "tuple[]"
        }
      ],
      "stateMutability": "view",
      "type": "function"
    },
    {
      "inputs": [
        {
          "internalType": "string",
          "name": "_metadataId",
          "type": "string"
        }
      ],
      "name": "getArticle",
      "outputs": [
        {
          "internalType": "string",
          "name": "",
          "type": "string"
        },
        {
          "internalType": "string",
          "name": "",
          "type": "string"
        },
        {
          "internalType": "address",
          "name": "",
          "type": "address"
        }
      ],
      "stateMutability": "view",
      "type": "function"
    },
    {
      "inputs": [
        {
          "internalType": "address",
          "name": "_author",
          "type": "address"
        }
      ],
      "name": "getAuthorGifts",
      "outputs": [
        {
          "components": [
            {
              "internalType": "uint256",
              "name": "amount",
              "type": "uint256"
            },
            {
              "internalType": "uint256",
              "name": "articleIndex",
              "type": "uint256"
            },
            {
              "internalType": "string",
              "name": "articleTitle",
              "type": "string"
            },
            {
              "internalType": "address",
              "name": "sender",
              "type": "address"
            }
          ],
          "internalType": "struct Articles.Gift[]",
          "name": "",
          "type": "tuple[]"
        }
      ],
      "stateMutability": "view",
      "type": "function"
    },
    {
      "inputs": [
        {
          "internalType": "string",
          "name": "",
          "type": "string"
        }
      ],
      "name": "metadataToIndex",
      "outputs": [
        {
          "internalType": "uint256",
          "name": "",
          "type": "uint256"
        }
      ],
      "stateMutability": "view",
      "type": "function"
    },
    {
      "inputs": [],
      "name": "noOfArticles",
      "outputs": [
        {
          "internalType": "uint256",
          "name": "",
          "type": "uint256"
        }
      ],
      "stateMutability": "view",
      "type": "function"
    },
    {
      "inputs": [
        {
          "internalType": "string",
          "name": "_metadataId",
          "type": "string"
        }
      ],
      "name": "sendGift",
      "outputs": [],
      "stateMutability": "payable",
      "type": "function"
    }
  ],
  "bytecode": "0x608060405260006001553480156200001657600080fd5b5060405162002a4538038062002a4583398181016040528101906200003c9190620000ed565b806000806101000a81548173ffffffffffffffffffffffffffffffffffffffff021916908373ffffffffffffffffffffffffffffffffffffffff160217905550506200011f565b600080fd5b600073ffffffffffffffffffffffffffffffffffffffff82169050919050565b6000620000b58262000088565b9050919050565b620000c781620000a8565b8114620000d357600080fd5b50565b600081519050620000e781620000bc565b92915050565b60006020828403121562000106576200010562000083565b5b60006200011684828501620000d6565b91505092915050565b612916806200012f6000396000f3fe60806040526004361061009c5760003560e01c80636ecb5671116100645780636ecb567114610186578063a30dee8e146101c6578063a466666514610203578063b44d310b14610242578063c1cfe6a31461026d578063edcfafe6146102895761009c565b806318058066146100a15780632007c8f1146100de57806328d973c4146101095780633af38305146101345780636ec67ec91461015d575b600080fd5b3480156100ad57600080fd5b506100c860048036038101906100c391906117e7565b6102c9565b6040516100d591906119f1565b60405180910390f35b3480156100ea57600080fd5b506100f3610463565b6040516101009190611a22565b60405180910390f35b34801561011557600080fd5b5061011e610469565b60405161012b9190611b84565b60405180910390f35b34801561014057600080fd5b5061015b60048036038101906101569190611cdb565b610778565b005b34801561016957600080fd5b50610184600480360381019061017f9190611d24565b61090f565b005b34801561019257600080fd5b506101ad60048036038101906101a89190611dc8565b610b6b565b6040516101bd9493929190611e61565b60405180910390f35b3480156101d257600080fd5b506101ed60048036038101906101e89190611cdb565b610c60565b6040516101fa9190611a22565b60405180910390f35b34801561020f57600080fd5b5061022a60048036038101906102259190611cdb565b610c8e565b60405161023993929190611ead565b60405180910390f35b34801561024e57600080fd5b50610257610ee0565b6040516102649190611b84565b60405180910390f35b61028760048036038101906102829190611cdb565b6110d4565b005b34801561029557600080fd5b506102b060048036038101906102ab9190611ef2565b6115b8565b6040516102c09493929190611f2e565b60405180910390f35b6060600360008373ffffffffffffffffffffffffffffffffffffffff1673ffffffffffffffffffffffffffffffffffffffff168152602001908152602001600020805480602002602001604051908101604052809291908181526020016000905b828210156104585783829060005260206000209060040201604051806080016040529081600082015481526020016001820154815260200160028201805461037190611fb0565b80601f016020809104026020016040519081016040528092919081815260200182805461039d90611fb0565b80156103ea5780601f106103bf576101008083540402835291602001916103ea565b820191906000526020600020905b8154815290600101906020018083116103cd57829003601f168201915b505050505081526020016003820160009054906101000a900473ffffffffffffffffffffffffffffffffffffffff1673ffffffffffffffffffffffffffffffffffffffff1673ffffffffffffffffffffffffffffffffffffffff16815250508152602001906001019061032a565b505050509050919050565b60015481565b60606000805b6002805490508110156104d057600281815481106104905761048f611fe1565b5b906000526020600020906003020160020160149054906101000a900460ff16156104c35781806104bf9061203f565b9250505b808060010191505061046f565b5060008167ffffffffffffffff8111156104ed576104ec611bb0565b5b60405190808252806020026020018201604052801561052657816020015b610513611735565b81526020019060019003908161050b5790505b5090506000805b60028054905081101561076e576002818154811061054e5761054d611fe1565b5b906000526020600020906003020160020160149054906101000a900460ff1615610761576002818154811061058657610585611fe1565b5b90600052602060002090600302016040518060800160405290816000820180546105af90611fb0565b80601f01602080910402602001604051908101604052809291908181526020018280546105db90611fb0565b80156106285780601f106105fd57610100808354040283529160200191610628565b820191906000526020600020905b81548152906001019060200180831161060b57829003601f168201915b5050505050815260200160018201805461064190611fb0565b80601f016020809104026020016040519081016040528092919081815260200182805461066d90611fb0565b80156106ba5780601f1061068f576101008083540402835291602001916106ba565b820191906000526020600020905b81548152906001019060200180831161069d57829003601f168201915b505050505081526020016002820160009054906101000a900473ffffffffffffffffffffffffffffffffffffffff1673ffffffffffffffffffffffffffffffffffffffff1673ffffffffffffffffffffffffffffffffffffffff1681526020016002820160149054906101000a900460ff16151515158152505083838151811061074757610746611fe1565b5b6020026020010181905250818061075d9061203f565b9250505b808060010191505061052d565b5081935050505090565b600060048260405161078a91906120c3565b908152602001604051809103902054905060028054905081106107e2576040517f08c379a00000000000000000000000000000000000000000000000000000000081526004016107d990612126565b60405180910390fd5b6000600282815481106107f8576107f7611fe1565b5b906000526020600020906003020190503373ffffffffffffffffffffffffffffffffffffffff168160020160009054906101000a900473ffffffffffffffffffffffffffffffffffffffff1673ffffffffffffffffffffffffffffffffffffffff161461089a576040517f08c379a0000000000000000000000000000000000000000000000000000000008152600401610891906121b8565b60405180910390fd5b60008160020160146101000a81548160ff0219169083151502179055503373ffffffffffffffffffffffffffffffffffffffff167f251ba02580c0f7888627d8f8585db22375739105bb55d89230de115c5665a8b28483600001604051610902929190612271565b60405180910390a2505050565b60008060009054906101000a900473ffffffffffffffffffffffffffffffffffffffff1673ffffffffffffffffffffffffffffffffffffffff16630ab30093336040518263ffffffff1660e01b815260040161096b91906122a8565b600060405180830381865afa158015610988573d6000803e3d6000fd5b505050506040513d6000823e3d601f19601f820116820180604052508101906109b19190612405565b905080604001516109f7576040517f08c379a00000000000000000000000000000000000000000000000000000000081526004016109ee906124c0565b60405180910390fd5b600260405180608001604052808581526020018481526020013373ffffffffffffffffffffffffffffffffffffffff1681526020016001151581525090806001815401808255809150506001900390600052602060002090600302016000909190919091506000820151816000019081610a719190612677565b506020820151816001019081610a879190612677565b5060408201518160020160006101000a81548173ffffffffffffffffffffffffffffffffffffffff021916908373ffffffffffffffffffffffffffffffffffffffff16021790555060608201518160020160146101000a81548160ff021916908315150217905550505060006001600280549050610b059190612749565b905080600484604051610b1891906120c3565b9081526020016040518091039020819055507fdbfe1f82a77201b0c570aeab9388d9d6cfb93f73f7cd224b1ba1f6da66f27cac848433604051610b5d93929190611ead565b60405180910390a150505050565b60036020528160005260406000208181548110610b8757600080fd5b906000526020600020906004020160009150915050806000015490806001015490806002018054610bb790611fb0565b80601f0160208091040260200160405190810160405280929190818152602001828054610be390611fb0565b8015610c305780601f10610c0557610100808354040283529160200191610c30565b820191906000526020600020905b815481529060010190602001808311610c1357829003601f168201915b5050505050908060030160009054906101000a900473ffffffffffffffffffffffffffffffffffffffff16905084565b6004818051602081018201805184825260208301602085012081835280955050505050506000915090505481565b606080600080600485604051610ca491906120c3565b90815260200160405180910390205490506002805490508110610cfc576040517f08c379a0000000000000000000000000000000000000000000000000000000008152600401610cf390612126565b60405180910390fd5b600060028281548110610d1257610d11611fe1565b5b9060005260206000209060030201604051806080016040529081600082018054610d3b90611fb0565b80601f0160208091040260200160405190810160405280929190818152602001828054610d6790611fb0565b8015610db45780601f10610d8957610100808354040283529160200191610db4565b820191906000526020600020905b815481529060010190602001808311610d9757829003601f168201915b50505050508152602001600182018054610dcd90611fb0565b80601f0160208091040260200160405190810160405280929190818152602001828054610df990611fb0565b8015610e465780601f10610e1b57610100808354040283529160200191610e46565b820191906000526020600020905b815481529060010190602001808311610e2957829003601f168201915b505050505081526020016002820160009054906101000a900473ffffffffffffffffffffffffffffffffffffffff1673ffffffffffffffffffffffffffffffffffffffff1673ffffffffffffffffffffffffffffffffffffffff1681526020016002820160149054906101000a900460ff161515151581525050905080600001518160200151826040015194509450945050509193909250565b60606002805480602002602001604051908101604052809291908181526020016000905b828210156110cb5783829060005260206000209060030201604051806080016040529081600082018054610f3790611fb0565b80601f0160208091040260200160405190810160405280929190818152602001828054610f6390611fb0565b8015610fb05780601f10610f8557610100808354040283529160200191610fb0565b820191906000526020600020905b815481529060010190602001808311610f9357829003601f168201915b50505050508152602001600182018054610fc990611fb0565b80601f0160208091040260200160405190810160405280929190818152602001828054610ff590611fb0565b80156110425780601f1061101757610100808354040283529160200191611042565b820191906000526020600020905b81548152906001019060200180831161102557829003601f168201915b505050505081526020016002820160009054906101000a900473ffffffffffffffffffffffffffffffffffffffff1673ffffffffffffffffffffffffffffffffffffffff1673ffffffffffffffffffffffffffffffffffffffff1681526020016002820160149054906101000a900460ff16151515158152505081526020019060010190610f04565b50505050905090565b60006004826040516110e691906120c3565b9081526020016040518091039020549050600280549050811061113e576040517f08c379a000000000000000000000000000000000000000000000000000000000815260040161113590612126565b60405180910390fd5b60006002828154811061115457611153611fe1565b5b906000526020600020906003020160405180608001604052908160008201805461117d90611fb0565b80601f01602080910402602001604051908101604052809291908181526020018280546111a990611fb0565b80156111f65780601f106111cb576101008083540402835291602001916111f6565b820191906000526020600020905b8154815290600101906020018083116111d957829003601f168201915b5050505050815260200160018201805461120f90611fb0565b80601f016020809104026020016040519081016040528092919081815260200182805461123b90611fb0565b80156112885780601f1061125d57610100808354040283529160200191611288565b820191906000526020600020905b81548152906001019060200180831161126b57829003601f168201915b505050505081526020016002820160009054906101000a900473ffffffffffffffffffffffffffffffffffffffff1673ffffffffffffffffffffffffffffffffffffffff1673ffffffffffffffffffffffffffffffffffffffff1681526020016002820160149054906101000a900460ff1615151515815250509050600073ffffffffffffffffffffffffffffffffffffffff16816040015173ffffffffffffffffffffffffffffffffffffffff1603611377576040517f08c379a000000000000000000000000000000000000000000000000000000000815260040161136e906127c9565b60405180910390fd5b6000816040015173ffffffffffffffffffffffffffffffffffffffff16346040516113a19061281a565b60006040518083038185875af1925050503d80600081146113de576040519150601f19603f3d011682016040523d82523d6000602084013e6113e3565b606091505b5050905080611427576040517f08c379a000000000000000000000000000000000000000000000000000000000815260040161141e9061287b565b60405180910390fd5b60036000836040015173ffffffffffffffffffffffffffffffffffffffff1673ffffffffffffffffffffffffffffffffffffffff1681526020019081526020016000206040518060800160405280348152602001858152602001846000015181526020013373ffffffffffffffffffffffffffffffffffffffff168152509080600181540180825580915050600190039060005260206000209060040201600090919091909150600082015181600001556020820151816001015560408201518160020190816114f79190612677565b5060608201518160030160006101000a81548173ffffffffffffffffffffffffffffffffffffffff021916908373ffffffffffffffffffffffffffffffffffffffff1602179055505050816040015173ffffffffffffffffffffffffffffffffffffffff163373ffffffffffffffffffffffffffffffffffffffff167f0ef7669be53c413afce1737031993aa8b0c8362d29aa08d7f116f772139e2e05348786600001516040516115aa9392919061289b565b60405180910390a350505050565b600281815481106115c857600080fd5b90600052602060002090600302016000915090508060000180546115eb90611fb0565b80601f016020809104026020016040519081016040528092919081815260200182805461161790611fb0565b80156116645780601f1061163957610100808354040283529160200191611664565b820191906000526020600020905b81548152906001019060200180831161164757829003601f168201915b50505050509080600101805461167990611fb0565b80601f01602080910402602001604051908101604052809291908181526020018280546116a590611fb0565b80156116f25780601f106116c7576101008083540402835291602001916116f2565b820191906000526020600020905b8154815290600101906020018083116116d557829003601f168201915b5050505050908060020160009054906101000a900473ffffffffffffffffffffffffffffffffffffffff16908060020160149054906101000a900460ff16905084565b60405180608001604052806060815260200160608152602001600073ffffffffffffffffffffffffffffffffffffffff1681526020016000151581525090565b6000604051905090565b600080fd5b600080fd5b600073ffffffffffffffffffffffffffffffffffffffff82169050919050565b60006117b482611789565b9050919050565b6117c4816117a9565b81146117cf57600080fd5b50565b6000813590506117e1816117bb565b92915050565b6000602082840312156117fd576117fc61177f565b5b600061180b848285016117d2565b91505092915050565b600081519050919050565b600082825260208201905092915050565b6000819050602082019050919050565b6000819050919050565b61185381611840565b82525050565b600081519050919050565b600082825260208201905092915050565b60005b83811015611893578082015181840152602081019050611878565b60008484015250505050565b6000601f19601f8301169050919050565b60006118bb82611859565b6118c58185611864565b93506118d5818560208601611875565b6118de8161189f565b840191505092915050565b6118f2816117a9565b82525050565b6000608083016000830151611910600086018261184a565b506020830151611923602086018261184a565b506040830151848203604086015261193b82826118b0565b915050606083015161195060608601826118e9565b508091505092915050565b600061196783836118f8565b905092915050565b6000602082019050919050565b600061198782611814565b611991818561181f565b9350836020820285016119a385611830565b8060005b858110156119df57848403895281516119c0858261195b565b94506119cb8361196f565b925060208a019950506001810190506119a7565b50829750879550505050505092915050565b60006020820190508181036000830152611a0b818461197c565b905092915050565b611a1c81611840565b82525050565b6000602082019050611a376000830184611a13565b92915050565b600081519050919050565b600082825260208201905092915050565b6000819050602082019050919050565b60008115159050919050565b611a7e81611a69565b82525050565b60006080830160008301518482036000860152611aa182826118b0565b91505060208301518482036020860152611abb82826118b0565b9150506040830151611ad060408601826118e9565b506060830151611ae36060860182611a75565b508091505092915050565b6000611afa8383611a84565b905092915050565b6000602082019050919050565b6000611b1a82611a3d565b611b248185611a48565b935083602082028501611b3685611a59565b8060005b85811015611b725784840389528151611b538582611aee565b9450611b5e83611b02565b925060208a01995050600181019050611b3a565b50829750879550505050505092915050565b60006020820190508181036000830152611b9e8184611b0f565b905092915050565b600080fd5b600080fd5b7f4e487b7100000000000000000000000000000000000000000000000000000000600052604160045260246000fd5b611be88261189f565b810181811067ffffffffffffffff82111715611c0757611c06611bb0565b5b80604052505050565b6000611c1a611775565b9050611c268282611bdf565b919050565b600067ffffffffffffffff821115611c4657611c45611bb0565b5b611c4f8261189f565b9050602081019050919050565b82818337600083830152505050565b6000611c7e611c7984611c2b565b611c10565b905082815260208101848484011115611c9a57611c99611bab565b5b611ca5848285611c5c565b509392505050565b600082601f830112611cc257611cc1611ba6565b5b8135611cd2848260208601611c6b565b91505092915050565b600060208284031215611cf157611cf061177f565b5b600082013567ffffffffffffffff811115611d0f57611d0e611784565b5b611d1b84828501611cad565b91505092915050565b60008060408385031215611d3b57611d3a61177f565b5b600083013567ffffffffffffffff811115611d5957611d58611784565b5b611d6585828601611cad565b925050602083013567ffffffffffffffff811115611d8657611d85611784565b5b611d9285828601611cad565b9150509250929050565b611da581611840565b8114611db057600080fd5b50565b600081359050611dc281611d9c565b92915050565b60008060408385031215611ddf57611dde61177f565b5b6000611ded858286016117d2565b9250506020611dfe85828601611db3565b9150509250929050565b600082825260208201905092915050565b6000611e2482611859565b611e2e8185611e08565b9350611e3e818560208601611875565b611e478161189f565b840191505092915050565b611e5b816117a9565b82525050565b6000608082019050611e766000830187611a13565b611e836020830186611a13565b8181036040830152611e958185611e19565b9050611ea46060830184611e52565b95945050505050565b60006060820190508181036000830152611ec78186611e19565b90508181036020830152611edb8185611e19565b9050611eea6040830184611e52565b949350505050565b600060208284031215611f0857611f0761177f565b5b6000611f1684828501611db3565b91505092915050565b611f2881611a69565b82525050565b60006080820190508181036000830152611f488187611e19565b90508181036020830152611f5c8186611e19565b9050611f6b6040830185611e52565b611f786060830184611f1f565b95945050505050565b7f4e487b7100000000000000000000000000000000000000000000000000000000600052602260045260246000fd5b60006002820490506001821680611fc857607f821691505b602082108103611fdb57611fda611f81565b5b50919050565b7f4e487b7100000000000000000000000000000000000000000000000000000000600052603260045260246000fd5b7f4e487b7100000000000000000000000000000000000000000000000000000000600052601160045260246000fd5b600061204a82611840565b91507fffffffffffffffffffffffffffffffffffffffffffffffffffffffffffffffff820361207c5761207b612010565b5b600182019050919050565b600081905092915050565b600061209d82611859565b6120a78185612087565b93506120b7818560208601611875565b80840191505092915050565b60006120cf8284612092565b915081905092915050565b7f41727469636c6520646f6573206e6f7420657869737400000000000000000000600082015250565b6000612110601683611e08565b915061211b826120da565b602082019050919050565b6000602082019050818103600083015261213f81612103565b9050919050565b7f4f6e6c792074686520617574686f722063616e2064656c65746520746865206160008201527f727469636c650000000000000000000000000000000000000000000000000000602082015250565b60006121a2602683611e08565b91506121ad82612146565b604082019050919050565b600060208201905081810360008301526121d181612195565b9050919050565b60008190508160005260206000209050919050565b600081546121fa81611fb0565b6122048186611e08565b9450600182166000811461221f576001811461223557612268565b60ff198316865281151560200286019350612268565b61223e856121d8565b60005b8381101561226057815481890152600182019150602081019050612241565b808801955050505b50505092915050565b6000604082019050818103600083015261228b8185611e19565b9050818103602083015261229f81846121ed565b90509392505050565b60006020820190506122bd6000830184611e52565b92915050565b600080fd5b600080fd5b60006122e06122db84611c2b565b611c10565b9050828152602081018484840111156122fc576122fb611bab565b5b612307848285611875565b509392505050565b600082601f83011261232457612323611ba6565b5b81516123348482602086016122cd565b91505092915050565b61234681611a69565b811461235157600080fd5b50565b6000815190506123638161233d565b92915050565b60006060828403121561237f5761237e6122c3565b5b6123896060611c10565b9050600082015167ffffffffffffffff8111156123a9576123a86122c8565b5b6123b58482850161230f565b600083015250602082015167ffffffffffffffff8111156123d9576123d86122c8565b5b6123e58482850161230f565b60208301525060406123f984828501612354565b60408301525092915050565b60006020828403121561241b5761241a61177f565b5b600082015167ffffffffffffffff81111561243957612438611784565b5b61244584828501612369565b91505092915050565b7f4f6e6c79207265676973746572656420617574686f72732063616e206164642060008201527f61727469636c6573000000000000000000000000000000000000000000000000602082015250565b60006124aa602883611e08565b91506124b58261244e565b604082019050919050565b600060208201905081810360008301526124d98161249d565b9050919050565b60006020601f8301049050919050565b600082821b905092915050565b60006008830261252d7fffffffffffffffffffffffffffffffffffffffffffffffffffffffffffffffff826124f0565b61253786836124f0565b95508019841693508086168417925050509392505050565b6000819050919050565b600061257461256f61256a84611840565b61254f565b611840565b9050919050565b6000819050919050565b61258e83612559565b6125a261259a8261257b565b8484546124fd565b825550505050565b600090565b6125b76125aa565b6125c2818484612585565b505050565b5b818110156125e6576125db6000826125af565b6001810190506125c8565b5050565b601f82111561262b576125fc816121d8565b612605846124e0565b81016020851015612614578190505b612628612620856124e0565b8301826125c7565b50505b505050565b600082821c905092915050565b600061264e60001984600802612630565b1980831691505092915050565b6000612667838361263d565b9150826002028217905092915050565b61268082611859565b67ffffffffffffffff81111561269957612698611bb0565b5b6126a38254611fb0565b6126ae8282856125ea565b600060209050601f8311600181146126e157600084156126cf578287015190505b6126d9858261265b565b865550612741565b601f1984166126ef866121d8565b60005b82811015612717578489015182556001820191506020850194506020810190506126f2565b868310156127345784890151612730601f89168261263d565b8355505b6001600288020188555050505b505050505050565b600061275482611840565b915061275f83611840565b925082820390508181111561277757612776612010565b5b92915050565b7f496e76616c696420617574686f72206164647265737300000000000000000000600082015250565b60006127b3601683611e08565b91506127be8261277d565b602082019050919050565b600060208201905081810360008301526127e2816127a6565b9050919050565b600081905092915050565b50565b60006128046000836127e9565b915061280f826127f4565b600082019050919050565b6000612825826127f7565b9150819050919050565b7f47696674207472616e73666572206661696c6564000000000000000000000000600082015250565b6000612865601483611e08565b91506128708261282f565b602082019050919050565b6000602082019050818103600083015261289481612858565b9050919050565b60006060820190506128b06000830186611a13565b81810360208301526128c28185611e19565b905081810360408301526128d68184611e19565b905094935050505056fea26469706673582212208056f3da6d5a89bef1ae03cc1edd9d3553edab4d55974659ea97dc7e4a0cf12e64736f6c63430008180033",
  "linkReferences": {},
  "deployedLinkReferences": {}
}