{
  "_format": "hh-sol-artifact-1",
  "contractName": "Authors",
  "sourceName": "contracts/Author.sol",
  "abi": [
    {
      "anonymous": false,
      "inputs": [
        {
          "indexed": true,
          "internalType": "address",
          "name": "authorAddress",
          "type": "address"
        },
        {
          "indexed": false,
          "internalType": "string",
          "name": "name",
          "type": "string"
        },
        {
          "indexed": false,
          "internalType": "string",
          "name": "title",
          "type": "string"
        }
      ],
      "name": "AuthorAdded",
      "type": "event"
    },
    {
      "inputs": [
        {
          "internalType": "string",
          "name": "_name",
          "type": "string"
        },
        {
          "internalType": "string",
          "name": "_title",
          "type": "string"
        }
      ],
      "name": "addAuthor",
      "outputs": [],
      "stateMutability": "nonpayable",
      "type": "function"
    },
    {
      "inputs": [
        {
          "internalType": "uint256",
          "name": "",
          "type": "uint256"
        }
      ],
      "name": "authorAddresses",
      "outputs": [
        {
          "internalType": "address",
          "name": "",
          "type": "address"
        }
      ],
      "stateMutability": "view",
      "type": "function"
    },
    {
      "inputs": [
        {
          "internalType": "address",
          "name": "",
          "type": "address"
        }
      ],
      "name": "authors",
      "outputs": [
        {
          "internalType": "string",
          "name": "name",
          "type": "string"
        },
        {
          "internalType": "string",
          "name": "title",
          "type": "string"
        },
        {
          "internalType": "bool",
          "name": "exists",
          "type": "bool"
        }
      ],
      "stateMutability": "view",
      "type": "function"
    },
    {
      "inputs": [],
      "name": "getAllAuthors",
      "outputs": [
        {
          "internalType": "address[]",
          "name": "",
          "type": "address[]"
        }
      ],
      "stateMutability": "view",
      "type": "function"
    },
    {
      "inputs": [
        {
          "internalType": "address",
          "name": "_authorAddress",
          "type": "address"
        }
      ],
      "name": "getAuthor",
      "outputs": [
        {
          "components": [
            {
              "internalType": "string",
              "name": "name",
              "type": "string"
            },
            {
              "internalType": "string",
              "name": "title",
              "type": "string"
            },
            {
              "internalType": "bool",
              "name": "exists",
              "type": "bool"
            }
          ],
          "internalType": "struct Authors.Author",
          "name": "",
          "type": "tuple"
        }
      ],
      "stateMutability": "view",
      "type": "function"
    },
    {
      "inputs": [],
      "name": "noOfAuthors",
      "outputs": [
        {
          "internalType": "uint256",
          "name": "",
          "type": "uint256"
        }
      ],
      "stateMutability": "view",
      "type": "function"
    }
  ],
  "bytecode": "0x60806040526000805534801561001457600080fd5b50611204806100246000396000f3fe608060405234801561001057600080fd5b50600436106100625760003560e01c80630ab3009314610067578063228ea0f6146100975780634a56dd58146100b55780635d7869e4146100d15780639692f5f4146100ef578063bf9c50011461011f575b600080fd5b610081600480360381019061007c9190610837565b610151565b60405161008e9190610966565b60405180910390f35b61009f61037e565b6040516100ac91906109a1565b60405180910390f35b6100cf60048036038101906100ca9190610af1565b610384565b005b6100d961058e565b6040516100e69190610c27565b60405180910390f35b61010960048036038101906101049190610c75565b61061c565b6040516101169190610cb1565b60405180910390f35b61013960048036038101906101349190610837565b61065b565b60405161014893929190610d25565b60405180910390f35b6101596107a2565b600260008373ffffffffffffffffffffffffffffffffffffffff1673ffffffffffffffffffffffffffffffffffffffff16815260200190815260200160002060020160009054906101000a900460ff166101e8576040517f08c379a00000000000000000000000000000000000000000000000000000000081526004016101df90610db6565b60405180910390fd5b6000600260008473ffffffffffffffffffffffffffffffffffffffff1673ffffffffffffffffffffffffffffffffffffffff16815260200190815260200160002060405180606001604052908160008201805461024490610e05565b80601f016020809104026020016040519081016040528092919081815260200182805461027090610e05565b80156102bd5780601f10610292576101008083540402835291602001916102bd565b820191906000526020600020905b8154815290600101906020018083116102a057829003601f168201915b505050505081526020016001820180546102d690610e05565b80601f016020809104026020016040519081016040528092919081815260200182805461030290610e05565b801561034f5780601f106103245761010080835404028352916020019161034f565b820191906000526020600020905b81548152906001019060200180831161033257829003601f168201915b505050505081526020016002820160009054906101000a900460ff161515151581525050905080915050919050565b60005481565b600260003373ffffffffffffffffffffffffffffffffffffffff1673ffffffffffffffffffffffffffffffffffffffff16815260200190815260200160002060020160009054906101000a900460ff1615610414576040517f08c379a000000000000000000000000000000000000000000000000000000000815260040161040b90610e82565b60405180910390fd5b60008081548092919061042690610ed1565b9190505550604051806060016040528083815260200182815260200160011515815250600260003373ffffffffffffffffffffffffffffffffffffffff1673ffffffffffffffffffffffffffffffffffffffff168152602001908152602001600020600082015181600001908161049d91906110c5565b5060208201518160010190816104b391906110c5565b5060408201518160020160006101000a81548160ff0219169083151502179055509050506001339080600181540180825580915050600190039060005260206000200160009091909190916101000a81548173ffffffffffffffffffffffffffffffffffffffff021916908373ffffffffffffffffffffffffffffffffffffffff1602179055503373ffffffffffffffffffffffffffffffffffffffff167f7684f961e9f2fba83a8b498e45c72cfa5302033c5a60c3a2e2a08f214598e00f8383604051610582929190611197565b60405180910390a25050565b6060600180548060200260200160405190810160405280929190818152602001828054801561061257602002820191906000526020600020905b8160009054906101000a900473ffffffffffffffffffffffffffffffffffffffff1673ffffffffffffffffffffffffffffffffffffffff16815260200190600101908083116105c8575b5050505050905090565b6001818154811061062c57600080fd5b906000526020600020016000915054906101000a900473ffffffffffffffffffffffffffffffffffffffff1681565b600260205280600052604060002060009150905080600001805461067e90610e05565b80601f01602080910402602001604051908101604052809291908181526020018280546106aa90610e05565b80156106f75780601f106106cc576101008083540402835291602001916106f7565b820191906000526020600020905b8154815290600101906020018083116106da57829003601f168201915b50505050509080600101805461070c90610e05565b80601f016020809104026020016040519081016040528092919081815260200182805461073890610e05565b80156107855780601f1061075a57610100808354040283529160200191610785565b820191906000526020600020905b81548152906001019060200180831161076857829003601f168201915b5050505050908060020160009054906101000a900460ff16905083565b604051806060016040528060608152602001606081526020016000151581525090565b6000604051905090565b600080fd5b600080fd5b600073ffffffffffffffffffffffffffffffffffffffff82169050919050565b6000610804826107d9565b9050919050565b610814816107f9565b811461081f57600080fd5b50565b6000813590506108318161080b565b92915050565b60006020828403121561084d5761084c6107cf565b5b600061085b84828501610822565b91505092915050565b600081519050919050565b600082825260208201905092915050565b60005b8381101561089e578082015181840152602081019050610883565b60008484015250505050565b6000601f19601f8301169050919050565b60006108c682610864565b6108d0818561086f565b93506108e0818560208601610880565b6108e9816108aa565b840191505092915050565b60008115159050919050565b610909816108f4565b82525050565b6000606083016000830151848203600086015261092c82826108bb565b9150506020830151848203602086015261094682826108bb565b915050604083015161095b6040860182610900565b508091505092915050565b60006020820190508181036000830152610980818461090f565b905092915050565b6000819050919050565b61099b81610988565b82525050565b60006020820190506109b66000830184610992565b92915050565b600080fd5b600080fd5b7f4e487b7100000000000000000000000000000000000000000000000000000000600052604160045260246000fd5b6109fe826108aa565b810181811067ffffffffffffffff82111715610a1d57610a1c6109c6565b5b80604052505050565b6000610a306107c5565b9050610a3c82826109f5565b919050565b600067ffffffffffffffff821115610a5c57610a5b6109c6565b5b610a65826108aa565b9050602081019050919050565b82818337600083830152505050565b6000610a94610a8f84610a41565b610a26565b905082815260208101848484011115610ab057610aaf6109c1565b5b610abb848285610a72565b509392505050565b600082601f830112610ad857610ad76109bc565b5b8135610ae8848260208601610a81565b91505092915050565b60008060408385031215610b0857610b076107cf565b5b600083013567ffffffffffffffff811115610b2657610b256107d4565b5b610b3285828601610ac3565b925050602083013567ffffffffffffffff811115610b5357610b526107d4565b5b610b5f85828601610ac3565b9150509250929050565b600081519050919050565b600082825260208201905092915050565b6000819050602082019050919050565b610b9e816107f9565b82525050565b6000610bb08383610b95565b60208301905092915050565b6000602082019050919050565b6000610bd482610b69565b610bde8185610b74565b9350610be983610b85565b8060005b83811015610c1a578151610c018882610ba4565b9750610c0c83610bbc565b925050600181019050610bed565b5085935050505092915050565b60006020820190508181036000830152610c418184610bc9565b905092915050565b610c5281610988565b8114610c5d57600080fd5b50565b600081359050610c6f81610c49565b92915050565b600060208284031215610c8b57610c8a6107cf565b5b6000610c9984828501610c60565b91505092915050565b610cab816107f9565b82525050565b6000602082019050610cc66000830184610ca2565b92915050565b600082825260208201905092915050565b6000610ce882610864565b610cf28185610ccc565b9350610d02818560208601610880565b610d0b816108aa565b840191505092915050565b610d1f816108f4565b82525050565b60006060820190508181036000830152610d3f8186610cdd565b90508181036020830152610d538185610cdd565b9050610d626040830184610d16565b949350505050565b7f417574686f7220646f6573206e6f742065786973740000000000000000000000600082015250565b6000610da0601583610ccc565b9150610dab82610d6a565b602082019050919050565b60006020820190508181036000830152610dcf81610d93565b9050919050565b7f4e487b7100000000000000000000000000000000000000000000000000000000600052602260045260246000fd5b60006002820490506001821680610e1d57607f821691505b602082108103610e3057610e2f610dd6565b5b50919050565b7f417574686f7220616c7265616479206578697374730000000000000000000000600082015250565b6000610e6c601583610ccc565b9150610e7782610e36565b602082019050919050565b60006020820190508181036000830152610e9b81610e5f565b9050919050565b7f4e487b7100000000000000000000000000000000000000000000000000000000600052601160045260246000fd5b6000610edc82610988565b91507fffffffffffffffffffffffffffffffffffffffffffffffffffffffffffffffff8203610f0e57610f0d610ea2565b5b600182019050919050565b60008190508160005260206000209050919050565b60006020601f8301049050919050565b600082821b905092915050565b600060088302610f7b7fffffffffffffffffffffffffffffffffffffffffffffffffffffffffffffffff82610f3e565b610f858683610f3e565b95508019841693508086168417925050509392505050565b6000819050919050565b6000610fc2610fbd610fb884610988565b610f9d565b610988565b9050919050565b6000819050919050565b610fdc83610fa7565b610ff0610fe882610fc9565b848454610f4b565b825550505050565b600090565b611005610ff8565b611010818484610fd3565b505050565b5b8181101561103457611029600082610ffd565b600181019050611016565b5050565b601f8211156110795761104a81610f19565b61105384610f2e565b81016020851015611062578190505b61107661106e85610f2e565b830182611015565b50505b505050565b600082821c905092915050565b600061109c6000198460080261107e565b1980831691505092915050565b60006110b5838361108b565b9150826002028217905092915050565b6110ce82610864565b67ffffffffffffffff8111156110e7576110e66109c6565b5b6110f18254610e05565b6110fc828285611038565b600060209050601f83116001811461112f576000841561111d578287015190505b61112785826110a9565b86555061118f565b601f19841661113d86610f19565b60005b8281101561116557848901518255600182019150602085019450602081019050611140565b86831015611182578489015161117e601f89168261108b565b8355505b6001600288020188555050505b505050505050565b600060408201905081810360008301526111b18185610cdd565b905081810360208301526111c58184610cdd565b9050939250505056fea2646970667358221220acd40c76fea4cab432a4cce080a172027fab7137638da3d7229c65a150a588f164736f6c63430008180033",
  "linkReferences": {},
  "deployedLinkReferences": {}
}